{"abi":[{"type":"constructor","inputs":[{"name":"_admins","type":"address[]","internalType":"address[]"},{"name":"_numSignatures","type":"uint256","internalType":"uint256"}],"stateMutability":"nonpayable"},{"type":"fallback","stateMutability":"payable"},{"type":"receive","stateMutability":"payable"},{"type":"function","name":"addAdmin","inputs":[{"name":"_newAdmin","type":"address","internalType":"address"}],"outputs":[],"stateMutability":"nonpayable"},{"type":"function","name":"adminHasSigned","inputs":[{"name":"txIndex","type":"uint256","internalType":"uint256"},{"name":"admin","type":"address","internalType":"address"}],"outputs":[{"name":"","type":"bool","internalType":"bool"}],"stateMutability":"view"},{"type":"function","name":"cancelTransaction","inputs":[{"name":"_txIndex","type":"uint256","internalType":"uint256"}],"outputs":[],"stateMutability":"nonpayable"},{"type":"function","name":"changeSignaturesRequired","inputs":[{"name":"_newSigsRequired","type":"uint256","internalType":"uint256"}],"outputs":[],"stateMutability":"nonpayable"},{"type":"function","name":"executeTransaction","inputs":[{"name":"_txIndex","type":"uint256","internalType":"uint256"}],"outputs":[],"stateMutability":"nonpayable"},{"type":"function","name":"getAdmins","inputs":[],"outputs":[{"name":"","type":"address[]","internalType":"address[]"}],"stateMutability":"view"},{"type":"function","name":"getAllTransactions","inputs":[],"outputs":[{"name":"","type":"tuple[]","internalType":"struct Governor.Transaction[]","components":[{"name":"to","type":"address","internalType":"address"},{"name":"value","type":"uint256","internalType":"uint256"},{"name":"data","type":"bytes","internalType":"bytes"},{"name":"proposedBy","type":"address","internalType":"address"},{"name":"active","type":"bool","internalType":"bool"},{"name":"executed","type":"bool","internalType":"bool"},{"name":"numSignatures","type":"uint8","internalType":"uint8"}]}],"stateMutability":"view"},{"type":"function","name":"getTransaction","inputs":[{"name":"txIndex","type":"uint256","internalType":"uint256"}],"outputs":[{"name":"","type":"tuple","internalType":"struct Governor.Transaction","components":[{"name":"to","type":"address","internalType":"address"},{"name":"value","type":"uint256","internalType":"uint256"},{"name":"data","type":"bytes","internalType":"bytes"},{"name":"proposedBy","type":"address","internalType":"address"},{"name":"active","type":"bool","internalType":"bool"},{"name":"executed","type":"bool","internalType":"bool"},{"name":"numSignatures","type":"uint8","internalType":"uint8"}]}],"stateMutability":"view"},{"type":"function","name":"isAdmin","inputs":[{"name":"","type":"address","internalType":"address"}],"outputs":[{"name":"","type":"bool","internalType":"bool"}],"stateMutability":"view"},{"type":"function","name":"proposeTransaction","inputs":[{"name":"_to","type":"address","internalType":"address"},{"name":"_value","type":"uint256","internalType":"uint256"},{"name":"_data","type":"bytes","internalType":"bytes"}],"outputs":[{"name":"","type":"uint256","internalType":"uint256"}],"stateMutability":"nonpayable"},{"type":"function","name":"removeAdmin","inputs":[{"name":"_toRemove","type":"address","internalType":"address"}],"outputs":[],"stateMutability":"nonpayable"},{"type":"function","name":"revokeSignature","inputs":[{"name":"_txIndex","type":"uint256","internalType":"uint256"}],"outputs":[],"stateMutability":"nonpayable"},{"type":"function","name":"signTransaction","inputs":[{"name":"_txIndex","type":"uint256","internalType":"uint256"}],"outputs":[],"stateMutability":"nonpayable"},{"type":"function","name":"signaturesRequired","inputs":[],"outputs":[{"name":"","type":"uint256","internalType":"uint256"}],"stateMutability":"view"},{"type":"event","name":"AdminAdded","inputs":[{"name":"newAdmin","type":"address","indexed":false,"internalType":"address"}],"anonymous":false},{"type":"event","name":"AdminRemoved","inputs":[{"name":"adminRemoved","type":"address","indexed":false,"internalType":"address"}],"anonymous":false},{"type":"event","name":"SignatureRevoked","inputs":[{"name":"txIndex","type":"uint256","indexed":false,"internalType":"uint256"},{"name":"admin","type":"address","indexed":false,"internalType":"address"},{"name":"numSignatures","type":"uint256","indexed":false,"internalType":"uint256"}],"anonymous":false},{"type":"event","name":"SignaturesRequiredChanged","inputs":[{"name":"signaturesRequired","type":"uint256","indexed":false,"internalType":"uint256"}],"anonymous":false},{"type":"event","name":"TransactionCancelled","inputs":[{"name":"txIndex","type":"uint256","indexed":false,"internalType":"uint256"}],"anonymous":false},{"type":"event","name":"TransactionExecuted","inputs":[{"name":"txIndex","type":"uint256","indexed":false,"internalType":"uint256"},{"name":"to","type":"address","indexed":false,"internalType":"address"},{"name":"value","type":"uint256","indexed":false,"internalType":"uint256"},{"name":"data","type":"bytes","indexed":false,"internalType":"bytes"}],"anonymous":false},{"type":"event","name":"TransactionProposed","inputs":[{"name":"txIndex","type":"uint256","indexed":false,"internalType":"uint256"},{"name":"to","type":"address","indexed":false,"internalType":"address"},{"name":"value","type":"uint256","indexed":false,"internalType":"uint256"},{"name":"data","type":"bytes","indexed":false,"internalType":"bytes"},{"name":"proposedBy","type":"address","indexed":false,"internalType":"address"}],"anonymous":false},{"type":"event","name":"TransactionSigned","inputs":[{"name":"txIndex","type":"uint256","indexed":false,"internalType":"uint256"},{"name":"admin","type":"address","indexed":false,"internalType":"address"},{"name":"numSignatures","type":"uint256","indexed":false,"internalType":"uint256"}],"anonymous":false},{"type":"error","name":"Governor__AddressIsNotAdmin","inputs":[]},{"type":"error","name":"Governor__DuplicateAdminAddress","inputs":[]},{"type":"error","name":"Governor__DuplicateSignature","inputs":[]},{"type":"error","name":"Governor__InsufficientSignatures","inputs":[]},{"type":"error","name":"Governor__OnlyAdmin","inputs":[]},{"type":"error","name":"Governor__OnlyGovernor","inputs":[]},{"type":"error","name":"Governor__OnlyProposerCanCancel","inputs":[]},{"type":"error","name":"Governor__TooFewSignaturesRequired","inputs":[]},{"type":"error","name":"Governor__TooManySignaturesRequired","inputs":[]},{"type":"error","name":"Governor__TransactionFailed","inputs":[]},{"type":"error","name":"Governor__TransactionNotActive","inputs":[]},{"type":"error","name":"Governor__TwoAdminMinimum","inputs":[]},{"type":"error","name":"Governor__UserHasNotSigned","inputs":[]},{"type":"error","name":"Governor__ZeroAddress","inputs":[]}],"bytecode":{"object":"0x60806040523480156200001157600080fd5b5060405162001bf238038062001bf28339810160408190526200003491620001df565b60005b825181101562000081576200006e8382815181106200005a576200005a620002b9565b60200260200101516200009c60201b60201c565b6200007981620002cf565b905062000037565b506001546200009290829062000163565b60005550620002f7565b6001600160a01b03811660009081526002602052604090205460ff1615620000d757604051632ea44c2360e11b815260040160405180910390fd5b6001600160a01b038116620000ff576040516357588ba560e11b815260040160405180910390fd5b6001805480820182557fb10e2d527612073b26eecdfd717e6a320cf44b4afac2b0732d9fcbe2b7fa0cf60180546001600160a01b039093166001600160a01b031990931683179055600091825260026020526040909120805460ff19169091179055565b8082111562000185576040516350fd467560e11b815260040160405180910390fd5b6002821015620001a8576040516304faeb2360e51b815260040160405180910390fd5b5050565b634e487b7160e01b600052604160045260246000fd5b80516001600160a01b0381168114620001da57600080fd5b919050565b60008060408385031215620001f357600080fd5b82516001600160401b03808211156200020b57600080fd5b818501915085601f8301126200022057600080fd5b8151602082821115620002375762000237620001ac565b8160051b604051601f19603f830116810181811086821117156200025f576200025f620001ac565b6040529283528183019350848101820192898411156200027e57600080fd5b948201945b83861015620002a7576200029786620001c2565b8552948201949382019362000283565b97909101519698969750505050505050565b634e487b7160e01b600052603260045260246000fd5b600060018201620002f057634e487b7160e01b600052601160045260246000fd5b5060010190565b6118eb80620003076000396000f3fe6080604052600436106100d55760003560e01c80633da1f79a11610079578063704802751161005657806370480275146102625780639c037c3c14610282578063ce757d29146102a2578063ee22610b146102b857005b80633da1f79a146101f45780635d9ec210146102145780635e90852d1461023457005b8063297b4c2c116100b2578063297b4c2c1461016557806331ae450b146101855780633380c0d8146101a757806333ea3dc8146101c757005b80631785f53c146100de57806324d7806c146100fe57806327506f531461014357005b366100dc57005b005b3480156100ea57600080fd5b506100dc6100f93660046112c6565b6102d8565b34801561010a57600080fd5b5061012e6101193660046112c6565b60026020526000908152604090205460ff1681565b60405190151581526020015b60405180910390f35b34801561014f57600080fd5b506101586104e8565b60405161013a91906113b1565b34801561017157600080fd5b506100dc610180366004611413565b610649565b34801561019157600080fd5b5061019a6106ac565b60405161013a919061142c565b3480156101b357600080fd5b506100dc6101c2366004611413565b61070e565b3480156101d357600080fd5b506101e76101e2366004611413565b61082b565b60405161013a9190611479565b34801561020057600080fd5b506100dc61020f366004611413565b6109a8565b34801561022057600080fd5b506100dc61022f366004611413565b610b31565b34801561024057600080fd5b5061025461024f36600461148c565b610ce6565b60405190815260200161013a565b34801561026e57600080fd5b506100dc61027d3660046112c6565b610f3d565b34801561028e57600080fd5b5061012e61029d366004611513565b610f9f565b3480156102ae57600080fd5b5061025460005481565b3480156102c457600080fd5b506100dc6102d3366004611413565b610fcc565b3330146102f85760405163b6a915b760e01b815260040160405180910390fd5b6001600160a01b03811660009081526002602052604090205460ff1661033157604051633e43c45560e01b815260040160405180910390fd5b6001805460029161034191611555565b101561036057604051630e79522560e41b815260040160405180910390fd5b6001600160a01b0381166000908152600260205260408120805460ff191690555b60015481101561049457816001600160a01b0316600182815481106103a8576103a8611568565b6000918252602090912001546001600160a01b03160361048457600180546103d09190611555565b811461045057600180546103e5908290611555565b815481106103f5576103f5611568565b600091825260209091200154600180546001600160a01b03909216918390811061042157610421611568565b9060005260206000200160006101000a8154816001600160a01b0302191690836001600160a01b031602179055505b60018054806104615761046161157e565b600082815260209020810160001990810180546001600160a01b03191690550190555b61048d81611594565b9050610381565b5060015460005411156104a8576001546000555b6040516001600160a01b03821681527fa3b62bc36326052d97ea62d63c3d60308ed4c3ea8ac079dd8499f1e9c4f80c0f906020015b60405180910390a150565b60606003805480602002602001604051908101604052809291908181526020016000905b828210156106405760008481526020908190206040805160e0810182526004860290920180546001600160a01b031683526001810154938301939093526002830180549293929184019161055f906115ad565b80601f016020809104026020016040519081016040528092919081815260200182805461058b906115ad565b80156105d85780601f106105ad576101008083540402835291602001916105d8565b820191906000526020600020905b8154815290600101906020018083116105bb57829003601f168201915b5050509183525050600391909101546001600160a01b03811660208084019190915260ff600160a01b8304811615156040850152600160a81b8304811615156060850152600160b01b909204909116608090920191909152908252600192909201910161050c565b50505050905090565b3330146106695760405163b6a915b760e01b815260040160405180910390fd5b60015461067790829061119e565b60008190556040518181527f6e78f9709a40d80cb630566b78e588dc218d3e1f648faf3ef910f7d11fa52713906020016104dd565b6060600180548060200260200160405190810160405280929190818152602001828054801561070457602002820191906000526020600020905b81546001600160a01b031681526001909101906020018083116106e6575b5050505050905090565b3360009081526002602052604090205460ff1661073e5760405163710946cb60e11b815260040160405180910390fd5b806003818154811061075257610752611568565b906000526020600020906004020160030160149054906101000a900460ff1661078e5760405163c43a8a9160e01b815260040160405180910390fd5b6000600383815481106107a3576107a3611568565b6000918252602090912060049091020160038101549091506001600160a01b031633146107e35760405163e49eb56160e01b815260040160405180910390fd5b60038101805460ff60a01b191690556040518381527f956fb32199d8b882b2039a14e1be35ab14f7a80b9089fc223f14b43937173e60906020015b60405180910390a1505050565b6040805160e08101825260008082526020820181905260609282018390529181018290526080810182905260a0810182905260c08101919091526003828154811061087857610878611568565b90600052602060002090600402016040518060e00160405290816000820160009054906101000a90046001600160a01b03166001600160a01b03166001600160a01b03168152602001600182015481526020016002820180546108da906115ad565b80601f0160208091040260200160405190810160405280929190818152602001828054610906906115ad565b80156109535780601f1061092857610100808354040283529160200191610953565b820191906000526020600020905b81548152906001019060200180831161093657829003601f168201915b5050509183525050600391909101546001600160a01b038116602083015260ff600160a01b8204811615156040840152600160a81b8204811615156060840152600160b01b9091041660809091015292915050565b3360009081526002602052604090205460ff166109d85760405163710946cb60e11b815260040160405180910390fd5b80600381815481106109ec576109ec611568565b906000526020600020906004020160030160149054906101000a900460ff16610a285760405163c43a8a9160e01b815260040160405180910390fd5b600082815260046020908152604080832033845290915290205460ff16610a62576040516334ec4fe360e21b815260040160405180910390fd5b600060038381548110610a7757610a77611568565b9060005260206000209060040201905060018160030160168282829054906101000a900460ff16610aa891906115e7565b82546101009290920a60ff81810219909316918316021790915560008581526004602090815260408083203380855290835292819020805460ff191690556003860154815189815292830193909352600160b01b909204909216908201527ffbbda019ddace25510873f2cf5073cc1895af4dace5fa94e134007a4a329c520915060600161081e565b3360009081526002602052604090205460ff16610b615760405163710946cb60e11b815260040160405180910390fd5b8060038181548110610b7557610b75611568565b906000526020600020906004020160030160149054906101000a900460ff16610bb15760405163c43a8a9160e01b815260040160405180910390fd5b600082815260046020908152604080832033845290915290205460ff1615610bec576040516301a7f72d60e11b815260040160405180910390fd5b600060038381548110610c0157610c01611568565b9060005260206000209060040201905060018160030160168282829054906101000a900460ff16610c329190611600565b82546101009290920a60ff81810219909316918316021790915560008581526004602090815260408083203380855290835292819020805460ff191660011790556003860154815189815292830193909352600160b01b909204909216908201527fb95f07364e4e3a5387406f8a67472b438bab34160ed31971d0bf57bd119fa58b915060600160405180910390a16000546003820154600160b01b900460ff1610610ce157610ce183610fcc565b505050565b3360009081526002602052604081205460ff16610d165760405163710946cb60e11b815260040160405180910390fd5b6003546040805160e081018252606081830181905260009082018190526080820181905260a0820181905260c08201526001600160a01b038816815260208082018890528251601f8701829004820281018201909352858352909190869086908190840183828082843760009201829052506040860194855233606087015260016080870181905260c0870181905260038054918201815590915285517fc2575a0e9e593c00f959f8c92f12db2869c3395a3b0502d05e2516446f71f85b600490920291820180546001600160a01b0319166001600160a01b0390921691909117815560208701517fc2575a0e9e593c00f959f8c92f12db2869c3395a3b0502d05e2516446f71f85c8301559451869594507fc2575a0e9e593c00f959f8c92f12db2869c3395a3b0502d05e2516446f71f85d9091019250610e5991508261167d565b50606082015160039091018054608084015160a085015160c09095015160ff16600160b01b0260ff60b01b19951515600160a81b029590951661ffff60a81b19911515600160a01b026001600160a81b03199093166001600160a01b03909516949094179190911716919091179190911790556040517fea4cdd707cb86aeeedc1ff98b5ff3ea7bb0f679aba24ae60449cf09452c2c64d90610f069084908a908a908a908a90339061173d565b60405180910390a15060008181526004602090815260408083203384529091529020805460ff191660011790559050949350505050565b333014610f5d5760405163b6a915b760e01b815260040160405180910390fd5b610f66816111e5565b6040516001600160a01b03821681527f44d6d25963f097ad14f29f06854a01f575648a1ef82f30e562ccd3889717e339906020016104dd565b60008281526004602090815260408083206001600160a01b038516845290915290205460ff165b92915050565b3360009081526002602052604090205460ff16610ffc5760405163710946cb60e11b815260040160405180910390fd5b806003818154811061101057611010611568565b906000526020600020906004020160030160149054906101000a900460ff1661104c5760405163c43a8a9160e01b815260040160405180910390fd5b60006003838154811061106157611061611568565b906000526020600020906004020190506000548160030160169054906101000a900460ff1660ff1610156110a857604051631262f37360e31b815260040160405180910390fd5b60038101805461ffff60a01b1916600160a81b179055805460018201546040516000926001600160a01b031691906110e4906002860190611796565b60006040518083038185875af1925050503d8060008114611121576040519150601f19603f3d011682016040523d82523d6000602084013e611126565b606091505b505090508061114857604051634bbd053b60e11b815260040160405180910390fd5b815460018301546040517f45c6e1a61292af28e0360dcf7b4c16a9143c6a4e968a38ecd0fd26cac72e06ca926111909288926001600160a01b0390921691600288019061180c565b60405180910390a150505050565b808211156111bf576040516350fd467560e11b815260040160405180910390fd5b60028210156111e1576040516304faeb2360e51b815260040160405180910390fd5b5050565b6001600160a01b03811660009081526002602052604090205460ff161561121f57604051632ea44c2360e11b815260040160405180910390fd5b6001600160a01b038116611246576040516357588ba560e11b815260040160405180910390fd5b6001805480820182557fb10e2d527612073b26eecdfd717e6a320cf44b4afac2b0732d9fcbe2b7fa0cf60180546001600160a01b039093166001600160a01b031990931683179055600091825260026020526040909120805460ff19169091179055565b80356001600160a01b03811681146112c157600080fd5b919050565b6000602082840312156112d857600080fd5b6112e1826112aa565b9392505050565b60018060a01b038151168252600060208083015181850152604083015160e0604086015280518060e087015260005b818110156113345782810184015187820161010001528301611317565b50610100925060008382880101526060850151915061135e60608701836001600160a01b03169052565b60808501519150611373608087018315159052565b60a0850151915061138860a087018315159052565b60c0850151915061139e60c087018360ff169052565b601f01601f191694909401019392505050565b6000602080830181845280855180835260408601915060408160051b870101925083870160005b8281101561140657603f198886030184526113f48583516112e8565b945092850192908501906001016113d8565b5092979650505050505050565b60006020828403121561142557600080fd5b5035919050565b6020808252825182820181905260009190848201906040850190845b8181101561146d5783516001600160a01b031683529284019291840191600101611448565b50909695505050505050565b6020815260006112e160208301846112e8565b600080600080606085870312156114a257600080fd5b6114ab856112aa565b935060208501359250604085013567ffffffffffffffff808211156114cf57600080fd5b818701915087601f8301126114e357600080fd5b8135818111156114f257600080fd5b88602082850101111561150457600080fd5b95989497505060200194505050565b6000806040838503121561152657600080fd5b82359150611536602084016112aa565b90509250929050565b634e487b7160e01b600052601160045260246000fd5b81810381811115610fc657610fc661153f565b634e487b7160e01b600052603260045260246000fd5b634e487b7160e01b600052603160045260246000fd5b6000600182016115a6576115a661153f565b5060010190565b600181811c908216806115c157607f821691505b6020821081036115e157634e487b7160e01b600052602260045260246000fd5b50919050565b60ff8281168282160390811115610fc657610fc661153f565b60ff8181168382160190811115610fc657610fc661153f565b634e487b7160e01b600052604160045260246000fd5b601f821115610ce157600081815260208120601f850160051c810160208610156116565750805b601f850160051c820191505b8181101561167557828155600101611662565b505050505050565b815167ffffffffffffffff81111561169757611697611619565b6116ab816116a584546115ad565b8461162f565b602080601f8311600181146116e057600084156116c85750858301515b600019600386901b1c1916600185901b178555611675565b600085815260208120601f198616915b8281101561170f578886015182559484019460019091019084016116f0565b508582101561172d5787850151600019600388901b60f8161c191681555b5050505050600190811b01905550565b868152600060018060a01b03808816602084015286604084015260a060608401528460a0840152848660c0850137600083860160c0908101919091529316608083015250601f909201601f191690910101949350505050565b60008083546117a4816115ad565b600182811680156117bc57600181146117d157611800565b60ff1984168752821515830287019450611800565b8760005260208060002060005b858110156117f75781548a8201529084019082016117de565b50505082870194505b50929695505050505050565b8481526000602060018060a01b03861681840152846040840152608060608401526000845461183a816115ad565b80608087015260a060018084166000811461185c5760018114611876576118a4565b60ff1985168984015283151560051b8901830195506118a4565b896000528660002060005b8581101561189c5781548b8201860152908301908801611881565b8a0184019650505b50939b9a505050505050505050505056fea2646970667358221220b2b1391b54afedf542474da1cc5f94f37731600fe4763c915d3c8f49c372569064736f6c63430008140033","linkReferences":{}},"methodIdentifiers":{"addAdmin(address)":"70480275","adminHasSigned(uint256,address)":"9c037c3c","cancelTransaction(uint256)":"3380c0d8","changeSignaturesRequired(uint256)":"297b4c2c","executeTransaction(uint256)":"ee22610b","getAdmins()":"31ae450b","getAllTransactions()":"27506f53","getTransaction(uint256)":"33ea3dc8","isAdmin(address)":"24d7806c","proposeTransaction(address,uint256,bytes)":"5e90852d","removeAdmin(address)":"1785f53c","revokeSignature(uint256)":"3da1f79a","signTransaction(uint256)":"5d9ec210","signaturesRequired()":"ce757d29"},"id":43}