{"abi":[{"type":"constructor","inputs":[{"name":"_vrfCoordinatorV2","type":"address","internalType":"address"},{"name":"_priceFeed","type":"address","internalType":"address"},{"name":"_governor","type":"address","internalType":"address"},{"name":"_paymentSplitter","type":"address","internalType":"address"},{"name":"_computedRaffleAddress","type":"address","internalType":"address"},{"name":"_initialMintRecipient","type":"address","internalType":"address"},{"name":"_presale","type":"uint256","internalType":"uint256"},{"name":"_saleOpen","type":"uint256","internalType":"uint256"},{"name":"_subscriptionId","type":"uint64","internalType":"uint64"},{"name":"_baseUri","type":"string","internalType":"string"}],"stateMutability":"nonpayable"},{"type":"function","name":"GOVERNOR","inputs":[],"outputs":[{"name":"","type":"address","internalType":"address"}],"stateMutability":"view"},{"type":"function","name":"MAX_COMP_MINTS","inputs":[],"outputs":[{"name":"","type":"uint256","internalType":"uint256"}],"stateMutability":"view"},{"type":"function","name":"MAX_MINTS_PER_TX","inputs":[],"outputs":[{"name":"","type":"uint256","internalType":"uint256"}],"stateMutability":"view"},{"type":"function","name":"MAX_PRESALE_MINTS","inputs":[],"outputs":[{"name":"","type":"uint256","internalType":"uint256"}],"stateMutability":"view"},{"type":"function","name":"MAX_SUPPLY","inputs":[],"outputs":[{"name":"","type":"uint256","internalType":"uint256"}],"stateMutability":"view"},{"type":"function","name":"MAX_WHITELISTEES","inputs":[],"outputs":[{"name":"","type":"uint256","internalType":"uint256"}],"stateMutability":"view"},{"type":"function","name":"PAYMENT_SPLITTER","inputs":[],"outputs":[{"name":"","type":"address","internalType":"address"}],"stateMutability":"view"},{"type":"function","name":"PRESALE","inputs":[],"outputs":[{"name":"","type":"uint256","internalType":"uint256"}],"stateMutability":"view"},{"type":"function","name":"PRICEFEED","inputs":[],"outputs":[{"name":"","type":"address","internalType":"contract IPricefeed"}],"stateMutability":"view"},{"type":"function","name":"PRICE_IN_USD","inputs":[],"outputs":[{"name":"","type":"uint256","internalType":"uint256"}],"stateMutability":"view"},{"type":"function","name":"RAFFLE","inputs":[],"outputs":[{"name":"","type":"address","internalType":"contract IRaffle"}],"stateMutability":"view"},{"type":"function","name":"ROYALTY_BASIS_POINTS","inputs":[],"outputs":[{"name":"","type":"uint96","internalType":"uint96"}],"stateMutability":"view"},{"type":"function","name":"SALE_OPEN","inputs":[],"outputs":[{"name":"","type":"uint256","internalType":"uint256"}],"stateMutability":"view"},{"type":"function","name":"VRF_COORDINATOR","inputs":[],"outputs":[{"name":"","type":"address","internalType":"contract VRFCoordinatorV2Interface"}],"stateMutability":"view"},{"type":"function","name":"addRaffle2000Winners","inputs":[{"name":"_winners","type":"address[]","internalType":"address[]"}],"outputs":[],"stateMutability":"nonpayable"},{"type":"function","name":"addToWhitelist","inputs":[{"name":"_whitelistees","type":"address[]","internalType":"address[]"}],"outputs":[],"stateMutability":"nonpayable"},{"type":"function","name":"approve","inputs":[{"name":"to","type":"address","internalType":"address"},{"name":"tokenId","type":"uint256","internalType":"uint256"}],"outputs":[],"stateMutability":"nonpayable"},{"type":"function","name":"assignCompMint","inputs":[{"name":"_recipient","type":"address","internalType":"address"}],"outputs":[],"stateMutability":"nonpayable"},{"type":"function","name":"balanceOf","inputs":[{"name":"owner","type":"address","internalType":"address"}],"outputs":[{"name":"","type":"uint256","internalType":"uint256"}],"stateMutability":"view"},{"type":"function","name":"calculatePrice","inputs":[{"name":"_numberOfTokens","type":"uint256","internalType":"uint256"}],"outputs":[{"name":"","type":"uint256","internalType":"uint256"}],"stateMutability":"view"},{"type":"function","name":"callbackGasLimit","inputs":[],"outputs":[{"name":"","type":"uint32","internalType":"uint32"}],"stateMutability":"view"},{"type":"function","name":"getApproved","inputs":[{"name":"tokenId","type":"uint256","internalType":"uint256"}],"outputs":[{"name":"","type":"address","internalType":"address"}],"stateMutability":"view"},{"type":"function","name":"getBaseUri","inputs":[],"outputs":[{"name":"","type":"string","internalType":"string"}],"stateMutability":"view"},{"type":"function","name":"getBatchTokens","inputs":[{"name":"_requestId","type":"uint256","internalType":"uint256"}],"outputs":[{"name":"","type":"uint256[]","internalType":"uint256[]"}],"stateMutability":"view"},{"type":"function","name":"getBuyerByIndex","inputs":[{"name":"index","type":"uint256","internalType":"uint256"}],"outputs":[{"name":"","type":"address","internalType":"address"}],"stateMutability":"view"},{"type":"function","name":"getBuyers","inputs":[],"outputs":[{"name":"","type":"address[]","internalType":"address[]"}],"stateMutability":"view"},{"type":"function","name":"getCompMintCount","inputs":[],"outputs":[{"name":"","type":"uint256","internalType":"uint256"}],"stateMutability":"view"},{"type":"function","name":"getCurrentTokenId","inputs":[],"outputs":[{"name":"","type":"uint256","internalType":"uint256"}],"stateMutability":"view"},{"type":"function","name":"getPriceInMATIC","inputs":[],"outputs":[{"name":"","type":"uint256","internalType":"uint256"}],"stateMutability":"view"},{"type":"function","name":"getRoyaltyReceiver","inputs":[],"outputs":[{"name":"","type":"address","internalType":"address"}],"stateMutability":"view"},{"type":"function","name":"getWhitelistCount","inputs":[],"outputs":[{"name":"","type":"uint256","internalType":"uint256"}],"stateMutability":"view"},{"type":"function","name":"hasClaimedCompMint","inputs":[{"name":"user","type":"address","internalType":"address"}],"outputs":[{"name":"","type":"bool","internalType":"bool"}],"stateMutability":"view"},{"type":"function","name":"isApprovedForAll","inputs":[{"name":"owner","type":"address","internalType":"address"},{"name":"operator","type":"address","internalType":"address"}],"outputs":[{"name":"","type":"bool","internalType":"bool"}],"stateMutability":"view"},{"type":"function","name":"isBuyer","inputs":[{"name":"","type":"address","internalType":"address"}],"outputs":[{"name":"","type":"bool","internalType":"bool"}],"stateMutability":"view"},{"type":"function","name":"isCompMintRecipient","inputs":[{"name":"user","type":"address","internalType":"address"}],"outputs":[{"name":"","type":"bool","internalType":"bool"}],"stateMutability":"view"},{"type":"function","name":"isMintingOpen","inputs":[],"outputs":[{"name":"","type":"bool","internalType":"bool"}],"stateMutability":"view"},{"type":"function","name":"isWhitelisted","inputs":[{"name":"user","type":"address","internalType":"address"}],"outputs":[{"name":"","type":"bool","internalType":"bool"}],"stateMutability":"view"},{"type":"function","name":"keyHash","inputs":[],"outputs":[{"name":"","type":"bytes32","internalType":"bytes32"}],"stateMutability":"view"},{"type":"function","name":"mint","inputs":[{"name":"_to","type":"address","internalType":"address"},{"name":"_numberOfTokens","type":"uint256","internalType":"uint256"}],"outputs":[{"name":"","type":"uint256","internalType":"uint256"}],"stateMutability":"payable"},{"type":"function","name":"mintComp","inputs":[],"outputs":[{"name":"","type":"uint256","internalType":"uint256"}],"stateMutability":"nonpayable"},{"type":"function","name":"name","inputs":[],"outputs":[{"name":"","type":"string","internalType":"string"}],"stateMutability":"view"},{"type":"function","name":"numWords","inputs":[],"outputs":[{"name":"","type":"uint32","internalType":"uint32"}],"stateMutability":"view"},{"type":"function","name":"ownerOf","inputs":[{"name":"tokenId","type":"uint256","internalType":"uint256"}],"outputs":[{"name":"","type":"address","internalType":"address"}],"stateMutability":"view"},{"type":"function","name":"rawFulfillRandomWords","inputs":[{"name":"requestId","type":"uint256","internalType":"uint256"},{"name":"randomWords","type":"uint256[]","internalType":"uint256[]"}],"outputs":[],"stateMutability":"nonpayable"},{"type":"function","name":"reducePrice","inputs":[{"name":"_newPriceInUSD","type":"uint256","internalType":"uint256"}],"outputs":[],"stateMutability":"nonpayable"},{"type":"function","name":"remainingUris","inputs":[],"outputs":[{"name":"","type":"uint256","internalType":"uint256"}],"stateMutability":"view"},{"type":"function","name":"requestConfirmations","inputs":[],"outputs":[{"name":"","type":"uint16","internalType":"uint16"}],"stateMutability":"view"},{"type":"function","name":"royaltyInfo","inputs":[{"name":"_tokenId","type":"uint256","internalType":"uint256"},{"name":"_salePrice","type":"uint256","internalType":"uint256"}],"outputs":[{"name":"receiver","type":"address","internalType":"address"},{"name":"royaltyAmount","type":"uint256","internalType":"uint256"}],"stateMutability":"view"},{"type":"function","name":"safeTransferFrom","inputs":[{"name":"from","type":"address","internalType":"address"},{"name":"to","type":"address","internalType":"address"},{"name":"tokenId","type":"uint256","internalType":"uint256"}],"outputs":[],"stateMutability":"nonpayable"},{"type":"function","name":"safeTransferFrom","inputs":[{"name":"from","type":"address","internalType":"address"},{"name":"to","type":"address","internalType":"address"},{"name":"tokenId","type":"uint256","internalType":"uint256"},{"name":"data","type":"bytes","internalType":"bytes"}],"outputs":[],"stateMutability":"nonpayable"},{"type":"function","name":"setApprovalForAll","inputs":[{"name":"operator","type":"address","internalType":"address"},{"name":"approved","type":"bool","internalType":"bool"}],"outputs":[],"stateMutability":"nonpayable"},{"type":"function","name":"setRoyaltyReceiver","inputs":[{"name":"_newReceiver","type":"address","internalType":"address"}],"outputs":[],"stateMutability":"nonpayable"},{"type":"function","name":"subscriptionId","inputs":[],"outputs":[{"name":"","type":"uint64","internalType":"uint64"}],"stateMutability":"view"},{"type":"function","name":"supportsInterface","inputs":[{"name":"interfaceId","type":"bytes4","internalType":"bytes4"}],"outputs":[{"name":"","type":"bool","internalType":"bool"}],"stateMutability":"view"},{"type":"function","name":"symbol","inputs":[],"outputs":[{"name":"","type":"string","internalType":"string"}],"stateMutability":"view"},{"type":"function","name":"tokenByIndex","inputs":[{"name":"index","type":"uint256","internalType":"uint256"}],"outputs":[{"name":"","type":"uint256","internalType":"uint256"}],"stateMutability":"view"},{"type":"function","name":"tokenIdToUriExtension","inputs":[{"name":"","type":"uint256","internalType":"uint256"}],"outputs":[{"name":"","type":"uint256","internalType":"uint256"}],"stateMutability":"view"},{"type":"function","name":"tokenOfOwnerByIndex","inputs":[{"name":"owner","type":"address","internalType":"address"},{"name":"index","type":"uint256","internalType":"uint256"}],"outputs":[{"name":"","type":"uint256","internalType":"uint256"}],"stateMutability":"view"},{"type":"function","name":"tokenURI","inputs":[{"name":"_tokenId","type":"uint256","internalType":"uint256"}],"outputs":[{"name":"","type":"string","internalType":"string"}],"stateMutability":"view"},{"type":"function","name":"totalNumberOfBuyers","inputs":[],"outputs":[{"name":"","type":"uint256","internalType":"uint256"}],"stateMutability":"view"},{"type":"function","name":"totalSupply","inputs":[],"outputs":[{"name":"","type":"uint256","internalType":"uint256"}],"stateMutability":"view"},{"type":"function","name":"transferFrom","inputs":[{"name":"from","type":"address","internalType":"address"},{"name":"to","type":"address","internalType":"address"},{"name":"tokenId","type":"uint256","internalType":"uint256"}],"outputs":[],"stateMutability":"nonpayable"},{"type":"event","name":"Approval","inputs":[{"name":"owner","type":"address","indexed":true,"internalType":"address"},{"name":"approved","type":"address","indexed":true,"internalType":"address"},{"name":"tokenId","type":"uint256","indexed":true,"internalType":"uint256"}],"anonymous":false},{"type":"event","name":"ApprovalForAll","inputs":[{"name":"owner","type":"address","indexed":true,"internalType":"address"},{"name":"operator","type":"address","indexed":true,"internalType":"address"},{"name":"approved","type":"bool","indexed":false,"internalType":"bool"}],"anonymous":false},{"type":"event","name":"RaffleWinnersAdded","inputs":[{"name":"winners","type":"address[]","indexed":false,"internalType":"address[]"}],"anonymous":false},{"type":"event","name":"RoyaltyReceiverChanged","inputs":[{"name":"newReceiver","type":"address","indexed":false,"internalType":"address"}],"anonymous":false},{"type":"event","name":"TokenPriceChanged","inputs":[{"name":"newPrice","type":"uint256","indexed":false,"internalType":"uint256"}],"anonymous":false},{"type":"event","name":"Transfer","inputs":[{"name":"from","type":"address","indexed":true,"internalType":"address"},{"name":"to","type":"address","indexed":true,"internalType":"address"},{"name":"tokenId","type":"uint256","indexed":true,"internalType":"uint256"}],"anonymous":false},{"type":"event","name":"VRFRequestCreated","inputs":[{"name":"requestId","type":"uint256","indexed":false,"internalType":"uint256"}],"anonymous":false},{"type":"error","name":"ERC721EnumerableForbiddenBatchMint","inputs":[]},{"type":"error","name":"ERC721IncorrectOwner","inputs":[{"name":"sender","type":"address","internalType":"address"},{"name":"tokenId","type":"uint256","internalType":"uint256"},{"name":"owner","type":"address","internalType":"address"}]},{"type":"error","name":"ERC721InsufficientApproval","inputs":[{"name":"operator","type":"address","internalType":"address"},{"name":"tokenId","type":"uint256","internalType":"uint256"}]},{"type":"error","name":"ERC721InvalidApprover","inputs":[{"name":"approver","type":"address","internalType":"address"}]},{"type":"error","name":"ERC721InvalidOperator","inputs":[{"name":"operator","type":"address","internalType":"address"}]},{"type":"error","name":"ERC721InvalidOwner","inputs":[{"name":"owner","type":"address","internalType":"address"}]},{"type":"error","name":"ERC721InvalidReceiver","inputs":[{"name":"receiver","type":"address","internalType":"address"}]},{"type":"error","name":"ERC721InvalidSender","inputs":[{"name":"sender","type":"address","internalType":"address"}]},{"type":"error","name":"ERC721NonexistentToken","inputs":[{"name":"tokenId","type":"uint256","internalType":"uint256"}]},{"type":"error","name":"ERC721OutOfBoundsIndex","inputs":[{"name":"owner","type":"address","internalType":"address"},{"name":"index","type":"uint256","internalType":"uint256"}]},{"type":"error","name":"OnlyCoordinatorCanFulfill","inputs":[{"name":"have","type":"address","internalType":"address"},{"name":"want","type":"address","internalType":"address"}]},{"type":"error","name":"OrcNation__CompMintAlreadyAssignedToAddress","inputs":[]},{"type":"error","name":"OrcNation__CompMintAlreadyClaimed","inputs":[]},{"type":"error","name":"OrcNation__InsufficientPayment","inputs":[{"name":"paymentDue","type":"uint256","internalType":"uint256"}]},{"type":"error","name":"OrcNation__InvalidNewPrice","inputs":[]},{"type":"error","name":"OrcNation__InvalidSaleTime","inputs":[]},{"type":"error","name":"OrcNation__MaxCompMintsExceeded","inputs":[]},{"type":"error","name":"OrcNation__MaxMintsPerTransactionExceeded","inputs":[]},{"type":"error","name":"OrcNation__MaxThreePresaleMintsPerWhitelistedAddress","inputs":[]},{"type":"error","name":"OrcNation__MintingNotOpen","inputs":[]},{"type":"error","name":"OrcNation__MustMintAtLeastOneToken","inputs":[]},{"type":"error","name":"OrcNation__NotEligibleForCompMint","inputs":[]},{"type":"error","name":"OrcNation__NotWhitelisted","inputs":[]},{"type":"error","name":"OrcNation__OnlyAdmin","inputs":[]},{"type":"error","name":"OrcNation__OnlyGovernor","inputs":[]},{"type":"error","name":"OrcNation__OnlyRaffle","inputs":[]},{"type":"error","name":"OrcNation__PriceFeedAnswerNegative","inputs":[]},{"type":"error","name":"OrcNation__RaffleNotComplete","inputs":[]},{"type":"error","name":"OrcNation__TokenDoesNotExist","inputs":[]},{"type":"error","name":"OrcNation__WillExceedMaxSupply","inputs":[]},{"type":"error","name":"OrcNation__WillExceedMaxWhitelistees","inputs":[]}],"bytecode":{"object":"0x6101a06040526041600a55612710600e557f4b09e658ed251bcafeebbc69400383d49f344ace09b9576fe248bb02c003fe9f60185560198054600160401b600160901b0319166e01000f4240000300000000000000001790553480156200006557600080fd5b5060405162003c0a38038062003c0a833981016040819052620000889162000294565b896040518060400160405280600981526020016827b931a730ba34b7b760b91b815250604051806040016040528060048152602001634f52435360e01b8152508160009081620000d9919062000408565b506001620000e8828262000408565b5050506001600160a01b0316608052428410806200010557508383105b1562000124576040516336e24cf360e01b815260040160405180910390fd5b6001600160a01b03808b1660a05289811660c05288811661012052871661010052600b80546001600160a01b03191633179055600c62000165828262000408565b50506101409290925261016052601980546001600160401b0319166001600160401b039092169190911790556001600160a01b0391821660e052166101805250620004d492505050565b80516001600160a01b0381168114620001c757600080fd5b919050565b634e487b7160e01b600052604160045260246000fd5b600082601f830112620001f457600080fd5b81516001600160401b0380821115620002115762000211620001cc565b604051601f8301601f19908116603f011681019082821181831017156200023c576200023c620001cc565b81604052838152602092508660208588010111156200025a57600080fd5b600091505b838210156200027e57858201830151818301840152908201906200025f565b6000602085830101528094505050505092915050565b6000806000806000806000806000806101408b8d031215620002b557600080fd5b620002c08b620001af565b9950620002d060208c01620001af565b9850620002e060408c01620001af565b9750620002f060608c01620001af565b96506200030060808c01620001af565b95506200031060a08c01620001af565b60c08c015160e08d01516101008e015192975090955093506001600160401b0380821682146200033f57600080fd5b6101208d0151919350808211156200035657600080fd5b50620003658d828e01620001e2565b9150509295989b9194979a5092959850565b600181811c908216806200038c57607f821691505b602082108103620003ad57634e487b7160e01b600052602260045260246000fd5b50919050565b601f82111562000403576000816000526020600020601f850160051c81016020861015620003de5750805b601f850160051c820191505b81811015620003ff57828155600101620003ea565b5050505b505050565b81516001600160401b03811115620004245762000424620001cc565b6200043c8162000435845462000377565b84620003b3565b602080601f8311600181146200047457600084156200045b5750858301515b600019600386901b1c1916600185901b178555620003ff565b600085815260208120601f198616915b82811015620004a55788860151825594840194600190910190840162000484565b5085821015620004c45787850151600019600388901b60f8161c191681555b5050505050600190811b01905550565b60805160a05160c05160e0516101005161012051610140516101605161018051613643620005c7600039600050506000818161099d015281816110a10152611a8d01526000818161053401528181610b11015281816110350152818161107601528181611a620152611c230152600081816108bb01528181610dc20152818161162d0152818161182a0152611990015260008181610a4f01526111c1015260008181610887015281816112c10152818161297c0152612a0f015260008181610bba015281816114a801526115540152600081816103f901526127c7015260008181610e730152610eb501526136436000f3fe6080604052600436106103ad5760003560e01c80636352211e116101e7578063a5f0292b1161010d578063d5a9dea4116100a0578063e8c93ec91161006f578063e8c93ec914610c08578063e985e9c514610c35578063ee1daa4314610c55578063f64bfaba14610c6a57600080fd5b8063d5a9dea414610b88578063d8f4d5d014610ba8578063dbdbbc9114610bdc578063e575039514610bf257600080fd5b8063b4cf5648116100dc578063b4cf564814610aff578063b88d4fde14610b33578063c6a91b4214610b53578063c87b56dd14610b6857600080fd5b8063a5f0292b14610a3d578063a69e689c14610a71578063ae10426514610aaa578063b0fb162f14610aca57600080fd5b80637f649783116101855780639208383a116101545780639208383a146109d557806395d89b41146109ea578063a22cb465146109ff578063a5bd523514610a1f57600080fd5b80637f6497831461094b5780638dc251e31461096b5780638e26d2aa1461098b578063914db51a146109bf57600080fd5b806370a08231116101c157806370a08231146108dd5780637263c07e146108fd57806373416c24146109125780637ccfd7fc1461092757600080fd5b80636352211e146108555780636c70e851146108755780636dc0ae22146108a957600080fd5b80632a55feec116102d757806342842e0e1161026a578063561892361161023957806356189236146107ec5780635a59d966146108015780635ab9120c1461081f57806361728f391461083f57600080fd5b806342842e0e146107775780634404ee84146107975780634f6ccce7146107b757806354a063ae146107d757600080fd5b80633af32abf116102a65780633af32abf146106df5780633c404a9c146107185780633edff20f1461074b57806340c10f191461076457600080fd5b80632a55feec1461064c5780632f745c591461067c57806332cb6b0c1461069c57806333fdcf52146106b257600080fd5b8063121925a21161034f57806323b872dd1161031e57806323b872dd1461057b57806324f746971461059b578063289016ed146105d45780632a55205a1461060d57600080fd5b8063121925a2146104e657806318160ddd146105065780631a206910146105255780631fe543e31461055b57600080fd5b8063081812fc1161038b578063081812fc14610455578063095ea7b31461047557806309c1ba2e146104975780630cac36b2146104d157600080fd5b806301ffc9a7146103b257806305f6a924146103e757806306fdde0314610433575b600080fd5b3480156103be57600080fd5b506103d26103cd366004612c84565b610c8c565b60405190151581526020015b60405180910390f35b3480156103f357600080fd5b5061041b7f000000000000000000000000000000000000000000000000000000000000000081565b6040516001600160a01b0390911681526020016103de565b34801561043f57600080fd5b50610448610cde565b6040516103de9190612cf1565b34801561046157600080fd5b5061041b610470366004612d04565b610d70565b34801561048157600080fd5b50610495610490366004612d39565b610d99565b005b3480156104a357600080fd5b506019546104b89067ffffffffffffffff1681565b60405167ffffffffffffffff90911681526020016103de565b3480156104dd57600080fd5b50610448610da8565b3480156104f257600080fd5b50610495610501366004612d04565b610db7565b34801561051257600080fd5b506008545b6040519081526020016103de565b34801561053157600080fd5b507f00000000000000000000000000000000000000000000000000000000000000004210156103d2565b34801561056757600080fd5b50610495610576366004612daa565b610e68565b34801561058757600080fd5b50610495610596366004612e5c565b610ef1565b3480156105a757600080fd5b506019546105bf90600160501b900463ffffffff1681565b60405163ffffffff90911681526020016103de565b3480156105e057600080fd5b506103d26105ef366004612e98565b6001600160a01b031660009081526015602052604090205460ff1690565b34801561061957600080fd5b5061062d610628366004612eb3565b610f7c565b604080516001600160a01b0390931683526020830191909152016103de565b34801561065857600080fd5b506103d2610667366004612e98565b60176020526000908152604090205460ff1681565b34801561068857600080fd5b50610517610697366004612d39565b610fcc565b3480156106a857600080fd5b5061051761271081565b3480156106be57600080fd5b506105176106cd366004612d04565b60116020526000908152604090205481565b3480156106eb57600080fd5b506103d26106fa366004612e98565b6001600160a01b031660009081526013602052604090205460ff1690565b34801561072457600080fd5b5061072e6101f481565b6040516bffffffffffffffffffffffff90911681526020016103de565b34801561075757600080fd5b5060125461ffff16610517565b610517610772366004612d39565b611031565b34801561078357600080fd5b50610495610792366004612e5c565b611296565b3480156107a357600080fd5b506104956107b2366004612ed5565b6112b6565b3480156107c357600080fd5b506105176107d2366004612d04565b61144a565b3480156107e357600080fd5b506105176114a3565b3480156107f857600080fd5b50600d54610517565b34801561080d57600080fd5b5060125462010000900460ff16610517565b34801561082b57600080fd5b5061049561083a366004612e98565b611618565b34801561084b57600080fd5b5061051760185481565b34801561086157600080fd5b5061041b610870366004612d04565b6117c2565b34801561088157600080fd5b5061041b7f000000000000000000000000000000000000000000000000000000000000000081565b3480156108b557600080fd5b5061041b7f000000000000000000000000000000000000000000000000000000000000000081565b3480156108e957600080fd5b506105176108f8366004612e98565b6117cd565b34801561090957600080fd5b50610517603281565b34801561091e57600080fd5b50601654610517565b34801561093357600080fd5b506019546105bf90600160701b900463ffffffff1681565b34801561095757600080fd5b50610495610966366004612ed5565b611815565b34801561097757600080fd5b50610495610986366004612e98565b611985565b34801561099757600080fd5b506105177f000000000000000000000000000000000000000000000000000000000000000081565b3480156109cb57600080fd5b50610517600a5481565b3480156109e157600080fd5b50610517600381565b3480156109f657600080fd5b50610448611a2e565b348015610a0b57600080fd5b50610495610a1a366004612f58565b611a3d565b348015610a2b57600080fd5b50600b546001600160a01b031661041b565b348015610a4957600080fd5b5061041b7f000000000000000000000000000000000000000000000000000000000000000081565b348015610a7d57600080fd5b506103d2610a8c366004612e98565b6001600160a01b031660009081526014602052604090205460ff1690565b348015610ab657600080fd5b50610517610ac5366004612d04565b611a48565b348015610ad657600080fd5b50601954610aec90600160401b900461ffff1681565b60405161ffff90911681526020016103de565b348015610b0b57600080fd5b506105177f000000000000000000000000000000000000000000000000000000000000000081565b348015610b3f57600080fd5b50610495610b4e366004612f8f565b611ad2565b348015610b5f57600080fd5b50610517600a81565b348015610b7457600080fd5b50610448610b83366004612d04565b611ae9565b348015610b9457600080fd5b5061041b610ba3366004612d04565b611b5f565b348015610bb457600080fd5b5061041b7f000000000000000000000000000000000000000000000000000000000000000081565b348015610be857600080fd5b506105176101f481565b348015610bfe57600080fd5b50610517600e5481565b348015610c1457600080fd5b50610c28610c23366004612d04565b611b8f565b6040516103de919061304f565b348015610c4157600080fd5b506103d2610c50366004613093565b611bf1565b348015610c6157600080fd5b50610517611c1f565b348015610c7657600080fd5b50610c7f611cf5565b6040516103de91906130c6565b60006301ffc9a760e01b6001600160e01b031983161480610cbd57506380ac58cd60e01b6001600160e01b03198316145b80610cd8575063152a902d60e11b6001600160e01b03198316145b92915050565b606060008054610ced90613107565b80601f0160208091040260200160405190810160405280929190818152602001828054610d1990613107565b8015610d665780601f10610d3b57610100808354040283529160200191610d66565b820191906000526020600020905b815481529060010190602001808311610d4957829003601f168201915b5050505050905090565b6000610d7b82611d56565b506000828152600460205260409020546001600160a01b0316610cd8565b610da4828233611d8f565b5050565b6060600c8054610ced90613107565b336001600160a01b037f00000000000000000000000000000000000000000000000000000000000000001614610dff5760405162ac0b2f60e41b815260040160405180910390fd5b6020811080610e0e5750606181115b15610e2c57604051631d0bf16360e31b815260040160405180910390fd5b600a8190556040518181527fac21bacd333b316c6640fca5086322638b0a7aa4367179afd5dfcbe0a5427bc7906020015b60405180910390a150565b336001600160a01b037f00000000000000000000000000000000000000000000000000000000000000001614610ee75760405163073e64fd60e21b81523360048201526001600160a01b037f00000000000000000000000000000000000000000000000000000000000000001660248201526044015b60405180910390fd5b610da48282611d9c565b6001600160a01b038216610f1b57604051633250574960e11b815260006004820152602401610ede565b6000610f28838333611e8b565b9050836001600160a01b0316816001600160a01b031614610f76576040516364283d7b60e01b81526001600160a01b0380861660048301526024820184905282166044820152606401610ede565b50505050565b60008080610f89856117c2565b6001600160a01b031603610f9c57600080fd5b600b546001600160a01b0316612710610fb76101f486613157565b610fc19190613184565b915091509250929050565b6000610fd7836117cd565b82106110085760405163295f44f760e21b81526001600160a01b038416600482015260248101839052604401610ede565b506001600160a01b03919091166000908152600660209081526040808320938352929052205490565b60007f00000000000000000000000000000000000000000000000000000000000000004210156110745760405163f0b9693f60e01b815260040160405180910390fd5b7f000000000000000000000000000000000000000000000000000000000000000042101580156110c357507f000000000000000000000000000000000000000000000000000000000000000042105b15611136576001600160a01b03831660009081526013602052604090205460ff166111015760405163cb060eb160e01b815260040160405180910390fd5b60038261110d856117cd565b6111179190613198565b1115611136576040516380b2c43f60e01b815260040160405180910390fd5b60018210156111585760405163ea1112df60e01b815260040160405180910390fd5b600a82111561117a5760405163416296fd60e01b815260040160405180910390fd5b61118382611f60565b600061118e83611a48565b9050803410156111b4576040516334272af160e01b815260048101829052602401610ede565b6111bd84611f93565b60007f00000000000000000000000000000000000000000000000000000000000000006001600160a01b03163460405160006040518083038185875af1925050503d806000811461122a576040519150601f19603f3d011682016040523d82523d6000602084013e61122f565b606091505b50509050806112805760405162461bcd60e51b815260206004820152601760248201527f5061796d656e74207472616e73666572206661696c65640000000000000000006044820152606401610ede565b600061128c868661201a565b9695505050505050565b6112b183838360405180602001604052806000815250611ad2565b505050565b336001600160a01b037f000000000000000000000000000000000000000000000000000000000000000016146112ff5760405163726c530160e01b815260040160405180910390fd5b60005b8181101561140c57600160146000858585818110611322576113226131ab565b90506020020160208101906113379190612e98565b6001600160a01b0316815260208101919091526040016000908120805460ff191692151592909217909155601590848484818110611377576113776131ab565b905060200201602081019061138c9190612e98565b6001600160a01b0316815260208101919091526040016000205460ff1615611404576000601560008585858181106113c6576113c66131ab565b90506020020160208101906113db9190612e98565b6001600160a01b031681526020810191909152604001600020805460ff19169115159190911790555b600101611302565b507f743d27e70dad1517ab7a2613a62cb57ea1ac4d6c0ca6d489bfbb5b468400f5d9828260405161143e9291906131c1565b60405180910390a15050565b600061145560085490565b821061147e5760405163295f44f760e21b81526000600482015260248101839052604401610ede565b60088281548110611491576114916131ab565b90600052602060002001549050919050565b6000807f00000000000000000000000000000000000000000000000000000000000000006001600160a01b031663feaf968c6040518163ffffffff1660e01b815260040160a060405180830381865afa158015611504573d6000803e3d6000fd5b505050506040513d601f19601f820116820180604052508101906115289190613227565b505050915050600081121561155057604051632bea283f60e11b815260040160405180910390fd5b60007f00000000000000000000000000000000000000000000000000000000000000006001600160a01b031663313ce5676040518163ffffffff1660e01b8152600401602060405180830381865afa1580156115b0573d6000803e3d6000fd5b505050506040513d601f19601f820116820180604052508101906115d49190613277565b6115df90600a61337e565b90506000600a54670de0b6b3a76400006115f99190613157565b905081611606848361338d565b61161091906133bb565b935050505090565b604051630935e01b60e21b81523360048201527f00000000000000000000000000000000000000000000000000000000000000006001600160a01b0316906324d7806c90602401602060405180830381865afa15801561167c573d6000803e3d6000fd5b505050506040513d601f19601f820116820180604052508101906116a091906133eb565b6116bd576040516354fe416f60e01b815260040160405180910390fd5b6012546032906116d79062010000900460ff166001613408565b60ff1611156116f957604051630138ee3960e31b815260040160405180910390fd5b601280546002906117129062010000900460ff16613421565b82546101009290920a60ff8181021990931691831602179091556001600160a01b038216600090815260156020526040902054161561176457604051632d11162b60e21b815260040160405180910390fd5b6001600160a01b03811660009081526014602052604090205460ff161561179e576040516348c3a61560e11b815260040160405180910390fd5b6001600160a01b03166000908152601460205260409020805460ff19166001179055565b6000610cd882611d56565b60006001600160a01b0382166117f9576040516322718ad960e21b815260006004820152602401610ede565b506001600160a01b031660009081526003602052604090205490565b604051630935e01b60e21b81523360048201527f00000000000000000000000000000000000000000000000000000000000000006001600160a01b0316906324d7806c90602401602060405180830381865afa158015611879573d6000803e3d6000fd5b505050506040513d601f19601f8201168201806040525081019061189d91906133eb565b6118ba576040516354fe416f60e01b815260040160405180910390fd5b6012546101f4906118d090839061ffff16613198565b11156118ef576040516354f4fdbf60e11b815260040160405180910390fd5b60005b818110156112b1576012805460009061190e9061ffff16613440565b91906101000a81548161ffff021916908361ffff160217905550600160136000858585818110611940576119406131ab565b90506020020160208101906119559190612e98565b6001600160a01b031681526020810191909152604001600020805460ff19169115159190911790556001016118f2565b336001600160a01b037f000000000000000000000000000000000000000000000000000000000000000016146119cd5760405162ac0b2f60e41b815260040160405180910390fd5b6001600160a01b0381166119e057600080fd5b600b80546001600160a01b0319166001600160a01b0383169081179091556040519081527ff18ed8da4fbddf768618d066780de11fb9a756a8b30128c77e6a128500b65a3190602001610e5d565b606060018054610ced90613107565b610da43383836120f3565b60008082611a546114a3565b611a5e9190613157565b90507f00000000000000000000000000000000000000000000000000000000000000004210158015611aaf57507f000000000000000000000000000000000000000000000000000000000000000042105b15610cd8576064611ac1826055613157565b611acb9190613184565b9392505050565b611add848484610ef1565b610f7684848484612192565b60606000611af6836117c2565b6001600160a01b031603611b1d5760405163039530c360e61b815260040160405180910390fd5b600082815260116020526040902054600c90611b38906122bb565b604051602001611b4992919061347d565b6040516020818303038152906040529050919050565b600060168281548110611b7457611b746131ab565b6000918252602090912001546001600160a01b031692915050565b6000818152600f6020908152604091829020805483518184028101840190945280845260609392830182828015611be557602002820191906000526020600020905b815481526020019060010190808311611bd1575b50505050509050919050565b6001600160a01b03918216600090815260056020908152604080832093909416825291909152205460ff1690565b60007f0000000000000000000000000000000000000000000000000000000000000000421015611c625760405163f0b9693f60e01b815260040160405180910390fd5b3360009081526014602052604090205460ff16611c9257604051631624b2cf60e11b815260040160405180910390fd5b3360009081526015602052604090205460ff1615611cc357604051632d11162b60e21b815260040160405180910390fd5b611ccd6001611f60565b336000818152601560205260408120805460ff191660019081179091559091610cd89161201a565b60606016805480602002602001604051908101604052809291908181526020018280548015610d6657602002820191906000526020600020905b81546001600160a01b03168152600190910190602001808311611d2f575050505050905090565b6000818152600260205260408120546001600160a01b031680610cd857604051637e27328960e01b815260048101849052602401610ede565b6112b1838383600161234e565b600e5460005b6000848152600f6020526040902054811015611e835760008284600081518110611dce57611dce6131ab565b602002602001015183604051602001611df1929190918252602082015260400190565b6040516020818303038152906040528051906020012060001c611e149190613537565b90506000611e228285612454565b90508060116000600f60008a81526020019081526020016000208681548110611e4d57611e4d6131ab565b906000526020600020015481526020019081526020016000208190555083611e749061354b565b93508260010192505050611da2565b50600e555050565b600080611e998585856124d5565b90506001600160a01b038116611ef657611ef184600880546000838152600960205260408120829055600182018355919091527ff3f7a9fe364faab93b216da50a3214154f22a0a2b415b23a84c8169e8b636ee30155565b611f19565b846001600160a01b0316816001600160a01b031614611f1957611f1981856125ce565b6001600160a01b038516611f3557611f308461265f565b611f58565b846001600160a01b0316816001600160a01b031614611f5857611f58858561270e565b949350505050565b61271081600d54611f719190613198565b1115611f905760405163229ed32160e01b815260040160405180910390fd5b50565b6001600160a01b03811660009081526017602052604090205460ff16611f90576016805460018181019092557fd833147d7dc355ba459fc788f669e58cfaf9dc25ddcd0702e87d69c7b51242890180546001600160a01b0384166001600160a01b031990911681179091556000908152601760205260409020805460ff1916909117905550565b60008061202561275e565b905060008367ffffffffffffffff81111561204257612042612d63565b60405190808252806020026020018201604052801561206b578160200160208202803683370190505b50905060005b848110156120c257600d6000815461208890613562565b90915550600d5461209a908790612872565b600d548282815181106120af576120af6131ab565b6020908102919091010152600101612071565b506000828152600f6020908152604090912082516120e292840190612c0e565b506120eb6128d7565b509392505050565b6001600160a01b03821661212557604051630b61174360e31b81526001600160a01b0383166004820152602401610ede565b6001600160a01b03838116600081815260056020908152604080832094871680845294825291829020805460ff191686151590811790915591519182527f17307eab39ab6107e8899845ad3d59bd9653f200f220920489ca2b5937696c31910160405180910390a3505050565b6001600160a01b0383163b15610f7657604051630a85bd0160e11b81526001600160a01b0384169063150b7a02906121d490339088908790879060040161357b565b6020604051808303816000875af192505050801561220f575060408051601f3d908101601f1916820190925261220c918101906135ae565b60015b612278573d80801561223d576040519150601f19603f3d011682016040523d82523d6000602084013e612242565b606091505b50805160000361227057604051633250574960e11b81526001600160a01b0385166004820152602401610ede565b805181602001fd5b6001600160e01b03198116630a85bd0160e11b146122b457604051633250574960e11b81526001600160a01b0385166004820152602401610ede565b5050505050565b606060006122c883612a6f565b600101905060008167ffffffffffffffff8111156122e8576122e8612d63565b6040519080825280601f01601f191660200182016040528015612312576020820181803683370190505b5090508181016020015b600019016f181899199a1a9b1b9c1cb0b131b232b360811b600a86061a8153600a850494508461231c57509392505050565b808061236257506001600160a01b03821615155b1561242457600061237284611d56565b90506001600160a01b0383161580159061239e5750826001600160a01b0316816001600160a01b031614155b80156123b157506123af8184611bf1565b155b156123da5760405163a9fbf51f60e01b81526001600160a01b0384166004820152602401610ede565b81156124225783856001600160a01b0316826001600160a01b03167f8c5be1e5ebec7d5bd14f71427d1e84f3dd0314c0f7b2291e5b200ac8c7c3b92560405160405180910390a45b505b5050600090815260046020526040902080546001600160a01b0319166001600160a01b0392909216919091179055565b6000828152601060205260408120548161246f6001856135cb565b600081815260106020526040812054919250831561248d578361248f565b865b90508287146124b65781156124a457816124a6565b825b6000888152601060205260409020555b811561128c576000838152601060205260408120559695505050505050565b6000828152600260205260408120546001600160a01b039081169083161561250257612502818486612b47565b6001600160a01b038116156125405761251f60008560008061234e565b6001600160a01b038116600090815260036020526040902080546000190190555b6001600160a01b0385161561256f576001600160a01b0385166000908152600360205260409020805460010190555b60008481526002602052604080822080546001600160a01b0319166001600160a01b0389811691821790925591518793918516917fddf252ad1be2c89b69c2b068fc378daa952ba7f163c4a11628f55a4df523b3ef91a4949350505050565b60006125d9836117cd565b60008381526007602052604090205490915080821461262c576001600160a01b03841660009081526006602090815260408083208584528252808320548484528184208190558352600790915290208190555b5060009182526007602090815260408084208490556001600160a01b039094168352600681528383209183525290812055565b600854600090612671906001906135cb565b60008381526009602052604081205460088054939450909284908110612699576126996131ab565b9060005260206000200154905080600883815481106126ba576126ba6131ab565b60009182526020808320909101929092558281526009909152604080822084905585825281205560088054806126f2576126f26135de565b6001900381819060005260206000200160009055905550505050565b6000600161271b846117cd565b61272591906135cb565b6001600160a01b039093166000908152600660209081526040808320868452825280832085905593825260079052919091209190915550565b6018546019546040516305d3b1d360e41b8152600481019290925267ffffffffffffffff8116602483015261ffff600160401b820416604483015263ffffffff600160501b820481166064840152600160701b9091041660848201526000906001600160a01b037f00000000000000000000000000000000000000000000000000000000000000001690635d3b1d309060a4016020604051808303816000875af1158015612810573d6000803e3d6000fd5b505050506040513d601f19601f8201168201806040525081019061283491906135f4565b90507ff2dc9a29f1b257c57ef50cb6c0230cacc6af60a01e5e51bde6ee1657f214a3478160405161286791815260200190565b60405180910390a190565b6001600160a01b03821661289c57604051633250574960e11b815260006004820152602401610ede565b60006128aa83836000611e8b565b90506001600160a01b038116156112b1576040516339e3563760e11b815260006004820152602401610ede565b6107d0600d5410156128e557565b60006107d0600d54101580156128fe5750610fa0600d54105b1561290c57506107d0612967565b610fa0600d54101580156129235750611770600d54105b156129315750610fa0612967565b611770600d54101580156129495750600d5461271014155b156129575750611770612967565b600d546127100361296757506127105b60405162baee2160e81b8152600481018290527f00000000000000000000000000000000000000000000000000000000000000006001600160a01b03169063baee2100906024016020604051808303816000875af11580156129cd573d6000803e3d6000fd5b505050506040513d601f19601f820116820180604052508101906129f191906133eb565b156129f95750565b60405163856a89fd60e01b8152600481018290527f00000000000000000000000000000000000000000000000000000000000000006001600160a01b03169063856a89fd90602401600060405180830381600087803b158015612a5b57600080fd5b505af11580156122b4573d6000803e3d6000fd5b60008072184f03e93ff9f4daa797ed6e38ed64bf6a1f0160401b8310612aae5772184f03e93ff9f4daa797ed6e38ed64bf6a1f0160401b830492506040015b6d04ee2d6d415b85acef81000000008310612ada576d04ee2d6d415b85acef8100000000830492506020015b662386f26fc100008310612af857662386f26fc10000830492506010015b6305f5e1008310612b10576305f5e100830492506008015b6127108310612b2457612710830492506004015b60648310612b36576064830492506002015b600a8310610cd85760010192915050565b612b52838383612bab565b6112b1576001600160a01b038316612b8057604051637e27328960e01b815260048101829052602401610ede565b60405163177e802f60e01b81526001600160a01b038316600482015260248101829052604401610ede565b60006001600160a01b03831615801590611f585750826001600160a01b0316846001600160a01b03161480612be55750612be58484611bf1565b80611f585750506000908152600460205260409020546001600160a01b03908116911614919050565b828054828255906000526020600020908101928215612c49579160200282015b82811115612c49578251825591602001919060010190612c2e565b50612c55929150612c59565b5090565b5b80821115612c555760008155600101612c5a565b6001600160e01b031981168114611f9057600080fd5b600060208284031215612c9657600080fd5b8135611acb81612c6e565b60005b83811015612cbc578181015183820152602001612ca4565b50506000910152565b60008151808452612cdd816020860160208601612ca1565b601f01601f19169290920160200192915050565b602081526000611acb6020830184612cc5565b600060208284031215612d1657600080fd5b5035919050565b80356001600160a01b0381168114612d3457600080fd5b919050565b60008060408385031215612d4c57600080fd5b612d5583612d1d565b946020939093013593505050565b634e487b7160e01b600052604160045260246000fd5b604051601f8201601f1916810167ffffffffffffffff81118282101715612da257612da2612d63565b604052919050565b60008060408385031215612dbd57600080fd5b8235915060208084013567ffffffffffffffff80821115612ddd57600080fd5b818601915086601f830112612df157600080fd5b813581811115612e0357612e03612d63565b8060051b9150612e14848301612d79565b8181529183018401918481019089841115612e2e57600080fd5b938501935b83851015612e4c57843582529385019390850190612e33565b8096505050505050509250929050565b600080600060608486031215612e7157600080fd5b612e7a84612d1d565b9250612e8860208501612d1d565b9150604084013590509250925092565b600060208284031215612eaa57600080fd5b611acb82612d1d565b60008060408385031215612ec657600080fd5b50508035926020909101359150565b60008060208385031215612ee857600080fd5b823567ffffffffffffffff80821115612f0057600080fd5b818501915085601f830112612f1457600080fd5b813581811115612f2357600080fd5b8660208260051b8501011115612f3857600080fd5b60209290920196919550909350505050565b8015158114611f9057600080fd5b60008060408385031215612f6b57600080fd5b612f7483612d1d565b91506020830135612f8481612f4a565b809150509250929050565b60008060008060808587031215612fa557600080fd5b612fae85612d1d565b93506020612fbd818701612d1d565b935060408601359250606086013567ffffffffffffffff80821115612fe157600080fd5b818801915088601f830112612ff557600080fd5b81358181111561300757613007612d63565b613019601f8201601f19168501612d79565b9150808252898482850101111561302f57600080fd5b808484018584013760008482840101525080935050505092959194509250565b6020808252825182820181905260009190848201906040850190845b818110156130875783518352928401929184019160010161306b565b50909695505050505050565b600080604083850312156130a657600080fd5b6130af83612d1d565b91506130bd60208401612d1d565b90509250929050565b6020808252825182820181905260009190848201906040850190845b818110156130875783516001600160a01b0316835292840192918401916001016130e2565b600181811c9082168061311b57607f821691505b60208210810361313b57634e487b7160e01b600052602260045260246000fd5b50919050565b634e487b7160e01b600052601160045260246000fd5b8082028115828204841417610cd857610cd8613141565b634e487b7160e01b600052601260045260246000fd5b6000826131935761319361316e565b500490565b80820180821115610cd857610cd8613141565b634e487b7160e01b600052603260045260246000fd5b60208082528181018390526000908460408401835b86811015613202576001600160a01b036131ef84612d1d565b16825291830191908301906001016131d6565b509695505050505050565b805169ffffffffffffffffffff81168114612d3457600080fd5b600080600080600060a0868803121561323f57600080fd5b6132488661320d565b945060208601519350604086015192506060860151915061326b6080870161320d565b90509295509295909350565b60006020828403121561328957600080fd5b815160ff81168114611acb57600080fd5b600181815b808511156132d55781600019048211156132bb576132bb613141565b808516156132c857918102915b93841c939080029061329f565b509250929050565b6000826132ec57506001610cd8565b816132f957506000610cd8565b816001811461330f576002811461331957613335565b6001915050610cd8565b60ff84111561332a5761332a613141565b50506001821b610cd8565b5060208310610133831016604e8410600b8410161715613358575081810a610cd8565b613362838361329a565b806000190482111561337657613376613141565b029392505050565b6000611acb60ff8416836132dd565b60008261339c5761339c61316e565b600160ff1b8214600019841416156133b6576133b6613141565b500590565b80820260008212600160ff1b841416156133d7576133d7613141565b8181058314821517610cd857610cd8613141565b6000602082840312156133fd57600080fd5b8151611acb81612f4a565b60ff8181168382160190811115610cd857610cd8613141565b600060ff821660ff810361343757613437613141565b60010192915050565b600061ffff80831681810361345757613457613141565b6001019392505050565b60008151613473818560208601612ca1565b9290920192915050565b60008084548160018260011c9150600183168061349b57607f831692505b602080841082036134ba57634e487b7160e01b86526022600452602486fd5b8180156134ce57600181146134e357613510565b60ff1986168952841515850289019650613510565b60008b81526020902060005b868110156135085781548b8201529085019083016134ef565b505084890196505b5050505050506135208185613461565b64173539b7b760d91b815260050195945050505050565b6000826135465761354661316e565b500690565b60008161355a5761355a613141565b506000190190565b60006001820161357457613574613141565b5060010190565b6001600160a01b038581168252841660208201526040810183905260806060820181905260009061128c90830184612cc5565b6000602082840312156135c057600080fd5b8151611acb81612c6e565b81810381811115610cd857610cd8613141565b634e487b7160e01b600052603160045260246000fd5b60006020828403121561360657600080fd5b505191905056fea26469706673582212209e1c5eb6afa005dc26b51bc786f8f3960373ac584e2fe2f05643d5e8d8a9aadf64736f6c63430008170033","linkReferences":{}},"methodIdentifiers":{"GOVERNOR()":"6dc0ae22","MAX_COMP_MINTS()":"7263c07e","MAX_MINTS_PER_TX()":"c6a91b42","MAX_PRESALE_MINTS()":"9208383a","MAX_SUPPLY()":"32cb6b0c","MAX_WHITELISTEES()":"dbdbbc91","PAYMENT_SPLITTER()":"a5f0292b","PRESALE()":"b4cf5648","PRICEFEED()":"d8f4d5d0","PRICE_IN_USD()":"914db51a","RAFFLE()":"6c70e851","ROYALTY_BASIS_POINTS()":"3c404a9c","SALE_OPEN()":"8e26d2aa","VRF_COORDINATOR()":"05f6a924","addRaffle2000Winners(address[])":"4404ee84","addToWhitelist(address[])":"7f649783","approve(address,uint256)":"095ea7b3","assignCompMint(address)":"5ab9120c","balanceOf(address)":"70a08231","calculatePrice(uint256)":"ae104265","callbackGasLimit()":"24f74697","getApproved(uint256)":"081812fc","getBaseUri()":"0cac36b2","getBatchTokens(uint256)":"e8c93ec9","getBuyerByIndex(uint256)":"d5a9dea4","getBuyers()":"f64bfaba","getCompMintCount()":"5a59d966","getCurrentTokenId()":"56189236","getPriceInMATIC()":"54a063ae","getRoyaltyReceiver()":"a5bd5235","getWhitelistCount()":"3edff20f","hasClaimedCompMint(address)":"289016ed","isApprovedForAll(address,address)":"e985e9c5","isBuyer(address)":"2a55feec","isCompMintRecipient(address)":"a69e689c","isMintingOpen()":"1a206910","isWhitelisted(address)":"3af32abf","keyHash()":"61728f39","mint(address,uint256)":"40c10f19","mintComp()":"ee1daa43","name()":"06fdde03","numWords()":"7ccfd7fc","ownerOf(uint256)":"6352211e","rawFulfillRandomWords(uint256,uint256[])":"1fe543e3","reducePrice(uint256)":"121925a2","remainingUris()":"e5750395","requestConfirmations()":"b0fb162f","royaltyInfo(uint256,uint256)":"2a55205a","safeTransferFrom(address,address,uint256)":"42842e0e","safeTransferFrom(address,address,uint256,bytes)":"b88d4fde","setApprovalForAll(address,bool)":"a22cb465","setRoyaltyReceiver(address)":"8dc251e3","subscriptionId()":"09c1ba2e","supportsInterface(bytes4)":"01ffc9a7","symbol()":"95d89b41","tokenByIndex(uint256)":"4f6ccce7","tokenIdToUriExtension(uint256)":"33fdcf52","tokenOfOwnerByIndex(address,uint256)":"2f745c59","tokenURI(uint256)":"c87b56dd","totalNumberOfBuyers()":"73416c24","totalSupply()":"18160ddd","transferFrom(address,address,uint256)":"23b872dd"},"id":44}