{"abi":[{"type":"constructor","inputs":[{"name":"_vrfCoordinatorV2","type":"address","internalType":"address"},{"name":"_priceFeed","type":"address","internalType":"address"},{"name":"_governor","type":"address","internalType":"address"},{"name":"_paymentSplitter","type":"address","internalType":"address"},{"name":"_royaltyReceiver","type":"address","internalType":"address"},{"name":"_presale","type":"uint256","internalType":"uint256"},{"name":"_saleOpen","type":"uint256","internalType":"uint256"},{"name":"_subscriptionId","type":"uint64","internalType":"uint64"},{"name":"_baseUri","type":"string","internalType":"string"}],"stateMutability":"nonpayable"},{"type":"function","name":"GOVERNOR","inputs":[],"outputs":[{"name":"","type":"address","internalType":"address"}],"stateMutability":"view"},{"type":"function","name":"MAX_COMP_MINTS","inputs":[],"outputs":[{"name":"","type":"uint8","internalType":"uint8"}],"stateMutability":"view"},{"type":"function","name":"MAX_MINTS_PER_TX","inputs":[],"outputs":[{"name":"","type":"uint8","internalType":"uint8"}],"stateMutability":"view"},{"type":"function","name":"MAX_OWNER_MINTS","inputs":[],"outputs":[{"name":"","type":"uint16","internalType":"uint16"}],"stateMutability":"view"},{"type":"function","name":"MAX_PRESALE_MINTS","inputs":[],"outputs":[{"name":"","type":"uint8","internalType":"uint8"}],"stateMutability":"view"},{"type":"function","name":"MAX_RAFFLE_MINTS","inputs":[],"outputs":[{"name":"","type":"uint8","internalType":"uint8"}],"stateMutability":"view"},{"type":"function","name":"MAX_SUPPLY","inputs":[],"outputs":[{"name":"","type":"uint16","internalType":"uint16"}],"stateMutability":"view"},{"type":"function","name":"MAX_WHITELISTEES","inputs":[],"outputs":[{"name":"","type":"uint16","internalType":"uint16"}],"stateMutability":"view"},{"type":"function","name":"PAYMENT_SPLITTER","inputs":[],"outputs":[{"name":"","type":"address","internalType":"address"}],"stateMutability":"view"},{"type":"function","name":"PRESALE","inputs":[],"outputs":[{"name":"","type":"uint256","internalType":"uint256"}],"stateMutability":"view"},{"type":"function","name":"PRICEFEED","inputs":[],"outputs":[{"name":"","type":"address","internalType":"contract IPricefeed"}],"stateMutability":"view"},{"type":"function","name":"PRICE_IN_USD","inputs":[],"outputs":[{"name":"","type":"uint256","internalType":"uint256"}],"stateMutability":"view"},{"type":"function","name":"ROYALTY_BASIS_POINTS","inputs":[],"outputs":[{"name":"","type":"uint96","internalType":"uint96"}],"stateMutability":"view"},{"type":"function","name":"SALE_OPEN","inputs":[],"outputs":[{"name":"","type":"uint256","internalType":"uint256"}],"stateMutability":"view"},{"type":"function","name":"VRF_COORDINATOR","inputs":[],"outputs":[{"name":"","type":"address","internalType":"contract VRFCoordinatorV2Interface"}],"stateMutability":"view"},{"type":"function","name":"addRaffle2000Winners","inputs":[{"name":"_winners","type":"address[]","internalType":"address[]"}],"outputs":[],"stateMutability":"nonpayable"},{"type":"function","name":"addToWhitelist","inputs":[{"name":"_whitelistees","type":"address[]","internalType":"address[]"}],"outputs":[],"stateMutability":"nonpayable"},{"type":"function","name":"approve","inputs":[{"name":"to","type":"address","internalType":"address"},{"name":"tokenId","type":"uint256","internalType":"uint256"}],"outputs":[],"stateMutability":"nonpayable"},{"type":"function","name":"assignCompMint","inputs":[{"name":"_recipient","type":"address","internalType":"address"}],"outputs":[],"stateMutability":"nonpayable"},{"type":"function","name":"balanceOf","inputs":[{"name":"owner","type":"address","internalType":"address"}],"outputs":[{"name":"","type":"uint256","internalType":"uint256"}],"stateMutability":"view"},{"type":"function","name":"calculatePrice","inputs":[{"name":"_numberOfTokens","type":"uint256","internalType":"uint256"}],"outputs":[{"name":"","type":"uint256","internalType":"uint256"}],"stateMutability":"view"},{"type":"function","name":"callbackGasLimit","inputs":[],"outputs":[{"name":"","type":"uint32","internalType":"uint32"}],"stateMutability":"view"},{"type":"function","name":"canMintRaffle","inputs":[{"name":"","type":"address","internalType":"address"}],"outputs":[{"name":"","type":"bool","internalType":"bool"}],"stateMutability":"view"},{"type":"function","name":"compMintCounter","inputs":[],"outputs":[{"name":"","type":"uint8","internalType":"uint8"}],"stateMutability":"view"},{"type":"function","name":"contractURI","inputs":[],"outputs":[{"name":"","type":"string","internalType":"string"}],"stateMutability":"view"},{"type":"function","name":"getApproved","inputs":[{"name":"tokenId","type":"uint256","internalType":"uint256"}],"outputs":[{"name":"","type":"address","internalType":"address"}],"stateMutability":"view"},{"type":"function","name":"getBaseUri","inputs":[],"outputs":[{"name":"","type":"string","internalType":"string"}],"stateMutability":"view"},{"type":"function","name":"getBatchTokens","inputs":[{"name":"_requestId","type":"uint256","internalType":"uint256"}],"outputs":[{"name":"","type":"uint256[]","internalType":"uint256[]"}],"stateMutability":"view"},{"type":"function","name":"getBuyerByIndex","inputs":[{"name":"index","type":"uint256","internalType":"uint256"}],"outputs":[{"name":"","type":"address","internalType":"address"}],"stateMutability":"view"},{"type":"function","name":"getBuyers","inputs":[],"outputs":[{"name":"","type":"address[]","internalType":"address[]"}],"stateMutability":"view"},{"type":"function","name":"getCompMintCount","inputs":[],"outputs":[{"name":"","type":"uint256","internalType":"uint256"}],"stateMutability":"view"},{"type":"function","name":"getCurrentTokenId","inputs":[],"outputs":[{"name":"","type":"uint256","internalType":"uint256"}],"stateMutability":"view"},{"type":"function","name":"getPriceInMATIC","inputs":[],"outputs":[{"name":"","type":"uint256","internalType":"uint256"}],"stateMutability":"view"},{"type":"function","name":"getRoyaltyReceiver","inputs":[],"outputs":[{"name":"","type":"address","internalType":"address"}],"stateMutability":"view"},{"type":"function","name":"getWhitelistCount","inputs":[],"outputs":[{"name":"","type":"uint256","internalType":"uint256"}],"stateMutability":"view"},{"type":"function","name":"hasClaimedCompMint","inputs":[{"name":"user","type":"address","internalType":"address"}],"outputs":[{"name":"","type":"bool","internalType":"bool"}],"stateMutability":"view"},{"type":"function","name":"isApprovedForAll","inputs":[{"name":"owner","type":"address","internalType":"address"},{"name":"operator","type":"address","internalType":"address"}],"outputs":[{"name":"","type":"bool","internalType":"bool"}],"stateMutability":"view"},{"type":"function","name":"isBuyer","inputs":[{"name":"","type":"address","internalType":"address"}],"outputs":[{"name":"","type":"bool","internalType":"bool"}],"stateMutability":"view"},{"type":"function","name":"isCompMintRecipient","inputs":[{"name":"user","type":"address","internalType":"address"}],"outputs":[{"name":"","type":"bool","internalType":"bool"}],"stateMutability":"view"},{"type":"function","name":"isMintingOpen","inputs":[],"outputs":[{"name":"","type":"bool","internalType":"bool"}],"stateMutability":"view"},{"type":"function","name":"isWhitelisted","inputs":[{"name":"user","type":"address","internalType":"address"}],"outputs":[{"name":"","type":"bool","internalType":"bool"}],"stateMutability":"view"},{"type":"function","name":"keyHash","inputs":[],"outputs":[{"name":"","type":"bytes32","internalType":"bytes32"}],"stateMutability":"view"},{"type":"function","name":"mint","inputs":[{"name":"_to","type":"address","internalType":"address"},{"name":"_numberOfTokens","type":"uint256","internalType":"uint256"}],"outputs":[{"name":"","type":"uint256","internalType":"uint256"}],"stateMutability":"payable"},{"type":"function","name":"mintComp","inputs":[],"outputs":[{"name":"","type":"uint256","internalType":"uint256"}],"stateMutability":"nonpayable"},{"type":"function","name":"mintRaffle","inputs":[],"outputs":[{"name":"","type":"uint256","internalType":"uint256"}],"stateMutability":"nonpayable"},{"type":"function","name":"name","inputs":[],"outputs":[{"name":"","type":"string","internalType":"string"}],"stateMutability":"view"},{"type":"function","name":"numWords","inputs":[],"outputs":[{"name":"","type":"uint32","internalType":"uint32"}],"stateMutability":"view"},{"type":"function","name":"ownerMint","inputs":[{"name":"_numberOfTokens","type":"uint256","internalType":"uint256"}],"outputs":[{"name":"requestId","type":"uint256","internalType":"uint256"}],"stateMutability":"nonpayable"},{"type":"function","name":"ownerMintCounter","inputs":[],"outputs":[{"name":"","type":"uint256","internalType":"uint256"}],"stateMutability":"view"},{"type":"function","name":"ownerOf","inputs":[{"name":"tokenId","type":"uint256","internalType":"uint256"}],"outputs":[{"name":"","type":"address","internalType":"address"}],"stateMutability":"view"},{"type":"function","name":"raffleWinnersAdded","inputs":[],"outputs":[{"name":"","type":"bool","internalType":"bool"}],"stateMutability":"view"},{"type":"function","name":"rawFulfillRandomWords","inputs":[{"name":"requestId","type":"uint256","internalType":"uint256"},{"name":"randomWords","type":"uint256[]","internalType":"uint256[]"}],"outputs":[],"stateMutability":"nonpayable"},{"type":"function","name":"remainingUris","inputs":[],"outputs":[{"name":"","type":"uint256","internalType":"uint256"}],"stateMutability":"view"},{"type":"function","name":"requestConfirmations","inputs":[],"outputs":[{"name":"","type":"uint16","internalType":"uint16"}],"stateMutability":"view"},{"type":"function","name":"royaltyInfo","inputs":[{"name":"_tokenId","type":"uint256","internalType":"uint256"},{"name":"_salePrice","type":"uint256","internalType":"uint256"}],"outputs":[{"name":"receiver","type":"address","internalType":"address"},{"name":"royaltyAmount","type":"uint256","internalType":"uint256"}],"stateMutability":"view"},{"type":"function","name":"safeTransferFrom","inputs":[{"name":"from","type":"address","internalType":"address"},{"name":"to","type":"address","internalType":"address"},{"name":"tokenId","type":"uint256","internalType":"uint256"}],"outputs":[],"stateMutability":"nonpayable"},{"type":"function","name":"safeTransferFrom","inputs":[{"name":"from","type":"address","internalType":"address"},{"name":"to","type":"address","internalType":"address"},{"name":"tokenId","type":"uint256","internalType":"uint256"},{"name":"data","type":"bytes","internalType":"bytes"}],"outputs":[],"stateMutability":"nonpayable"},{"type":"function","name":"setApprovalForAll","inputs":[{"name":"operator","type":"address","internalType":"address"},{"name":"approved","type":"bool","internalType":"bool"}],"outputs":[],"stateMutability":"nonpayable"},{"type":"function","name":"setRoyaltyReceiver","inputs":[{"name":"_newReceiver","type":"address","internalType":"address"}],"outputs":[],"stateMutability":"nonpayable"},{"type":"function","name":"setTokenPrice","inputs":[{"name":"_newPriceInUSD","type":"uint256","internalType":"uint256"}],"outputs":[],"stateMutability":"nonpayable"},{"type":"function","name":"subscriptionId","inputs":[],"outputs":[{"name":"","type":"uint64","internalType":"uint64"}],"stateMutability":"view"},{"type":"function","name":"supportsInterface","inputs":[{"name":"interfaceId","type":"bytes4","internalType":"bytes4"}],"outputs":[{"name":"","type":"bool","internalType":"bool"}],"stateMutability":"view"},{"type":"function","name":"symbol","inputs":[],"outputs":[{"name":"","type":"string","internalType":"string"}],"stateMutability":"view"},{"type":"function","name":"tokenByIndex","inputs":[{"name":"index","type":"uint256","internalType":"uint256"}],"outputs":[{"name":"","type":"uint256","internalType":"uint256"}],"stateMutability":"view"},{"type":"function","name":"tokenIdToUriExtension","inputs":[{"name":"","type":"uint256","internalType":"uint256"}],"outputs":[{"name":"","type":"uint256","internalType":"uint256"}],"stateMutability":"view"},{"type":"function","name":"tokenOfOwnerByIndex","inputs":[{"name":"owner","type":"address","internalType":"address"},{"name":"index","type":"uint256","internalType":"uint256"}],"outputs":[{"name":"","type":"uint256","internalType":"uint256"}],"stateMutability":"view"},{"type":"function","name":"tokenURI","inputs":[{"name":"_tokenId","type":"uint256","internalType":"uint256"}],"outputs":[{"name":"","type":"string","internalType":"string"}],"stateMutability":"view"},{"type":"function","name":"totalNumberOfBuyers","inputs":[],"outputs":[{"name":"","type":"uint256","internalType":"uint256"}],"stateMutability":"view"},{"type":"function","name":"totalSupply","inputs":[],"outputs":[{"name":"","type":"uint256","internalType":"uint256"}],"stateMutability":"view"},{"type":"function","name":"transferFrom","inputs":[{"name":"from","type":"address","internalType":"address"},{"name":"to","type":"address","internalType":"address"},{"name":"tokenId","type":"uint256","internalType":"uint256"}],"outputs":[],"stateMutability":"nonpayable"},{"type":"function","name":"whitelistCounter","inputs":[],"outputs":[{"name":"","type":"uint16","internalType":"uint16"}],"stateMutability":"view"},{"type":"event","name":"Approval","inputs":[{"name":"owner","type":"address","indexed":true,"internalType":"address"},{"name":"approved","type":"address","indexed":true,"internalType":"address"},{"name":"tokenId","type":"uint256","indexed":true,"internalType":"uint256"}],"anonymous":false},{"type":"event","name":"ApprovalForAll","inputs":[{"name":"owner","type":"address","indexed":true,"internalType":"address"},{"name":"operator","type":"address","indexed":true,"internalType":"address"},{"name":"approved","type":"bool","indexed":false,"internalType":"bool"}],"anonymous":false},{"type":"event","name":"RaffleWinnersAdded","inputs":[{"name":"winners","type":"address[]","indexed":false,"internalType":"address[]"}],"anonymous":false},{"type":"event","name":"RoyaltyReceiverChanged","inputs":[{"name":"newReceiver","type":"address","indexed":false,"internalType":"address"}],"anonymous":false},{"type":"event","name":"TokenPriceChanged","inputs":[{"name":"newPrice","type":"uint256","indexed":false,"internalType":"uint256"}],"anonymous":false},{"type":"event","name":"Transfer","inputs":[{"name":"from","type":"address","indexed":true,"internalType":"address"},{"name":"to","type":"address","indexed":true,"internalType":"address"},{"name":"tokenId","type":"uint256","indexed":true,"internalType":"uint256"}],"anonymous":false},{"type":"event","name":"VRFRequestCreated","inputs":[{"name":"requestId","type":"uint256","indexed":false,"internalType":"uint256"}],"anonymous":false},{"type":"error","name":"ERC721EnumerableForbiddenBatchMint","inputs":[]},{"type":"error","name":"ERC721IncorrectOwner","inputs":[{"name":"sender","type":"address","internalType":"address"},{"name":"tokenId","type":"uint256","internalType":"uint256"},{"name":"owner","type":"address","internalType":"address"}]},{"type":"error","name":"ERC721InsufficientApproval","inputs":[{"name":"operator","type":"address","internalType":"address"},{"name":"tokenId","type":"uint256","internalType":"uint256"}]},{"type":"error","name":"ERC721InvalidApprover","inputs":[{"name":"approver","type":"address","internalType":"address"}]},{"type":"error","name":"ERC721InvalidOperator","inputs":[{"name":"operator","type":"address","internalType":"address"}]},{"type":"error","name":"ERC721InvalidOwner","inputs":[{"name":"owner","type":"address","internalType":"address"}]},{"type":"error","name":"ERC721InvalidReceiver","inputs":[{"name":"receiver","type":"address","internalType":"address"}]},{"type":"error","name":"ERC721InvalidSender","inputs":[{"name":"sender","type":"address","internalType":"address"}]},{"type":"error","name":"ERC721NonexistentToken","inputs":[{"name":"tokenId","type":"uint256","internalType":"uint256"}]},{"type":"error","name":"ERC721OutOfBoundsIndex","inputs":[{"name":"owner","type":"address","internalType":"address"},{"name":"index","type":"uint256","internalType":"uint256"}]},{"type":"error","name":"OnlyCoordinatorCanFulfill","inputs":[{"name":"have","type":"address","internalType":"address"},{"name":"want","type":"address","internalType":"address"}]},{"type":"error","name":"OrcNation__CompMintAlreadyAssignedToAddress","inputs":[]},{"type":"error","name":"OrcNation__CompMintAlreadyClaimed","inputs":[]},{"type":"error","name":"OrcNation__InsufficientPayment","inputs":[{"name":"paymentDue","type":"uint256","internalType":"uint256"}]},{"type":"error","name":"OrcNation__InvalidNewPrice","inputs":[]},{"type":"error","name":"OrcNation__InvalidSaleTime","inputs":[]},{"type":"error","name":"OrcNation__MaxCompMintsExceeded","inputs":[]},{"type":"error","name":"OrcNation__MaxMintsPerTransactionExceeded","inputs":[]},{"type":"error","name":"OrcNation__MaxRaffleWinnersExceeded","inputs":[]},{"type":"error","name":"OrcNation__MaxThreePresaleMintsPerWhitelistedAddress","inputs":[]},{"type":"error","name":"OrcNation__MintingNotOpen","inputs":[]},{"type":"error","name":"OrcNation__MustMintAtLeastOneToken","inputs":[]},{"type":"error","name":"OrcNation__NotEligibleForCompMint","inputs":[]},{"type":"error","name":"OrcNation__NotEligibleForRaffleMint","inputs":[]},{"type":"error","name":"OrcNation__NotWhitelisted","inputs":[]},{"type":"error","name":"OrcNation__OnlyAdmin","inputs":[]},{"type":"error","name":"OrcNation__OnlyGovernor","inputs":[]},{"type":"error","name":"OrcNation__PriceFeedAnswerNegative","inputs":[]},{"type":"error","name":"OrcNation__RaffleOnlyAfter2000Tokens","inputs":[]},{"type":"error","name":"OrcNation__RaffleWinnersAlreadyAdded","inputs":[]},{"type":"error","name":"OrcNation__TokenDoesNotExist","inputs":[]},{"type":"error","name":"OrcNation__WillExceedMaxOwnerMints","inputs":[]},{"type":"error","name":"OrcNation__WillExceedMaxSupply","inputs":[]},{"type":"error","name":"OrcNation__WillExceedMaxWhitelistees","inputs":[]}],"bytecode":{"object":"0x6101606040526041600a556127106010557fcc294a196eeeb44da2888d17c0625cc88d70d9760a69d58d853ba6581a9ab0cd601b55601c8054600160401b600160901b0319166e01000f4240000300000000000000001790553480156200006557600080fd5b5060405162003cdc38038062003cdc8339810160408190526200008891620001cf565b604080518082018252600981526827b931a730ba34b7b760b91b602080830191909152825180840190935260048352634f52435360e01b908301526001600160a01b038b16608052906000620000df8382620003c5565b506001620000ee8282620003c5565b50505042841080620000ff57508383105b156200011e576040516336e24cf360e01b815260040160405180910390fd5b6001600160a01b0389811660a05288811660c0528781166101005286811660e052600d80546001600160a01b031916918716919091179055600e620001648282620003c5565b50506101209290925261014052601c80546001600160401b0319166001600160401b0390921691909117905550620004919350505050565b80516001600160a01b0381168114620001b457600080fd5b919050565b634e487b7160e01b600052604160045260246000fd5b60008060008060008060008060006101208a8c031215620001ef57600080fd5b620001fa8a6200019c565b98506200020a60208b016200019c565b97506200021a60408b016200019c565b96506200022a60608b016200019c565b95506200023a60808b016200019c565b60a08b015160c08c015160e08d015192975090955093506001600160401b0380821682146200026857600080fd5b6101008c0151919350808211156200027f57600080fd5b818c0191508c601f8301126200029457600080fd5b815181811115620002a957620002a9620001b9565b604051601f8201601f19908116603f01168101908382118183101715620002d457620002d4620001b9565b816040528281528f6020848701011115620002ee57600080fd5b600093505b8284101562000316576020848601015160208583010152602084019350620002f3565b60006020848301015280955050505050509295985092959850929598565b600181811c908216806200034957607f821691505b6020821081036200036a57634e487b7160e01b600052602260045260246000fd5b50919050565b601f821115620003c0576000816000526020600020601f850160051c810160208610156200039b5750805b601f850160051c820191505b81811015620003bc57828155600101620003a7565b5050505b505050565b81516001600160401b03811115620003e157620003e1620001b9565b620003f981620003f2845462000334565b8462000370565b602080601f831160018114620004315760008415620004185750858301515b600019600386901b1c1916600185901b178555620003bc565b600085815260208120601f198616915b82811015620004625788860151825594840194600190910190840162000441565b5085821015620004815787850151600019600388901b60f8161c191681555b5050505050600190811b01905550565b60805160a05160c05160e05161010051610120516101405161376b6200057160003960008181610a87015281816111160152611bfc01526000818161057701528181610bfd015281816110aa015281816110eb01528181611b1501528181611bd10152611d9201526000818161095f015281816113360152818161167b015281816117f0015281816118f301528181611a590152611e7c015260008181610b4e015261122d015260008181610cbc015281816114f601526115a201526000818161045c0152612a77015260008181610ee80152610f2a015261376b6000f3fe6080604052600436106104105760003560e01c80636dc0ae221161021e578063ae10426511610123578063dbdbbc91116100ab578063e985e9c51161007a578063e985e9c514610d21578063eaf7f57614610d41578063ee1daa4314610d5b578063f19e75d414610d70578063f64bfaba14610d9057600080fd5b8063dbdbbc9114610c3f578063e575039514610cde578063e8a3d48514610534578063e8c93ec914610cf457600080fd5b8063c5f8776c116100f2578063c5f8776c14610c3f578063c6a91b4214610c55578063c87b56dd14610c6a578063d5a9dea414610c8a578063d8f4d5d014610caa57600080fd5b8063ae10426514610ba9578063b0fb162f14610bc9578063b4cf564814610beb578063b88d4fde14610c1f57600080fd5b80638e26d2aa116101a6578063a22cb46511610175578063a22cb46514610ae9578063a381512114610b09578063a5bd523514610b1e578063a5f0292b14610b3c578063a69e689c14610b7057600080fd5b80638e26d2aa14610a75578063914db51a14610aa95780639208383a14610abf57806395d89b4114610ad457600080fd5b806377071052116101ed57806377071052146109cb5780637ccfd7fc146109e15780637f64978314610a0557806380b7718114610a255780638dc251e314610a5557600080fd5b80636dc0ae221461094d57806370a08231146109815780637263c07e146109a157806373416c24146109b657600080fd5b80632f745c59116103245780634654e6d6116102ac5780635a59d9661161027b5780635a59d966146108b95780635ab9120c146108d757806361728f39146108f75780636352211e1461090d5780636a61e5fc1461092d57600080fd5b80634654e6d61461084f5780634f6ccce71461086f57806354a063ae1461088f57806356189236146108a457600080fd5b80633c404a9c116102f35780633c404a9c146107b05780633edff20f146107e357806340c10f19146107fc57806342842e0e1461080f5780634404ee841461082f57600080fd5b80632f745c591461071457806332cb6b0c1461073457806333fdcf521461074a5780633af32abf1461077757600080fd5b80631a206910116103a757806324f746971161037657806324f746971461060557806326f27e6d1461063e578063289016ed1461066c5780632a55205a146106a55780632a55feec146106e457600080fd5b80631a206910146105685780631fe543e31461059e578063227b1614146105be57806323b872dd146105e557600080fd5b8063095ea7b3116103e3578063095ea7b3146104d857806309c1ba2e146104fa5780630cac36b21461053457806318160ddd1461054957600080fd5b806301ffc9a71461041557806305f6a9241461044a57806306fdde0314610496578063081812fc146104b8575b600080fd5b34801561042157600080fd5b50610435610430366004612d9c565b610db2565b60405190151581526020015b60405180910390f35b34801561045657600080fd5b5061047e7f000000000000000000000000000000000000000000000000000000000000000081565b6040516001600160a01b039091168152602001610441565b3480156104a257600080fd5b506104ab610e04565b6040516104419190612e09565b3480156104c457600080fd5b5061047e6104d3366004612e1c565b610e96565b3480156104e457600080fd5b506104f86104f3366004612e51565b610ebf565b005b34801561050657600080fd5b50601c5461051b9067ffffffffffffffff1681565b60405167ffffffffffffffff9091168152602001610441565b34801561054057600080fd5b506104ab610ece565b34801561055557600080fd5b506008545b604051908152602001610441565b34801561057457600080fd5b507f0000000000000000000000000000000000000000000000000000000000000000421015610435565b3480156105aa57600080fd5b506104f86105b9366004612ec2565b610edd565b3480156105ca57600080fd5b506105d3600581565b60405160ff9091168152602001610441565b3480156105f157600080fd5b506104f8610600366004612f74565b610f66565b34801561061157600080fd5b50601c5461062990600160501b900463ffffffff1681565b60405163ffffffff9091168152602001610441565b34801561064a57600080fd5b50600b546106599061ffff1681565b60405161ffff9091168152602001610441565b34801561067857600080fd5b50610435610687366004612fb0565b6001600160a01b031660009081526016602052604090205460ff1690565b3480156106b157600080fd5b506106c56106c0366004612fcb565b610ff1565b604080516001600160a01b039093168352602083019190915201610441565b3480156106f057600080fd5b506104356106ff366004612fb0565b60186020526000908152604090205460ff1681565b34801561072057600080fd5b5061055a61072f366004612e51565b611041565b34801561074057600080fd5b5061065961271081565b34801561075657600080fd5b5061055a610765366004612e1c565b60136020526000908152604090205481565b34801561078357600080fd5b50610435610792366004612fb0565b6001600160a01b031660009081526014602052604090205460ff1690565b3480156107bc57600080fd5b506107c66101f481565b6040516bffffffffffffffffffffffff9091168152602001610441565b3480156107ef57600080fd5b50600b5461ffff1661055a565b61055a61080a366004612e51565b6110a6565b34801561081b57600080fd5b506104f861082a366004612f74565b61130b565b34801561083b57600080fd5b506104f861084a366004612fed565b61132b565b34801561085b57600080fd5b50600b546105d39062010000900460ff1681565b34801561087b57600080fd5b5061055a61088a366004612e1c565b611498565b34801561089b57600080fd5b5061055a6114f1565b3480156108b057600080fd5b50600f5461055a565b3480156108c557600080fd5b50600b5462010000900460ff1661055a565b3480156108e357600080fd5b506104f86108f2366004612fb0565b611666565b34801561090357600080fd5b5061055a601b5481565b34801561091957600080fd5b5061047e610928366004612e1c565b6117da565b34801561093957600080fd5b506104f8610948366004612e1c565b6117e5565b34801561095957600080fd5b5061047e7f000000000000000000000000000000000000000000000000000000000000000081565b34801561098d57600080fd5b5061055a61099c366004612fb0565b611896565b3480156109ad57600080fd5b506105d3603281565b3480156109c257600080fd5b5060175461055a565b3480156109d757600080fd5b5061055a600c5481565b3480156109ed57600080fd5b50601c5461062990600160701b900463ffffffff1681565b348015610a1157600080fd5b506104f8610a20366004612fed565b6118de565b348015610a3157600080fd5b50610435610a40366004612fb0565b601a6020526000908152604090205460ff1681565b348015610a6157600080fd5b506104f8610a70366004612fb0565b611a4e565b348015610a8157600080fd5b5061055a7f000000000000000000000000000000000000000000000000000000000000000081565b348015610ab557600080fd5b5061055a600a5481565b348015610acb57600080fd5b506105d3600381565b348015610ae057600080fd5b506104ab611af7565b348015610af557600080fd5b506104f8610b04366004613070565b611b06565b348015610b1557600080fd5b5061055a611b11565b348015610b2a57600080fd5b50600d546001600160a01b031661047e565b348015610b4857600080fd5b5061047e7f000000000000000000000000000000000000000000000000000000000000000081565b348015610b7c57600080fd5b50610435610b8b366004612fb0565b6001600160a01b031660009081526015602052604090205460ff1690565b348015610bb557600080fd5b5061055a610bc4366004612e1c565b611bb7565b348015610bd557600080fd5b50601c5461065990600160401b900461ffff1681565b348015610bf757600080fd5b5061055a7f000000000000000000000000000000000000000000000000000000000000000081565b348015610c2b57600080fd5b506104f8610c3a3660046130a7565b611c41565b348015610c4b57600080fd5b506106596101f481565b348015610c6157600080fd5b506105d3600a81565b348015610c7657600080fd5b506104ab610c85366004612e1c565b611c58565b348015610c9657600080fd5b5061047e610ca5366004612e1c565b611cce565b348015610cb657600080fd5b5061047e7f000000000000000000000000000000000000000000000000000000000000000081565b348015610cea57600080fd5b5061055a60105481565b348015610d0057600080fd5b50610d14610d0f366004612e1c565b611cfe565b6040516104419190613167565b348015610d2d57600080fd5b50610435610d3c3660046131ab565b611d60565b348015610d4d57600080fd5b506019546104359060ff1681565b348015610d6757600080fd5b5061055a611d8e565b348015610d7c57600080fd5b5061055a610d8b366004612e1c565b611e64565b348015610d9c57600080fd5b50610da5611fab565b60405161044191906131de565b60006301ffc9a760e01b6001600160e01b031983161480610de357506380ac58cd60e01b6001600160e01b03198316145b80610dfe575063152a902d60e11b6001600160e01b03198316145b92915050565b606060008054610e139061321f565b80601f0160208091040260200160405190810160405280929190818152602001828054610e3f9061321f565b8015610e8c5780601f10610e6157610100808354040283529160200191610e8c565b820191906000526020600020905b815481529060010190602001808311610e6f57829003601f168201915b5050505050905090565b6000610ea18261200c565b506000828152600460205260409020546001600160a01b0316610dfe565b610eca828233612045565b5050565b6060600e8054610e139061321f565b336001600160a01b037f00000000000000000000000000000000000000000000000000000000000000001614610f5c5760405163073e64fd60e21b81523360048201526001600160a01b037f00000000000000000000000000000000000000000000000000000000000000001660248201526044015b60405180910390fd5b610eca8282612052565b6001600160a01b038216610f9057604051633250574960e11b815260006004820152602401610f53565b6000610f9d838333612141565b9050836001600160a01b0316816001600160a01b031614610feb576040516364283d7b60e01b81526001600160a01b0380861660048301526024820184905282166044820152606401610f53565b50505050565b60008080610ffe856117da565b6001600160a01b03160361101157600080fd5b600d546001600160a01b031661271061102c6101f48661326f565b611036919061329c565b915091509250929050565b600061104c83611896565b821061107d5760405163295f44f760e21b81526001600160a01b038416600482015260248101839052604401610f53565b506001600160a01b03919091166000908152600660209081526040808320938352929052205490565b60007f00000000000000000000000000000000000000000000000000000000000000004210156110e95760405163f0b9693f60e01b815260040160405180910390fd5b7f0000000000000000000000000000000000000000000000000000000000000000421015801561113857507f000000000000000000000000000000000000000000000000000000000000000042105b156111ab576001600160a01b03831660009081526014602052604090205460ff166111765760405163cb060eb160e01b815260040160405180910390fd5b60038261118285611896565b61118c91906132b0565b11156111ab576040516380b2c43f60e01b815260040160405180910390fd5b60018210156111cd5760405163ea1112df60e01b815260040160405180910390fd5b600a8211156111ef5760405163416296fd60e01b815260040160405180910390fd5b6111f882612216565b600061120383611bb7565b905080341015611229576040516334272af160e01b815260048101829052602401610f53565b60007f00000000000000000000000000000000000000000000000000000000000000006001600160a01b03163460405160006040518083038185875af1925050503d8060008114611296576040519150601f19603f3d011682016040523d82523d6000602084013e61129b565b606091505b50509050806112ec5760405162461bcd60e51b815260206004820152601760248201527f5061796d656e74207472616e73666572206661696c65640000000000000000006044820152606401610f53565b6112f58561224a565b600061130186866122d1565b9695505050505050565b61132683838360405180602001604052806000815250611c41565b505050565b336001600160a01b037f000000000000000000000000000000000000000000000000000000000000000016146113735760405162ac0b2f60e41b815260040160405180910390fd5b6107d061137f600f5490565b101561139e57604051637428454960e11b815260040160405180910390fd5b60058111156113c057604051633d4bb35160e01b815260040160405180910390fd5b60195460ff16156113e45760405163db6e65c760e01b815260040160405180910390fd5b60005b8181101561144c576001601a6000858585818110611407576114076132c3565b905060200201602081019061141c9190612fb0565b6001600160a01b031681526020810191909152604001600020805460ff19169115159190911790556001016113e7565b506019805460ff191660011790556040517f743d27e70dad1517ab7a2613a62cb57ea1ac4d6c0ca6d489bfbb5b468400f5d99061148c90849084906132d9565b60405180910390a15050565b60006114a360085490565b82106114cc5760405163295f44f760e21b81526000600482015260248101839052604401610f53565b600882815481106114df576114df6132c3565b90600052602060002001549050919050565b6000807f00000000000000000000000000000000000000000000000000000000000000006001600160a01b031663feaf968c6040518163ffffffff1660e01b815260040160a060405180830381865afa158015611552573d6000803e3d6000fd5b505050506040513d601f19601f82011682018060405250810190611576919061333f565b505050915050600081121561159e57604051632bea283f60e11b815260040160405180910390fd5b60007f00000000000000000000000000000000000000000000000000000000000000006001600160a01b031663313ce5676040518163ffffffff1660e01b8152600401602060405180830381865afa1580156115fe573d6000803e3d6000fd5b505050506040513d601f19601f82011682018060405250810190611622919061338f565b61162d90600a613496565b90506000600a54670de0b6b3a7640000611647919061326f565b90508161165484836134a5565b61165e91906134d3565b935050505090565b604051630935e01b60e21b81523360048201527f00000000000000000000000000000000000000000000000000000000000000006001600160a01b0316906324d7806c90602401602060405180830381865afa1580156116ca573d6000803e3d6000fd5b505050506040513d601f19601f820116820180604052508101906116ee9190613503565b61170b576040516354fe416f60e01b815260040160405180910390fd5b6001600160a01b03811660009081526015602052604090205460ff1615611745576040516348c3a61560e11b815260040160405180910390fd5b600b5460329061175f9062010000900460ff166001613520565b60ff16111561178157604051630138ee3960e31b815260040160405180910390fd5b600b805460029061179a9062010000900460ff16613539565b825460ff9182166101009390930a92830291909202199091161790556001600160a01b03166000908152601560205260409020805460ff19166001179055565b6000610dfe8261200c565b336001600160a01b037f0000000000000000000000000000000000000000000000000000000000000000161461182d5760405162ac0b2f60e41b815260040160405180910390fd5b602081108061183c5750606181115b1561185a57604051631d0bf16360e31b815260040160405180910390fd5b600a8190556040518181527fac21bacd333b316c6640fca5086322638b0a7aa4367179afd5dfcbe0a5427bc7906020015b60405180910390a150565b60006001600160a01b0382166118c2576040516322718ad960e21b815260006004820152602401610f53565b506001600160a01b031660009081526003602052604090205490565b604051630935e01b60e21b81523360048201527f00000000000000000000000000000000000000000000000000000000000000006001600160a01b0316906324d7806c90602401602060405180830381865afa158015611942573d6000803e3d6000fd5b505050506040513d601f19601f820116820180604052508101906119669190613503565b611983576040516354fe416f60e01b815260040160405180910390fd5b600b546101f49061199990839061ffff166132b0565b11156119b8576040516354f4fdbf60e11b815260040160405180910390fd5b60005b8181101561132657600b80546000906119d79061ffff16613558565b91906101000a81548161ffff021916908361ffff160217905550600160146000858585818110611a0957611a096132c3565b9050602002016020810190611a1e9190612fb0565b6001600160a01b031681526020810191909152604001600020805460ff19169115159190911790556001016119bb565b336001600160a01b037f00000000000000000000000000000000000000000000000000000000000000001614611a965760405162ac0b2f60e41b815260040160405180910390fd5b6001600160a01b038116611aa957600080fd5b600d80546001600160a01b0319166001600160a01b0383169081179091556040519081527ff18ed8da4fbddf768618d066780de11fb9a756a8b30128c77e6a128500b65a319060200161188b565b606060018054610e139061321f565b610eca3383836123a3565b60007f0000000000000000000000000000000000000000000000000000000000000000421015611b545760405163f0b9693f60e01b815260040160405180910390fd5b336000908152601a602052604090205460ff16611b8457604051630440fe9960e41b815260040160405180910390fd5b611b8e6001612216565b336000818152601a60205260408120805460ff1916905590611bb19060016122d1565b91505090565b60008082611bc36114f1565b611bcd919061326f565b90507f00000000000000000000000000000000000000000000000000000000000000004210158015611c1e57507f000000000000000000000000000000000000000000000000000000000000000042105b15610dfe576064611c3082605561326f565b611c3a919061329c565b9392505050565b611c4c848484610f66565b610feb84848484612442565b60606000611c65836117da565b6001600160a01b031603611c8c5760405163039530c360e61b815260040160405180910390fd5b600082815260136020526040902054600e90611ca79061256b565b604051602001611cb8929190613595565b6040516020818303038152906040529050919050565b600060178281548110611ce357611ce36132c3565b6000918252602090912001546001600160a01b031692915050565b600081815260116020908152604091829020805483518184028101840190945280845260609392830182828015611d5457602002820191906000526020600020905b815481526020019060010190808311611d40575b50505050509050919050565b6001600160a01b03918216600090815260056020908152604080832093909416825291909152205460ff1690565b60007f0000000000000000000000000000000000000000000000000000000000000000421015611dd15760405163f0b9693f60e01b815260040160405180910390fd5b3360009081526015602052604090205460ff16611e0157604051631624b2cf60e11b815260040160405180910390fd5b3360009081526016602052604090205460ff1615611e3257604051632d11162b60e21b815260040160405180910390fd5b611e3c6001612216565b336000818152601660205260408120805460ff191660019081179091559091611bb1916122d1565b604051630935e01b60e21b81523360048201526000907f00000000000000000000000000000000000000000000000000000000000000006001600160a01b0316906324d7806c90602401602060405180830381865afa158015611ecb573d6000803e3d6000fd5b505050506040513d601f19601f82011682018060405250810190611eef9190613503565b611f0c576040516354fe416f60e01b815260040160405180910390fd5b6001821015611f2e5760405163ea1112df60e01b815260040160405180910390fd5b600c546101f490611f3f90846132b0565b1115611f5e5760405163c64fc4cb60e01b815260040160405180910390fd5b600a821115611f805760405163416296fd60e01b815260040160405180910390fd5b611f8982612216565b81600c6000828254611f9b91906132b0565b90915550610dfe905033836122d1565b60606017805480602002602001604051908101604052809291908181526020018280548015610e8c57602002820191906000526020600020905b81546001600160a01b03168152600190910190602001808311611fe5575050505050905090565b6000818152600260205260408120546001600160a01b031680610dfe57604051637e27328960e01b815260048101849052602401610f53565b61132683838360016125fe565b60105460005b6000848152601160205260409020548110156121395760008284600081518110612084576120846132c3565b6020026020010151836040516020016120a7929190918252602082015260400190565b6040516020818303038152906040528051906020012060001c6120ca919061365f565b905060006120d88285612704565b90508060136000601160008a81526020019081526020016000208681548110612103576121036132c3565b90600052602060002001548152602001908152602001600020819055508361212a90613673565b93508260010192505050612058565b506010555050565b60008061214f858585612785565b90506001600160a01b0381166121ac576121a784600880546000838152600960205260408120829055600182018355919091527ff3f7a9fe364faab93b216da50a3214154f22a0a2b415b23a84c8169e8b636ee30155565b6121cf565b846001600160a01b0316816001600160a01b0316146121cf576121cf818561287e565b6001600160a01b0385166121eb576121e68461290f565b61220e565b846001600160a01b0316816001600160a01b03161461220e5761220e85856129be565b949350505050565b600f54612710906122289083906132b0565b11156122475760405163229ed32160e01b815260040160405180910390fd5b50565b6001600160a01b03811660009081526018602052604090205460ff16612247576017805460018181019092557fc624b66cc0138b8fabc209247f72d758e1cf3343756d543badbf24212bed8c150180546001600160a01b0384166001600160a01b031990911681179091556000908152601860205260409020805460ff1916909117905550565b6000806122dc612a0e565b905060008367ffffffffffffffff8111156122f9576122f9612e7b565b604051908082528060200260200182016040528015612322578160200160208202803683370190505b50905060005b8481101561237957600f6000815461233f9061368a565b90915550600f54612351908790612b22565b600f54828281518110612366576123666132c3565b6020908102919091010152600101612328565b506000828152601160209081526040909120825161239992840190612d26565b5090949350505050565b6001600160a01b0382166123d557604051630b61174360e31b81526001600160a01b0383166004820152602401610f53565b6001600160a01b03838116600081815260056020908152604080832094871680845294825291829020805460ff191686151590811790915591519182527f17307eab39ab6107e8899845ad3d59bd9653f200f220920489ca2b5937696c31910160405180910390a3505050565b6001600160a01b0383163b15610feb57604051630a85bd0160e11b81526001600160a01b0384169063150b7a02906124849033908890879087906004016136a3565b6020604051808303816000875af19250505080156124bf575060408051601f3d908101601f191682019092526124bc918101906136d6565b60015b612528573d8080156124ed576040519150601f19603f3d011682016040523d82523d6000602084013e6124f2565b606091505b50805160000361252057604051633250574960e11b81526001600160a01b0385166004820152602401610f53565b805181602001fd5b6001600160e01b03198116630a85bd0160e11b1461256457604051633250574960e11b81526001600160a01b0385166004820152602401610f53565b5050505050565b6060600061257883612b87565b600101905060008167ffffffffffffffff81111561259857612598612e7b565b6040519080825280601f01601f1916602001820160405280156125c2576020820181803683370190505b5090508181016020015b600019016f181899199a1a9b1b9c1cb0b131b232b360811b600a86061a8153600a85049450846125cc57509392505050565b808061261257506001600160a01b03821615155b156126d45760006126228461200c565b90506001600160a01b0383161580159061264e5750826001600160a01b0316816001600160a01b031614155b8015612661575061265f8184611d60565b155b1561268a5760405163a9fbf51f60e01b81526001600160a01b0384166004820152602401610f53565b81156126d25783856001600160a01b0316826001600160a01b03167f8c5be1e5ebec7d5bd14f71427d1e84f3dd0314c0f7b2291e5b200ac8c7c3b92560405160405180910390a45b505b5050600090815260046020526040902080546001600160a01b0319166001600160a01b0392909216919091179055565b6000828152601260205260408120548161271f6001856136f3565b600081815260126020526040812054919250831561273d578361273f565b865b90508287146127665781156127545781612756565b825b6000888152601260205260409020555b8115611301576000838152601260205260408120559695505050505050565b6000828152600260205260408120546001600160a01b03908116908316156127b2576127b2818486612c5f565b6001600160a01b038116156127f0576127cf6000856000806125fe565b6001600160a01b038116600090815260036020526040902080546000190190555b6001600160a01b0385161561281f576001600160a01b0385166000908152600360205260409020805460010190555b60008481526002602052604080822080546001600160a01b0319166001600160a01b0389811691821790925591518793918516917fddf252ad1be2c89b69c2b068fc378daa952ba7f163c4a11628f55a4df523b3ef91a4949350505050565b600061288983611896565b6000838152600760205260409020549091508082146128dc576001600160a01b03841660009081526006602090815260408083208584528252808320548484528184208190558352600790915290208190555b5060009182526007602090815260408084208490556001600160a01b039094168352600681528383209183525290812055565b600854600090612921906001906136f3565b60008381526009602052604081205460088054939450909284908110612949576129496132c3565b90600052602060002001549050806008838154811061296a5761296a6132c3565b60009182526020808320909101929092558281526009909152604080822084905585825281205560088054806129a2576129a2613706565b6001900381819060005260206000200160009055905550505050565b600060016129cb84611896565b6129d591906136f3565b6001600160a01b039093166000908152600660209081526040808320868452825280832085905593825260079052919091209190915550565b601b54601c546040516305d3b1d360e41b8152600481019290925267ffffffffffffffff8116602483015261ffff600160401b820416604483015263ffffffff600160501b820481166064840152600160701b9091041660848201526000906001600160a01b037f00000000000000000000000000000000000000000000000000000000000000001690635d3b1d309060a4016020604051808303816000875af1158015612ac0573d6000803e3d6000fd5b505050506040513d601f19601f82011682018060405250810190612ae4919061371c565b90507ff2dc9a29f1b257c57ef50cb6c0230cacc6af60a01e5e51bde6ee1657f214a34781604051612b1791815260200190565b60405180910390a190565b6001600160a01b038216612b4c57604051633250574960e11b815260006004820152602401610f53565b6000612b5a83836000612141565b90506001600160a01b03811615611326576040516339e3563760e11b815260006004820152602401610f53565b60008072184f03e93ff9f4daa797ed6e38ed64bf6a1f0160401b8310612bc65772184f03e93ff9f4daa797ed6e38ed64bf6a1f0160401b830492506040015b6d04ee2d6d415b85acef81000000008310612bf2576d04ee2d6d415b85acef8100000000830492506020015b662386f26fc100008310612c1057662386f26fc10000830492506010015b6305f5e1008310612c28576305f5e100830492506008015b6127108310612c3c57612710830492506004015b60648310612c4e576064830492506002015b600a8310610dfe5760010192915050565b612c6a838383612cc3565b611326576001600160a01b038316612c9857604051637e27328960e01b815260048101829052602401610f53565b60405163177e802f60e01b81526001600160a01b038316600482015260248101829052604401610f53565b60006001600160a01b0383161580159061220e5750826001600160a01b0316846001600160a01b03161480612cfd5750612cfd8484611d60565b8061220e5750506000908152600460205260409020546001600160a01b03908116911614919050565b828054828255906000526020600020908101928215612d61579160200282015b82811115612d61578251825591602001919060010190612d46565b50612d6d929150612d71565b5090565b5b80821115612d6d5760008155600101612d72565b6001600160e01b03198116811461224757600080fd5b600060208284031215612dae57600080fd5b8135611c3a81612d86565b60005b83811015612dd4578181015183820152602001612dbc565b50506000910152565b60008151808452612df5816020860160208601612db9565b601f01601f19169290920160200192915050565b602081526000611c3a6020830184612ddd565b600060208284031215612e2e57600080fd5b5035919050565b80356001600160a01b0381168114612e4c57600080fd5b919050565b60008060408385031215612e6457600080fd5b612e6d83612e35565b946020939093013593505050565b634e487b7160e01b600052604160045260246000fd5b604051601f8201601f1916810167ffffffffffffffff81118282101715612eba57612eba612e7b565b604052919050565b60008060408385031215612ed557600080fd5b8235915060208084013567ffffffffffffffff80821115612ef557600080fd5b818601915086601f830112612f0957600080fd5b813581811115612f1b57612f1b612e7b565b8060051b9150612f2c848301612e91565b8181529183018401918481019089841115612f4657600080fd5b938501935b83851015612f6457843582529385019390850190612f4b565b8096505050505050509250929050565b600080600060608486031215612f8957600080fd5b612f9284612e35565b9250612fa060208501612e35565b9150604084013590509250925092565b600060208284031215612fc257600080fd5b611c3a82612e35565b60008060408385031215612fde57600080fd5b50508035926020909101359150565b6000806020838503121561300057600080fd5b823567ffffffffffffffff8082111561301857600080fd5b818501915085601f83011261302c57600080fd5b81358181111561303b57600080fd5b8660208260051b850101111561305057600080fd5b60209290920196919550909350505050565b801515811461224757600080fd5b6000806040838503121561308357600080fd5b61308c83612e35565b9150602083013561309c81613062565b809150509250929050565b600080600080608085870312156130bd57600080fd5b6130c685612e35565b935060206130d5818701612e35565b935060408601359250606086013567ffffffffffffffff808211156130f957600080fd5b818801915088601f83011261310d57600080fd5b81358181111561311f5761311f612e7b565b613131601f8201601f19168501612e91565b9150808252898482850101111561314757600080fd5b808484018584013760008482840101525080935050505092959194509250565b6020808252825182820181905260009190848201906040850190845b8181101561319f57835183529284019291840191600101613183565b50909695505050505050565b600080604083850312156131be57600080fd5b6131c783612e35565b91506131d560208401612e35565b90509250929050565b6020808252825182820181905260009190848201906040850190845b8181101561319f5783516001600160a01b0316835292840192918401916001016131fa565b600181811c9082168061323357607f821691505b60208210810361325357634e487b7160e01b600052602260045260246000fd5b50919050565b634e487b7160e01b600052601160045260246000fd5b8082028115828204841417610dfe57610dfe613259565b634e487b7160e01b600052601260045260246000fd5b6000826132ab576132ab613286565b500490565b80820180821115610dfe57610dfe613259565b634e487b7160e01b600052603260045260246000fd5b60208082528181018390526000908460408401835b8681101561331a576001600160a01b0361330784612e35565b16825291830191908301906001016132ee565b509695505050505050565b805169ffffffffffffffffffff81168114612e4c57600080fd5b600080600080600060a0868803121561335757600080fd5b61336086613325565b945060208601519350604086015192506060860151915061338360808701613325565b90509295509295909350565b6000602082840312156133a157600080fd5b815160ff81168114611c3a57600080fd5b600181815b808511156133ed5781600019048211156133d3576133d3613259565b808516156133e057918102915b93841c93908002906133b7565b509250929050565b60008261340457506001610dfe565b8161341157506000610dfe565b816001811461342757600281146134315761344d565b6001915050610dfe565b60ff84111561344257613442613259565b50506001821b610dfe565b5060208310610133831016604e8410600b8410161715613470575081810a610dfe565b61347a83836133b2565b806000190482111561348e5761348e613259565b029392505050565b6000611c3a60ff8416836133f5565b6000826134b4576134b4613286565b600160ff1b8214600019841416156134ce576134ce613259565b500590565b80820260008212600160ff1b841416156134ef576134ef613259565b8181058314821517610dfe57610dfe613259565b60006020828403121561351557600080fd5b8151611c3a81613062565b60ff8181168382160190811115610dfe57610dfe613259565b600060ff821660ff810361354f5761354f613259565b60010192915050565b600061ffff80831681810361356f5761356f613259565b6001019392505050565b6000815161358b818560208601612db9565b9290920192915050565b60008084548160018260011c915060018316806135b357607f831692505b602080841082036135d257634e487b7160e01b86526022600452602486fd5b8180156135e657600181146135fb57613628565b60ff1986168952841515850289019650613628565b60008b81526020902060005b868110156136205781548b820152908501908301613607565b505084890196505b50505050505061363b81602f60f81b9052565b6136486001820185613579565b64173539b7b760d91b815260050195945050505050565b60008261366e5761366e613286565b500690565b60008161368257613682613259565b506000190190565b60006001820161369c5761369c613259565b5060010190565b6001600160a01b038581168252841660208201526040810183905260806060820181905260009061130190830184612ddd565b6000602082840312156136e857600080fd5b8151611c3a81612d86565b81810381811115610dfe57610dfe613259565b634e487b7160e01b600052603160045260246000fd5b60006020828403121561372e57600080fd5b505191905056fea264697066735822122059227f6c5d0f45d5fa8c7db896d5a9f1f9c767b56759109874b210f973ee210664736f6c63430008170033","linkReferences":{}},"methodIdentifiers":{"GOVERNOR()":"6dc0ae22","MAX_COMP_MINTS()":"7263c07e","MAX_MINTS_PER_TX()":"c6a91b42","MAX_OWNER_MINTS()":"c5f8776c","MAX_PRESALE_MINTS()":"9208383a","MAX_RAFFLE_MINTS()":"227b1614","MAX_SUPPLY()":"32cb6b0c","MAX_WHITELISTEES()":"dbdbbc91","PAYMENT_SPLITTER()":"a5f0292b","PRESALE()":"b4cf5648","PRICEFEED()":"d8f4d5d0","PRICE_IN_USD()":"914db51a","ROYALTY_BASIS_POINTS()":"3c404a9c","SALE_OPEN()":"8e26d2aa","VRF_COORDINATOR()":"05f6a924","addRaffle2000Winners(address[])":"4404ee84","addToWhitelist(address[])":"7f649783","approve(address,uint256)":"095ea7b3","assignCompMint(address)":"5ab9120c","balanceOf(address)":"70a08231","calculatePrice(uint256)":"ae104265","callbackGasLimit()":"24f74697","canMintRaffle(address)":"80b77181","compMintCounter()":"4654e6d6","contractURI()":"e8a3d485","getApproved(uint256)":"081812fc","getBaseUri()":"0cac36b2","getBatchTokens(uint256)":"e8c93ec9","getBuyerByIndex(uint256)":"d5a9dea4","getBuyers()":"f64bfaba","getCompMintCount()":"5a59d966","getCurrentTokenId()":"56189236","getPriceInMATIC()":"54a063ae","getRoyaltyReceiver()":"a5bd5235","getWhitelistCount()":"3edff20f","hasClaimedCompMint(address)":"289016ed","isApprovedForAll(address,address)":"e985e9c5","isBuyer(address)":"2a55feec","isCompMintRecipient(address)":"a69e689c","isMintingOpen()":"1a206910","isWhitelisted(address)":"3af32abf","keyHash()":"61728f39","mint(address,uint256)":"40c10f19","mintComp()":"ee1daa43","mintRaffle()":"a3815121","name()":"06fdde03","numWords()":"7ccfd7fc","ownerMint(uint256)":"f19e75d4","ownerMintCounter()":"77071052","ownerOf(uint256)":"6352211e","raffleWinnersAdded()":"eaf7f576","rawFulfillRandomWords(uint256,uint256[])":"1fe543e3","remainingUris()":"e5750395","requestConfirmations()":"b0fb162f","royaltyInfo(uint256,uint256)":"2a55205a","safeTransferFrom(address,address,uint256)":"42842e0e","safeTransferFrom(address,address,uint256,bytes)":"b88d4fde","setApprovalForAll(address,bool)":"a22cb465","setRoyaltyReceiver(address)":"8dc251e3","setTokenPrice(uint256)":"6a61e5fc","subscriptionId()":"09c1ba2e","supportsInterface(bytes4)":"01ffc9a7","symbol()":"95d89b41","tokenByIndex(uint256)":"4f6ccce7","tokenIdToUriExtension(uint256)":"33fdcf52","tokenOfOwnerByIndex(address,uint256)":"2f745c59","tokenURI(uint256)":"c87b56dd","totalNumberOfBuyers()":"73416c24","totalSupply()":"18160ddd","transferFrom(address,address,uint256)":"23b872dd","whitelistCounter()":"26f27e6d"},"id":48}