{"abi":[{"type":"constructor","inputs":[{"name":"_vrfCoordinatorV2","type":"address","internalType":"address"},{"name":"_priceFeed","type":"address","internalType":"address"},{"name":"_governor","type":"address","internalType":"address"},{"name":"_paymentSplitter","type":"address","internalType":"address"},{"name":"_owner","type":"address","internalType":"address"},{"name":"_presale","type":"uint256","internalType":"uint256"},{"name":"_saleOpen","type":"uint256","internalType":"uint256"},{"name":"_subscriptionId","type":"uint64","internalType":"uint64"},{"name":"_baseUri","type":"string","internalType":"string"}],"stateMutability":"nonpayable"},{"type":"function","name":"GOVERNOR","inputs":[],"outputs":[{"name":"","type":"address","internalType":"address"}],"stateMutability":"view"},{"type":"function","name":"MAX_COMP_MINTS","inputs":[],"outputs":[{"name":"","type":"uint8","internalType":"uint8"}],"stateMutability":"view"},{"type":"function","name":"MAX_MINTS_PER_TX","inputs":[],"outputs":[{"name":"","type":"uint8","internalType":"uint8"}],"stateMutability":"view"},{"type":"function","name":"MAX_OWNER_MINTS","inputs":[],"outputs":[{"name":"","type":"uint16","internalType":"uint16"}],"stateMutability":"view"},{"type":"function","name":"MAX_PRESALE_MINTS","inputs":[],"outputs":[{"name":"","type":"uint8","internalType":"uint8"}],"stateMutability":"view"},{"type":"function","name":"MAX_RAFFLE_MINTS","inputs":[],"outputs":[{"name":"","type":"uint8","internalType":"uint8"}],"stateMutability":"view"},{"type":"function","name":"MAX_SUPPLY","inputs":[],"outputs":[{"name":"","type":"uint16","internalType":"uint16"}],"stateMutability":"view"},{"type":"function","name":"MAX_WHITELISTEES","inputs":[],"outputs":[{"name":"","type":"uint16","internalType":"uint16"}],"stateMutability":"view"},{"type":"function","name":"OWNER","inputs":[],"outputs":[{"name":"","type":"address","internalType":"address"}],"stateMutability":"view"},{"type":"function","name":"PAYMENT_SPLITTER","inputs":[],"outputs":[{"name":"","type":"address","internalType":"address"}],"stateMutability":"view"},{"type":"function","name":"PRESALE","inputs":[],"outputs":[{"name":"","type":"uint256","internalType":"uint256"}],"stateMutability":"view"},{"type":"function","name":"PRICEFEED","inputs":[],"outputs":[{"name":"","type":"address","internalType":"contract IPricefeed"}],"stateMutability":"view"},{"type":"function","name":"PRICE_IN_USD","inputs":[],"outputs":[{"name":"","type":"uint256","internalType":"uint256"}],"stateMutability":"view"},{"type":"function","name":"ROYALTY_BASIS_POINTS","inputs":[],"outputs":[{"name":"","type":"uint96","internalType":"uint96"}],"stateMutability":"view"},{"type":"function","name":"SALE_OPEN","inputs":[],"outputs":[{"name":"","type":"uint256","internalType":"uint256"}],"stateMutability":"view"},{"type":"function","name":"VRF_COORDINATOR","inputs":[],"outputs":[{"name":"","type":"address","internalType":"contract VRFCoordinatorV2Interface"}],"stateMutability":"view"},{"type":"function","name":"addRaffle2000Winners","inputs":[{"name":"_winners","type":"address[]","internalType":"address[]"}],"outputs":[],"stateMutability":"nonpayable"},{"type":"function","name":"addToWhitelist","inputs":[{"name":"_whitelistees","type":"address[]","internalType":"address[]"}],"outputs":[],"stateMutability":"nonpayable"},{"type":"function","name":"approve","inputs":[{"name":"to","type":"address","internalType":"address"},{"name":"tokenId","type":"uint256","internalType":"uint256"}],"outputs":[],"stateMutability":"nonpayable"},{"type":"function","name":"assignCompMint","inputs":[{"name":"_recipient","type":"address","internalType":"address"}],"outputs":[],"stateMutability":"nonpayable"},{"type":"function","name":"balanceOf","inputs":[{"name":"owner","type":"address","internalType":"address"}],"outputs":[{"name":"","type":"uint256","internalType":"uint256"}],"stateMutability":"view"},{"type":"function","name":"calculatePrice","inputs":[{"name":"_numberOfTokens","type":"uint256","internalType":"uint256"}],"outputs":[{"name":"","type":"uint256","internalType":"uint256"}],"stateMutability":"view"},{"type":"function","name":"callbackGasLimit","inputs":[],"outputs":[{"name":"","type":"uint32","internalType":"uint32"}],"stateMutability":"view"},{"type":"function","name":"canMintRaffle","inputs":[{"name":"","type":"address","internalType":"address"}],"outputs":[{"name":"","type":"bool","internalType":"bool"}],"stateMutability":"view"},{"type":"function","name":"compMintCounter","inputs":[],"outputs":[{"name":"","type":"uint8","internalType":"uint8"}],"stateMutability":"view"},{"type":"function","name":"getApproved","inputs":[{"name":"tokenId","type":"uint256","internalType":"uint256"}],"outputs":[{"name":"","type":"address","internalType":"address"}],"stateMutability":"view"},{"type":"function","name":"getBaseUri","inputs":[],"outputs":[{"name":"","type":"string","internalType":"string"}],"stateMutability":"view"},{"type":"function","name":"getBatchTokens","inputs":[{"name":"_requestId","type":"uint256","internalType":"uint256"}],"outputs":[{"name":"","type":"uint256[]","internalType":"uint256[]"}],"stateMutability":"view"},{"type":"function","name":"getBuyerByIndex","inputs":[{"name":"index","type":"uint256","internalType":"uint256"}],"outputs":[{"name":"","type":"address","internalType":"address"}],"stateMutability":"view"},{"type":"function","name":"getBuyers","inputs":[],"outputs":[{"name":"","type":"address[]","internalType":"address[]"}],"stateMutability":"view"},{"type":"function","name":"getCompMintCount","inputs":[],"outputs":[{"name":"","type":"uint256","internalType":"uint256"}],"stateMutability":"view"},{"type":"function","name":"getCurrentTokenId","inputs":[],"outputs":[{"name":"","type":"uint256","internalType":"uint256"}],"stateMutability":"view"},{"type":"function","name":"getPriceInMATIC","inputs":[],"outputs":[{"name":"","type":"uint256","internalType":"uint256"}],"stateMutability":"view"},{"type":"function","name":"getRoyaltyReceiver","inputs":[],"outputs":[{"name":"","type":"address","internalType":"address"}],"stateMutability":"view"},{"type":"function","name":"getWhitelistCount","inputs":[],"outputs":[{"name":"","type":"uint256","internalType":"uint256"}],"stateMutability":"view"},{"type":"function","name":"hasClaimedCompMint","inputs":[{"name":"user","type":"address","internalType":"address"}],"outputs":[{"name":"","type":"bool","internalType":"bool"}],"stateMutability":"view"},{"type":"function","name":"isApprovedForAll","inputs":[{"name":"owner","type":"address","internalType":"address"},{"name":"operator","type":"address","internalType":"address"}],"outputs":[{"name":"","type":"bool","internalType":"bool"}],"stateMutability":"view"},{"type":"function","name":"isBuyer","inputs":[{"name":"","type":"address","internalType":"address"}],"outputs":[{"name":"","type":"bool","internalType":"bool"}],"stateMutability":"view"},{"type":"function","name":"isCompMintRecipient","inputs":[{"name":"user","type":"address","internalType":"address"}],"outputs":[{"name":"","type":"bool","internalType":"bool"}],"stateMutability":"view"},{"type":"function","name":"isMintingOpen","inputs":[],"outputs":[{"name":"","type":"bool","internalType":"bool"}],"stateMutability":"view"},{"type":"function","name":"isWhitelisted","inputs":[{"name":"user","type":"address","internalType":"address"}],"outputs":[{"name":"","type":"bool","internalType":"bool"}],"stateMutability":"view"},{"type":"function","name":"keyHash","inputs":[],"outputs":[{"name":"","type":"bytes32","internalType":"bytes32"}],"stateMutability":"view"},{"type":"function","name":"mint","inputs":[{"name":"_to","type":"address","internalType":"address"},{"name":"_numberOfTokens","type":"uint256","internalType":"uint256"}],"outputs":[{"name":"","type":"uint256","internalType":"uint256"}],"stateMutability":"payable"},{"type":"function","name":"mintComp","inputs":[],"outputs":[{"name":"","type":"uint256","internalType":"uint256"}],"stateMutability":"nonpayable"},{"type":"function","name":"mintRaffle","inputs":[],"outputs":[{"name":"","type":"uint256","internalType":"uint256"}],"stateMutability":"nonpayable"},{"type":"function","name":"name","inputs":[],"outputs":[{"name":"","type":"string","internalType":"string"}],"stateMutability":"view"},{"type":"function","name":"numWords","inputs":[],"outputs":[{"name":"","type":"uint32","internalType":"uint32"}],"stateMutability":"view"},{"type":"function","name":"ownerMint","inputs":[{"name":"_numberOfTokens","type":"uint256","internalType":"uint256"}],"outputs":[{"name":"requestId","type":"uint256","internalType":"uint256"}],"stateMutability":"nonpayable"},{"type":"function","name":"ownerMintCounter","inputs":[],"outputs":[{"name":"","type":"uint256","internalType":"uint256"}],"stateMutability":"view"},{"type":"function","name":"ownerOf","inputs":[{"name":"tokenId","type":"uint256","internalType":"uint256"}],"outputs":[{"name":"","type":"address","internalType":"address"}],"stateMutability":"view"},{"type":"function","name":"raffleWinnersAdded","inputs":[],"outputs":[{"name":"","type":"bool","internalType":"bool"}],"stateMutability":"view"},{"type":"function","name":"rawFulfillRandomWords","inputs":[{"name":"requestId","type":"uint256","internalType":"uint256"},{"name":"randomWords","type":"uint256[]","internalType":"uint256[]"}],"outputs":[],"stateMutability":"nonpayable"},{"type":"function","name":"remainingUris","inputs":[],"outputs":[{"name":"","type":"uint256","internalType":"uint256"}],"stateMutability":"view"},{"type":"function","name":"requestConfirmations","inputs":[],"outputs":[{"name":"","type":"uint16","internalType":"uint16"}],"stateMutability":"view"},{"type":"function","name":"royaltyInfo","inputs":[{"name":"_tokenId","type":"uint256","internalType":"uint256"},{"name":"_salePrice","type":"uint256","internalType":"uint256"}],"outputs":[{"name":"receiver","type":"address","internalType":"address"},{"name":"royaltyAmount","type":"uint256","internalType":"uint256"}],"stateMutability":"view"},{"type":"function","name":"safeTransferFrom","inputs":[{"name":"from","type":"address","internalType":"address"},{"name":"to","type":"address","internalType":"address"},{"name":"tokenId","type":"uint256","internalType":"uint256"}],"outputs":[],"stateMutability":"nonpayable"},{"type":"function","name":"safeTransferFrom","inputs":[{"name":"from","type":"address","internalType":"address"},{"name":"to","type":"address","internalType":"address"},{"name":"tokenId","type":"uint256","internalType":"uint256"},{"name":"data","type":"bytes","internalType":"bytes"}],"outputs":[],"stateMutability":"nonpayable"},{"type":"function","name":"setApprovalForAll","inputs":[{"name":"operator","type":"address","internalType":"address"},{"name":"approved","type":"bool","internalType":"bool"}],"outputs":[],"stateMutability":"nonpayable"},{"type":"function","name":"setRoyaltyReceiver","inputs":[{"name":"_newReceiver","type":"address","internalType":"address"}],"outputs":[],"stateMutability":"nonpayable"},{"type":"function","name":"setTokenPrice","inputs":[{"name":"_newPriceInUSD","type":"uint256","internalType":"uint256"}],"outputs":[],"stateMutability":"nonpayable"},{"type":"function","name":"subscriptionId","inputs":[],"outputs":[{"name":"","type":"uint64","internalType":"uint64"}],"stateMutability":"view"},{"type":"function","name":"supportsInterface","inputs":[{"name":"interfaceId","type":"bytes4","internalType":"bytes4"}],"outputs":[{"name":"","type":"bool","internalType":"bool"}],"stateMutability":"view"},{"type":"function","name":"symbol","inputs":[],"outputs":[{"name":"","type":"string","internalType":"string"}],"stateMutability":"view"},{"type":"function","name":"tokenByIndex","inputs":[{"name":"index","type":"uint256","internalType":"uint256"}],"outputs":[{"name":"","type":"uint256","internalType":"uint256"}],"stateMutability":"view"},{"type":"function","name":"tokenIdToUriExtension","inputs":[{"name":"","type":"uint256","internalType":"uint256"}],"outputs":[{"name":"","type":"uint256","internalType":"uint256"}],"stateMutability":"view"},{"type":"function","name":"tokenOfOwnerByIndex","inputs":[{"name":"owner","type":"address","internalType":"address"},{"name":"index","type":"uint256","internalType":"uint256"}],"outputs":[{"name":"","type":"uint256","internalType":"uint256"}],"stateMutability":"view"},{"type":"function","name":"tokenURI","inputs":[{"name":"_tokenId","type":"uint256","internalType":"uint256"}],"outputs":[{"name":"","type":"string","internalType":"string"}],"stateMutability":"view"},{"type":"function","name":"totalNumberOfBuyers","inputs":[],"outputs":[{"name":"","type":"uint256","internalType":"uint256"}],"stateMutability":"view"},{"type":"function","name":"totalSupply","inputs":[],"outputs":[{"name":"","type":"uint256","internalType":"uint256"}],"stateMutability":"view"},{"type":"function","name":"transferFrom","inputs":[{"name":"from","type":"address","internalType":"address"},{"name":"to","type":"address","internalType":"address"},{"name":"tokenId","type":"uint256","internalType":"uint256"}],"outputs":[],"stateMutability":"nonpayable"},{"type":"function","name":"whitelistCounter","inputs":[],"outputs":[{"name":"","type":"uint16","internalType":"uint16"}],"stateMutability":"view"},{"type":"event","name":"Approval","inputs":[{"name":"owner","type":"address","indexed":true,"internalType":"address"},{"name":"approved","type":"address","indexed":true,"internalType":"address"},{"name":"tokenId","type":"uint256","indexed":true,"internalType":"uint256"}],"anonymous":false},{"type":"event","name":"ApprovalForAll","inputs":[{"name":"owner","type":"address","indexed":true,"internalType":"address"},{"name":"operator","type":"address","indexed":true,"internalType":"address"},{"name":"approved","type":"bool","indexed":false,"internalType":"bool"}],"anonymous":false},{"type":"event","name":"RaffleWinnersAdded","inputs":[{"name":"winners","type":"address[]","indexed":false,"internalType":"address[]"}],"anonymous":false},{"type":"event","name":"RoyaltyReceiverChanged","inputs":[{"name":"newReceiver","type":"address","indexed":false,"internalType":"address"}],"anonymous":false},{"type":"event","name":"TokenPriceChanged","inputs":[{"name":"newPrice","type":"uint256","indexed":false,"internalType":"uint256"}],"anonymous":false},{"type":"event","name":"Transfer","inputs":[{"name":"from","type":"address","indexed":true,"internalType":"address"},{"name":"to","type":"address","indexed":true,"internalType":"address"},{"name":"tokenId","type":"uint256","indexed":true,"internalType":"uint256"}],"anonymous":false},{"type":"event","name":"VRFRequestCreated","inputs":[{"name":"requestId","type":"uint256","indexed":false,"internalType":"uint256"}],"anonymous":false},{"type":"error","name":"ERC721EnumerableForbiddenBatchMint","inputs":[]},{"type":"error","name":"ERC721IncorrectOwner","inputs":[{"name":"sender","type":"address","internalType":"address"},{"name":"tokenId","type":"uint256","internalType":"uint256"},{"name":"owner","type":"address","internalType":"address"}]},{"type":"error","name":"ERC721InsufficientApproval","inputs":[{"name":"operator","type":"address","internalType":"address"},{"name":"tokenId","type":"uint256","internalType":"uint256"}]},{"type":"error","name":"ERC721InvalidApprover","inputs":[{"name":"approver","type":"address","internalType":"address"}]},{"type":"error","name":"ERC721InvalidOperator","inputs":[{"name":"operator","type":"address","internalType":"address"}]},{"type":"error","name":"ERC721InvalidOwner","inputs":[{"name":"owner","type":"address","internalType":"address"}]},{"type":"error","name":"ERC721InvalidReceiver","inputs":[{"name":"receiver","type":"address","internalType":"address"}]},{"type":"error","name":"ERC721InvalidSender","inputs":[{"name":"sender","type":"address","internalType":"address"}]},{"type":"error","name":"ERC721NonexistentToken","inputs":[{"name":"tokenId","type":"uint256","internalType":"uint256"}]},{"type":"error","name":"ERC721OutOfBoundsIndex","inputs":[{"name":"owner","type":"address","internalType":"address"},{"name":"index","type":"uint256","internalType":"uint256"}]},{"type":"error","name":"OnlyCoordinatorCanFulfill","inputs":[{"name":"have","type":"address","internalType":"address"},{"name":"want","type":"address","internalType":"address"}]},{"type":"error","name":"OrcNation__CompMintAlreadyAssignedToAddress","inputs":[]},{"type":"error","name":"OrcNation__CompMintAlreadyClaimed","inputs":[]},{"type":"error","name":"OrcNation__InsufficientPayment","inputs":[{"name":"paymentDue","type":"uint256","internalType":"uint256"}]},{"type":"error","name":"OrcNation__InvalidNewPrice","inputs":[]},{"type":"error","name":"OrcNation__InvalidSaleTime","inputs":[]},{"type":"error","name":"OrcNation__MaxCompMintsExceeded","inputs":[]},{"type":"error","name":"OrcNation__MaxMintsPerTransactionExceeded","inputs":[]},{"type":"error","name":"OrcNation__MaxRaffleWinnersExceeded","inputs":[]},{"type":"error","name":"OrcNation__MaxThreePresaleMintsPerWhitelistedAddress","inputs":[]},{"type":"error","name":"OrcNation__MintingNotOpen","inputs":[]},{"type":"error","name":"OrcNation__MustMintAtLeastOneToken","inputs":[]},{"type":"error","name":"OrcNation__NotEligibleForCompMint","inputs":[]},{"type":"error","name":"OrcNation__NotEligibleForRaffleMint","inputs":[]},{"type":"error","name":"OrcNation__NotWhitelisted","inputs":[]},{"type":"error","name":"OrcNation__OnlyAdmin","inputs":[]},{"type":"error","name":"OrcNation__OnlyGovernor","inputs":[]},{"type":"error","name":"OrcNation__PriceFeedAnswerNegative","inputs":[]},{"type":"error","name":"OrcNation__RaffleOnlyAfter2000Tokens","inputs":[]},{"type":"error","name":"OrcNation__RaffleWinnersAlreadyAdded","inputs":[]},{"type":"error","name":"OrcNation__TokenDoesNotExist","inputs":[]},{"type":"error","name":"OrcNation__WillExceedMaxOwnerMints","inputs":[]},{"type":"error","name":"OrcNation__WillExceedMaxSupply","inputs":[]},{"type":"error","name":"OrcNation__WillExceedMaxWhitelistees","inputs":[]}],"bytecode":{"object":"0x6101806040526041600a556127106010557f4b09e658ed251bcafeebbc69400383d49f344ace09b9576fe248bb02c003fe9f601b55601c8054600160401b600160901b0319166e01000f4240000300000000000000001790553480156200006557600080fd5b5060405162003d0538038062003d058339810160408190526200008891620001db565b886040518060400160405280600981526020016827b931a730ba34b7b760b91b815250604051806040016040528060048152602001634f52435360e01b8152508160009081620000d99190620003d1565b506001620000e88282620003d1565b5050506001600160a01b0316608052428410806200010557508383105b1562000124576040516336e24cf360e01b815260040160405180910390fd5b6001600160a01b03808a1660a05288811660c05287811661010052861660e052600d80546001600160a01b03191633179055600e620001648282620003d1565b50506101409290925261016052601c80546001600160401b0319166001600160401b039092169190911790556001600160a01b031661012052506200049d92505050565b80516001600160a01b0381168114620001c057600080fd5b919050565b634e487b7160e01b600052604160045260246000fd5b60008060008060008060008060006101208a8c031215620001fb57600080fd5b620002068a620001a8565b98506200021660208b01620001a8565b97506200022660408b01620001a8565b96506200023660608b01620001a8565b95506200024660808b01620001a8565b60a08b015160c08c015160e08d015192975090955093506001600160401b0380821682146200027457600080fd5b6101008c0151919350808211156200028b57600080fd5b818c0191508c601f830112620002a057600080fd5b815181811115620002b557620002b5620001c5565b604051601f8201601f19908116603f01168101908382118183101715620002e057620002e0620001c5565b816040528281528f6020848701011115620002fa57600080fd5b600093505b8284101562000322576020848601015160208583010152602084019350620002ff565b60006020848301015280955050505050509295985092959850929598565b600181811c908216806200035557607f821691505b6020821081036200037657634e487b7160e01b600052602260045260246000fd5b50919050565b601f821115620003cc576000816000526020600020601f850160051c81016020861015620003a75750805b601f850160051c820191505b81811015620003c857828155600101620003b3565b5050505b505050565b81516001600160401b03811115620003ed57620003ed620001c5565b6200040581620003fe845462000340565b846200037c565b602080601f8311600181146200043d5760008415620004245750858301515b600019600386901b1c1916600185901b178555620003c8565b600085815260208120601f198616915b828110156200046e578886015182559484019460019091019084016200044d565b50858210156200048d5787850151600019600388901b60f8161c191681555b5050505050600190811b01905550565b60805160a05160c05160e0516101005161012051610140516101605161377d6200058860003960008181610abb0152818161114a0152611c300152600081816105ab01528181610c31015281816110de0152818161111f01528181611b4901528181611c050152611dd60152600061055b0152600081816109930152818161136a015281816116af015281816118240152818161192701528181611a8d0152611ec0015260008181610b820152611261015260008181610cf00152818161152a01526115d601526000818161045c0152612a99015260008181610f1c0152610f5e015261377d6000f3fe6080604052600436106104105760003560e01c80636a61e5fc1161021e578063a69e689c11610123578063d8f4d5d0116100ab578063e985e9c51161007a578063e985e9c514610d55578063eaf7f57614610d75578063ee1daa4314610d8f578063f19e75d414610da4578063f64bfaba14610dc457600080fd5b8063d8f4d5d014610cde578063dbdbbc9114610c73578063e575039514610d12578063e8c93ec914610d2857600080fd5b8063b88d4fde116100f2578063b88d4fde14610c53578063c5f8776c14610c73578063c6a91b4214610c89578063c87b56dd14610c9e578063d5a9dea414610cbe57600080fd5b8063a69e689c14610ba4578063ae10426514610bdd578063b0fb162f14610bfd578063b4cf564814610c1f57600080fd5b80638dc251e3116101a657806395d89b411161017557806395d89b4114610b08578063a22cb46514610b1d578063a381512114610b3d578063a5bd523514610b52578063a5f0292b14610b7057600080fd5b80638dc251e314610a895780638e26d2aa14610aa9578063914db51a14610add5780639208383a14610af357600080fd5b806373416c24116101ed57806373416c24146109ea57806377071052146109ff5780637ccfd7fc14610a155780637f64978314610a3957806380b7718114610a5957600080fd5b80636a61e5fc146109615780636dc0ae221461098157806370a08231146109b55780637263c07e146109d557600080fd5b80632a55feec116103245780634404ee84116102ac578063561892361161027b57806356189236146108d85780635a59d966146108ed5780635ab9120c1461090b57806361728f391461092b5780636352211e1461094157600080fd5b80634404ee84146108635780634654e6d6146108835780634f6ccce7146108a357806354a063ae146108c357600080fd5b80633af32abf116102f35780633af32abf146107ab5780633c404a9c146107e45780633edff20f1461081757806340c10f191461083057806342842e0e1461084357600080fd5b80632a55feec146107185780632f745c591461074857806332cb6b0c1461076857806333fdcf521461077e57600080fd5b806318160ddd116103a757806323b872dd1161037657806323b872dd1461061957806324f746971461063957806326f27e6d14610672578063289016ed146106a05780632a55205a146106d957600080fd5b806318160ddd1461057d5780631a2069101461059c5780631fe543e3146105d2578063227b1614146105f257600080fd5b8063095ea7b3116103e3578063095ea7b3146104d857806309c1ba2e146104fa5780630cac36b214610534578063117803e31461054957600080fd5b806301ffc9a71461041557806305f6a9241461044a57806306fdde0314610496578063081812fc146104b8575b600080fd5b34801561042157600080fd5b50610435610430366004612dbe565b610de6565b60405190151581526020015b60405180910390f35b34801561045657600080fd5b5061047e7f000000000000000000000000000000000000000000000000000000000000000081565b6040516001600160a01b039091168152602001610441565b3480156104a257600080fd5b506104ab610e38565b6040516104419190612e2b565b3480156104c457600080fd5b5061047e6104d3366004612e3e565b610eca565b3480156104e457600080fd5b506104f86104f3366004612e73565b610ef3565b005b34801561050657600080fd5b50601c5461051b9067ffffffffffffffff1681565b60405167ffffffffffffffff9091168152602001610441565b34801561054057600080fd5b506104ab610f02565b34801561055557600080fd5b5061047e7f000000000000000000000000000000000000000000000000000000000000000081565b34801561058957600080fd5b506008545b604051908152602001610441565b3480156105a857600080fd5b507f0000000000000000000000000000000000000000000000000000000000000000421015610435565b3480156105de57600080fd5b506104f86105ed366004612ee4565b610f11565b3480156105fe57600080fd5b50610607600581565b60405160ff9091168152602001610441565b34801561062557600080fd5b506104f8610634366004612f96565b610f9a565b34801561064557600080fd5b50601c5461065d90600160501b900463ffffffff1681565b60405163ffffffff9091168152602001610441565b34801561067e57600080fd5b50600b5461068d9061ffff1681565b60405161ffff9091168152602001610441565b3480156106ac57600080fd5b506104356106bb366004612fd2565b6001600160a01b031660009081526016602052604090205460ff1690565b3480156106e557600080fd5b506106f96106f4366004612fed565b611025565b604080516001600160a01b039093168352602083019190915201610441565b34801561072457600080fd5b50610435610733366004612fd2565b60186020526000908152604090205460ff1681565b34801561075457600080fd5b5061058e610763366004612e73565b611075565b34801561077457600080fd5b5061068d61271081565b34801561078a57600080fd5b5061058e610799366004612e3e565b60136020526000908152604090205481565b3480156107b757600080fd5b506104356107c6366004612fd2565b6001600160a01b031660009081526014602052604090205460ff1690565b3480156107f057600080fd5b506107fa6101f481565b6040516bffffffffffffffffffffffff9091168152602001610441565b34801561082357600080fd5b50600b5461ffff1661058e565b61058e61083e366004612e73565b6110da565b34801561084f57600080fd5b506104f861085e366004612f96565b61133f565b34801561086f57600080fd5b506104f861087e36600461300f565b61135f565b34801561088f57600080fd5b50600b546106079062010000900460ff1681565b3480156108af57600080fd5b5061058e6108be366004612e3e565b6114cc565b3480156108cf57600080fd5b5061058e611525565b3480156108e457600080fd5b50600f5461058e565b3480156108f957600080fd5b50600b5462010000900460ff1661058e565b34801561091757600080fd5b506104f8610926366004612fd2565b61169a565b34801561093757600080fd5b5061058e601b5481565b34801561094d57600080fd5b5061047e61095c366004612e3e565b61180e565b34801561096d57600080fd5b506104f861097c366004612e3e565b611819565b34801561098d57600080fd5b5061047e7f000000000000000000000000000000000000000000000000000000000000000081565b3480156109c157600080fd5b5061058e6109d0366004612fd2565b6118ca565b3480156109e157600080fd5b50610607603281565b3480156109f657600080fd5b5060175461058e565b348015610a0b57600080fd5b5061058e600c5481565b348015610a2157600080fd5b50601c5461065d90600160701b900463ffffffff1681565b348015610a4557600080fd5b506104f8610a5436600461300f565b611912565b348015610a6557600080fd5b50610435610a74366004612fd2565b601a6020526000908152604090205460ff1681565b348015610a9557600080fd5b506104f8610aa4366004612fd2565b611a82565b348015610ab557600080fd5b5061058e7f000000000000000000000000000000000000000000000000000000000000000081565b348015610ae957600080fd5b5061058e600a5481565b348015610aff57600080fd5b50610607600381565b348015610b1457600080fd5b506104ab611b2b565b348015610b2957600080fd5b506104f8610b38366004613092565b611b3a565b348015610b4957600080fd5b5061058e611b45565b348015610b5e57600080fd5b50600d546001600160a01b031661047e565b348015610b7c57600080fd5b5061047e7f000000000000000000000000000000000000000000000000000000000000000081565b348015610bb057600080fd5b50610435610bbf366004612fd2565b6001600160a01b031660009081526015602052604090205460ff1690565b348015610be957600080fd5b5061058e610bf8366004612e3e565b611beb565b348015610c0957600080fd5b50601c5461068d90600160401b900461ffff1681565b348015610c2b57600080fd5b5061058e7f000000000000000000000000000000000000000000000000000000000000000081565b348015610c5f57600080fd5b506104f8610c6e3660046130c9565b611c85565b348015610c7f57600080fd5b5061068d6101f481565b348015610c9557600080fd5b50610607600a81565b348015610caa57600080fd5b506104ab610cb9366004612e3e565b611c9c565b348015610cca57600080fd5b5061047e610cd9366004612e3e565b611d12565b348015610cea57600080fd5b5061047e7f000000000000000000000000000000000000000000000000000000000000000081565b348015610d1e57600080fd5b5061058e60105481565b348015610d3457600080fd5b50610d48610d43366004612e3e565b611d42565b6040516104419190613189565b348015610d6157600080fd5b50610435610d703660046131cd565b611da4565b348015610d8157600080fd5b506019546104359060ff1681565b348015610d9b57600080fd5b5061058e611dd2565b348015610db057600080fd5b5061058e610dbf366004612e3e565b611ea8565b348015610dd057600080fd5b50610dd9611fcd565b6040516104419190613200565b60006301ffc9a760e01b6001600160e01b031983161480610e1757506380ac58cd60e01b6001600160e01b03198316145b80610e32575063152a902d60e11b6001600160e01b03198316145b92915050565b606060008054610e4790613241565b80601f0160208091040260200160405190810160405280929190818152602001828054610e7390613241565b8015610ec05780601f10610e9557610100808354040283529160200191610ec0565b820191906000526020600020905b815481529060010190602001808311610ea357829003601f168201915b5050505050905090565b6000610ed58261202e565b506000828152600460205260409020546001600160a01b0316610e32565b610efe828233612067565b5050565b6060600e8054610e4790613241565b336001600160a01b037f00000000000000000000000000000000000000000000000000000000000000001614610f905760405163073e64fd60e21b81523360048201526001600160a01b037f00000000000000000000000000000000000000000000000000000000000000001660248201526044015b60405180910390fd5b610efe8282612074565b6001600160a01b038216610fc457604051633250574960e11b815260006004820152602401610f87565b6000610fd1838333612163565b9050836001600160a01b0316816001600160a01b03161461101f576040516364283d7b60e01b81526001600160a01b0380861660048301526024820184905282166044820152606401610f87565b50505050565b600080806110328561180e565b6001600160a01b03160361104557600080fd5b600d546001600160a01b03166127106110606101f486613291565b61106a91906132be565b915091509250929050565b6000611080836118ca565b82106110b15760405163295f44f760e21b81526001600160a01b038416600482015260248101839052604401610f87565b506001600160a01b03919091166000908152600660209081526040808320938352929052205490565b60007f000000000000000000000000000000000000000000000000000000000000000042101561111d5760405163f0b9693f60e01b815260040160405180910390fd5b7f0000000000000000000000000000000000000000000000000000000000000000421015801561116c57507f000000000000000000000000000000000000000000000000000000000000000042105b156111df576001600160a01b03831660009081526014602052604090205460ff166111aa5760405163cb060eb160e01b815260040160405180910390fd5b6003826111b6856118ca565b6111c091906132d2565b11156111df576040516380b2c43f60e01b815260040160405180910390fd5b60018210156112015760405163ea1112df60e01b815260040160405180910390fd5b600a8211156112235760405163416296fd60e01b815260040160405180910390fd5b61122c82612238565b600061123783611beb565b90508034101561125d576040516334272af160e01b815260048101829052602401610f87565b60007f00000000000000000000000000000000000000000000000000000000000000006001600160a01b03163460405160006040518083038185875af1925050503d80600081146112ca576040519150601f19603f3d011682016040523d82523d6000602084013e6112cf565b606091505b50509050806113205760405162461bcd60e51b815260206004820152601760248201527f5061796d656e74207472616e73666572206661696c65640000000000000000006044820152606401610f87565b6113298561226c565b600061133586866122f3565b9695505050505050565b61135a83838360405180602001604052806000815250611c85565b505050565b336001600160a01b037f000000000000000000000000000000000000000000000000000000000000000016146113a75760405162ac0b2f60e41b815260040160405180910390fd5b6107d06113b3600f5490565b10156113d257604051637428454960e11b815260040160405180910390fd5b60058111156113f457604051633d4bb35160e01b815260040160405180910390fd5b60195460ff16156114185760405163db6e65c760e01b815260040160405180910390fd5b60005b81811015611480576001601a600085858581811061143b5761143b6132e5565b90506020020160208101906114509190612fd2565b6001600160a01b031681526020810191909152604001600020805460ff191691151591909117905560010161141b565b506019805460ff191660011790556040517f743d27e70dad1517ab7a2613a62cb57ea1ac4d6c0ca6d489bfbb5b468400f5d9906114c090849084906132fb565b60405180910390a15050565b60006114d760085490565b82106115005760405163295f44f760e21b81526000600482015260248101839052604401610f87565b60088281548110611513576115136132e5565b90600052602060002001549050919050565b6000807f00000000000000000000000000000000000000000000000000000000000000006001600160a01b031663feaf968c6040518163ffffffff1660e01b815260040160a060405180830381865afa158015611586573d6000803e3d6000fd5b505050506040513d601f19601f820116820180604052508101906115aa9190613361565b50505091505060008112156115d257604051632bea283f60e11b815260040160405180910390fd5b60007f00000000000000000000000000000000000000000000000000000000000000006001600160a01b031663313ce5676040518163ffffffff1660e01b8152600401602060405180830381865afa158015611632573d6000803e3d6000fd5b505050506040513d601f19601f8201168201806040525081019061165691906133b1565b61166190600a6134b8565b90506000600a54670de0b6b3a764000061167b9190613291565b90508161168884836134c7565b61169291906134f5565b935050505090565b604051630935e01b60e21b81523360048201527f00000000000000000000000000000000000000000000000000000000000000006001600160a01b0316906324d7806c90602401602060405180830381865afa1580156116fe573d6000803e3d6000fd5b505050506040513d601f19601f820116820180604052508101906117229190613525565b61173f576040516354fe416f60e01b815260040160405180910390fd5b6001600160a01b03811660009081526015602052604090205460ff1615611779576040516348c3a61560e11b815260040160405180910390fd5b600b546032906117939062010000900460ff166001613542565b60ff1611156117b557604051630138ee3960e31b815260040160405180910390fd5b600b80546002906117ce9062010000900460ff1661355b565b825460ff9182166101009390930a92830291909202199091161790556001600160a01b03166000908152601560205260409020805460ff19166001179055565b6000610e328261202e565b336001600160a01b037f000000000000000000000000000000000000000000000000000000000000000016146118615760405162ac0b2f60e41b815260040160405180910390fd5b60208110806118705750606181115b1561188e57604051631d0bf16360e31b815260040160405180910390fd5b600a8190556040518181527fac21bacd333b316c6640fca5086322638b0a7aa4367179afd5dfcbe0a5427bc7906020015b60405180910390a150565b60006001600160a01b0382166118f6576040516322718ad960e21b815260006004820152602401610f87565b506001600160a01b031660009081526003602052604090205490565b604051630935e01b60e21b81523360048201527f00000000000000000000000000000000000000000000000000000000000000006001600160a01b0316906324d7806c90602401602060405180830381865afa158015611976573d6000803e3d6000fd5b505050506040513d601f19601f8201168201806040525081019061199a9190613525565b6119b7576040516354fe416f60e01b815260040160405180910390fd5b600b546101f4906119cd90839061ffff166132d2565b11156119ec576040516354f4fdbf60e11b815260040160405180910390fd5b60005b8181101561135a57600b8054600090611a0b9061ffff1661357a565b91906101000a81548161ffff021916908361ffff160217905550600160146000858585818110611a3d57611a3d6132e5565b9050602002016020810190611a529190612fd2565b6001600160a01b031681526020810191909152604001600020805460ff19169115159190911790556001016119ef565b336001600160a01b037f00000000000000000000000000000000000000000000000000000000000000001614611aca5760405162ac0b2f60e41b815260040160405180910390fd5b6001600160a01b038116611add57600080fd5b600d80546001600160a01b0319166001600160a01b0383169081179091556040519081527ff18ed8da4fbddf768618d066780de11fb9a756a8b30128c77e6a128500b65a31906020016118bf565b606060018054610e4790613241565b610efe3383836123c5565b60007f0000000000000000000000000000000000000000000000000000000000000000421015611b885760405163f0b9693f60e01b815260040160405180910390fd5b336000908152601a602052604090205460ff16611bb857604051630440fe9960e41b815260040160405180910390fd5b611bc26001612238565b336000818152601a60205260408120805460ff1916905590611be59060016122f3565b91505090565b60008082611bf7611525565b611c019190613291565b90507f00000000000000000000000000000000000000000000000000000000000000004210158015611c5257507f000000000000000000000000000000000000000000000000000000000000000042105b15611c71576064611c64826055613291565b611c6e91906132be565b90505b611c7e620186a0826132be565b9392505050565b611c90848484610f9a565b61101f84848484612464565b60606000611ca98361180e565b6001600160a01b031603611cd05760405163039530c360e61b815260040160405180910390fd5b600082815260136020526040902054600e90611ceb9061258d565b604051602001611cfc9291906135b7565b6040516020818303038152906040529050919050565b600060178281548110611d2757611d276132e5565b6000918252602090912001546001600160a01b031692915050565b600081815260116020908152604091829020805483518184028101840190945280845260609392830182828015611d9857602002820191906000526020600020905b815481526020019060010190808311611d84575b50505050509050919050565b6001600160a01b03918216600090815260056020908152604080832093909416825291909152205460ff1690565b60007f0000000000000000000000000000000000000000000000000000000000000000421015611e155760405163f0b9693f60e01b815260040160405180910390fd5b3360009081526015602052604090205460ff16611e4557604051631624b2cf60e11b815260040160405180910390fd5b3360009081526016602052604090205460ff1615611e7657604051632d11162b60e21b815260040160405180910390fd5b611e806001612238565b336000818152601660205260408120805460ff191660019081179091559091611be5916122f3565b604051630935e01b60e21b81523360048201526000907f00000000000000000000000000000000000000000000000000000000000000006001600160a01b0316906324d7806c90602401602060405180830381865afa158015611f0f573d6000803e3d6000fd5b505050506040513d601f19601f82011682018060405250810190611f339190613525565b611f50576040516354fe416f60e01b815260040160405180910390fd5b600c546101f490611f6190846132d2565b1115611f805760405163c64fc4cb60e01b815260040160405180910390fd5b600a821115611fa25760405163416296fd60e01b815260040160405180910390fd5b611fab82612238565b81600c6000828254611fbd91906132d2565b90915550610e32905033836122f3565b60606017805480602002602001604051908101604052809291908181526020018280548015610ec057602002820191906000526020600020905b81546001600160a01b03168152600190910190602001808311612007575050505050905090565b6000818152600260205260408120546001600160a01b031680610e3257604051637e27328960e01b815260048101849052602401610f87565b61135a8383836001612620565b60105460005b60008481526011602052604090205481101561215b57600082846000815181106120a6576120a66132e5565b6020026020010151836040516020016120c9929190918252602082015260400190565b6040516020818303038152906040528051906020012060001c6120ec9190613671565b905060006120fa8285612726565b90508060136000601160008a81526020019081526020016000208681548110612125576121256132e5565b90600052602060002001548152602001908152602001600020819055508361214c90613685565b9350826001019250505061207a565b506010555050565b6000806121718585856127a7565b90506001600160a01b0381166121ce576121c984600880546000838152600960205260408120829055600182018355919091527ff3f7a9fe364faab93b216da50a3214154f22a0a2b415b23a84c8169e8b636ee30155565b6121f1565b846001600160a01b0316816001600160a01b0316146121f1576121f181856128a0565b6001600160a01b03851661220d5761220884612931565b612230565b846001600160a01b0316816001600160a01b0316146122305761223085856129e0565b949350505050565b600f546127109061224a9083906132d2565b11156122695760405163229ed32160e01b815260040160405180910390fd5b50565b6001600160a01b03811660009081526018602052604090205460ff16612269576017805460018181019092557fc624b66cc0138b8fabc209247f72d758e1cf3343756d543badbf24212bed8c150180546001600160a01b0384166001600160a01b031990911681179091556000908152601860205260409020805460ff1916909117905550565b6000806122fe612a30565b905060008367ffffffffffffffff81111561231b5761231b612e9d565b604051908082528060200260200182016040528015612344578160200160208202803683370190505b50905060005b8481101561239b57600f600081546123619061369c565b90915550600f54612373908790612b44565b600f54828281518110612388576123886132e5565b602090810291909101015260010161234a565b50600082815260116020908152604090912082516123bb92840190612d48565b5090949350505050565b6001600160a01b0382166123f757604051630b61174360e31b81526001600160a01b0383166004820152602401610f87565b6001600160a01b03838116600081815260056020908152604080832094871680845294825291829020805460ff191686151590811790915591519182527f17307eab39ab6107e8899845ad3d59bd9653f200f220920489ca2b5937696c31910160405180910390a3505050565b6001600160a01b0383163b1561101f57604051630a85bd0160e11b81526001600160a01b0384169063150b7a02906124a69033908890879087906004016136b5565b6020604051808303816000875af19250505080156124e1575060408051601f3d908101601f191682019092526124de918101906136e8565b60015b61254a573d80801561250f576040519150601f19603f3d011682016040523d82523d6000602084013e612514565b606091505b50805160000361254257604051633250574960e11b81526001600160a01b0385166004820152602401610f87565b805181602001fd5b6001600160e01b03198116630a85bd0160e11b1461258657604051633250574960e11b81526001600160a01b0385166004820152602401610f87565b5050505050565b6060600061259a83612ba9565b600101905060008167ffffffffffffffff8111156125ba576125ba612e9d565b6040519080825280601f01601f1916602001820160405280156125e4576020820181803683370190505b5090508181016020015b600019016f181899199a1a9b1b9c1cb0b131b232b360811b600a86061a8153600a85049450846125ee57509392505050565b808061263457506001600160a01b03821615155b156126f65760006126448461202e565b90506001600160a01b038316158015906126705750826001600160a01b0316816001600160a01b031614155b801561268357506126818184611da4565b155b156126ac5760405163a9fbf51f60e01b81526001600160a01b0384166004820152602401610f87565b81156126f45783856001600160a01b0316826001600160a01b03167f8c5be1e5ebec7d5bd14f71427d1e84f3dd0314c0f7b2291e5b200ac8c7c3b92560405160405180910390a45b505b5050600090815260046020526040902080546001600160a01b0319166001600160a01b0392909216919091179055565b60008281526012602052604081205481612741600185613705565b600081815260126020526040812054919250831561275f5783612761565b865b90508287146127885781156127765781612778565b825b6000888152601260205260409020555b8115611335576000838152601260205260408120559695505050505050565b6000828152600260205260408120546001600160a01b03908116908316156127d4576127d4818486612c81565b6001600160a01b03811615612812576127f1600085600080612620565b6001600160a01b038116600090815260036020526040902080546000190190555b6001600160a01b03851615612841576001600160a01b0385166000908152600360205260409020805460010190555b60008481526002602052604080822080546001600160a01b0319166001600160a01b0389811691821790925591518793918516917fddf252ad1be2c89b69c2b068fc378daa952ba7f163c4a11628f55a4df523b3ef91a4949350505050565b60006128ab836118ca565b6000838152600760205260409020549091508082146128fe576001600160a01b03841660009081526006602090815260408083208584528252808320548484528184208190558352600790915290208190555b5060009182526007602090815260408084208490556001600160a01b039094168352600681528383209183525290812055565b60085460009061294390600190613705565b6000838152600960205260408120546008805493945090928490811061296b5761296b6132e5565b90600052602060002001549050806008838154811061298c5761298c6132e5565b60009182526020808320909101929092558281526009909152604080822084905585825281205560088054806129c4576129c4613718565b6001900381819060005260206000200160009055905550505050565b600060016129ed846118ca565b6129f79190613705565b6001600160a01b039093166000908152600660209081526040808320868452825280832085905593825260079052919091209190915550565b601b54601c546040516305d3b1d360e41b8152600481019290925267ffffffffffffffff8116602483015261ffff600160401b820416604483015263ffffffff600160501b820481166064840152600160701b9091041660848201526000906001600160a01b037f00000000000000000000000000000000000000000000000000000000000000001690635d3b1d309060a4016020604051808303816000875af1158015612ae2573d6000803e3d6000fd5b505050506040513d601f19601f82011682018060405250810190612b06919061372e565b90507ff2dc9a29f1b257c57ef50cb6c0230cacc6af60a01e5e51bde6ee1657f214a34781604051612b3991815260200190565b60405180910390a190565b6001600160a01b038216612b6e57604051633250574960e11b815260006004820152602401610f87565b6000612b7c83836000612163565b90506001600160a01b0381161561135a576040516339e3563760e11b815260006004820152602401610f87565b60008072184f03e93ff9f4daa797ed6e38ed64bf6a1f0160401b8310612be85772184f03e93ff9f4daa797ed6e38ed64bf6a1f0160401b830492506040015b6d04ee2d6d415b85acef81000000008310612c14576d04ee2d6d415b85acef8100000000830492506020015b662386f26fc100008310612c3257662386f26fc10000830492506010015b6305f5e1008310612c4a576305f5e100830492506008015b6127108310612c5e57612710830492506004015b60648310612c70576064830492506002015b600a8310610e325760010192915050565b612c8c838383612ce5565b61135a576001600160a01b038316612cba57604051637e27328960e01b815260048101829052602401610f87565b60405163177e802f60e01b81526001600160a01b038316600482015260248101829052604401610f87565b60006001600160a01b038316158015906122305750826001600160a01b0316846001600160a01b03161480612d1f5750612d1f8484611da4565b806122305750506000908152600460205260409020546001600160a01b03908116911614919050565b828054828255906000526020600020908101928215612d83579160200282015b82811115612d83578251825591602001919060010190612d68565b50612d8f929150612d93565b5090565b5b80821115612d8f5760008155600101612d94565b6001600160e01b03198116811461226957600080fd5b600060208284031215612dd057600080fd5b8135611c7e81612da8565b60005b83811015612df6578181015183820152602001612dde565b50506000910152565b60008151808452612e17816020860160208601612ddb565b601f01601f19169290920160200192915050565b602081526000611c7e6020830184612dff565b600060208284031215612e5057600080fd5b5035919050565b80356001600160a01b0381168114612e6e57600080fd5b919050565b60008060408385031215612e8657600080fd5b612e8f83612e57565b946020939093013593505050565b634e487b7160e01b600052604160045260246000fd5b604051601f8201601f1916810167ffffffffffffffff81118282101715612edc57612edc612e9d565b604052919050565b60008060408385031215612ef757600080fd5b8235915060208084013567ffffffffffffffff80821115612f1757600080fd5b818601915086601f830112612f2b57600080fd5b813581811115612f3d57612f3d612e9d565b8060051b9150612f4e848301612eb3565b8181529183018401918481019089841115612f6857600080fd5b938501935b83851015612f8657843582529385019390850190612f6d565b8096505050505050509250929050565b600080600060608486031215612fab57600080fd5b612fb484612e57565b9250612fc260208501612e57565b9150604084013590509250925092565b600060208284031215612fe457600080fd5b611c7e82612e57565b6000806040838503121561300057600080fd5b50508035926020909101359150565b6000806020838503121561302257600080fd5b823567ffffffffffffffff8082111561303a57600080fd5b818501915085601f83011261304e57600080fd5b81358181111561305d57600080fd5b8660208260051b850101111561307257600080fd5b60209290920196919550909350505050565b801515811461226957600080fd5b600080604083850312156130a557600080fd5b6130ae83612e57565b915060208301356130be81613084565b809150509250929050565b600080600080608085870312156130df57600080fd5b6130e885612e57565b935060206130f7818701612e57565b935060408601359250606086013567ffffffffffffffff8082111561311b57600080fd5b818801915088601f83011261312f57600080fd5b81358181111561314157613141612e9d565b613153601f8201601f19168501612eb3565b9150808252898482850101111561316957600080fd5b808484018584013760008482840101525080935050505092959194509250565b6020808252825182820181905260009190848201906040850190845b818110156131c1578351835292840192918401916001016131a5565b50909695505050505050565b600080604083850312156131e057600080fd5b6131e983612e57565b91506131f760208401612e57565b90509250929050565b6020808252825182820181905260009190848201906040850190845b818110156131c15783516001600160a01b03168352928401929184019160010161321c565b600181811c9082168061325557607f821691505b60208210810361327557634e487b7160e01b600052602260045260246000fd5b50919050565b634e487b7160e01b600052601160045260246000fd5b8082028115828204841417610e3257610e3261327b565b634e487b7160e01b600052601260045260246000fd5b6000826132cd576132cd6132a8565b500490565b80820180821115610e3257610e3261327b565b634e487b7160e01b600052603260045260246000fd5b60208082528181018390526000908460408401835b8681101561333c576001600160a01b0361332984612e57565b1682529183019190830190600101613310565b509695505050505050565b805169ffffffffffffffffffff81168114612e6e57600080fd5b600080600080600060a0868803121561337957600080fd5b61338286613347565b94506020860151935060408601519250606086015191506133a560808701613347565b90509295509295909350565b6000602082840312156133c357600080fd5b815160ff81168114611c7e57600080fd5b600181815b8085111561340f5781600019048211156133f5576133f561327b565b8085161561340257918102915b93841c93908002906133d9565b509250929050565b60008261342657506001610e32565b8161343357506000610e32565b816001811461344957600281146134535761346f565b6001915050610e32565b60ff8411156134645761346461327b565b50506001821b610e32565b5060208310610133831016604e8410600b8410161715613492575081810a610e32565b61349c83836133d4565b80600019048211156134b0576134b061327b565b029392505050565b6000611c7e60ff841683613417565b6000826134d6576134d66132a8565b600160ff1b8214600019841416156134f0576134f061327b565b500590565b80820260008212600160ff1b841416156135115761351161327b565b8181058314821517610e3257610e3261327b565b60006020828403121561353757600080fd5b8151611c7e81613084565b60ff8181168382160190811115610e3257610e3261327b565b600060ff821660ff81036135715761357161327b565b60010192915050565b600061ffff8083168181036135915761359161327b565b6001019392505050565b600081516135ad818560208601612ddb565b9290920192915050565b60008084548160018260011c915060018316806135d557607f831692505b602080841082036135f457634e487b7160e01b86526022600452602486fd5b818015613608576001811461361d5761364a565b60ff198616895284151585028901965061364a565b60008b81526020902060005b868110156136425781548b820152908501908301613629565b505084890196505b50505050505061365a818561359b565b64173539b7b760d91b815260050195945050505050565b600082613680576136806132a8565b500690565b6000816136945761369461327b565b506000190190565b6000600182016136ae576136ae61327b565b5060010190565b6001600160a01b038581168252841660208201526040810183905260806060820181905260009061133590830184612dff565b6000602082840312156136fa57600080fd5b8151611c7e81612da8565b81810381811115610e3257610e3261327b565b634e487b7160e01b600052603160045260246000fd5b60006020828403121561374057600080fd5b505191905056fea26469706673582212206744ff2d02ffc56fb30463bf08de5159362fdd815c3b6b0ebfb4c047531b172964736f6c63430008170033","linkReferences":{}},"methodIdentifiers":{"GOVERNOR()":"6dc0ae22","MAX_COMP_MINTS()":"7263c07e","MAX_MINTS_PER_TX()":"c6a91b42","MAX_OWNER_MINTS()":"c5f8776c","MAX_PRESALE_MINTS()":"9208383a","MAX_RAFFLE_MINTS()":"227b1614","MAX_SUPPLY()":"32cb6b0c","MAX_WHITELISTEES()":"dbdbbc91","OWNER()":"117803e3","PAYMENT_SPLITTER()":"a5f0292b","PRESALE()":"b4cf5648","PRICEFEED()":"d8f4d5d0","PRICE_IN_USD()":"914db51a","ROYALTY_BASIS_POINTS()":"3c404a9c","SALE_OPEN()":"8e26d2aa","VRF_COORDINATOR()":"05f6a924","addRaffle2000Winners(address[])":"4404ee84","addToWhitelist(address[])":"7f649783","approve(address,uint256)":"095ea7b3","assignCompMint(address)":"5ab9120c","balanceOf(address)":"70a08231","calculatePrice(uint256)":"ae104265","callbackGasLimit()":"24f74697","canMintRaffle(address)":"80b77181","compMintCounter()":"4654e6d6","getApproved(uint256)":"081812fc","getBaseUri()":"0cac36b2","getBatchTokens(uint256)":"e8c93ec9","getBuyerByIndex(uint256)":"d5a9dea4","getBuyers()":"f64bfaba","getCompMintCount()":"5a59d966","getCurrentTokenId()":"56189236","getPriceInMATIC()":"54a063ae","getRoyaltyReceiver()":"a5bd5235","getWhitelistCount()":"3edff20f","hasClaimedCompMint(address)":"289016ed","isApprovedForAll(address,address)":"e985e9c5","isBuyer(address)":"2a55feec","isCompMintRecipient(address)":"a69e689c","isMintingOpen()":"1a206910","isWhitelisted(address)":"3af32abf","keyHash()":"61728f39","mint(address,uint256)":"40c10f19","mintComp()":"ee1daa43","mintRaffle()":"a3815121","name()":"06fdde03","numWords()":"7ccfd7fc","ownerMint(uint256)":"f19e75d4","ownerMintCounter()":"77071052","ownerOf(uint256)":"6352211e","raffleWinnersAdded()":"eaf7f576","rawFulfillRandomWords(uint256,uint256[])":"1fe543e3","remainingUris()":"e5750395","requestConfirmations()":"b0fb162f","royaltyInfo(uint256,uint256)":"2a55205a","safeTransferFrom(address,address,uint256)":"42842e0e","safeTransferFrom(address,address,uint256,bytes)":"b88d4fde","setApprovalForAll(address,bool)":"a22cb465","setRoyaltyReceiver(address)":"8dc251e3","setTokenPrice(uint256)":"6a61e5fc","subscriptionId()":"09c1ba2e","supportsInterface(bytes4)":"01ffc9a7","symbol()":"95d89b41","tokenByIndex(uint256)":"4f6ccce7","tokenIdToUriExtension(uint256)":"33fdcf52","tokenOfOwnerByIndex(address,uint256)":"2f745c59","tokenURI(uint256)":"c87b56dd","totalNumberOfBuyers()":"73416c24","totalSupply()":"18160ddd","transferFrom(address,address,uint256)":"23b872dd","whitelistCounter()":"26f27e6d"},"id":42}