{"abi":[{"type":"constructor","inputs":[{"name":"_vrfCoordinatorV2","type":"address","internalType":"address"},{"name":"_priceFeed","type":"address","internalType":"address"},{"name":"_governor","type":"address","internalType":"address"},{"name":"_paymentSplitter","type":"address","internalType":"address"},{"name":"_owner","type":"address","internalType":"address"},{"name":"_presale","type":"uint256","internalType":"uint256"},{"name":"_saleOpen","type":"uint256","internalType":"uint256"},{"name":"_subscriptionId","type":"uint64","internalType":"uint64"},{"name":"_baseUri","type":"string","internalType":"string"}],"stateMutability":"nonpayable"},{"type":"function","name":"GOVERNOR","inputs":[],"outputs":[{"name":"","type":"address","internalType":"address"}],"stateMutability":"view"},{"type":"function","name":"MAX_COMP_MINTS","inputs":[],"outputs":[{"name":"","type":"uint16","internalType":"uint16"}],"stateMutability":"view"},{"type":"function","name":"MAX_MINTS_PER_TX","inputs":[],"outputs":[{"name":"","type":"uint16","internalType":"uint16"}],"stateMutability":"view"},{"type":"function","name":"MAX_OWNER_MINTS","inputs":[],"outputs":[{"name":"","type":"uint16","internalType":"uint16"}],"stateMutability":"view"},{"type":"function","name":"MAX_PRESALE_MINTS","inputs":[],"outputs":[{"name":"","type":"uint16","internalType":"uint16"}],"stateMutability":"view"},{"type":"function","name":"MAX_SUPPLY","inputs":[],"outputs":[{"name":"","type":"uint16","internalType":"uint16"}],"stateMutability":"view"},{"type":"function","name":"MAX_WHITELISTEES","inputs":[],"outputs":[{"name":"","type":"uint16","internalType":"uint16"}],"stateMutability":"view"},{"type":"function","name":"OWNER","inputs":[],"outputs":[{"name":"","type":"address","internalType":"address"}],"stateMutability":"view"},{"type":"function","name":"PAYMENT_SPLITTER","inputs":[],"outputs":[{"name":"","type":"address","internalType":"address"}],"stateMutability":"view"},{"type":"function","name":"PRESALE","inputs":[],"outputs":[{"name":"","type":"uint256","internalType":"uint256"}],"stateMutability":"view"},{"type":"function","name":"PRICEFEED","inputs":[],"outputs":[{"name":"","type":"address","internalType":"contract IPricefeed"}],"stateMutability":"view"},{"type":"function","name":"PRICE_IN_USD","inputs":[],"outputs":[{"name":"","type":"uint256","internalType":"uint256"}],"stateMutability":"view"},{"type":"function","name":"ROYALTY_BASIS_POINTS","inputs":[],"outputs":[{"name":"","type":"uint96","internalType":"uint96"}],"stateMutability":"view"},{"type":"function","name":"SALE_OPEN","inputs":[],"outputs":[{"name":"","type":"uint256","internalType":"uint256"}],"stateMutability":"view"},{"type":"function","name":"VRF_COORDINATOR","inputs":[],"outputs":[{"name":"","type":"address","internalType":"contract VRFCoordinatorV2Interface"}],"stateMutability":"view"},{"type":"function","name":"addRaffle2000Winners","inputs":[{"name":"_winners","type":"address[]","internalType":"address[]"}],"outputs":[],"stateMutability":"nonpayable"},{"type":"function","name":"addToWhitelist","inputs":[{"name":"_whitelistees","type":"address[]","internalType":"address[]"}],"outputs":[],"stateMutability":"nonpayable"},{"type":"function","name":"approve","inputs":[{"name":"to","type":"address","internalType":"address"},{"name":"tokenId","type":"uint256","internalType":"uint256"}],"outputs":[],"stateMutability":"nonpayable"},{"type":"function","name":"assignCompMint","inputs":[{"name":"_recipient","type":"address","internalType":"address"}],"outputs":[],"stateMutability":"nonpayable"},{"type":"function","name":"balanceOf","inputs":[{"name":"owner","type":"address","internalType":"address"}],"outputs":[{"name":"","type":"uint256","internalType":"uint256"}],"stateMutability":"view"},{"type":"function","name":"calculatePrice","inputs":[{"name":"_numberOfTokens","type":"uint256","internalType":"uint256"}],"outputs":[{"name":"","type":"uint256","internalType":"uint256"}],"stateMutability":"view"},{"type":"function","name":"callbackGasLimit","inputs":[],"outputs":[{"name":"","type":"uint32","internalType":"uint32"}],"stateMutability":"view"},{"type":"function","name":"compMintCounter","inputs":[],"outputs":[{"name":"","type":"uint8","internalType":"uint8"}],"stateMutability":"view"},{"type":"function","name":"getApproved","inputs":[{"name":"tokenId","type":"uint256","internalType":"uint256"}],"outputs":[{"name":"","type":"address","internalType":"address"}],"stateMutability":"view"},{"type":"function","name":"getBaseUri","inputs":[],"outputs":[{"name":"","type":"string","internalType":"string"}],"stateMutability":"view"},{"type":"function","name":"getBatchTokens","inputs":[{"name":"_requestId","type":"uint256","internalType":"uint256"}],"outputs":[{"name":"","type":"uint256[]","internalType":"uint256[]"}],"stateMutability":"view"},{"type":"function","name":"getBuyerByIndex","inputs":[{"name":"index","type":"uint256","internalType":"uint256"}],"outputs":[{"name":"","type":"address","internalType":"address"}],"stateMutability":"view"},{"type":"function","name":"getBuyers","inputs":[],"outputs":[{"name":"","type":"address[]","internalType":"address[]"}],"stateMutability":"view"},{"type":"function","name":"getCompMintCount","inputs":[],"outputs":[{"name":"","type":"uint256","internalType":"uint256"}],"stateMutability":"view"},{"type":"function","name":"getCurrentTokenId","inputs":[],"outputs":[{"name":"","type":"uint256","internalType":"uint256"}],"stateMutability":"view"},{"type":"function","name":"getPriceInMATIC","inputs":[],"outputs":[{"name":"","type":"uint256","internalType":"uint256"}],"stateMutability":"view"},{"type":"function","name":"getRoyaltyReceiver","inputs":[],"outputs":[{"name":"","type":"address","internalType":"address"}],"stateMutability":"view"},{"type":"function","name":"getWhitelistCount","inputs":[],"outputs":[{"name":"","type":"uint256","internalType":"uint256"}],"stateMutability":"view"},{"type":"function","name":"hasClaimedCompMint","inputs":[{"name":"user","type":"address","internalType":"address"}],"outputs":[{"name":"","type":"bool","internalType":"bool"}],"stateMutability":"view"},{"type":"function","name":"isApprovedForAll","inputs":[{"name":"owner","type":"address","internalType":"address"},{"name":"operator","type":"address","internalType":"address"}],"outputs":[{"name":"","type":"bool","internalType":"bool"}],"stateMutability":"view"},{"type":"function","name":"isBuyer","inputs":[{"name":"","type":"address","internalType":"address"}],"outputs":[{"name":"","type":"bool","internalType":"bool"}],"stateMutability":"view"},{"type":"function","name":"isCompMintRecipient","inputs":[{"name":"user","type":"address","internalType":"address"}],"outputs":[{"name":"","type":"bool","internalType":"bool"}],"stateMutability":"view"},{"type":"function","name":"isMintingOpen","inputs":[],"outputs":[{"name":"","type":"bool","internalType":"bool"}],"stateMutability":"view"},{"type":"function","name":"isWhitelisted","inputs":[{"name":"user","type":"address","internalType":"address"}],"outputs":[{"name":"","type":"bool","internalType":"bool"}],"stateMutability":"view"},{"type":"function","name":"keyHash","inputs":[],"outputs":[{"name":"","type":"bytes32","internalType":"bytes32"}],"stateMutability":"view"},{"type":"function","name":"mint","inputs":[{"name":"_to","type":"address","internalType":"address"},{"name":"_numberOfTokens","type":"uint256","internalType":"uint256"}],"outputs":[{"name":"","type":"uint256","internalType":"uint256"}],"stateMutability":"payable"},{"type":"function","name":"mintComp","inputs":[],"outputs":[{"name":"","type":"uint256","internalType":"uint256"}],"stateMutability":"nonpayable"},{"type":"function","name":"name","inputs":[],"outputs":[{"name":"","type":"string","internalType":"string"}],"stateMutability":"view"},{"type":"function","name":"numWords","inputs":[],"outputs":[{"name":"","type":"uint32","internalType":"uint32"}],"stateMutability":"view"},{"type":"function","name":"ownerMint","inputs":[{"name":"_numberOfTokens","type":"uint256","internalType":"uint256"}],"outputs":[{"name":"requestId","type":"uint256","internalType":"uint256"}],"stateMutability":"nonpayable"},{"type":"function","name":"ownerMintCounter","inputs":[],"outputs":[{"name":"","type":"uint256","internalType":"uint256"}],"stateMutability":"view"},{"type":"function","name":"ownerOf","inputs":[{"name":"tokenId","type":"uint256","internalType":"uint256"}],"outputs":[{"name":"","type":"address","internalType":"address"}],"stateMutability":"view"},{"type":"function","name":"raffleWinnersAdded","inputs":[],"outputs":[{"name":"","type":"bool","internalType":"bool"}],"stateMutability":"view"},{"type":"function","name":"rawFulfillRandomWords","inputs":[{"name":"requestId","type":"uint256","internalType":"uint256"},{"name":"randomWords","type":"uint256[]","internalType":"uint256[]"}],"outputs":[],"stateMutability":"nonpayable"},{"type":"function","name":"remainingUris","inputs":[],"outputs":[{"name":"","type":"uint256","internalType":"uint256"}],"stateMutability":"view"},{"type":"function","name":"requestConfirmations","inputs":[],"outputs":[{"name":"","type":"uint16","internalType":"uint16"}],"stateMutability":"view"},{"type":"function","name":"royaltyInfo","inputs":[{"name":"_tokenId","type":"uint256","internalType":"uint256"},{"name":"_salePrice","type":"uint256","internalType":"uint256"}],"outputs":[{"name":"receiver","type":"address","internalType":"address"},{"name":"royaltyAmount","type":"uint256","internalType":"uint256"}],"stateMutability":"view"},{"type":"function","name":"safeTransferFrom","inputs":[{"name":"from","type":"address","internalType":"address"},{"name":"to","type":"address","internalType":"address"},{"name":"tokenId","type":"uint256","internalType":"uint256"}],"outputs":[],"stateMutability":"nonpayable"},{"type":"function","name":"safeTransferFrom","inputs":[{"name":"from","type":"address","internalType":"address"},{"name":"to","type":"address","internalType":"address"},{"name":"tokenId","type":"uint256","internalType":"uint256"},{"name":"data","type":"bytes","internalType":"bytes"}],"outputs":[],"stateMutability":"nonpayable"},{"type":"function","name":"setApprovalForAll","inputs":[{"name":"operator","type":"address","internalType":"address"},{"name":"approved","type":"bool","internalType":"bool"}],"outputs":[],"stateMutability":"nonpayable"},{"type":"function","name":"setRoyaltyReceiver","inputs":[{"name":"_newReceiver","type":"address","internalType":"address"}],"outputs":[],"stateMutability":"nonpayable"},{"type":"function","name":"setTokenPrice","inputs":[{"name":"_newPriceInUSD","type":"uint256","internalType":"uint256"}],"outputs":[],"stateMutability":"nonpayable"},{"type":"function","name":"subscriptionId","inputs":[],"outputs":[{"name":"","type":"uint64","internalType":"uint64"}],"stateMutability":"view"},{"type":"function","name":"supportsInterface","inputs":[{"name":"interfaceId","type":"bytes4","internalType":"bytes4"}],"outputs":[{"name":"","type":"bool","internalType":"bool"}],"stateMutability":"view"},{"type":"function","name":"symbol","inputs":[],"outputs":[{"name":"","type":"string","internalType":"string"}],"stateMutability":"view"},{"type":"function","name":"tokenByIndex","inputs":[{"name":"index","type":"uint256","internalType":"uint256"}],"outputs":[{"name":"","type":"uint256","internalType":"uint256"}],"stateMutability":"view"},{"type":"function","name":"tokenIdToUriExtension","inputs":[{"name":"","type":"uint256","internalType":"uint256"}],"outputs":[{"name":"","type":"uint256","internalType":"uint256"}],"stateMutability":"view"},{"type":"function","name":"tokenOfOwnerByIndex","inputs":[{"name":"owner","type":"address","internalType":"address"},{"name":"index","type":"uint256","internalType":"uint256"}],"outputs":[{"name":"","type":"uint256","internalType":"uint256"}],"stateMutability":"view"},{"type":"function","name":"tokenURI","inputs":[{"name":"_tokenId","type":"uint256","internalType":"uint256"}],"outputs":[{"name":"","type":"string","internalType":"string"}],"stateMutability":"view"},{"type":"function","name":"totalNumberOfBuyers","inputs":[],"outputs":[{"name":"","type":"uint256","internalType":"uint256"}],"stateMutability":"view"},{"type":"function","name":"totalSupply","inputs":[],"outputs":[{"name":"","type":"uint256","internalType":"uint256"}],"stateMutability":"view"},{"type":"function","name":"transferFrom","inputs":[{"name":"from","type":"address","internalType":"address"},{"name":"to","type":"address","internalType":"address"},{"name":"tokenId","type":"uint256","internalType":"uint256"}],"outputs":[],"stateMutability":"nonpayable"},{"type":"function","name":"whitelistCounter","inputs":[],"outputs":[{"name":"","type":"uint16","internalType":"uint16"}],"stateMutability":"view"},{"type":"event","name":"Approval","inputs":[{"name":"owner","type":"address","indexed":true,"internalType":"address"},{"name":"approved","type":"address","indexed":true,"internalType":"address"},{"name":"tokenId","type":"uint256","indexed":true,"internalType":"uint256"}],"anonymous":false},{"type":"event","name":"ApprovalForAll","inputs":[{"name":"owner","type":"address","indexed":true,"internalType":"address"},{"name":"operator","type":"address","indexed":true,"internalType":"address"},{"name":"approved","type":"bool","indexed":false,"internalType":"bool"}],"anonymous":false},{"type":"event","name":"RaffleWinnersAdded","inputs":[{"name":"winners","type":"address[]","indexed":false,"internalType":"address[]"}],"anonymous":false},{"type":"event","name":"RoyaltyReceiverChanged","inputs":[{"name":"newReceiver","type":"address","indexed":false,"internalType":"address"}],"anonymous":false},{"type":"event","name":"TokenPriceChanged","inputs":[{"name":"newPrice","type":"uint256","indexed":false,"internalType":"uint256"}],"anonymous":false},{"type":"event","name":"Transfer","inputs":[{"name":"from","type":"address","indexed":true,"internalType":"address"},{"name":"to","type":"address","indexed":true,"internalType":"address"},{"name":"tokenId","type":"uint256","indexed":true,"internalType":"uint256"}],"anonymous":false},{"type":"event","name":"VRFRequestCreated","inputs":[{"name":"requestId","type":"uint256","indexed":false,"internalType":"uint256"}],"anonymous":false},{"type":"error","name":"ERC721EnumerableForbiddenBatchMint","inputs":[]},{"type":"error","name":"ERC721IncorrectOwner","inputs":[{"name":"sender","type":"address","internalType":"address"},{"name":"tokenId","type":"uint256","internalType":"uint256"},{"name":"owner","type":"address","internalType":"address"}]},{"type":"error","name":"ERC721InsufficientApproval","inputs":[{"name":"operator","type":"address","internalType":"address"},{"name":"tokenId","type":"uint256","internalType":"uint256"}]},{"type":"error","name":"ERC721InvalidApprover","inputs":[{"name":"approver","type":"address","internalType":"address"}]},{"type":"error","name":"ERC721InvalidOperator","inputs":[{"name":"operator","type":"address","internalType":"address"}]},{"type":"error","name":"ERC721InvalidOwner","inputs":[{"name":"owner","type":"address","internalType":"address"}]},{"type":"error","name":"ERC721InvalidReceiver","inputs":[{"name":"receiver","type":"address","internalType":"address"}]},{"type":"error","name":"ERC721InvalidSender","inputs":[{"name":"sender","type":"address","internalType":"address"}]},{"type":"error","name":"ERC721NonexistentToken","inputs":[{"name":"tokenId","type":"uint256","internalType":"uint256"}]},{"type":"error","name":"ERC721OutOfBoundsIndex","inputs":[{"name":"owner","type":"address","internalType":"address"},{"name":"index","type":"uint256","internalType":"uint256"}]},{"type":"error","name":"OnlyCoordinatorCanFulfill","inputs":[{"name":"have","type":"address","internalType":"address"},{"name":"want","type":"address","internalType":"address"}]},{"type":"error","name":"OrcNation__CompMintAlreadyAssignedToAddress","inputs":[]},{"type":"error","name":"OrcNation__CompMintAlreadyClaimed","inputs":[]},{"type":"error","name":"OrcNation__InsufficientPayment","inputs":[{"name":"paymentDue","type":"uint256","internalType":"uint256"}]},{"type":"error","name":"OrcNation__InvalidNewPrice","inputs":[]},{"type":"error","name":"OrcNation__InvalidSaleTime","inputs":[]},{"type":"error","name":"OrcNation__MaxCompMintsExceeded","inputs":[]},{"type":"error","name":"OrcNation__MaxMintsPerTransactionExceeded","inputs":[]},{"type":"error","name":"OrcNation__MaxThreePresaleMintsPerWhitelistedAddress","inputs":[]},{"type":"error","name":"OrcNation__MintingNotOpen","inputs":[]},{"type":"error","name":"OrcNation__MustMintAtLeastOneToken","inputs":[]},{"type":"error","name":"OrcNation__NotEligibleForCompMint","inputs":[]},{"type":"error","name":"OrcNation__NotWhitelisted","inputs":[]},{"type":"error","name":"OrcNation__OnlyAdmin","inputs":[]},{"type":"error","name":"OrcNation__OnlyGovernor","inputs":[]},{"type":"error","name":"OrcNation__PriceFeedAnswerNegative","inputs":[]},{"type":"error","name":"OrcNation__RaffleWinnersAlreadyAdded","inputs":[]},{"type":"error","name":"OrcNation__TokenDoesNotExist","inputs":[]},{"type":"error","name":"OrcNation__WillExceedMaxOwnerMints","inputs":[]},{"type":"error","name":"OrcNation__WillExceedMaxSupply","inputs":[]},{"type":"error","name":"OrcNation__WillExceedMaxWhitelistees","inputs":[]}],"bytecode":{"object":"0x6101806040526041600a556127106010557f4b09e658ed251bcafeebbc69400383d49f344ace09b9576fe248bb02c003fe9f601a55601b8054600160401b600160901b0319166e01000f4240000300000000000000001790553480156200006557600080fd5b5060405162003c6c38038062003c6c8339810160408190526200008891620001db565b886040518060400160405280600981526020016827b931a730ba34b7b760b91b815250604051806040016040528060048152602001634f52435360e01b8152508160009081620000d99190620003d1565b506001620000e88282620003d1565b5050506001600160a01b0316608052428410806200010557508383105b1562000124576040516336e24cf360e01b815260040160405180910390fd5b6001600160a01b03808a1660a05288811660c05287811661010052861660e052600d80546001600160a01b03191633179055600e620001648282620003d1565b50506101409290925261016052601b80546001600160401b0319166001600160401b039092169190911790556001600160a01b031661012052506200049d92505050565b80516001600160a01b0381168114620001c057600080fd5b919050565b634e487b7160e01b600052604160045260246000fd5b60008060008060008060008060006101208a8c031215620001fb57600080fd5b620002068a620001a8565b98506200021660208b01620001a8565b97506200022660408b01620001a8565b96506200023660608b01620001a8565b95506200024660808b01620001a8565b60a08b015160c08c015160e08d015192975090955093506001600160401b0380821682146200027457600080fd5b6101008c0151919350808211156200028b57600080fd5b818c0191508c601f830112620002a057600080fd5b815181811115620002b557620002b5620001c5565b604051601f8201601f19908116603f01168101908382118183101715620002e057620002e0620001c5565b816040528281528f6020848701011115620002fa57600080fd5b600093505b8284101562000322576020848601015160208583010152602084019350620002ff565b60006020848301015280955050505050509295985092959850929598565b600181811c908216806200035557607f821691505b6020821081036200037657634e487b7160e01b600052602260045260246000fd5b50919050565b601f821115620003cc576000816000526020600020601f850160051c81016020861015620003a75750805b601f850160051c820191505b81811015620003c857828155600101620003b3565b5050505b505050565b81516001600160401b03811115620003ed57620003ed620001c5565b6200040581620003fe845462000340565b846200037c565b602080601f8311600181146200043d5760008415620004245750858301515b600019600386901b1c1916600185901b178555620003c8565b600085815260208120601f198616915b828110156200046e578886015182559484019460019091019084016200044d565b50858210156200048d5787850151600019600388901b60f8161c191681555b5050505050600190811b01905550565b60805160a05160c05160e051610100516101205161014051610160516136eb6200058160003960008181610a55015281816110cf0152611b1c01526000818161058a01528181610bb601528181611063015281816110a401528181611af10152611cb20152600061053a01526000818161095d015281816112ef01528181611664015281816117b6015281816118b901528181611a1f0152611d9c015260008181610b0701526111ef015260008181610c75015281816114df015261158b01526000818161043b0152612a07015260008181610ea10152610ee301526136eb6000f3fe6080604052600436106103ef5760003560e01c80636a61e5fc11610208578063ae10426511610118578063d8f4d5d0116100ab578063e985e9c51161007a578063e985e9c514610cda578063eaf7f57614610cfa578063ee1daa4314610d14578063f19e75d414610d29578063f64bfaba14610d4957600080fd5b8063d8f4d5d014610c63578063dbdbbc9114610bf8578063e575039514610c97578063e8c93ec914610cad57600080fd5b8063c5f8776c116100e7578063c5f8776c14610bf8578063c6a91b4214610c0e578063c87b56dd14610c23578063d5a9dea414610c4357600080fd5b8063ae10426514610b62578063b0fb162f14610b82578063b4cf564814610ba4578063b88d4fde14610bd857600080fd5b80638dc251e31161019b57806395d89b411161016a57806395d89b4114610aa2578063a22cb46514610ab7578063a5bd523514610ad7578063a5f0292b14610af5578063a69e689c14610b2957600080fd5b80638dc251e314610a235780638e26d2aa14610a43578063914db51a14610a775780639208383a14610a8d57600080fd5b806373416c24116101d757806373416c24146109b457806377071052146109c95780637ccfd7fc146109df5780637f64978314610a0357600080fd5b80636a61e5fc1461092b5780636dc0ae221461094b57806370a082311461097f5780637263c07e1461099f57600080fd5b80632f745c59116103035780634404ee8411610296578063561892361161026557806356189236146108a25780635a59d966146108b75780635ab9120c146108d557806361728f39146108f55780636352211e1461090b57600080fd5b80634404ee841461081b5780634654e6d61461083b5780634f6ccce71461086d57806354a063ae1461088d57600080fd5b80633c404a9c116102d25780633c404a9c1461079c5780633edff20f146107cf57806340c10f19146107e857806342842e0e146107fb57600080fd5b80632f745c591461070057806332cb6b0c1461072057806333fdcf52146107365780633af32abf1461076357600080fd5b806318160ddd1161038657806324f746971161035557806324f74697146105f157806326f27e6d1461062a578063289016ed146106585780632a55205a146106915780632a55feec146106d057600080fd5b806318160ddd1461055c5780631a2069101461057b5780631fe543e3146105b157806323b872dd146105d157600080fd5b8063095ea7b3116103c2578063095ea7b3146104b757806309c1ba2e146104d95780630cac36b214610513578063117803e31461052857600080fd5b806301ffc9a7146103f457806305f6a9241461042957806306fdde0314610475578063081812fc14610497575b600080fd5b34801561040057600080fd5b5061041461040f366004612d2c565b610d6b565b60405190151581526020015b60405180910390f35b34801561043557600080fd5b5061045d7f000000000000000000000000000000000000000000000000000000000000000081565b6040516001600160a01b039091168152602001610420565b34801561048157600080fd5b5061048a610dbd565b6040516104209190612d99565b3480156104a357600080fd5b5061045d6104b2366004612dac565b610e4f565b3480156104c357600080fd5b506104d76104d2366004612de1565b610e78565b005b3480156104e557600080fd5b50601b546104fa9067ffffffffffffffff1681565b60405167ffffffffffffffff9091168152602001610420565b34801561051f57600080fd5b5061048a610e87565b34801561053457600080fd5b5061045d7f000000000000000000000000000000000000000000000000000000000000000081565b34801561056857600080fd5b506008545b604051908152602001610420565b34801561058757600080fd5b507f0000000000000000000000000000000000000000000000000000000000000000421015610414565b3480156105bd57600080fd5b506104d76105cc366004612e52565b610e96565b3480156105dd57600080fd5b506104d76105ec366004612f04565b610f1f565b3480156105fd57600080fd5b50601b5461061590600160501b900463ffffffff1681565b60405163ffffffff9091168152602001610420565b34801561063657600080fd5b50600b546106459061ffff1681565b60405161ffff9091168152602001610420565b34801561066457600080fd5b50610414610673366004612f40565b6001600160a01b031660009081526016602052604090205460ff1690565b34801561069d57600080fd5b506106b16106ac366004612f5b565b610faa565b604080516001600160a01b039093168352602083019190915201610420565b3480156106dc57600080fd5b506104146106eb366004612f40565b60186020526000908152604090205460ff1681565b34801561070c57600080fd5b5061056d61071b366004612de1565b610ffa565b34801561072c57600080fd5b5061064561271081565b34801561074257600080fd5b5061056d610751366004612dac565b60136020526000908152604090205481565b34801561076f57600080fd5b5061041461077e366004612f40565b6001600160a01b031660009081526014602052604090205460ff1690565b3480156107a857600080fd5b506107b26101f481565b6040516bffffffffffffffffffffffff9091168152602001610420565b3480156107db57600080fd5b50600b5461ffff1661056d565b61056d6107f6366004612de1565b61105f565b34801561080757600080fd5b506104d7610816366004612f04565b6112c4565b34801561082757600080fd5b506104d7610836366004612f7d565b6112e4565b34801561084757600080fd5b50600b5461085b9062010000900460ff1681565b60405160ff9091168152602001610420565b34801561087957600080fd5b5061056d610888366004612dac565b611481565b34801561089957600080fd5b5061056d6114da565b3480156108ae57600080fd5b50600f5461056d565b3480156108c357600080fd5b50600b5462010000900460ff1661056d565b3480156108e157600080fd5b506104d76108f0366004612f40565b61164f565b34801561090157600080fd5b5061056d601a5481565b34801561091757600080fd5b5061045d610926366004612dac565b6117a0565b34801561093757600080fd5b506104d7610946366004612dac565b6117ab565b34801561095757600080fd5b5061045d7f000000000000000000000000000000000000000000000000000000000000000081565b34801561098b57600080fd5b5061056d61099a366004612f40565b61185c565b3480156109ab57600080fd5b50610645603781565b3480156109c057600080fd5b5060175461056d565b3480156109d557600080fd5b5061056d600c5481565b3480156109eb57600080fd5b50601b5461061590600160701b900463ffffffff1681565b348015610a0f57600080fd5b506104d7610a1e366004612f7d565b6118a4565b348015610a2f57600080fd5b506104d7610a3e366004612f40565b611a14565b348015610a4f57600080fd5b5061056d7f000000000000000000000000000000000000000000000000000000000000000081565b348015610a8357600080fd5b5061056d600a5481565b348015610a9957600080fd5b50610645600381565b348015610aae57600080fd5b5061048a611abd565b348015610ac357600080fd5b506104d7610ad2366004613000565b611acc565b348015610ae357600080fd5b50600d546001600160a01b031661045d565b348015610b0157600080fd5b5061045d7f000000000000000000000000000000000000000000000000000000000000000081565b348015610b3557600080fd5b50610414610b44366004612f40565b6001600160a01b031660009081526015602052604090205460ff1690565b348015610b6e57600080fd5b5061056d610b7d366004612dac565b611ad7565b348015610b8e57600080fd5b50601b5461064590600160401b900461ffff1681565b348015610bb057600080fd5b5061056d7f000000000000000000000000000000000000000000000000000000000000000081565b348015610be457600080fd5b506104d7610bf3366004613037565b611b61565b348015610c0457600080fd5b506106456101f481565b348015610c1a57600080fd5b50610645600a81565b348015610c2f57600080fd5b5061048a610c3e366004612dac565b611b78565b348015610c4f57600080fd5b5061045d610c5e366004612dac565b611bee565b348015610c6f57600080fd5b5061045d7f000000000000000000000000000000000000000000000000000000000000000081565b348015610ca357600080fd5b5061056d60105481565b348015610cb957600080fd5b50610ccd610cc8366004612dac565b611c1e565b60405161042091906130f7565b348015610ce657600080fd5b50610414610cf536600461313b565b611c80565b348015610d0657600080fd5b506019546104149060ff1681565b348015610d2057600080fd5b5061056d611cae565b348015610d3557600080fd5b5061056d610d44366004612dac565b611d84565b348015610d5557600080fd5b50610d5e611ea9565b604051610420919061316e565b60006301ffc9a760e01b6001600160e01b031983161480610d9c57506380ac58cd60e01b6001600160e01b03198316145b80610db7575063152a902d60e11b6001600160e01b03198316145b92915050565b606060008054610dcc906131af565b80601f0160208091040260200160405190810160405280929190818152602001828054610df8906131af565b8015610e455780601f10610e1a57610100808354040283529160200191610e45565b820191906000526020600020905b815481529060010190602001808311610e2857829003601f168201915b5050505050905090565b6000610e5a82611f0a565b506000828152600460205260409020546001600160a01b0316610db7565b610e83828233611f43565b5050565b6060600e8054610dcc906131af565b336001600160a01b037f00000000000000000000000000000000000000000000000000000000000000001614610f155760405163073e64fd60e21b81523360048201526001600160a01b037f00000000000000000000000000000000000000000000000000000000000000001660248201526044015b60405180910390fd5b610e838282611f50565b6001600160a01b038216610f4957604051633250574960e11b815260006004820152602401610f0c565b6000610f5683833361203f565b9050836001600160a01b0316816001600160a01b031614610fa4576040516364283d7b60e01b81526001600160a01b0380861660048301526024820184905282166044820152606401610f0c565b50505050565b60008080610fb7856117a0565b6001600160a01b031603610fca57600080fd5b600d546001600160a01b0316612710610fe56101f4866131ff565b610fef919061322c565b915091509250929050565b60006110058361185c565b82106110365760405163295f44f760e21b81526001600160a01b038416600482015260248101839052604401610f0c565b506001600160a01b03919091166000908152600660209081526040808320938352929052205490565b60007f00000000000000000000000000000000000000000000000000000000000000004210156110a25760405163f0b9693f60e01b815260040160405180910390fd5b7f000000000000000000000000000000000000000000000000000000000000000042101580156110f157507f000000000000000000000000000000000000000000000000000000000000000042105b15611164576001600160a01b03831660009081526014602052604090205460ff1661112f5760405163cb060eb160e01b815260040160405180910390fd5b60038261113b8561185c565b6111459190613240565b1115611164576040516380b2c43f60e01b815260040160405180910390fd5b60018210156111865760405163ea1112df60e01b815260040160405180910390fd5b600a8211156111a85760405163416296fd60e01b815260040160405180910390fd5b6111b182612114565b60006111bc83611ad7565b9050803410156111e2576040516334272af160e01b815260048101829052602401610f0c565b6111eb84612145565b60007f00000000000000000000000000000000000000000000000000000000000000006001600160a01b03163460405160006040518083038185875af1925050503d8060008114611258576040519150601f19603f3d011682016040523d82523d6000602084013e61125d565b606091505b50509050806112ae5760405162461bcd60e51b815260206004820152601760248201527f5061796d656e74207472616e73666572206661696c65640000000000000000006044820152606401610f0c565b60006112ba86866121cc565b9695505050505050565b6112df83838360405180602001604052806000815250611b61565b505050565b336001600160a01b037f0000000000000000000000000000000000000000000000000000000000000000161461132c5760405162ac0b2f60e41b815260040160405180910390fd5b60195460ff16156113505760405163db6e65c760e01b815260040160405180910390fd5b60005b81811015611435576016600084848481811061137157611371613253565b90506020020160208101906113869190612f40565b6001600160a01b0316815260208101919091526040016000205460ff16156113fe576000601660008585858181106113c0576113c0613253565b90506020020160208101906113d59190612f40565b6001600160a01b031681526020810191909152604001600020805460ff19169115159190911790555b61142d83838381811061141357611413613253565b90506020020160208101906114289190612f40565b61229e565b600101611353565b506019805460ff191660011790556040517f743d27e70dad1517ab7a2613a62cb57ea1ac4d6c0ca6d489bfbb5b468400f5d9906114759084908490613269565b60405180910390a15050565b600061148c60085490565b82106114b55760405163295f44f760e21b81526000600482015260248101839052604401610f0c565b600882815481106114c8576114c8613253565b90600052602060002001549050919050565b6000807f00000000000000000000000000000000000000000000000000000000000000006001600160a01b031663feaf968c6040518163ffffffff1660e01b815260040160a060405180830381865afa15801561153b573d6000803e3d6000fd5b505050506040513d601f19601f8201168201806040525081019061155f91906132cf565b505050915050600081121561158757604051632bea283f60e11b815260040160405180910390fd5b60007f00000000000000000000000000000000000000000000000000000000000000006001600160a01b031663313ce5676040518163ffffffff1660e01b8152600401602060405180830381865afa1580156115e7573d6000803e3d6000fd5b505050506040513d601f19601f8201168201806040525081019061160b919061331f565b61161690600a613426565b90506000600a54670de0b6b3a764000061163091906131ff565b90508161163d8483613435565b6116479190613463565b935050505090565b604051630935e01b60e21b81523360048201527f00000000000000000000000000000000000000000000000000000000000000006001600160a01b0316906324d7806c90602401602060405180830381865afa1580156116b3573d6000803e3d6000fd5b505050506040513d601f19601f820116820180604052508101906116d79190613493565b6116f4576040516354fe416f60e01b815260040160405180910390fd5b60195460ff1661175a57600b5460326201000090910460ff161061175a5760405162461bcd60e51b815260206004820152601c60248201527f6d75737420736176652035206d696e747320666f7220726166666c65000000006044820152606401610f0c565b6001600160a01b03811660009081526015602052604090205460ff1615611794576040516348c3a61560e11b815260040160405180910390fd5b61179d8161229e565b50565b6000610db782611f0a565b336001600160a01b037f000000000000000000000000000000000000000000000000000000000000000016146117f35760405162ac0b2f60e41b815260040160405180910390fd5b60208110806118025750606181115b1561182057604051631d0bf16360e31b815260040160405180910390fd5b600a8190556040518181527fac21bacd333b316c6640fca5086322638b0a7aa4367179afd5dfcbe0a5427bc7906020015b60405180910390a150565b60006001600160a01b038216611888576040516322718ad960e21b815260006004820152602401610f0c565b506001600160a01b031660009081526003602052604090205490565b604051630935e01b60e21b81523360048201527f00000000000000000000000000000000000000000000000000000000000000006001600160a01b0316906324d7806c90602401602060405180830381865afa158015611908573d6000803e3d6000fd5b505050506040513d601f19601f8201168201806040525081019061192c9190613493565b611949576040516354fe416f60e01b815260040160405180910390fd5b600b546101f49061195f90839061ffff16613240565b111561197e576040516354f4fdbf60e11b815260040160405180910390fd5b60005b818110156112df57600b805460009061199d9061ffff166134b0565b91906101000a81548161ffff021916908361ffff1602179055506001601460008585858181106119cf576119cf613253565b90506020020160208101906119e49190612f40565b6001600160a01b031681526020810191909152604001600020805460ff1916911515919091179055600101611981565b336001600160a01b037f00000000000000000000000000000000000000000000000000000000000000001614611a5c5760405162ac0b2f60e41b815260040160405180910390fd5b6001600160a01b038116611a6f57600080fd5b600d80546001600160a01b0319166001600160a01b0383169081179091556040519081527ff18ed8da4fbddf768618d066780de11fb9a756a8b30128c77e6a128500b65a3190602001611851565b606060018054610dcc906131af565b610e83338383612333565b60008082611ae36114da565b611aed91906131ff565b90507f00000000000000000000000000000000000000000000000000000000000000004210158015611b3e57507f000000000000000000000000000000000000000000000000000000000000000042105b15610db7576064611b508260556131ff565b611b5a919061322c565b9392505050565b611b6c848484610f1f565b610fa4848484846123d2565b60606000611b85836117a0565b6001600160a01b031603611bac5760405163039530c360e61b815260040160405180910390fd5b600082815260136020526040902054600e90611bc7906124fb565b604051602001611bd89291906134ed565b6040516020818303038152906040529050919050565b600060178281548110611c0357611c03613253565b6000918252602090912001546001600160a01b031692915050565b600081815260116020908152604091829020805483518184028101840190945280845260609392830182828015611c7457602002820191906000526020600020905b815481526020019060010190808311611c60575b50505050509050919050565b6001600160a01b03918216600090815260056020908152604080832093909416825291909152205460ff1690565b60007f0000000000000000000000000000000000000000000000000000000000000000421015611cf15760405163f0b9693f60e01b815260040160405180910390fd5b3360009081526015602052604090205460ff16611d2157604051631624b2cf60e11b815260040160405180910390fd5b3360009081526016602052604090205460ff1615611d5257604051632d11162b60e21b815260040160405180910390fd5b611d5c6001612114565b336000818152601660205260408120805460ff191660019081179091559091610db7916121cc565b604051630935e01b60e21b81523360048201526000907f00000000000000000000000000000000000000000000000000000000000000006001600160a01b0316906324d7806c90602401602060405180830381865afa158015611deb573d6000803e3d6000fd5b505050506040513d601f19601f82011682018060405250810190611e0f9190613493565b611e2c576040516354fe416f60e01b815260040160405180910390fd5b600c546101f490611e3d9084613240565b1115611e5c5760405163c64fc4cb60e01b815260040160405180910390fd5b600a821115611e7e5760405163416296fd60e01b815260040160405180910390fd5b611e8782612114565b81600c6000828254611e999190613240565b90915550610db7905033836121cc565b60606017805480602002602001604051908101604052809291908181526020018280548015610e4557602002820191906000526020600020905b81546001600160a01b03168152600190910190602001808311611ee3575050505050905090565b6000818152600260205260408120546001600160a01b031680610db757604051637e27328960e01b815260048101849052602401610f0c565b6112df838383600161258e565b60105460005b6000848152601160205260409020548110156120375760008284600081518110611f8257611f82613253565b602002602001015183604051602001611fa5929190918252602082015260400190565b6040516020818303038152906040528051906020012060001c611fc891906135a7565b90506000611fd68285612694565b90508060136000601160008a8152602001908152602001600020868154811061200157612001613253565b906000526020600020015481526020019081526020016000208190555083612028906135bb565b93508260010192505050611f56565b506010555050565b60008061204d858585612715565b90506001600160a01b0381166120aa576120a584600880546000838152600960205260408120829055600182018355919091527ff3f7a9fe364faab93b216da50a3214154f22a0a2b415b23a84c8169e8b636ee30155565b6120cd565b846001600160a01b0316816001600160a01b0316146120cd576120cd818561280e565b6001600160a01b0385166120e9576120e48461289f565b61210c565b846001600160a01b0316816001600160a01b03161461210c5761210c858561294e565b949350505050565b600f5461271090612126908390613240565b111561179d5760405163229ed32160e01b815260040160405180910390fd5b6001600160a01b03811660009081526018602052604090205460ff1661179d576017805460018181019092557fc624b66cc0138b8fabc209247f72d758e1cf3343756d543badbf24212bed8c150180546001600160a01b0384166001600160a01b031990911681179091556000908152601860205260409020805460ff1916909117905550565b6000806121d761299e565b905060008367ffffffffffffffff8111156121f4576121f4612e0b565b60405190808252806020026020018201604052801561221d578160200160208202803683370190505b50905060005b8481101561227457600f6000815461223a906135d2565b90915550600f5461224c908790612ab2565b600f5482828151811061226157612261613253565b6020908102919091010152600101612223565b506000828152601160209081526040909120825161229492840190612cb6565b5090949350505050565b600b546037906122b89062010000900460ff1660016135eb565b60ff1611156122da57604051630138ee3960e31b815260040160405180910390fd5b600b80546002906122f39062010000900460ff16613604565b825460ff9182166101009390930a92830291909202199091161790556001600160a01b03166000908152601560205260409020805460ff19166001179055565b6001600160a01b03821661236557604051630b61174360e31b81526001600160a01b0383166004820152602401610f0c565b6001600160a01b03838116600081815260056020908152604080832094871680845294825291829020805460ff191686151590811790915591519182527f17307eab39ab6107e8899845ad3d59bd9653f200f220920489ca2b5937696c31910160405180910390a3505050565b6001600160a01b0383163b15610fa457604051630a85bd0160e11b81526001600160a01b0384169063150b7a0290612414903390889087908790600401613623565b6020604051808303816000875af192505050801561244f575060408051601f3d908101601f1916820190925261244c91810190613656565b60015b6124b8573d80801561247d576040519150601f19603f3d011682016040523d82523d6000602084013e612482565b606091505b5080516000036124b057604051633250574960e11b81526001600160a01b0385166004820152602401610f0c565b805181602001fd5b6001600160e01b03198116630a85bd0160e11b146124f457604051633250574960e11b81526001600160a01b0385166004820152602401610f0c565b5050505050565b6060600061250883612b17565b600101905060008167ffffffffffffffff81111561252857612528612e0b565b6040519080825280601f01601f191660200182016040528015612552576020820181803683370190505b5090508181016020015b600019016f181899199a1a9b1b9c1cb0b131b232b360811b600a86061a8153600a850494508461255c57509392505050565b80806125a257506001600160a01b03821615155b156126645760006125b284611f0a565b90506001600160a01b038316158015906125de5750826001600160a01b0316816001600160a01b031614155b80156125f157506125ef8184611c80565b155b1561261a5760405163a9fbf51f60e01b81526001600160a01b0384166004820152602401610f0c565b81156126625783856001600160a01b0316826001600160a01b03167f8c5be1e5ebec7d5bd14f71427d1e84f3dd0314c0f7b2291e5b200ac8c7c3b92560405160405180910390a45b505b5050600090815260046020526040902080546001600160a01b0319166001600160a01b0392909216919091179055565b600082815260126020526040812054816126af600185613673565b60008181526012602052604081205491925083156126cd57836126cf565b865b90508287146126f65781156126e457816126e6565b825b6000888152601260205260409020555b81156112ba576000838152601260205260408120559695505050505050565b6000828152600260205260408120546001600160a01b039081169083161561274257612742818486612bef565b6001600160a01b038116156127805761275f60008560008061258e565b6001600160a01b038116600090815260036020526040902080546000190190555b6001600160a01b038516156127af576001600160a01b0385166000908152600360205260409020805460010190555b60008481526002602052604080822080546001600160a01b0319166001600160a01b0389811691821790925591518793918516917fddf252ad1be2c89b69c2b068fc378daa952ba7f163c4a11628f55a4df523b3ef91a4949350505050565b60006128198361185c565b60008381526007602052604090205490915080821461286c576001600160a01b03841660009081526006602090815260408083208584528252808320548484528184208190558352600790915290208190555b5060009182526007602090815260408084208490556001600160a01b039094168352600681528383209183525290812055565b6008546000906128b190600190613673565b600083815260096020526040812054600880549394509092849081106128d9576128d9613253565b9060005260206000200154905080600883815481106128fa576128fa613253565b600091825260208083209091019290925582815260099091526040808220849055858252812055600880548061293257612932613686565b6001900381819060005260206000200160009055905550505050565b6000600161295b8461185c565b6129659190613673565b6001600160a01b039093166000908152600660209081526040808320868452825280832085905593825260079052919091209190915550565b601a54601b546040516305d3b1d360e41b8152600481019290925267ffffffffffffffff8116602483015261ffff600160401b820416604483015263ffffffff600160501b820481166064840152600160701b9091041660848201526000906001600160a01b037f00000000000000000000000000000000000000000000000000000000000000001690635d3b1d309060a4016020604051808303816000875af1158015612a50573d6000803e3d6000fd5b505050506040513d601f19601f82011682018060405250810190612a74919061369c565b90507ff2dc9a29f1b257c57ef50cb6c0230cacc6af60a01e5e51bde6ee1657f214a34781604051612aa791815260200190565b60405180910390a190565b6001600160a01b038216612adc57604051633250574960e11b815260006004820152602401610f0c565b6000612aea8383600061203f565b90506001600160a01b038116156112df576040516339e3563760e11b815260006004820152602401610f0c565b60008072184f03e93ff9f4daa797ed6e38ed64bf6a1f0160401b8310612b565772184f03e93ff9f4daa797ed6e38ed64bf6a1f0160401b830492506040015b6d04ee2d6d415b85acef81000000008310612b82576d04ee2d6d415b85acef8100000000830492506020015b662386f26fc100008310612ba057662386f26fc10000830492506010015b6305f5e1008310612bb8576305f5e100830492506008015b6127108310612bcc57612710830492506004015b60648310612bde576064830492506002015b600a8310610db75760010192915050565b612bfa838383612c53565b6112df576001600160a01b038316612c2857604051637e27328960e01b815260048101829052602401610f0c565b60405163177e802f60e01b81526001600160a01b038316600482015260248101829052604401610f0c565b60006001600160a01b0383161580159061210c5750826001600160a01b0316846001600160a01b03161480612c8d5750612c8d8484611c80565b8061210c5750506000908152600460205260409020546001600160a01b03908116911614919050565b828054828255906000526020600020908101928215612cf1579160200282015b82811115612cf1578251825591602001919060010190612cd6565b50612cfd929150612d01565b5090565b5b80821115612cfd5760008155600101612d02565b6001600160e01b03198116811461179d57600080fd5b600060208284031215612d3e57600080fd5b8135611b5a81612d16565b60005b83811015612d64578181015183820152602001612d4c565b50506000910152565b60008151808452612d85816020860160208601612d49565b601f01601f19169290920160200192915050565b602081526000611b5a6020830184612d6d565b600060208284031215612dbe57600080fd5b5035919050565b80356001600160a01b0381168114612ddc57600080fd5b919050565b60008060408385031215612df457600080fd5b612dfd83612dc5565b946020939093013593505050565b634e487b7160e01b600052604160045260246000fd5b604051601f8201601f1916810167ffffffffffffffff81118282101715612e4a57612e4a612e0b565b604052919050565b60008060408385031215612e6557600080fd5b8235915060208084013567ffffffffffffffff80821115612e8557600080fd5b818601915086601f830112612e9957600080fd5b813581811115612eab57612eab612e0b565b8060051b9150612ebc848301612e21565b8181529183018401918481019089841115612ed657600080fd5b938501935b83851015612ef457843582529385019390850190612edb565b8096505050505050509250929050565b600080600060608486031215612f1957600080fd5b612f2284612dc5565b9250612f3060208501612dc5565b9150604084013590509250925092565b600060208284031215612f5257600080fd5b611b5a82612dc5565b60008060408385031215612f6e57600080fd5b50508035926020909101359150565b60008060208385031215612f9057600080fd5b823567ffffffffffffffff80821115612fa857600080fd5b818501915085601f830112612fbc57600080fd5b813581811115612fcb57600080fd5b8660208260051b8501011115612fe057600080fd5b60209290920196919550909350505050565b801515811461179d57600080fd5b6000806040838503121561301357600080fd5b61301c83612dc5565b9150602083013561302c81612ff2565b809150509250929050565b6000806000806080858703121561304d57600080fd5b61305685612dc5565b93506020613065818701612dc5565b935060408601359250606086013567ffffffffffffffff8082111561308957600080fd5b818801915088601f83011261309d57600080fd5b8135818111156130af576130af612e0b565b6130c1601f8201601f19168501612e21565b915080825289848285010111156130d757600080fd5b808484018584013760008482840101525080935050505092959194509250565b6020808252825182820181905260009190848201906040850190845b8181101561312f57835183529284019291840191600101613113565b50909695505050505050565b6000806040838503121561314e57600080fd5b61315783612dc5565b915061316560208401612dc5565b90509250929050565b6020808252825182820181905260009190848201906040850190845b8181101561312f5783516001600160a01b03168352928401929184019160010161318a565b600181811c908216806131c357607f821691505b6020821081036131e357634e487b7160e01b600052602260045260246000fd5b50919050565b634e487b7160e01b600052601160045260246000fd5b8082028115828204841417610db757610db76131e9565b634e487b7160e01b600052601260045260246000fd5b60008261323b5761323b613216565b500490565b80820180821115610db757610db76131e9565b634e487b7160e01b600052603260045260246000fd5b60208082528181018390526000908460408401835b868110156132aa576001600160a01b0361329784612dc5565b168252918301919083019060010161327e565b509695505050505050565b805169ffffffffffffffffffff81168114612ddc57600080fd5b600080600080600060a086880312156132e757600080fd5b6132f0866132b5565b9450602086015193506040860151925060608601519150613313608087016132b5565b90509295509295909350565b60006020828403121561333157600080fd5b815160ff81168114611b5a57600080fd5b600181815b8085111561337d578160001904821115613363576133636131e9565b8085161561337057918102915b93841c9390800290613347565b509250929050565b60008261339457506001610db7565b816133a157506000610db7565b81600181146133b757600281146133c1576133dd565b6001915050610db7565b60ff8411156133d2576133d26131e9565b50506001821b610db7565b5060208310610133831016604e8410600b8410161715613400575081810a610db7565b61340a8383613342565b806000190482111561341e5761341e6131e9565b029392505050565b6000611b5a60ff841683613385565b60008261344457613444613216565b600160ff1b82146000198414161561345e5761345e6131e9565b500590565b80820260008212600160ff1b8414161561347f5761347f6131e9565b8181058314821517610db757610db76131e9565b6000602082840312156134a557600080fd5b8151611b5a81612ff2565b600061ffff8083168181036134c7576134c76131e9565b6001019392505050565b600081516134e3818560208601612d49565b9290920192915050565b60008084548160018260011c9150600183168061350b57607f831692505b6020808410820361352a57634e487b7160e01b86526022600452602486fd5b81801561353e576001811461355357613580565b60ff1986168952841515850289019650613580565b60008b81526020902060005b868110156135785781548b82015290850190830161355f565b505084890196505b50505050505061359081856134d1565b64173539b7b760d91b815260050195945050505050565b6000826135b6576135b6613216565b500690565b6000816135ca576135ca6131e9565b506000190190565b6000600182016135e4576135e46131e9565b5060010190565b60ff8181168382160190811115610db757610db76131e9565b600060ff821660ff810361361a5761361a6131e9565b60010192915050565b6001600160a01b03858116825284166020820152604081018390526080606082018190526000906112ba90830184612d6d565b60006020828403121561366857600080fd5b8151611b5a81612d16565b81810381811115610db757610db76131e9565b634e487b7160e01b600052603160045260246000fd5b6000602082840312156136ae57600080fd5b505191905056fea264697066735822122076e65698327c8249199eceb84685a05c8841d33d81c89481338f0b155bf3625264736f6c63430008170033","linkReferences":{}},"methodIdentifiers":{"GOVERNOR()":"6dc0ae22","MAX_COMP_MINTS()":"7263c07e","MAX_MINTS_PER_TX()":"c6a91b42","MAX_OWNER_MINTS()":"c5f8776c","MAX_PRESALE_MINTS()":"9208383a","MAX_SUPPLY()":"32cb6b0c","MAX_WHITELISTEES()":"dbdbbc91","OWNER()":"117803e3","PAYMENT_SPLITTER()":"a5f0292b","PRESALE()":"b4cf5648","PRICEFEED()":"d8f4d5d0","PRICE_IN_USD()":"914db51a","ROYALTY_BASIS_POINTS()":"3c404a9c","SALE_OPEN()":"8e26d2aa","VRF_COORDINATOR()":"05f6a924","addRaffle2000Winners(address[])":"4404ee84","addToWhitelist(address[])":"7f649783","approve(address,uint256)":"095ea7b3","assignCompMint(address)":"5ab9120c","balanceOf(address)":"70a08231","calculatePrice(uint256)":"ae104265","callbackGasLimit()":"24f74697","compMintCounter()":"4654e6d6","getApproved(uint256)":"081812fc","getBaseUri()":"0cac36b2","getBatchTokens(uint256)":"e8c93ec9","getBuyerByIndex(uint256)":"d5a9dea4","getBuyers()":"f64bfaba","getCompMintCount()":"5a59d966","getCurrentTokenId()":"56189236","getPriceInMATIC()":"54a063ae","getRoyaltyReceiver()":"a5bd5235","getWhitelistCount()":"3edff20f","hasClaimedCompMint(address)":"289016ed","isApprovedForAll(address,address)":"e985e9c5","isBuyer(address)":"2a55feec","isCompMintRecipient(address)":"a69e689c","isMintingOpen()":"1a206910","isWhitelisted(address)":"3af32abf","keyHash()":"61728f39","mint(address,uint256)":"40c10f19","mintComp()":"ee1daa43","name()":"06fdde03","numWords()":"7ccfd7fc","ownerMint(uint256)":"f19e75d4","ownerMintCounter()":"77071052","ownerOf(uint256)":"6352211e","raffleWinnersAdded()":"eaf7f576","rawFulfillRandomWords(uint256,uint256[])":"1fe543e3","remainingUris()":"e5750395","requestConfirmations()":"b0fb162f","royaltyInfo(uint256,uint256)":"2a55205a","safeTransferFrom(address,address,uint256)":"42842e0e","safeTransferFrom(address,address,uint256,bytes)":"b88d4fde","setApprovalForAll(address,bool)":"a22cb465","setRoyaltyReceiver(address)":"8dc251e3","setTokenPrice(uint256)":"6a61e5fc","subscriptionId()":"09c1ba2e","supportsInterface(bytes4)":"01ffc9a7","symbol()":"95d89b41","tokenByIndex(uint256)":"4f6ccce7","tokenIdToUriExtension(uint256)":"33fdcf52","tokenOfOwnerByIndex(address,uint256)":"2f745c59","tokenURI(uint256)":"c87b56dd","totalNumberOfBuyers()":"73416c24","totalSupply()":"18160ddd","transferFrom(address,address,uint256)":"23b872dd","whitelistCounter()":"26f27e6d"},"id":42}