{"abi":[{"type":"constructor","inputs":[{"name":"_vrfCoordinatorV2","type":"address","internalType":"address"},{"name":"_priceFeed","type":"address","internalType":"address"},{"name":"_governor","type":"address","internalType":"address"},{"name":"_paymentSplitter","type":"address","internalType":"address"},{"name":"_royaltyReceiver","type":"address","internalType":"address"},{"name":"_presale","type":"uint256","internalType":"uint256"},{"name":"_saleOpen","type":"uint256","internalType":"uint256"},{"name":"_subscriptionId","type":"uint64","internalType":"uint64"},{"name":"_baseUri","type":"string","internalType":"string"}],"stateMutability":"nonpayable"},{"type":"function","name":"GOVERNOR","inputs":[],"outputs":[{"name":"","type":"address","internalType":"address"}],"stateMutability":"view"},{"type":"function","name":"MAX_COMP_MINTS","inputs":[],"outputs":[{"name":"","type":"uint8","internalType":"uint8"}],"stateMutability":"view"},{"type":"function","name":"MAX_MINTS_PER_TX","inputs":[],"outputs":[{"name":"","type":"uint8","internalType":"uint8"}],"stateMutability":"view"},{"type":"function","name":"MAX_OWNER_MINTS","inputs":[],"outputs":[{"name":"","type":"uint16","internalType":"uint16"}],"stateMutability":"view"},{"type":"function","name":"MAX_PRESALE_MINTS","inputs":[],"outputs":[{"name":"","type":"uint8","internalType":"uint8"}],"stateMutability":"view"},{"type":"function","name":"MAX_RAFFLE_MINTS","inputs":[],"outputs":[{"name":"","type":"uint8","internalType":"uint8"}],"stateMutability":"view"},{"type":"function","name":"MAX_SUPPLY","inputs":[],"outputs":[{"name":"","type":"uint16","internalType":"uint16"}],"stateMutability":"view"},{"type":"function","name":"MAX_WHITELISTEES","inputs":[],"outputs":[{"name":"","type":"uint16","internalType":"uint16"}],"stateMutability":"view"},{"type":"function","name":"PAYMENT_SPLITTER","inputs":[],"outputs":[{"name":"","type":"address","internalType":"address"}],"stateMutability":"view"},{"type":"function","name":"PRESALE","inputs":[],"outputs":[{"name":"","type":"uint256","internalType":"uint256"}],"stateMutability":"view"},{"type":"function","name":"PRICEFEED","inputs":[],"outputs":[{"name":"","type":"address","internalType":"contract IPricefeed"}],"stateMutability":"view"},{"type":"function","name":"PRICE_IN_USD","inputs":[],"outputs":[{"name":"","type":"uint256","internalType":"uint256"}],"stateMutability":"view"},{"type":"function","name":"ROYALTY_BASIS_POINTS","inputs":[],"outputs":[{"name":"","type":"uint96","internalType":"uint96"}],"stateMutability":"view"},{"type":"function","name":"SALE_OPEN","inputs":[],"outputs":[{"name":"","type":"uint256","internalType":"uint256"}],"stateMutability":"view"},{"type":"function","name":"VRF_COORDINATOR","inputs":[],"outputs":[{"name":"","type":"address","internalType":"contract VRFCoordinatorV2Interface"}],"stateMutability":"view"},{"type":"function","name":"addRaffle2000Winners","inputs":[{"name":"_winners","type":"address[]","internalType":"address[]"}],"outputs":[],"stateMutability":"nonpayable"},{"type":"function","name":"addToWhitelist","inputs":[{"name":"_whitelistees","type":"address[]","internalType":"address[]"}],"outputs":[],"stateMutability":"nonpayable"},{"type":"function","name":"approve","inputs":[{"name":"to","type":"address","internalType":"address"},{"name":"tokenId","type":"uint256","internalType":"uint256"}],"outputs":[],"stateMutability":"nonpayable"},{"type":"function","name":"assignCompMint","inputs":[{"name":"_recipient","type":"address","internalType":"address"}],"outputs":[],"stateMutability":"nonpayable"},{"type":"function","name":"balanceOf","inputs":[{"name":"owner","type":"address","internalType":"address"}],"outputs":[{"name":"","type":"uint256","internalType":"uint256"}],"stateMutability":"view"},{"type":"function","name":"calculatePrice","inputs":[{"name":"_numberOfTokens","type":"uint256","internalType":"uint256"}],"outputs":[{"name":"","type":"uint256","internalType":"uint256"}],"stateMutability":"view"},{"type":"function","name":"callbackGasLimit","inputs":[],"outputs":[{"name":"","type":"uint32","internalType":"uint32"}],"stateMutability":"view"},{"type":"function","name":"canMintRaffle","inputs":[{"name":"","type":"address","internalType":"address"}],"outputs":[{"name":"","type":"bool","internalType":"bool"}],"stateMutability":"view"},{"type":"function","name":"compMintCounter","inputs":[],"outputs":[{"name":"","type":"uint8","internalType":"uint8"}],"stateMutability":"view"},{"type":"function","name":"getApproved","inputs":[{"name":"tokenId","type":"uint256","internalType":"uint256"}],"outputs":[{"name":"","type":"address","internalType":"address"}],"stateMutability":"view"},{"type":"function","name":"getBaseUri","inputs":[],"outputs":[{"name":"","type":"string","internalType":"string"}],"stateMutability":"view"},{"type":"function","name":"getBatchTokens","inputs":[{"name":"_requestId","type":"uint256","internalType":"uint256"}],"outputs":[{"name":"","type":"uint256[]","internalType":"uint256[]"}],"stateMutability":"view"},{"type":"function","name":"getBuyerByIndex","inputs":[{"name":"index","type":"uint256","internalType":"uint256"}],"outputs":[{"name":"","type":"address","internalType":"address"}],"stateMutability":"view"},{"type":"function","name":"getBuyers","inputs":[],"outputs":[{"name":"","type":"address[]","internalType":"address[]"}],"stateMutability":"view"},{"type":"function","name":"getCompMintCount","inputs":[],"outputs":[{"name":"","type":"uint256","internalType":"uint256"}],"stateMutability":"view"},{"type":"function","name":"getCurrentTokenId","inputs":[],"outputs":[{"name":"","type":"uint256","internalType":"uint256"}],"stateMutability":"view"},{"type":"function","name":"getPriceInMATIC","inputs":[],"outputs":[{"name":"","type":"uint256","internalType":"uint256"}],"stateMutability":"view"},{"type":"function","name":"getRoyaltyReceiver","inputs":[],"outputs":[{"name":"","type":"address","internalType":"address"}],"stateMutability":"view"},{"type":"function","name":"getWhitelistCount","inputs":[],"outputs":[{"name":"","type":"uint256","internalType":"uint256"}],"stateMutability":"view"},{"type":"function","name":"hasClaimedCompMint","inputs":[{"name":"user","type":"address","internalType":"address"}],"outputs":[{"name":"","type":"bool","internalType":"bool"}],"stateMutability":"view"},{"type":"function","name":"isApprovedForAll","inputs":[{"name":"owner","type":"address","internalType":"address"},{"name":"operator","type":"address","internalType":"address"}],"outputs":[{"name":"","type":"bool","internalType":"bool"}],"stateMutability":"view"},{"type":"function","name":"isBuyer","inputs":[{"name":"","type":"address","internalType":"address"}],"outputs":[{"name":"","type":"bool","internalType":"bool"}],"stateMutability":"view"},{"type":"function","name":"isCompMintRecipient","inputs":[{"name":"user","type":"address","internalType":"address"}],"outputs":[{"name":"","type":"bool","internalType":"bool"}],"stateMutability":"view"},{"type":"function","name":"isMintingOpen","inputs":[],"outputs":[{"name":"","type":"bool","internalType":"bool"}],"stateMutability":"view"},{"type":"function","name":"isWhitelisted","inputs":[{"name":"user","type":"address","internalType":"address"}],"outputs":[{"name":"","type":"bool","internalType":"bool"}],"stateMutability":"view"},{"type":"function","name":"keyHash","inputs":[],"outputs":[{"name":"","type":"bytes32","internalType":"bytes32"}],"stateMutability":"view"},{"type":"function","name":"mint","inputs":[{"name":"_to","type":"address","internalType":"address"},{"name":"_numberOfTokens","type":"uint256","internalType":"uint256"}],"outputs":[{"name":"","type":"uint256","internalType":"uint256"}],"stateMutability":"payable"},{"type":"function","name":"mintComp","inputs":[],"outputs":[{"name":"","type":"uint256","internalType":"uint256"}],"stateMutability":"nonpayable"},{"type":"function","name":"mintRaffle","inputs":[],"outputs":[{"name":"","type":"uint256","internalType":"uint256"}],"stateMutability":"nonpayable"},{"type":"function","name":"name","inputs":[],"outputs":[{"name":"","type":"string","internalType":"string"}],"stateMutability":"view"},{"type":"function","name":"numWords","inputs":[],"outputs":[{"name":"","type":"uint32","internalType":"uint32"}],"stateMutability":"view"},{"type":"function","name":"ownerMint","inputs":[{"name":"_numberOfTokens","type":"uint256","internalType":"uint256"}],"outputs":[{"name":"requestId","type":"uint256","internalType":"uint256"}],"stateMutability":"nonpayable"},{"type":"function","name":"ownerMintCounter","inputs":[],"outputs":[{"name":"","type":"uint256","internalType":"uint256"}],"stateMutability":"view"},{"type":"function","name":"ownerOf","inputs":[{"name":"tokenId","type":"uint256","internalType":"uint256"}],"outputs":[{"name":"","type":"address","internalType":"address"}],"stateMutability":"view"},{"type":"function","name":"raffleWinnersAdded","inputs":[],"outputs":[{"name":"","type":"bool","internalType":"bool"}],"stateMutability":"view"},{"type":"function","name":"rawFulfillRandomWords","inputs":[{"name":"requestId","type":"uint256","internalType":"uint256"},{"name":"randomWords","type":"uint256[]","internalType":"uint256[]"}],"outputs":[],"stateMutability":"nonpayable"},{"type":"function","name":"remainingUris","inputs":[],"outputs":[{"name":"","type":"uint256","internalType":"uint256"}],"stateMutability":"view"},{"type":"function","name":"requestConfirmations","inputs":[],"outputs":[{"name":"","type":"uint16","internalType":"uint16"}],"stateMutability":"view"},{"type":"function","name":"royaltyInfo","inputs":[{"name":"_tokenId","type":"uint256","internalType":"uint256"},{"name":"_salePrice","type":"uint256","internalType":"uint256"}],"outputs":[{"name":"receiver","type":"address","internalType":"address"},{"name":"royaltyAmount","type":"uint256","internalType":"uint256"}],"stateMutability":"view"},{"type":"function","name":"safeTransferFrom","inputs":[{"name":"from","type":"address","internalType":"address"},{"name":"to","type":"address","internalType":"address"},{"name":"tokenId","type":"uint256","internalType":"uint256"}],"outputs":[],"stateMutability":"nonpayable"},{"type":"function","name":"safeTransferFrom","inputs":[{"name":"from","type":"address","internalType":"address"},{"name":"to","type":"address","internalType":"address"},{"name":"tokenId","type":"uint256","internalType":"uint256"},{"name":"data","type":"bytes","internalType":"bytes"}],"outputs":[],"stateMutability":"nonpayable"},{"type":"function","name":"setApprovalForAll","inputs":[{"name":"operator","type":"address","internalType":"address"},{"name":"approved","type":"bool","internalType":"bool"}],"outputs":[],"stateMutability":"nonpayable"},{"type":"function","name":"setRoyaltyReceiver","inputs":[{"name":"_newReceiver","type":"address","internalType":"address"}],"outputs":[],"stateMutability":"nonpayable"},{"type":"function","name":"setTokenPrice","inputs":[{"name":"_newPriceInUSD","type":"uint256","internalType":"uint256"}],"outputs":[],"stateMutability":"nonpayable"},{"type":"function","name":"subscriptionId","inputs":[],"outputs":[{"name":"","type":"uint64","internalType":"uint64"}],"stateMutability":"view"},{"type":"function","name":"supportsInterface","inputs":[{"name":"interfaceId","type":"bytes4","internalType":"bytes4"}],"outputs":[{"name":"","type":"bool","internalType":"bool"}],"stateMutability":"view"},{"type":"function","name":"symbol","inputs":[],"outputs":[{"name":"","type":"string","internalType":"string"}],"stateMutability":"view"},{"type":"function","name":"tokenByIndex","inputs":[{"name":"index","type":"uint256","internalType":"uint256"}],"outputs":[{"name":"","type":"uint256","internalType":"uint256"}],"stateMutability":"view"},{"type":"function","name":"tokenIdToUriExtension","inputs":[{"name":"","type":"uint256","internalType":"uint256"}],"outputs":[{"name":"","type":"uint256","internalType":"uint256"}],"stateMutability":"view"},{"type":"function","name":"tokenOfOwnerByIndex","inputs":[{"name":"owner","type":"address","internalType":"address"},{"name":"index","type":"uint256","internalType":"uint256"}],"outputs":[{"name":"","type":"uint256","internalType":"uint256"}],"stateMutability":"view"},{"type":"function","name":"tokenURI","inputs":[{"name":"_tokenId","type":"uint256","internalType":"uint256"}],"outputs":[{"name":"","type":"string","internalType":"string"}],"stateMutability":"view"},{"type":"function","name":"totalNumberOfBuyers","inputs":[],"outputs":[{"name":"","type":"uint256","internalType":"uint256"}],"stateMutability":"view"},{"type":"function","name":"totalSupply","inputs":[],"outputs":[{"name":"","type":"uint256","internalType":"uint256"}],"stateMutability":"view"},{"type":"function","name":"transferFrom","inputs":[{"name":"from","type":"address","internalType":"address"},{"name":"to","type":"address","internalType":"address"},{"name":"tokenId","type":"uint256","internalType":"uint256"}],"outputs":[],"stateMutability":"nonpayable"},{"type":"function","name":"whitelistCounter","inputs":[],"outputs":[{"name":"","type":"uint16","internalType":"uint16"}],"stateMutability":"view"},{"type":"event","name":"Approval","inputs":[{"name":"owner","type":"address","indexed":true,"internalType":"address"},{"name":"approved","type":"address","indexed":true,"internalType":"address"},{"name":"tokenId","type":"uint256","indexed":true,"internalType":"uint256"}],"anonymous":false},{"type":"event","name":"ApprovalForAll","inputs":[{"name":"owner","type":"address","indexed":true,"internalType":"address"},{"name":"operator","type":"address","indexed":true,"internalType":"address"},{"name":"approved","type":"bool","indexed":false,"internalType":"bool"}],"anonymous":false},{"type":"event","name":"RaffleWinnersAdded","inputs":[{"name":"winners","type":"address[]","indexed":false,"internalType":"address[]"}],"anonymous":false},{"type":"event","name":"RoyaltyReceiverChanged","inputs":[{"name":"newReceiver","type":"address","indexed":false,"internalType":"address"}],"anonymous":false},{"type":"event","name":"TokenPriceChanged","inputs":[{"name":"newPrice","type":"uint256","indexed":false,"internalType":"uint256"}],"anonymous":false},{"type":"event","name":"Transfer","inputs":[{"name":"from","type":"address","indexed":true,"internalType":"address"},{"name":"to","type":"address","indexed":true,"internalType":"address"},{"name":"tokenId","type":"uint256","indexed":true,"internalType":"uint256"}],"anonymous":false},{"type":"event","name":"VRFRequestCreated","inputs":[{"name":"requestId","type":"uint256","indexed":false,"internalType":"uint256"}],"anonymous":false},{"type":"error","name":"ERC721EnumerableForbiddenBatchMint","inputs":[]},{"type":"error","name":"ERC721IncorrectOwner","inputs":[{"name":"sender","type":"address","internalType":"address"},{"name":"tokenId","type":"uint256","internalType":"uint256"},{"name":"owner","type":"address","internalType":"address"}]},{"type":"error","name":"ERC721InsufficientApproval","inputs":[{"name":"operator","type":"address","internalType":"address"},{"name":"tokenId","type":"uint256","internalType":"uint256"}]},{"type":"error","name":"ERC721InvalidApprover","inputs":[{"name":"approver","type":"address","internalType":"address"}]},{"type":"error","name":"ERC721InvalidOperator","inputs":[{"name":"operator","type":"address","internalType":"address"}]},{"type":"error","name":"ERC721InvalidOwner","inputs":[{"name":"owner","type":"address","internalType":"address"}]},{"type":"error","name":"ERC721InvalidReceiver","inputs":[{"name":"receiver","type":"address","internalType":"address"}]},{"type":"error","name":"ERC721InvalidSender","inputs":[{"name":"sender","type":"address","internalType":"address"}]},{"type":"error","name":"ERC721NonexistentToken","inputs":[{"name":"tokenId","type":"uint256","internalType":"uint256"}]},{"type":"error","name":"ERC721OutOfBoundsIndex","inputs":[{"name":"owner","type":"address","internalType":"address"},{"name":"index","type":"uint256","internalType":"uint256"}]},{"type":"error","name":"OnlyCoordinatorCanFulfill","inputs":[{"name":"have","type":"address","internalType":"address"},{"name":"want","type":"address","internalType":"address"}]},{"type":"error","name":"OrcNation__CompMintAlreadyAssignedToAddress","inputs":[]},{"type":"error","name":"OrcNation__CompMintAlreadyClaimed","inputs":[]},{"type":"error","name":"OrcNation__InsufficientPayment","inputs":[{"name":"paymentDue","type":"uint256","internalType":"uint256"}]},{"type":"error","name":"OrcNation__InvalidNewPrice","inputs":[]},{"type":"error","name":"OrcNation__InvalidSaleTime","inputs":[]},{"type":"error","name":"OrcNation__MaxCompMintsExceeded","inputs":[]},{"type":"error","name":"OrcNation__MaxMintsPerTransactionExceeded","inputs":[]},{"type":"error","name":"OrcNation__MaxRaffleWinnersExceeded","inputs":[]},{"type":"error","name":"OrcNation__MaxThreePresaleMintsPerWhitelistedAddress","inputs":[]},{"type":"error","name":"OrcNation__MintingNotOpen","inputs":[]},{"type":"error","name":"OrcNation__MustMintAtLeastOneToken","inputs":[]},{"type":"error","name":"OrcNation__NotEligibleForCompMint","inputs":[]},{"type":"error","name":"OrcNation__NotEligibleForRaffleMint","inputs":[]},{"type":"error","name":"OrcNation__NotWhitelisted","inputs":[]},{"type":"error","name":"OrcNation__OnlyAdmin","inputs":[]},{"type":"error","name":"OrcNation__OnlyGovernor","inputs":[]},{"type":"error","name":"OrcNation__PriceFeedAnswerNegative","inputs":[]},{"type":"error","name":"OrcNation__RaffleOnlyAfter2000Tokens","inputs":[]},{"type":"error","name":"OrcNation__RaffleWinnersAlreadyAdded","inputs":[]},{"type":"error","name":"OrcNation__TokenDoesNotExist","inputs":[]},{"type":"error","name":"OrcNation__WillExceedMaxOwnerMints","inputs":[]},{"type":"error","name":"OrcNation__WillExceedMaxSupply","inputs":[]},{"type":"error","name":"OrcNation__WillExceedMaxWhitelistees","inputs":[]}],"bytecode":{"object":"0x6101606040526041600a556127106010557fcc294a196eeeb44da2888d17c0625cc88d70d9760a69d58d853ba6581a9ab0cd601b55601c8054600160401b600160901b0319166e01000f4240000300000000000000001790553480156200006557600080fd5b5060405162003cc738038062003cc78339810160408190526200008891620001d5565b886040518060400160405280600981526020016827b931a730ba34b7b760b91b815250604051806040016040528060048152602001634f52435360e01b8152508160009081620000d99190620003cb565b506001620000e88282620003cb565b5050506001600160a01b0316608052428410806200010557508383105b1562000124576040516336e24cf360e01b815260040160405180910390fd5b6001600160a01b0389811660a05288811660c0528781166101005286811660e052600d80546001600160a01b031916918716919091179055600e6200016a8282620003cb565b50506101209290925261014052601c80546001600160401b0319166001600160401b0390921691909117905550620004979350505050565b80516001600160a01b0381168114620001ba57600080fd5b919050565b634e487b7160e01b600052604160045260246000fd5b60008060008060008060008060006101208a8c031215620001f557600080fd5b620002008a620001a2565b98506200021060208b01620001a2565b97506200022060408b01620001a2565b96506200023060608b01620001a2565b95506200024060808b01620001a2565b60a08b015160c08c015160e08d015192975090955093506001600160401b0380821682146200026e57600080fd5b6101008c0151919350808211156200028557600080fd5b818c0191508c601f8301126200029a57600080fd5b815181811115620002af57620002af620001bf565b604051601f8201601f19908116603f01168101908382118183101715620002da57620002da620001bf565b816040528281528f6020848701011115620002f457600080fd5b600093505b828410156200031c576020848601015160208583010152602084019350620002f9565b60006020848301015280955050505050509295985092959850929598565b600181811c908216806200034f57607f821691505b6020821081036200037057634e487b7160e01b600052602260045260246000fd5b50919050565b601f821115620003c6576000816000526020600020601f850160051c81016020861015620003a15750805b601f850160051c820191505b81811015620003c257828155600101620003ad565b5050505b505050565b81516001600160401b03811115620003e757620003e7620001bf565b620003ff81620003f884546200033a565b8462000376565b602080601f8311600181146200043757600084156200041e5750858301515b600019600386901b1c1916600185901b178555620003c2565b600085815260208120601f198616915b82811015620004685788860151825594840194600190910190840162000447565b5085821015620004875787850151600019600388901b60f8161c191681555b5050505050600190811b01905550565b60805160a05160c05160e0516101005161012051610140516137506200057760003960008181610a7c0152818161110b0152611bf101526000818161056c01528181610bf20152818161109f015281816110e001528181611b0a01528181611bc60152611d870152600081816109540152818161132b01528181611670015281816117e5015281816118e801528181611a4e0152611e71015260008181610b430152611222015260008181610cb1015281816114eb01526115970152600081816104510152612a6c015260008181610edd0152610f1f01526137506000f3fe6080604052600436106104055760003560e01c80636dc0ae2211610213578063a69e689c11610123578063d8f4d5d0116100ab578063e985e9c51161007a578063e985e9c514610d16578063eaf7f57614610d36578063ee1daa4314610d50578063f19e75d414610d65578063f64bfaba14610d8557600080fd5b8063d8f4d5d014610c9f578063dbdbbc9114610c34578063e575039514610cd3578063e8c93ec914610ce957600080fd5b8063b88d4fde116100f2578063b88d4fde14610c14578063c5f8776c14610c34578063c6a91b4214610c4a578063c87b56dd14610c5f578063d5a9dea414610c7f57600080fd5b8063a69e689c14610b65578063ae10426514610b9e578063b0fb162f14610bbe578063b4cf564814610be057600080fd5b80638dc251e3116101a657806395d89b411161017557806395d89b4114610ac9578063a22cb46514610ade578063a381512114610afe578063a5bd523514610b13578063a5f0292b14610b3157600080fd5b80638dc251e314610a4a5780638e26d2aa14610a6a578063914db51a14610a9e5780639208383a14610ab457600080fd5b806377071052116101e257806377071052146109c05780637ccfd7fc146109d65780637f649783146109fa57806380b7718114610a1a57600080fd5b80636dc0ae221461094257806370a08231146109765780637263c07e1461099657806373416c24146109ab57600080fd5b80632f745c59116103195780634654e6d6116102a15780635a59d966116102705780635a59d966146108ae5780635ab9120c146108cc57806361728f39146108ec5780636352211e146109025780636a61e5fc1461092257600080fd5b80634654e6d6146108445780634f6ccce71461086457806354a063ae14610884578063561892361461089957600080fd5b80633c404a9c116102e85780633c404a9c146107a55780633edff20f146107d857806340c10f19146107f157806342842e0e146108045780634404ee841461082457600080fd5b80632f745c591461070957806332cb6b0c1461072957806333fdcf521461073f5780633af32abf1461076c57600080fd5b80631a2069101161039c57806324f746971161036b57806324f74697146105fa57806326f27e6d14610633578063289016ed146106615780632a55205a1461069a5780632a55feec146106d957600080fd5b80631a2069101461055d5780631fe543e314610593578063227b1614146105b357806323b872dd146105da57600080fd5b8063095ea7b3116103d8578063095ea7b3146104cd57806309c1ba2e146104ef5780630cac36b21461052957806318160ddd1461053e57600080fd5b806301ffc9a71461040a57806305f6a9241461043f57806306fdde031461048b578063081812fc146104ad575b600080fd5b34801561041657600080fd5b5061042a610425366004612d91565b610da7565b60405190151581526020015b60405180910390f35b34801561044b57600080fd5b506104737f000000000000000000000000000000000000000000000000000000000000000081565b6040516001600160a01b039091168152602001610436565b34801561049757600080fd5b506104a0610df9565b6040516104369190612dfe565b3480156104b957600080fd5b506104736104c8366004612e11565b610e8b565b3480156104d957600080fd5b506104ed6104e8366004612e46565b610eb4565b005b3480156104fb57600080fd5b50601c546105109067ffffffffffffffff1681565b60405167ffffffffffffffff9091168152602001610436565b34801561053557600080fd5b506104a0610ec3565b34801561054a57600080fd5b506008545b604051908152602001610436565b34801561056957600080fd5b507f000000000000000000000000000000000000000000000000000000000000000042101561042a565b34801561059f57600080fd5b506104ed6105ae366004612eb7565b610ed2565b3480156105bf57600080fd5b506105c8600581565b60405160ff9091168152602001610436565b3480156105e657600080fd5b506104ed6105f5366004612f69565b610f5b565b34801561060657600080fd5b50601c5461061e90600160501b900463ffffffff1681565b60405163ffffffff9091168152602001610436565b34801561063f57600080fd5b50600b5461064e9061ffff1681565b60405161ffff9091168152602001610436565b34801561066d57600080fd5b5061042a61067c366004612fa5565b6001600160a01b031660009081526016602052604090205460ff1690565b3480156106a657600080fd5b506106ba6106b5366004612fc0565b610fe6565b604080516001600160a01b039093168352602083019190915201610436565b3480156106e557600080fd5b5061042a6106f4366004612fa5565b60186020526000908152604090205460ff1681565b34801561071557600080fd5b5061054f610724366004612e46565b611036565b34801561073557600080fd5b5061064e61271081565b34801561074b57600080fd5b5061054f61075a366004612e11565b60136020526000908152604090205481565b34801561077857600080fd5b5061042a610787366004612fa5565b6001600160a01b031660009081526014602052604090205460ff1690565b3480156107b157600080fd5b506107bb6101f481565b6040516bffffffffffffffffffffffff9091168152602001610436565b3480156107e457600080fd5b50600b5461ffff1661054f565b61054f6107ff366004612e46565b61109b565b34801561081057600080fd5b506104ed61081f366004612f69565b611300565b34801561083057600080fd5b506104ed61083f366004612fe2565b611320565b34801561085057600080fd5b50600b546105c89062010000900460ff1681565b34801561087057600080fd5b5061054f61087f366004612e11565b61148d565b34801561089057600080fd5b5061054f6114e6565b3480156108a557600080fd5b50600f5461054f565b3480156108ba57600080fd5b50600b5462010000900460ff1661054f565b3480156108d857600080fd5b506104ed6108e7366004612fa5565b61165b565b3480156108f857600080fd5b5061054f601b5481565b34801561090e57600080fd5b5061047361091d366004612e11565b6117cf565b34801561092e57600080fd5b506104ed61093d366004612e11565b6117da565b34801561094e57600080fd5b506104737f000000000000000000000000000000000000000000000000000000000000000081565b34801561098257600080fd5b5061054f610991366004612fa5565b61188b565b3480156109a257600080fd5b506105c8603281565b3480156109b757600080fd5b5060175461054f565b3480156109cc57600080fd5b5061054f600c5481565b3480156109e257600080fd5b50601c5461061e90600160701b900463ffffffff1681565b348015610a0657600080fd5b506104ed610a15366004612fe2565b6118d3565b348015610a2657600080fd5b5061042a610a35366004612fa5565b601a6020526000908152604090205460ff1681565b348015610a5657600080fd5b506104ed610a65366004612fa5565b611a43565b348015610a7657600080fd5b5061054f7f000000000000000000000000000000000000000000000000000000000000000081565b348015610aaa57600080fd5b5061054f600a5481565b348015610ac057600080fd5b506105c8600381565b348015610ad557600080fd5b506104a0611aec565b348015610aea57600080fd5b506104ed610af9366004613065565b611afb565b348015610b0a57600080fd5b5061054f611b06565b348015610b1f57600080fd5b50600d546001600160a01b0316610473565b348015610b3d57600080fd5b506104737f000000000000000000000000000000000000000000000000000000000000000081565b348015610b7157600080fd5b5061042a610b80366004612fa5565b6001600160a01b031660009081526015602052604090205460ff1690565b348015610baa57600080fd5b5061054f610bb9366004612e11565b611bac565b348015610bca57600080fd5b50601c5461064e90600160401b900461ffff1681565b348015610bec57600080fd5b5061054f7f000000000000000000000000000000000000000000000000000000000000000081565b348015610c2057600080fd5b506104ed610c2f36600461309c565b611c36565b348015610c4057600080fd5b5061064e6101f481565b348015610c5657600080fd5b506105c8600a81565b348015610c6b57600080fd5b506104a0610c7a366004612e11565b611c4d565b348015610c8b57600080fd5b50610473610c9a366004612e11565b611cc3565b348015610cab57600080fd5b506104737f000000000000000000000000000000000000000000000000000000000000000081565b348015610cdf57600080fd5b5061054f60105481565b348015610cf557600080fd5b50610d09610d04366004612e11565b611cf3565b604051610436919061315c565b348015610d2257600080fd5b5061042a610d313660046131a0565b611d55565b348015610d4257600080fd5b5060195461042a9060ff1681565b348015610d5c57600080fd5b5061054f611d83565b348015610d7157600080fd5b5061054f610d80366004612e11565b611e59565b348015610d9157600080fd5b50610d9a611fa0565b60405161043691906131d3565b60006301ffc9a760e01b6001600160e01b031983161480610dd857506380ac58cd60e01b6001600160e01b03198316145b80610df3575063152a902d60e11b6001600160e01b03198316145b92915050565b606060008054610e0890613214565b80601f0160208091040260200160405190810160405280929190818152602001828054610e3490613214565b8015610e815780601f10610e5657610100808354040283529160200191610e81565b820191906000526020600020905b815481529060010190602001808311610e6457829003601f168201915b5050505050905090565b6000610e9682612001565b506000828152600460205260409020546001600160a01b0316610df3565b610ebf82823361203a565b5050565b6060600e8054610e0890613214565b336001600160a01b037f00000000000000000000000000000000000000000000000000000000000000001614610f515760405163073e64fd60e21b81523360048201526001600160a01b037f00000000000000000000000000000000000000000000000000000000000000001660248201526044015b60405180910390fd5b610ebf8282612047565b6001600160a01b038216610f8557604051633250574960e11b815260006004820152602401610f48565b6000610f92838333612136565b9050836001600160a01b0316816001600160a01b031614610fe0576040516364283d7b60e01b81526001600160a01b0380861660048301526024820184905282166044820152606401610f48565b50505050565b60008080610ff3856117cf565b6001600160a01b03160361100657600080fd5b600d546001600160a01b03166127106110216101f486613264565b61102b9190613291565b915091509250929050565b60006110418361188b565b82106110725760405163295f44f760e21b81526001600160a01b038416600482015260248101839052604401610f48565b506001600160a01b03919091166000908152600660209081526040808320938352929052205490565b60007f00000000000000000000000000000000000000000000000000000000000000004210156110de5760405163f0b9693f60e01b815260040160405180910390fd5b7f0000000000000000000000000000000000000000000000000000000000000000421015801561112d57507f000000000000000000000000000000000000000000000000000000000000000042105b156111a0576001600160a01b03831660009081526014602052604090205460ff1661116b5760405163cb060eb160e01b815260040160405180910390fd5b6003826111778561188b565b61118191906132a5565b11156111a0576040516380b2c43f60e01b815260040160405180910390fd5b60018210156111c25760405163ea1112df60e01b815260040160405180910390fd5b600a8211156111e45760405163416296fd60e01b815260040160405180910390fd5b6111ed8261220b565b60006111f883611bac565b90508034101561121e576040516334272af160e01b815260048101829052602401610f48565b60007f00000000000000000000000000000000000000000000000000000000000000006001600160a01b03163460405160006040518083038185875af1925050503d806000811461128b576040519150601f19603f3d011682016040523d82523d6000602084013e611290565b606091505b50509050806112e15760405162461bcd60e51b815260206004820152601760248201527f5061796d656e74207472616e73666572206661696c65640000000000000000006044820152606401610f48565b6112ea8561223f565b60006112f686866122c6565b9695505050505050565b61131b83838360405180602001604052806000815250611c36565b505050565b336001600160a01b037f000000000000000000000000000000000000000000000000000000000000000016146113685760405162ac0b2f60e41b815260040160405180910390fd5b6107d0611374600f5490565b101561139357604051637428454960e11b815260040160405180910390fd5b60058111156113b557604051633d4bb35160e01b815260040160405180910390fd5b60195460ff16156113d95760405163db6e65c760e01b815260040160405180910390fd5b60005b81811015611441576001601a60008585858181106113fc576113fc6132b8565b90506020020160208101906114119190612fa5565b6001600160a01b031681526020810191909152604001600020805460ff19169115159190911790556001016113dc565b506019805460ff191660011790556040517f743d27e70dad1517ab7a2613a62cb57ea1ac4d6c0ca6d489bfbb5b468400f5d99061148190849084906132ce565b60405180910390a15050565b600061149860085490565b82106114c15760405163295f44f760e21b81526000600482015260248101839052604401610f48565b600882815481106114d4576114d46132b8565b90600052602060002001549050919050565b6000807f00000000000000000000000000000000000000000000000000000000000000006001600160a01b031663feaf968c6040518163ffffffff1660e01b815260040160a060405180830381865afa158015611547573d6000803e3d6000fd5b505050506040513d601f19601f8201168201806040525081019061156b9190613334565b505050915050600081121561159357604051632bea283f60e11b815260040160405180910390fd5b60007f00000000000000000000000000000000000000000000000000000000000000006001600160a01b031663313ce5676040518163ffffffff1660e01b8152600401602060405180830381865afa1580156115f3573d6000803e3d6000fd5b505050506040513d601f19601f820116820180604052508101906116179190613384565b61162290600a61348b565b90506000600a54670de0b6b3a764000061163c9190613264565b905081611649848361349a565b61165391906134c8565b935050505090565b604051630935e01b60e21b81523360048201527f00000000000000000000000000000000000000000000000000000000000000006001600160a01b0316906324d7806c90602401602060405180830381865afa1580156116bf573d6000803e3d6000fd5b505050506040513d601f19601f820116820180604052508101906116e391906134f8565b611700576040516354fe416f60e01b815260040160405180910390fd5b6001600160a01b03811660009081526015602052604090205460ff161561173a576040516348c3a61560e11b815260040160405180910390fd5b600b546032906117549062010000900460ff166001613515565b60ff16111561177657604051630138ee3960e31b815260040160405180910390fd5b600b805460029061178f9062010000900460ff1661352e565b825460ff9182166101009390930a92830291909202199091161790556001600160a01b03166000908152601560205260409020805460ff19166001179055565b6000610df382612001565b336001600160a01b037f000000000000000000000000000000000000000000000000000000000000000016146118225760405162ac0b2f60e41b815260040160405180910390fd5b60208110806118315750606181115b1561184f57604051631d0bf16360e31b815260040160405180910390fd5b600a8190556040518181527fac21bacd333b316c6640fca5086322638b0a7aa4367179afd5dfcbe0a5427bc7906020015b60405180910390a150565b60006001600160a01b0382166118b7576040516322718ad960e21b815260006004820152602401610f48565b506001600160a01b031660009081526003602052604090205490565b604051630935e01b60e21b81523360048201527f00000000000000000000000000000000000000000000000000000000000000006001600160a01b0316906324d7806c90602401602060405180830381865afa158015611937573d6000803e3d6000fd5b505050506040513d601f19601f8201168201806040525081019061195b91906134f8565b611978576040516354fe416f60e01b815260040160405180910390fd5b600b546101f49061198e90839061ffff166132a5565b11156119ad576040516354f4fdbf60e11b815260040160405180910390fd5b60005b8181101561131b57600b80546000906119cc9061ffff1661354d565b91906101000a81548161ffff021916908361ffff1602179055506001601460008585858181106119fe576119fe6132b8565b9050602002016020810190611a139190612fa5565b6001600160a01b031681526020810191909152604001600020805460ff19169115159190911790556001016119b0565b336001600160a01b037f00000000000000000000000000000000000000000000000000000000000000001614611a8b5760405162ac0b2f60e41b815260040160405180910390fd5b6001600160a01b038116611a9e57600080fd5b600d80546001600160a01b0319166001600160a01b0383169081179091556040519081527ff18ed8da4fbddf768618d066780de11fb9a756a8b30128c77e6a128500b65a3190602001611880565b606060018054610e0890613214565b610ebf338383612398565b60007f0000000000000000000000000000000000000000000000000000000000000000421015611b495760405163f0b9693f60e01b815260040160405180910390fd5b336000908152601a602052604090205460ff16611b7957604051630440fe9960e41b815260040160405180910390fd5b611b83600161220b565b336000818152601a60205260408120805460ff1916905590611ba69060016122c6565b91505090565b60008082611bb86114e6565b611bc29190613264565b90507f00000000000000000000000000000000000000000000000000000000000000004210158015611c1357507f000000000000000000000000000000000000000000000000000000000000000042105b15610df3576064611c25826055613264565b611c2f9190613291565b9392505050565b611c41848484610f5b565b610fe084848484612437565b60606000611c5a836117cf565b6001600160a01b031603611c815760405163039530c360e61b815260040160405180910390fd5b600082815260136020526040902054600e90611c9c90612560565b604051602001611cad92919061358a565b6040516020818303038152906040529050919050565b600060178281548110611cd857611cd86132b8565b6000918252602090912001546001600160a01b031692915050565b600081815260116020908152604091829020805483518184028101840190945280845260609392830182828015611d4957602002820191906000526020600020905b815481526020019060010190808311611d35575b50505050509050919050565b6001600160a01b03918216600090815260056020908152604080832093909416825291909152205460ff1690565b60007f0000000000000000000000000000000000000000000000000000000000000000421015611dc65760405163f0b9693f60e01b815260040160405180910390fd5b3360009081526015602052604090205460ff16611df657604051631624b2cf60e11b815260040160405180910390fd5b3360009081526016602052604090205460ff1615611e2757604051632d11162b60e21b815260040160405180910390fd5b611e31600161220b565b336000818152601660205260408120805460ff191660019081179091559091611ba6916122c6565b604051630935e01b60e21b81523360048201526000907f00000000000000000000000000000000000000000000000000000000000000006001600160a01b0316906324d7806c90602401602060405180830381865afa158015611ec0573d6000803e3d6000fd5b505050506040513d601f19601f82011682018060405250810190611ee491906134f8565b611f01576040516354fe416f60e01b815260040160405180910390fd5b6001821015611f235760405163ea1112df60e01b815260040160405180910390fd5b600c546101f490611f3490846132a5565b1115611f535760405163c64fc4cb60e01b815260040160405180910390fd5b600a821115611f755760405163416296fd60e01b815260040160405180910390fd5b611f7e8261220b565b81600c6000828254611f9091906132a5565b90915550610df3905033836122c6565b60606017805480602002602001604051908101604052809291908181526020018280548015610e8157602002820191906000526020600020905b81546001600160a01b03168152600190910190602001808311611fda575050505050905090565b6000818152600260205260408120546001600160a01b031680610df357604051637e27328960e01b815260048101849052602401610f48565b61131b83838360016125f3565b60105460005b60008481526011602052604090205481101561212e5760008284600081518110612079576120796132b8565b60200260200101518360405160200161209c929190918252602082015260400190565b6040516020818303038152906040528051906020012060001c6120bf9190613644565b905060006120cd82856126f9565b90508060136000601160008a815260200190815260200160002086815481106120f8576120f86132b8565b90600052602060002001548152602001908152602001600020819055508361211f90613658565b9350826001019250505061204d565b506010555050565b60008061214485858561277a565b90506001600160a01b0381166121a15761219c84600880546000838152600960205260408120829055600182018355919091527ff3f7a9fe364faab93b216da50a3214154f22a0a2b415b23a84c8169e8b636ee30155565b6121c4565b846001600160a01b0316816001600160a01b0316146121c4576121c48185612873565b6001600160a01b0385166121e0576121db84612904565b612203565b846001600160a01b0316816001600160a01b0316146122035761220385856129b3565b949350505050565b600f546127109061221d9083906132a5565b111561223c5760405163229ed32160e01b815260040160405180910390fd5b50565b6001600160a01b03811660009081526018602052604090205460ff1661223c576017805460018181019092557fc624b66cc0138b8fabc209247f72d758e1cf3343756d543badbf24212bed8c150180546001600160a01b0384166001600160a01b031990911681179091556000908152601860205260409020805460ff1916909117905550565b6000806122d1612a03565b905060008367ffffffffffffffff8111156122ee576122ee612e70565b604051908082528060200260200182016040528015612317578160200160208202803683370190505b50905060005b8481101561236e57600f600081546123349061366f565b90915550600f54612346908790612b17565b600f5482828151811061235b5761235b6132b8565b602090810291909101015260010161231d565b506000828152601160209081526040909120825161238e92840190612d1b565b5090949350505050565b6001600160a01b0382166123ca57604051630b61174360e31b81526001600160a01b0383166004820152602401610f48565b6001600160a01b03838116600081815260056020908152604080832094871680845294825291829020805460ff191686151590811790915591519182527f17307eab39ab6107e8899845ad3d59bd9653f200f220920489ca2b5937696c31910160405180910390a3505050565b6001600160a01b0383163b15610fe057604051630a85bd0160e11b81526001600160a01b0384169063150b7a0290612479903390889087908790600401613688565b6020604051808303816000875af19250505080156124b4575060408051601f3d908101601f191682019092526124b1918101906136bb565b60015b61251d573d8080156124e2576040519150601f19603f3d011682016040523d82523d6000602084013e6124e7565b606091505b50805160000361251557604051633250574960e11b81526001600160a01b0385166004820152602401610f48565b805181602001fd5b6001600160e01b03198116630a85bd0160e11b1461255957604051633250574960e11b81526001600160a01b0385166004820152602401610f48565b5050505050565b6060600061256d83612b7c565b600101905060008167ffffffffffffffff81111561258d5761258d612e70565b6040519080825280601f01601f1916602001820160405280156125b7576020820181803683370190505b5090508181016020015b600019016f181899199a1a9b1b9c1cb0b131b232b360811b600a86061a8153600a85049450846125c157509392505050565b808061260757506001600160a01b03821615155b156126c957600061261784612001565b90506001600160a01b038316158015906126435750826001600160a01b0316816001600160a01b031614155b801561265657506126548184611d55565b155b1561267f5760405163a9fbf51f60e01b81526001600160a01b0384166004820152602401610f48565b81156126c75783856001600160a01b0316826001600160a01b03167f8c5be1e5ebec7d5bd14f71427d1e84f3dd0314c0f7b2291e5b200ac8c7c3b92560405160405180910390a45b505b5050600090815260046020526040902080546001600160a01b0319166001600160a01b0392909216919091179055565b600082815260126020526040812054816127146001856136d8565b60008181526012602052604081205491925083156127325783612734565b865b905082871461275b578115612749578161274b565b825b6000888152601260205260409020555b81156112f6576000838152601260205260408120559695505050505050565b6000828152600260205260408120546001600160a01b03908116908316156127a7576127a7818486612c54565b6001600160a01b038116156127e5576127c46000856000806125f3565b6001600160a01b038116600090815260036020526040902080546000190190555b6001600160a01b03851615612814576001600160a01b0385166000908152600360205260409020805460010190555b60008481526002602052604080822080546001600160a01b0319166001600160a01b0389811691821790925591518793918516917fddf252ad1be2c89b69c2b068fc378daa952ba7f163c4a11628f55a4df523b3ef91a4949350505050565b600061287e8361188b565b6000838152600760205260409020549091508082146128d1576001600160a01b03841660009081526006602090815260408083208584528252808320548484528184208190558352600790915290208190555b5060009182526007602090815260408084208490556001600160a01b039094168352600681528383209183525290812055565b600854600090612916906001906136d8565b6000838152600960205260408120546008805493945090928490811061293e5761293e6132b8565b90600052602060002001549050806008838154811061295f5761295f6132b8565b6000918252602080832090910192909255828152600990915260408082208490558582528120556008805480612997576129976136eb565b6001900381819060005260206000200160009055905550505050565b600060016129c08461188b565b6129ca91906136d8565b6001600160a01b039093166000908152600660209081526040808320868452825280832085905593825260079052919091209190915550565b601b54601c546040516305d3b1d360e41b8152600481019290925267ffffffffffffffff8116602483015261ffff600160401b820416604483015263ffffffff600160501b820481166064840152600160701b9091041660848201526000906001600160a01b037f00000000000000000000000000000000000000000000000000000000000000001690635d3b1d309060a4016020604051808303816000875af1158015612ab5573d6000803e3d6000fd5b505050506040513d601f19601f82011682018060405250810190612ad99190613701565b90507ff2dc9a29f1b257c57ef50cb6c0230cacc6af60a01e5e51bde6ee1657f214a34781604051612b0c91815260200190565b60405180910390a190565b6001600160a01b038216612b4157604051633250574960e11b815260006004820152602401610f48565b6000612b4f83836000612136565b90506001600160a01b0381161561131b576040516339e3563760e11b815260006004820152602401610f48565b60008072184f03e93ff9f4daa797ed6e38ed64bf6a1f0160401b8310612bbb5772184f03e93ff9f4daa797ed6e38ed64bf6a1f0160401b830492506040015b6d04ee2d6d415b85acef81000000008310612be7576d04ee2d6d415b85acef8100000000830492506020015b662386f26fc100008310612c0557662386f26fc10000830492506010015b6305f5e1008310612c1d576305f5e100830492506008015b6127108310612c3157612710830492506004015b60648310612c43576064830492506002015b600a8310610df35760010192915050565b612c5f838383612cb8565b61131b576001600160a01b038316612c8d57604051637e27328960e01b815260048101829052602401610f48565b60405163177e802f60e01b81526001600160a01b038316600482015260248101829052604401610f48565b60006001600160a01b038316158015906122035750826001600160a01b0316846001600160a01b03161480612cf25750612cf28484611d55565b806122035750506000908152600460205260409020546001600160a01b03908116911614919050565b828054828255906000526020600020908101928215612d56579160200282015b82811115612d56578251825591602001919060010190612d3b565b50612d62929150612d66565b5090565b5b80821115612d625760008155600101612d67565b6001600160e01b03198116811461223c57600080fd5b600060208284031215612da357600080fd5b8135611c2f81612d7b565b60005b83811015612dc9578181015183820152602001612db1565b50506000910152565b60008151808452612dea816020860160208601612dae565b601f01601f19169290920160200192915050565b602081526000611c2f6020830184612dd2565b600060208284031215612e2357600080fd5b5035919050565b80356001600160a01b0381168114612e4157600080fd5b919050565b60008060408385031215612e5957600080fd5b612e6283612e2a565b946020939093013593505050565b634e487b7160e01b600052604160045260246000fd5b604051601f8201601f1916810167ffffffffffffffff81118282101715612eaf57612eaf612e70565b604052919050565b60008060408385031215612eca57600080fd5b8235915060208084013567ffffffffffffffff80821115612eea57600080fd5b818601915086601f830112612efe57600080fd5b813581811115612f1057612f10612e70565b8060051b9150612f21848301612e86565b8181529183018401918481019089841115612f3b57600080fd5b938501935b83851015612f5957843582529385019390850190612f40565b8096505050505050509250929050565b600080600060608486031215612f7e57600080fd5b612f8784612e2a565b9250612f9560208501612e2a565b9150604084013590509250925092565b600060208284031215612fb757600080fd5b611c2f82612e2a565b60008060408385031215612fd357600080fd5b50508035926020909101359150565b60008060208385031215612ff557600080fd5b823567ffffffffffffffff8082111561300d57600080fd5b818501915085601f83011261302157600080fd5b81358181111561303057600080fd5b8660208260051b850101111561304557600080fd5b60209290920196919550909350505050565b801515811461223c57600080fd5b6000806040838503121561307857600080fd5b61308183612e2a565b9150602083013561309181613057565b809150509250929050565b600080600080608085870312156130b257600080fd5b6130bb85612e2a565b935060206130ca818701612e2a565b935060408601359250606086013567ffffffffffffffff808211156130ee57600080fd5b818801915088601f83011261310257600080fd5b81358181111561311457613114612e70565b613126601f8201601f19168501612e86565b9150808252898482850101111561313c57600080fd5b808484018584013760008482840101525080935050505092959194509250565b6020808252825182820181905260009190848201906040850190845b8181101561319457835183529284019291840191600101613178565b50909695505050505050565b600080604083850312156131b357600080fd5b6131bc83612e2a565b91506131ca60208401612e2a565b90509250929050565b6020808252825182820181905260009190848201906040850190845b818110156131945783516001600160a01b0316835292840192918401916001016131ef565b600181811c9082168061322857607f821691505b60208210810361324857634e487b7160e01b600052602260045260246000fd5b50919050565b634e487b7160e01b600052601160045260246000fd5b8082028115828204841417610df357610df361324e565b634e487b7160e01b600052601260045260246000fd5b6000826132a0576132a061327b565b500490565b80820180821115610df357610df361324e565b634e487b7160e01b600052603260045260246000fd5b60208082528181018390526000908460408401835b8681101561330f576001600160a01b036132fc84612e2a565b16825291830191908301906001016132e3565b509695505050505050565b805169ffffffffffffffffffff81168114612e4157600080fd5b600080600080600060a0868803121561334c57600080fd5b6133558661331a565b94506020860151935060408601519250606086015191506133786080870161331a565b90509295509295909350565b60006020828403121561339657600080fd5b815160ff81168114611c2f57600080fd5b600181815b808511156133e25781600019048211156133c8576133c861324e565b808516156133d557918102915b93841c93908002906133ac565b509250929050565b6000826133f957506001610df3565b8161340657506000610df3565b816001811461341c576002811461342657613442565b6001915050610df3565b60ff8411156134375761343761324e565b50506001821b610df3565b5060208310610133831016604e8410600b8410161715613465575081810a610df3565b61346f83836133a7565b80600019048211156134835761348361324e565b029392505050565b6000611c2f60ff8416836133ea565b6000826134a9576134a961327b565b600160ff1b8214600019841416156134c3576134c361324e565b500590565b80820260008212600160ff1b841416156134e4576134e461324e565b8181058314821517610df357610df361324e565b60006020828403121561350a57600080fd5b8151611c2f81613057565b60ff8181168382160190811115610df357610df361324e565b600060ff821660ff81036135445761354461324e565b60010192915050565b600061ffff8083168181036135645761356461324e565b6001019392505050565b60008151613580818560208601612dae565b9290920192915050565b60008084548160018260011c915060018316806135a857607f831692505b602080841082036135c757634e487b7160e01b86526022600452602486fd5b8180156135db57600181146135f05761361d565b60ff198616895284151585028901965061361d565b60008b81526020902060005b868110156136155781548b8201529085019083016135fc565b505084890196505b50505050505061362d818561356e565b64173539b7b760d91b815260050195945050505050565b6000826136535761365361327b565b500690565b6000816136675761366761324e565b506000190190565b6000600182016136815761368161324e565b5060010190565b6001600160a01b03858116825284166020820152604081018390526080606082018190526000906112f690830184612dd2565b6000602082840312156136cd57600080fd5b8151611c2f81612d7b565b81810381811115610df357610df361324e565b634e487b7160e01b600052603160045260246000fd5b60006020828403121561371357600080fd5b505191905056fea2646970667358221220cc195808a52f8f9593bca4fe880dc1ebfe06423a4dcb1795fe8ee656639b7cf564736f6c63430008170033","linkReferences":{}},"methodIdentifiers":{"GOVERNOR()":"6dc0ae22","MAX_COMP_MINTS()":"7263c07e","MAX_MINTS_PER_TX()":"c6a91b42","MAX_OWNER_MINTS()":"c5f8776c","MAX_PRESALE_MINTS()":"9208383a","MAX_RAFFLE_MINTS()":"227b1614","MAX_SUPPLY()":"32cb6b0c","MAX_WHITELISTEES()":"dbdbbc91","PAYMENT_SPLITTER()":"a5f0292b","PRESALE()":"b4cf5648","PRICEFEED()":"d8f4d5d0","PRICE_IN_USD()":"914db51a","ROYALTY_BASIS_POINTS()":"3c404a9c","SALE_OPEN()":"8e26d2aa","VRF_COORDINATOR()":"05f6a924","addRaffle2000Winners(address[])":"4404ee84","addToWhitelist(address[])":"7f649783","approve(address,uint256)":"095ea7b3","assignCompMint(address)":"5ab9120c","balanceOf(address)":"70a08231","calculatePrice(uint256)":"ae104265","callbackGasLimit()":"24f74697","canMintRaffle(address)":"80b77181","compMintCounter()":"4654e6d6","getApproved(uint256)":"081812fc","getBaseUri()":"0cac36b2","getBatchTokens(uint256)":"e8c93ec9","getBuyerByIndex(uint256)":"d5a9dea4","getBuyers()":"f64bfaba","getCompMintCount()":"5a59d966","getCurrentTokenId()":"56189236","getPriceInMATIC()":"54a063ae","getRoyaltyReceiver()":"a5bd5235","getWhitelistCount()":"3edff20f","hasClaimedCompMint(address)":"289016ed","isApprovedForAll(address,address)":"e985e9c5","isBuyer(address)":"2a55feec","isCompMintRecipient(address)":"a69e689c","isMintingOpen()":"1a206910","isWhitelisted(address)":"3af32abf","keyHash()":"61728f39","mint(address,uint256)":"40c10f19","mintComp()":"ee1daa43","mintRaffle()":"a3815121","name()":"06fdde03","numWords()":"7ccfd7fc","ownerMint(uint256)":"f19e75d4","ownerMintCounter()":"77071052","ownerOf(uint256)":"6352211e","raffleWinnersAdded()":"eaf7f576","rawFulfillRandomWords(uint256,uint256[])":"1fe543e3","remainingUris()":"e5750395","requestConfirmations()":"b0fb162f","royaltyInfo(uint256,uint256)":"2a55205a","safeTransferFrom(address,address,uint256)":"42842e0e","safeTransferFrom(address,address,uint256,bytes)":"b88d4fde","setApprovalForAll(address,bool)":"a22cb465","setRoyaltyReceiver(address)":"8dc251e3","setTokenPrice(uint256)":"6a61e5fc","subscriptionId()":"09c1ba2e","supportsInterface(bytes4)":"01ffc9a7","symbol()":"95d89b41","tokenByIndex(uint256)":"4f6ccce7","tokenIdToUriExtension(uint256)":"33fdcf52","tokenOfOwnerByIndex(address,uint256)":"2f745c59","tokenURI(uint256)":"c87b56dd","totalNumberOfBuyers()":"73416c24","totalSupply()":"18160ddd","transferFrom(address,address,uint256)":"23b872dd","whitelistCounter()":"26f27e6d"},"id":42}