{"abi":[{"type":"constructor","inputs":[{"name":"_vrfCoordinatorV2","type":"address","internalType":"address"},{"name":"_priceFeed","type":"address","internalType":"address"},{"name":"_governor","type":"address","internalType":"address"},{"name":"_paymentSplitter","type":"address","internalType":"address"},{"name":"_computedRaffleAddress","type":"address","internalType":"address"},{"name":"_owner","type":"address","internalType":"address"},{"name":"_presale","type":"uint256","internalType":"uint256"},{"name":"_saleOpen","type":"uint256","internalType":"uint256"},{"name":"_subscriptionId","type":"uint64","internalType":"uint64"},{"name":"_baseUri","type":"string","internalType":"string"}],"stateMutability":"nonpayable"},{"type":"function","name":"GOVERNOR","inputs":[],"outputs":[{"name":"","type":"address","internalType":"address"}],"stateMutability":"view"},{"type":"function","name":"MAX_COMP_MINTS","inputs":[],"outputs":[{"name":"","type":"uint16","internalType":"uint16"}],"stateMutability":"view"},{"type":"function","name":"MAX_MINTS_PER_TX","inputs":[],"outputs":[{"name":"","type":"uint16","internalType":"uint16"}],"stateMutability":"view"},{"type":"function","name":"MAX_OWNER_MINTS","inputs":[],"outputs":[{"name":"","type":"uint16","internalType":"uint16"}],"stateMutability":"view"},{"type":"function","name":"MAX_PRESALE_MINTS","inputs":[],"outputs":[{"name":"","type":"uint16","internalType":"uint16"}],"stateMutability":"view"},{"type":"function","name":"MAX_SUPPLY","inputs":[],"outputs":[{"name":"","type":"uint16","internalType":"uint16"}],"stateMutability":"view"},{"type":"function","name":"MAX_WHITELISTEES","inputs":[],"outputs":[{"name":"","type":"uint16","internalType":"uint16"}],"stateMutability":"view"},{"type":"function","name":"OWNER","inputs":[],"outputs":[{"name":"","type":"address","internalType":"address"}],"stateMutability":"view"},{"type":"function","name":"PAYMENT_SPLITTER","inputs":[],"outputs":[{"name":"","type":"address","internalType":"address"}],"stateMutability":"view"},{"type":"function","name":"PRESALE","inputs":[],"outputs":[{"name":"","type":"uint256","internalType":"uint256"}],"stateMutability":"view"},{"type":"function","name":"PRICEFEED","inputs":[],"outputs":[{"name":"","type":"address","internalType":"contract IPricefeed"}],"stateMutability":"view"},{"type":"function","name":"PRICE_IN_USD","inputs":[],"outputs":[{"name":"","type":"uint256","internalType":"uint256"}],"stateMutability":"view"},{"type":"function","name":"RAFFLE","inputs":[],"outputs":[{"name":"","type":"address","internalType":"contract IRaffle"}],"stateMutability":"view"},{"type":"function","name":"ROYALTY_BASIS_POINTS","inputs":[],"outputs":[{"name":"","type":"uint96","internalType":"uint96"}],"stateMutability":"view"},{"type":"function","name":"SALE_OPEN","inputs":[],"outputs":[{"name":"","type":"uint256","internalType":"uint256"}],"stateMutability":"view"},{"type":"function","name":"VRF_COORDINATOR","inputs":[],"outputs":[{"name":"","type":"address","internalType":"contract VRFCoordinatorV2Interface"}],"stateMutability":"view"},{"type":"function","name":"addRaffle2000Winners","inputs":[{"name":"_winners","type":"address[]","internalType":"address[]"}],"outputs":[],"stateMutability":"nonpayable"},{"type":"function","name":"addToWhitelist","inputs":[{"name":"_whitelistees","type":"address[]","internalType":"address[]"}],"outputs":[],"stateMutability":"nonpayable"},{"type":"function","name":"approve","inputs":[{"name":"to","type":"address","internalType":"address"},{"name":"tokenId","type":"uint256","internalType":"uint256"}],"outputs":[],"stateMutability":"nonpayable"},{"type":"function","name":"assignCompMint","inputs":[{"name":"_recipient","type":"address","internalType":"address"}],"outputs":[],"stateMutability":"nonpayable"},{"type":"function","name":"balanceOf","inputs":[{"name":"owner","type":"address","internalType":"address"}],"outputs":[{"name":"","type":"uint256","internalType":"uint256"}],"stateMutability":"view"},{"type":"function","name":"calculatePrice","inputs":[{"name":"_numberOfTokens","type":"uint256","internalType":"uint256"}],"outputs":[{"name":"","type":"uint256","internalType":"uint256"}],"stateMutability":"view"},{"type":"function","name":"callbackGasLimit","inputs":[],"outputs":[{"name":"","type":"uint32","internalType":"uint32"}],"stateMutability":"view"},{"type":"function","name":"compMintCounter","inputs":[],"outputs":[{"name":"","type":"uint8","internalType":"uint8"}],"stateMutability":"view"},{"type":"function","name":"getApproved","inputs":[{"name":"tokenId","type":"uint256","internalType":"uint256"}],"outputs":[{"name":"","type":"address","internalType":"address"}],"stateMutability":"view"},{"type":"function","name":"getBaseUri","inputs":[],"outputs":[{"name":"","type":"string","internalType":"string"}],"stateMutability":"view"},{"type":"function","name":"getBatchTokens","inputs":[{"name":"_requestId","type":"uint256","internalType":"uint256"}],"outputs":[{"name":"","type":"uint256[]","internalType":"uint256[]"}],"stateMutability":"view"},{"type":"function","name":"getBuyerByIndex","inputs":[{"name":"index","type":"uint256","internalType":"uint256"}],"outputs":[{"name":"","type":"address","internalType":"address"}],"stateMutability":"view"},{"type":"function","name":"getBuyers","inputs":[],"outputs":[{"name":"","type":"address[]","internalType":"address[]"}],"stateMutability":"view"},{"type":"function","name":"getCompMintCount","inputs":[],"outputs":[{"name":"","type":"uint256","internalType":"uint256"}],"stateMutability":"view"},{"type":"function","name":"getCurrentTokenId","inputs":[],"outputs":[{"name":"","type":"uint256","internalType":"uint256"}],"stateMutability":"view"},{"type":"function","name":"getPriceInMATIC","inputs":[],"outputs":[{"name":"","type":"uint256","internalType":"uint256"}],"stateMutability":"view"},{"type":"function","name":"getRoyaltyReceiver","inputs":[],"outputs":[{"name":"","type":"address","internalType":"address"}],"stateMutability":"view"},{"type":"function","name":"getWhitelistCount","inputs":[],"outputs":[{"name":"","type":"uint256","internalType":"uint256"}],"stateMutability":"view"},{"type":"function","name":"hasClaimedCompMint","inputs":[{"name":"user","type":"address","internalType":"address"}],"outputs":[{"name":"","type":"bool","internalType":"bool"}],"stateMutability":"view"},{"type":"function","name":"isApprovedForAll","inputs":[{"name":"owner","type":"address","internalType":"address"},{"name":"operator","type":"address","internalType":"address"}],"outputs":[{"name":"","type":"bool","internalType":"bool"}],"stateMutability":"view"},{"type":"function","name":"isBuyer","inputs":[{"name":"","type":"address","internalType":"address"}],"outputs":[{"name":"","type":"bool","internalType":"bool"}],"stateMutability":"view"},{"type":"function","name":"isCompMintRecipient","inputs":[{"name":"user","type":"address","internalType":"address"}],"outputs":[{"name":"","type":"bool","internalType":"bool"}],"stateMutability":"view"},{"type":"function","name":"isMintingOpen","inputs":[],"outputs":[{"name":"","type":"bool","internalType":"bool"}],"stateMutability":"view"},{"type":"function","name":"isWhitelisted","inputs":[{"name":"user","type":"address","internalType":"address"}],"outputs":[{"name":"","type":"bool","internalType":"bool"}],"stateMutability":"view"},{"type":"function","name":"keyHash","inputs":[],"outputs":[{"name":"","type":"bytes32","internalType":"bytes32"}],"stateMutability":"view"},{"type":"function","name":"mint","inputs":[{"name":"_to","type":"address","internalType":"address"},{"name":"_numberOfTokens","type":"uint256","internalType":"uint256"}],"outputs":[{"name":"","type":"uint256","internalType":"uint256"}],"stateMutability":"payable"},{"type":"function","name":"mintComp","inputs":[],"outputs":[{"name":"","type":"uint256","internalType":"uint256"}],"stateMutability":"nonpayable"},{"type":"function","name":"name","inputs":[],"outputs":[{"name":"","type":"string","internalType":"string"}],"stateMutability":"view"},{"type":"function","name":"numWords","inputs":[],"outputs":[{"name":"","type":"uint32","internalType":"uint32"}],"stateMutability":"view"},{"type":"function","name":"ownerMint","inputs":[{"name":"_numberOfTokens","type":"uint256","internalType":"uint256"}],"outputs":[{"name":"requestId","type":"uint256","internalType":"uint256"}],"stateMutability":"nonpayable"},{"type":"function","name":"ownerMintCounter","inputs":[],"outputs":[{"name":"","type":"uint256","internalType":"uint256"}],"stateMutability":"view"},{"type":"function","name":"ownerOf","inputs":[{"name":"tokenId","type":"uint256","internalType":"uint256"}],"outputs":[{"name":"","type":"address","internalType":"address"}],"stateMutability":"view"},{"type":"function","name":"rawFulfillRandomWords","inputs":[{"name":"requestId","type":"uint256","internalType":"uint256"},{"name":"randomWords","type":"uint256[]","internalType":"uint256[]"}],"outputs":[],"stateMutability":"nonpayable"},{"type":"function","name":"reducePrice","inputs":[{"name":"_newPriceInUSD","type":"uint256","internalType":"uint256"}],"outputs":[],"stateMutability":"nonpayable"},{"type":"function","name":"remainingUris","inputs":[],"outputs":[{"name":"","type":"uint256","internalType":"uint256"}],"stateMutability":"view"},{"type":"function","name":"requestConfirmations","inputs":[],"outputs":[{"name":"","type":"uint16","internalType":"uint16"}],"stateMutability":"view"},{"type":"function","name":"royaltyInfo","inputs":[{"name":"_tokenId","type":"uint256","internalType":"uint256"},{"name":"_salePrice","type":"uint256","internalType":"uint256"}],"outputs":[{"name":"receiver","type":"address","internalType":"address"},{"name":"royaltyAmount","type":"uint256","internalType":"uint256"}],"stateMutability":"view"},{"type":"function","name":"safeTransferFrom","inputs":[{"name":"from","type":"address","internalType":"address"},{"name":"to","type":"address","internalType":"address"},{"name":"tokenId","type":"uint256","internalType":"uint256"}],"outputs":[],"stateMutability":"nonpayable"},{"type":"function","name":"safeTransferFrom","inputs":[{"name":"from","type":"address","internalType":"address"},{"name":"to","type":"address","internalType":"address"},{"name":"tokenId","type":"uint256","internalType":"uint256"},{"name":"data","type":"bytes","internalType":"bytes"}],"outputs":[],"stateMutability":"nonpayable"},{"type":"function","name":"setApprovalForAll","inputs":[{"name":"operator","type":"address","internalType":"address"},{"name":"approved","type":"bool","internalType":"bool"}],"outputs":[],"stateMutability":"nonpayable"},{"type":"function","name":"setRoyaltyReceiver","inputs":[{"name":"_newReceiver","type":"address","internalType":"address"}],"outputs":[],"stateMutability":"nonpayable"},{"type":"function","name":"subscriptionId","inputs":[],"outputs":[{"name":"","type":"uint64","internalType":"uint64"}],"stateMutability":"view"},{"type":"function","name":"supportsInterface","inputs":[{"name":"interfaceId","type":"bytes4","internalType":"bytes4"}],"outputs":[{"name":"","type":"bool","internalType":"bool"}],"stateMutability":"view"},{"type":"function","name":"symbol","inputs":[],"outputs":[{"name":"","type":"string","internalType":"string"}],"stateMutability":"view"},{"type":"function","name":"tokenByIndex","inputs":[{"name":"index","type":"uint256","internalType":"uint256"}],"outputs":[{"name":"","type":"uint256","internalType":"uint256"}],"stateMutability":"view"},{"type":"function","name":"tokenIdToUriExtension","inputs":[{"name":"","type":"uint256","internalType":"uint256"}],"outputs":[{"name":"","type":"uint256","internalType":"uint256"}],"stateMutability":"view"},{"type":"function","name":"tokenOfOwnerByIndex","inputs":[{"name":"owner","type":"address","internalType":"address"},{"name":"index","type":"uint256","internalType":"uint256"}],"outputs":[{"name":"","type":"uint256","internalType":"uint256"}],"stateMutability":"view"},{"type":"function","name":"tokenURI","inputs":[{"name":"_tokenId","type":"uint256","internalType":"uint256"}],"outputs":[{"name":"","type":"string","internalType":"string"}],"stateMutability":"view"},{"type":"function","name":"totalNumberOfBuyers","inputs":[],"outputs":[{"name":"","type":"uint256","internalType":"uint256"}],"stateMutability":"view"},{"type":"function","name":"totalSupply","inputs":[],"outputs":[{"name":"","type":"uint256","internalType":"uint256"}],"stateMutability":"view"},{"type":"function","name":"transferFrom","inputs":[{"name":"from","type":"address","internalType":"address"},{"name":"to","type":"address","internalType":"address"},{"name":"tokenId","type":"uint256","internalType":"uint256"}],"outputs":[],"stateMutability":"nonpayable"},{"type":"function","name":"whitelistCounter","inputs":[],"outputs":[{"name":"","type":"uint16","internalType":"uint16"}],"stateMutability":"view"},{"type":"event","name":"Approval","inputs":[{"name":"owner","type":"address","indexed":true,"internalType":"address"},{"name":"approved","type":"address","indexed":true,"internalType":"address"},{"name":"tokenId","type":"uint256","indexed":true,"internalType":"uint256"}],"anonymous":false},{"type":"event","name":"ApprovalForAll","inputs":[{"name":"owner","type":"address","indexed":true,"internalType":"address"},{"name":"operator","type":"address","indexed":true,"internalType":"address"},{"name":"approved","type":"bool","indexed":false,"internalType":"bool"}],"anonymous":false},{"type":"event","name":"RaffleWinnersAdded","inputs":[{"name":"winners","type":"address[]","indexed":false,"internalType":"address[]"}],"anonymous":false},{"type":"event","name":"RoyaltyReceiverChanged","inputs":[{"name":"newReceiver","type":"address","indexed":false,"internalType":"address"}],"anonymous":false},{"type":"event","name":"TokenPriceChanged","inputs":[{"name":"newPrice","type":"uint256","indexed":false,"internalType":"uint256"}],"anonymous":false},{"type":"event","name":"Transfer","inputs":[{"name":"from","type":"address","indexed":true,"internalType":"address"},{"name":"to","type":"address","indexed":true,"internalType":"address"},{"name":"tokenId","type":"uint256","indexed":true,"internalType":"uint256"}],"anonymous":false},{"type":"event","name":"VRFRequestCreated","inputs":[{"name":"requestId","type":"uint256","indexed":false,"internalType":"uint256"}],"anonymous":false},{"type":"error","name":"ERC721EnumerableForbiddenBatchMint","inputs":[]},{"type":"error","name":"ERC721IncorrectOwner","inputs":[{"name":"sender","type":"address","internalType":"address"},{"name":"tokenId","type":"uint256","internalType":"uint256"},{"name":"owner","type":"address","internalType":"address"}]},{"type":"error","name":"ERC721InsufficientApproval","inputs":[{"name":"operator","type":"address","internalType":"address"},{"name":"tokenId","type":"uint256","internalType":"uint256"}]},{"type":"error","name":"ERC721InvalidApprover","inputs":[{"name":"approver","type":"address","internalType":"address"}]},{"type":"error","name":"ERC721InvalidOperator","inputs":[{"name":"operator","type":"address","internalType":"address"}]},{"type":"error","name":"ERC721InvalidOwner","inputs":[{"name":"owner","type":"address","internalType":"address"}]},{"type":"error","name":"ERC721InvalidReceiver","inputs":[{"name":"receiver","type":"address","internalType":"address"}]},{"type":"error","name":"ERC721InvalidSender","inputs":[{"name":"sender","type":"address","internalType":"address"}]},{"type":"error","name":"ERC721NonexistentToken","inputs":[{"name":"tokenId","type":"uint256","internalType":"uint256"}]},{"type":"error","name":"ERC721OutOfBoundsIndex","inputs":[{"name":"owner","type":"address","internalType":"address"},{"name":"index","type":"uint256","internalType":"uint256"}]},{"type":"error","name":"OnlyCoordinatorCanFulfill","inputs":[{"name":"have","type":"address","internalType":"address"},{"name":"want","type":"address","internalType":"address"}]},{"type":"error","name":"OrcNation__CompMintAlreadyAssignedToAddress","inputs":[]},{"type":"error","name":"OrcNation__CompMintAlreadyClaimed","inputs":[]},{"type":"error","name":"OrcNation__InsufficientPayment","inputs":[{"name":"paymentDue","type":"uint256","internalType":"uint256"}]},{"type":"error","name":"OrcNation__InvalidNewPrice","inputs":[]},{"type":"error","name":"OrcNation__InvalidSaleTime","inputs":[]},{"type":"error","name":"OrcNation__MaxCompMintsExceeded","inputs":[]},{"type":"error","name":"OrcNation__MaxMintsPerTransactionExceeded","inputs":[]},{"type":"error","name":"OrcNation__MaxThreePresaleMintsPerWhitelistedAddress","inputs":[]},{"type":"error","name":"OrcNation__MintingNotOpen","inputs":[]},{"type":"error","name":"OrcNation__MustMintAtLeastOneToken","inputs":[]},{"type":"error","name":"OrcNation__NotEligibleForCompMint","inputs":[]},{"type":"error","name":"OrcNation__NotWhitelisted","inputs":[]},{"type":"error","name":"OrcNation__OnlyAdmin","inputs":[]},{"type":"error","name":"OrcNation__OnlyGovernor","inputs":[]},{"type":"error","name":"OrcNation__OnlyOwner","inputs":[]},{"type":"error","name":"OrcNation__OnlyRaffle","inputs":[]},{"type":"error","name":"OrcNation__PriceFeedAnswerNegative","inputs":[]},{"type":"error","name":"OrcNation__RaffleNotComplete","inputs":[]},{"type":"error","name":"OrcNation__TokenDoesNotExist","inputs":[]},{"type":"error","name":"OrcNation__WillExceedMaxOwnerMints","inputs":[]},{"type":"error","name":"OrcNation__WillExceedMaxSupply","inputs":[]},{"type":"error","name":"OrcNation__WillExceedMaxWhitelistees","inputs":[]}],"bytecode":{"object":"0x6101a06040526041600a556127106010557f4b09e658ed251bcafeebbc69400383d49f344ace09b9576fe248bb02c003fe9f601955601a8054600160401b600160901b0319166e01000f4240000300000000000000001790553480156200006557600080fd5b5060405162003dd638038062003dd6833981016040819052620000889162000294565b896040518060400160405280600981526020016827b931a730ba34b7b760b91b815250604051806040016040528060048152602001634f52435360e01b8152508160009081620000d9919062000408565b506001620000e8828262000408565b5050506001600160a01b0316608052428410806200010557508383105b1562000124576040516336e24cf360e01b815260040160405180910390fd5b6001600160a01b03808b1660a05289811660c05288811661012052871661010052600d80546001600160a01b03191633179055600e62000165828262000408565b50506101609290925261018052601a80546001600160401b0319166001600160401b039092169190911790556001600160a01b0391821660e052166101405250620004d492505050565b80516001600160a01b0381168114620001c757600080fd5b919050565b634e487b7160e01b600052604160045260246000fd5b600082601f830112620001f457600080fd5b81516001600160401b0380821115620002115762000211620001cc565b604051601f8301601f19908116603f011681019082821181831017156200023c576200023c620001cc565b81604052838152602092508660208588010111156200025a57600080fd5b600091505b838210156200027e57858201830151818301840152908201906200025f565b6000602085830101528094505050505092915050565b6000806000806000806000806000806101408b8d031215620002b557600080fd5b620002c08b620001af565b9950620002d060208c01620001af565b9850620002e060408c01620001af565b9750620002f060608c01620001af565b96506200030060808c01620001af565b95506200031060a08c01620001af565b60c08c015160e08d01516101008e015192975090955093506001600160401b0380821682146200033f57600080fd5b6101208d0151919350808211156200035657600080fd5b50620003658d828e01620001e2565b9150509295989b9194979a5092959850565b600181811c908216806200038c57607f821691505b602082108103620003ad57634e487b7160e01b600052602260045260246000fd5b50919050565b601f82111562000403576000816000526020600020601f850160051c81016020861015620003de5750805b601f850160051c820191505b81811015620003ff57828155600101620003ea565b5050505b505050565b81516001600160401b03811115620004245762000424620001cc565b6200043c8162000435845462000377565b84620003b3565b602080601f8311600181146200047457600084156200045b5750858301515b600019600386901b1c1916600185901b178555620003ff565b600085815260208120601f198616915b82811015620004a55788860151825594840194600190910190840162000484565b5085821015620004c45787850151600019600388901b60f8161c191681555b5050505050600190811b01905550565b60805160a05160c05160e0516101005161012051610140516101605161018051613805620005d160003960008181610a890152818161119a0152611b860152600081816105aa01528181610bea0152818161112e0152818161116f01528181611b5b0152611d1c01526000818161053a0152611dfb01526000818161099101528181610ebb01528181611726015281816119230152611a89015260008181610b3b01526112ba01526000818161095d015281816113ba01528181612b3e0152612bd1015260008181610ca9015281816115a1015261164d01526000818161043b0152612989015260008181610f6c0152610fae01526138056000f3fe6080604052600436106103ef5760003560e01c80636352211e11610208578063a69e689c11610118578063d5a9dea4116100ab578063e8c93ec91161007a578063e8c93ec914610ce1578063e985e9c514610d0e578063ee1daa4314610d2e578063f19e75d414610d43578063f64bfaba14610d6357600080fd5b8063d5a9dea414610c77578063d8f4d5d014610c97578063dbdbbc9114610c2c578063e575039514610ccb57600080fd5b8063b88d4fde116100e7578063b88d4fde14610c0c578063c5f8776c14610c2c578063c6a91b4214610c42578063c87b56dd14610c5757600080fd5b8063a69e689c14610b5d578063ae10426514610b96578063b0fb162f14610bb6578063b4cf564814610bd857600080fd5b80637f6497831161019b5780639208383a1161016a5780639208383a14610ac157806395d89b4114610ad6578063a22cb46514610aeb578063a5bd523514610b0b578063a5f0292b14610b2957600080fd5b80637f64978314610a375780638dc251e314610a575780638e26d2aa14610a77578063914db51a14610aab57600080fd5b80637263c07e116101d75780637263c07e146109d357806373416c24146109e857806377071052146109fd5780637ccfd7fc14610a1357600080fd5b80636352211e1461092b5780636c70e8511461094b5780636dc0ae221461097f57806370a08231146109b357600080fd5b80632a55feec1161030357806342842e0e1161029657806354a063ae1161026557806354a063ae146108ad57806356189236146108c25780635a59d966146108d75780635ab9120c146108f557806361728f391461091557600080fd5b806342842e0e1461081b5780634404ee841461083b5780634654e6d61461085b5780634f6ccce71461088d57600080fd5b80633af32abf116102d25780633af32abf146107835780633c404a9c146107bc5780633edff20f146107ef57806340c10f191461080857600080fd5b80632a55feec146106f05780632f745c591461072057806332cb6b0c1461074057806333fdcf521461075657600080fd5b8063121925a21161038657806323b872dd1161035557806323b872dd146105f157806324f746971461061157806326f27e6d1461064a578063289016ed146106785780632a55205a146106b157600080fd5b8063121925a21461055c57806318160ddd1461057c5780631a2069101461059b5780631fe543e3146105d157600080fd5b8063095ea7b3116103c2578063095ea7b3146104b757806309c1ba2e146104d95780630cac36b214610513578063117803e31461052857600080fd5b806301ffc9a7146103f457806305f6a9241461042957806306fdde0314610475578063081812fc14610497575b600080fd5b34801561040057600080fd5b5061041461040f366004612e46565b610d85565b60405190151581526020015b60405180910390f35b34801561043557600080fd5b5061045d7f000000000000000000000000000000000000000000000000000000000000000081565b6040516001600160a01b039091168152602001610420565b34801561048157600080fd5b5061048a610dd7565b6040516104209190612eb3565b3480156104a357600080fd5b5061045d6104b2366004612ec6565b610e69565b3480156104c357600080fd5b506104d76104d2366004612efb565b610e92565b005b3480156104e557600080fd5b50601a546104fa9067ffffffffffffffff1681565b60405167ffffffffffffffff9091168152602001610420565b34801561051f57600080fd5b5061048a610ea1565b34801561053457600080fd5b5061045d7f000000000000000000000000000000000000000000000000000000000000000081565b34801561056857600080fd5b506104d7610577366004612ec6565b610eb0565b34801561058857600080fd5b506008545b604051908152602001610420565b3480156105a757600080fd5b507f0000000000000000000000000000000000000000000000000000000000000000421015610414565b3480156105dd57600080fd5b506104d76105ec366004612f6c565b610f61565b3480156105fd57600080fd5b506104d761060c36600461301e565b610fea565b34801561061d57600080fd5b50601a5461063590600160501b900463ffffffff1681565b60405163ffffffff9091168152602001610420565b34801561065657600080fd5b50600b546106659061ffff1681565b60405161ffff9091168152602001610420565b34801561068457600080fd5b5061041461069336600461305a565b6001600160a01b031660009081526016602052604090205460ff1690565b3480156106bd57600080fd5b506106d16106cc366004613075565b611075565b604080516001600160a01b039093168352602083019190915201610420565b3480156106fc57600080fd5b5061041461070b36600461305a565b60186020526000908152604090205460ff1681565b34801561072c57600080fd5b5061058d61073b366004612efb565b6110c5565b34801561074c57600080fd5b5061066561271081565b34801561076257600080fd5b5061058d610771366004612ec6565b60136020526000908152604090205481565b34801561078f57600080fd5b5061041461079e36600461305a565b6001600160a01b031660009081526014602052604090205460ff1690565b3480156107c857600080fd5b506107d26101f481565b6040516bffffffffffffffffffffffff9091168152602001610420565b3480156107fb57600080fd5b50600b5461ffff1661058d565b61058d610816366004612efb565b61112a565b34801561082757600080fd5b506104d761083636600461301e565b61138f565b34801561084757600080fd5b506104d7610856366004613097565b6113af565b34801561086757600080fd5b50600b5461087b9062010000900460ff1681565b60405160ff9091168152602001610420565b34801561089957600080fd5b5061058d6108a8366004612ec6565b611543565b3480156108b957600080fd5b5061058d61159c565b3480156108ce57600080fd5b50600f5461058d565b3480156108e357600080fd5b50600b5462010000900460ff1661058d565b34801561090157600080fd5b506104d761091036600461305a565b611711565b34801561092157600080fd5b5061058d60195481565b34801561093757600080fd5b5061045d610946366004612ec6565b6118bb565b34801561095757600080fd5b5061045d7f000000000000000000000000000000000000000000000000000000000000000081565b34801561098b57600080fd5b5061045d7f000000000000000000000000000000000000000000000000000000000000000081565b3480156109bf57600080fd5b5061058d6109ce36600461305a565b6118c6565b3480156109df57600080fd5b50610665603281565b3480156109f457600080fd5b5060175461058d565b348015610a0957600080fd5b5061058d600c5481565b348015610a1f57600080fd5b50601a5461063590600160701b900463ffffffff1681565b348015610a4357600080fd5b506104d7610a52366004613097565b61190e565b348015610a6357600080fd5b506104d7610a7236600461305a565b611a7e565b348015610a8357600080fd5b5061058d7f000000000000000000000000000000000000000000000000000000000000000081565b348015610ab757600080fd5b5061058d600a5481565b348015610acd57600080fd5b50610665600381565b348015610ae257600080fd5b5061048a611b27565b348015610af757600080fd5b506104d7610b0636600461311a565b611b36565b348015610b1757600080fd5b50600d546001600160a01b031661045d565b348015610b3557600080fd5b5061045d7f000000000000000000000000000000000000000000000000000000000000000081565b348015610b6957600080fd5b50610414610b7836600461305a565b6001600160a01b031660009081526015602052604090205460ff1690565b348015610ba257600080fd5b5061058d610bb1366004612ec6565b611b41565b348015610bc257600080fd5b50601a5461066590600160401b900461ffff1681565b348015610be457600080fd5b5061058d7f000000000000000000000000000000000000000000000000000000000000000081565b348015610c1857600080fd5b506104d7610c27366004613151565b611bcb565b348015610c3857600080fd5b506106656101f481565b348015610c4e57600080fd5b50610665600a81565b348015610c6357600080fd5b5061048a610c72366004612ec6565b611be2565b348015610c8357600080fd5b5061045d610c92366004612ec6565b611c58565b348015610ca357600080fd5b5061045d7f000000000000000000000000000000000000000000000000000000000000000081565b348015610cd757600080fd5b5061058d60105481565b348015610ced57600080fd5b50610d01610cfc366004612ec6565b611c88565b6040516104209190613211565b348015610d1a57600080fd5b50610414610d29366004613255565b611cea565b348015610d3a57600080fd5b5061058d611d18565b348015610d4f57600080fd5b5061058d610d5e366004612ec6565b611dee565b348015610d6f57600080fd5b50610d78611eb6565b6040516104209190613288565b60006301ffc9a760e01b6001600160e01b031983161480610db657506380ac58cd60e01b6001600160e01b03198316145b80610dd1575063152a902d60e11b6001600160e01b03198316145b92915050565b606060008054610de6906132c9565b80601f0160208091040260200160405190810160405280929190818152602001828054610e12906132c9565b8015610e5f5780601f10610e3457610100808354040283529160200191610e5f565b820191906000526020600020905b815481529060010190602001808311610e4257829003601f168201915b5050505050905090565b6000610e7482611f17565b506000828152600460205260409020546001600160a01b0316610dd1565b610e9d828233611f50565b5050565b6060600e8054610de6906132c9565b336001600160a01b037f00000000000000000000000000000000000000000000000000000000000000001614610ef85760405162ac0b2f60e41b815260040160405180910390fd5b6020811080610f075750606181115b15610f2557604051631d0bf16360e31b815260040160405180910390fd5b600a8190556040518181527fac21bacd333b316c6640fca5086322638b0a7aa4367179afd5dfcbe0a5427bc7906020015b60405180910390a150565b336001600160a01b037f00000000000000000000000000000000000000000000000000000000000000001614610fe05760405163073e64fd60e21b81523360048201526001600160a01b037f00000000000000000000000000000000000000000000000000000000000000001660248201526044015b60405180910390fd5b610e9d8282611f5d565b6001600160a01b03821661101457604051633250574960e11b815260006004820152602401610fd7565b600061102183833361204c565b9050836001600160a01b0316816001600160a01b03161461106f576040516364283d7b60e01b81526001600160a01b0380861660048301526024820184905282166044820152606401610fd7565b50505050565b60008080611082856118bb565b6001600160a01b03160361109557600080fd5b600d546001600160a01b03166127106110b06101f486613319565b6110ba9190613346565b915091509250929050565b60006110d0836118c6565b82106111015760405163295f44f760e21b81526001600160a01b038416600482015260248101839052604401610fd7565b506001600160a01b03919091166000908152600660209081526040808320938352929052205490565b60007f000000000000000000000000000000000000000000000000000000000000000042101561116d5760405163f0b9693f60e01b815260040160405180910390fd5b7f000000000000000000000000000000000000000000000000000000000000000042101580156111bc57507f000000000000000000000000000000000000000000000000000000000000000042105b1561122f576001600160a01b03831660009081526014602052604090205460ff166111fa5760405163cb060eb160e01b815260040160405180910390fd5b600382611206856118c6565b611210919061335a565b111561122f576040516380b2c43f60e01b815260040160405180910390fd5b60018210156112515760405163ea1112df60e01b815260040160405180910390fd5b600a8211156112735760405163416296fd60e01b815260040160405180910390fd5b61127c82612121565b600061128783611b41565b9050803410156112ad576040516334272af160e01b815260048101829052602401610fd7565b6112b684612155565b60007f00000000000000000000000000000000000000000000000000000000000000006001600160a01b03163460405160006040518083038185875af1925050503d8060008114611323576040519150601f19603f3d011682016040523d82523d6000602084013e611328565b606091505b50509050806113795760405162461bcd60e51b815260206004820152601760248201527f5061796d656e74207472616e73666572206661696c65640000000000000000006044820152606401610fd7565b600061138586866121dc565b9695505050505050565b6113aa83838360405180602001604052806000815250611bcb565b505050565b336001600160a01b037f000000000000000000000000000000000000000000000000000000000000000016146113f85760405163726c530160e01b815260040160405180910390fd5b60005b818110156115055760016015600085858581811061141b5761141b61336d565b9050602002016020810190611430919061305a565b6001600160a01b0316815260208101919091526040016000908120805460ff1916921515929092179091556016908484848181106114705761147061336d565b9050602002016020810190611485919061305a565b6001600160a01b0316815260208101919091526040016000205460ff16156114fd576000601660008585858181106114bf576114bf61336d565b90506020020160208101906114d4919061305a565b6001600160a01b031681526020810191909152604001600020805460ff19169115159190911790555b6001016113fb565b507f743d27e70dad1517ab7a2613a62cb57ea1ac4d6c0ca6d489bfbb5b468400f5d98282604051611537929190613383565b60405180910390a15050565b600061154e60085490565b82106115775760405163295f44f760e21b81526000600482015260248101839052604401610fd7565b6008828154811061158a5761158a61336d565b90600052602060002001549050919050565b6000807f00000000000000000000000000000000000000000000000000000000000000006001600160a01b031663feaf968c6040518163ffffffff1660e01b815260040160a060405180830381865afa1580156115fd573d6000803e3d6000fd5b505050506040513d601f19601f8201168201806040525081019061162191906133e9565b505050915050600081121561164957604051632bea283f60e11b815260040160405180910390fd5b60007f00000000000000000000000000000000000000000000000000000000000000006001600160a01b031663313ce5676040518163ffffffff1660e01b8152600401602060405180830381865afa1580156116a9573d6000803e3d6000fd5b505050506040513d601f19601f820116820180604052508101906116cd9190613439565b6116d890600a613540565b90506000600a54670de0b6b3a76400006116f29190613319565b9050816116ff848361354f565b611709919061357d565b935050505090565b604051630935e01b60e21b81523360048201527f00000000000000000000000000000000000000000000000000000000000000006001600160a01b0316906324d7806c90602401602060405180830381865afa158015611775573d6000803e3d6000fd5b505050506040513d601f19601f8201168201806040525081019061179991906135ad565b6117b6576040516354fe416f60e01b815260040160405180910390fd5b600b546032906117d09062010000900460ff1660016135ca565b60ff1611156117f257604051630138ee3960e31b815260040160405180910390fd5b600b805460029061180b9062010000900460ff166135e3565b82546101009290920a60ff8181021990931691831602179091556001600160a01b038216600090815260166020526040902054161561185d57604051632d11162b60e21b815260040160405180910390fd5b6001600160a01b03811660009081526015602052604090205460ff1615611897576040516348c3a61560e11b815260040160405180910390fd5b6001600160a01b03166000908152601560205260409020805460ff19166001179055565b6000610dd182611f17565b60006001600160a01b0382166118f2576040516322718ad960e21b815260006004820152602401610fd7565b506001600160a01b031660009081526003602052604090205490565b604051630935e01b60e21b81523360048201527f00000000000000000000000000000000000000000000000000000000000000006001600160a01b0316906324d7806c90602401602060405180830381865afa158015611972573d6000803e3d6000fd5b505050506040513d601f19601f8201168201806040525081019061199691906135ad565b6119b3576040516354fe416f60e01b815260040160405180910390fd5b600b546101f4906119c990839061ffff1661335a565b11156119e8576040516354f4fdbf60e11b815260040160405180910390fd5b60005b818110156113aa57600b8054600090611a079061ffff16613602565b91906101000a81548161ffff021916908361ffff160217905550600160146000858585818110611a3957611a3961336d565b9050602002016020810190611a4e919061305a565b6001600160a01b031681526020810191909152604001600020805460ff19169115159190911790556001016119eb565b336001600160a01b037f00000000000000000000000000000000000000000000000000000000000000001614611ac65760405162ac0b2f60e41b815260040160405180910390fd5b6001600160a01b038116611ad957600080fd5b600d80546001600160a01b0319166001600160a01b0383169081179091556040519081527ff18ed8da4fbddf768618d066780de11fb9a756a8b30128c77e6a128500b65a3190602001610f56565b606060018054610de6906132c9565b610e9d3383836122b5565b60008082611b4d61159c565b611b579190613319565b90507f00000000000000000000000000000000000000000000000000000000000000004210158015611ba857507f000000000000000000000000000000000000000000000000000000000000000042105b15610dd1576064611bba826055613319565b611bc49190613346565b9392505050565b611bd6848484610fea565b61106f84848484612354565b60606000611bef836118bb565b6001600160a01b031603611c165760405163039530c360e61b815260040160405180910390fd5b600082815260136020526040902054600e90611c319061247d565b604051602001611c4292919061363f565b6040516020818303038152906040529050919050565b600060178281548110611c6d57611c6d61336d565b6000918252602090912001546001600160a01b031692915050565b600081815260116020908152604091829020805483518184028101840190945280845260609392830182828015611cde57602002820191906000526020600020905b815481526020019060010190808311611cca575b50505050509050919050565b6001600160a01b03918216600090815260056020908152604080832093909416825291909152205460ff1690565b60007f0000000000000000000000000000000000000000000000000000000000000000421015611d5b5760405163f0b9693f60e01b815260040160405180910390fd5b3360009081526015602052604090205460ff16611d8b57604051631624b2cf60e11b815260040160405180910390fd5b3360009081526016602052604090205460ff1615611dbc57604051632d11162b60e21b815260040160405180910390fd5b611dc66001612121565b336000818152601660205260408120805460ff191660019081179091559091610dd1916121dc565b6000336001600160a01b037f00000000000000000000000000000000000000000000000000000000000000001614611e3957604051632973c9b760e11b815260040160405180910390fd5b600c546101f490611e4a908461335a565b1115611e695760405163c64fc4cb60e01b815260040160405180910390fd5b600a821115611e8b5760405163416296fd60e01b815260040160405180910390fd5b611e9482612121565b81600c6000828254611ea6919061335a565b90915550610dd1905033836121dc565b60606017805480602002602001604051908101604052809291908181526020018280548015610e5f57602002820191906000526020600020905b81546001600160a01b03168152600190910190602001808311611ef0575050505050905090565b6000818152600260205260408120546001600160a01b031680610dd157604051637e27328960e01b815260048101849052602401610fd7565b6113aa8383836001612510565b60105460005b6000848152601160205260409020548110156120445760008284600081518110611f8f57611f8f61336d565b602002602001015183604051602001611fb2929190918252602082015260400190565b6040516020818303038152906040528051906020012060001c611fd591906136f9565b90506000611fe38285612616565b90508060136000601160008a8152602001908152602001600020868154811061200e5761200e61336d565b9060005260206000200154815260200190815260200160002081905550836120359061370d565b93508260010192505050611f63565b506010555050565b60008061205a858585612697565b90506001600160a01b0381166120b7576120b284600880546000838152600960205260408120829055600182018355919091527ff3f7a9fe364faab93b216da50a3214154f22a0a2b415b23a84c8169e8b636ee30155565b6120da565b846001600160a01b0316816001600160a01b0316146120da576120da8185612790565b6001600160a01b0385166120f6576120f184612821565b612119565b846001600160a01b0316816001600160a01b0316146121195761211985856128d0565b949350505050565b600f546127109061213390839061335a565b11156121525760405163229ed32160e01b815260040160405180910390fd5b50565b6001600160a01b03811660009081526018602052604090205460ff16612152576017805460018181019092557fc624b66cc0138b8fabc209247f72d758e1cf3343756d543badbf24212bed8c150180546001600160a01b0384166001600160a01b031990911681179091556000908152601860205260409020805460ff1916909117905550565b6000806121e7612920565b905060008367ffffffffffffffff81111561220457612204612f25565b60405190808252806020026020018201604052801561222d578160200160208202803683370190505b50905060005b8481101561228457600f6000815461224a90613724565b90915550600f5461225c908790612a34565b600f548282815181106122715761227161336d565b6020908102919091010152600101612233565b50600082815260116020908152604090912082516122a492840190612dd0565b506122ad612a99565b509392505050565b6001600160a01b0382166122e757604051630b61174360e31b81526001600160a01b0383166004820152602401610fd7565b6001600160a01b03838116600081815260056020908152604080832094871680845294825291829020805460ff191686151590811790915591519182527f17307eab39ab6107e8899845ad3d59bd9653f200f220920489ca2b5937696c31910160405180910390a3505050565b6001600160a01b0383163b1561106f57604051630a85bd0160e11b81526001600160a01b0384169063150b7a029061239690339088908790879060040161373d565b6020604051808303816000875af19250505080156123d1575060408051601f3d908101601f191682019092526123ce91810190613770565b60015b61243a573d8080156123ff576040519150601f19603f3d011682016040523d82523d6000602084013e612404565b606091505b50805160000361243257604051633250574960e11b81526001600160a01b0385166004820152602401610fd7565b805181602001fd5b6001600160e01b03198116630a85bd0160e11b1461247657604051633250574960e11b81526001600160a01b0385166004820152602401610fd7565b5050505050565b6060600061248a83612c31565b600101905060008167ffffffffffffffff8111156124aa576124aa612f25565b6040519080825280601f01601f1916602001820160405280156124d4576020820181803683370190505b5090508181016020015b600019016f181899199a1a9b1b9c1cb0b131b232b360811b600a86061a8153600a85049450846124de57509392505050565b808061252457506001600160a01b03821615155b156125e657600061253484611f17565b90506001600160a01b038316158015906125605750826001600160a01b0316816001600160a01b031614155b801561257357506125718184611cea565b155b1561259c5760405163a9fbf51f60e01b81526001600160a01b0384166004820152602401610fd7565b81156125e45783856001600160a01b0316826001600160a01b03167f8c5be1e5ebec7d5bd14f71427d1e84f3dd0314c0f7b2291e5b200ac8c7c3b92560405160405180910390a45b505b5050600090815260046020526040902080546001600160a01b0319166001600160a01b0392909216919091179055565b6000828152601260205260408120548161263160018561378d565b600081815260126020526040812054919250831561264f5783612651565b865b90508287146126785781156126665781612668565b825b6000888152601260205260409020555b8115611385576000838152601260205260408120559695505050505050565b6000828152600260205260408120546001600160a01b03908116908316156126c4576126c4818486612d09565b6001600160a01b03811615612702576126e1600085600080612510565b6001600160a01b038116600090815260036020526040902080546000190190555b6001600160a01b03851615612731576001600160a01b0385166000908152600360205260409020805460010190555b60008481526002602052604080822080546001600160a01b0319166001600160a01b0389811691821790925591518793918516917fddf252ad1be2c89b69c2b068fc378daa952ba7f163c4a11628f55a4df523b3ef91a4949350505050565b600061279b836118c6565b6000838152600760205260409020549091508082146127ee576001600160a01b03841660009081526006602090815260408083208584528252808320548484528184208190558352600790915290208190555b5060009182526007602090815260408084208490556001600160a01b039094168352600681528383209183525290812055565b6008546000906128339060019061378d565b6000838152600960205260408120546008805493945090928490811061285b5761285b61336d565b90600052602060002001549050806008838154811061287c5761287c61336d565b60009182526020808320909101929092558281526009909152604080822084905585825281205560088054806128b4576128b46137a0565b6001900381819060005260206000200160009055905550505050565b600060016128dd846118c6565b6128e7919061378d565b6001600160a01b039093166000908152600660209081526040808320868452825280832085905593825260079052919091209190915550565b601954601a546040516305d3b1d360e41b8152600481019290925267ffffffffffffffff8116602483015261ffff600160401b820416604483015263ffffffff600160501b820481166064840152600160701b9091041660848201526000906001600160a01b037f00000000000000000000000000000000000000000000000000000000000000001690635d3b1d309060a4016020604051808303816000875af11580156129d2573d6000803e3d6000fd5b505050506040513d601f19601f820116820180604052508101906129f691906137b6565b90507ff2dc9a29f1b257c57ef50cb6c0230cacc6af60a01e5e51bde6ee1657f214a34781604051612a2991815260200190565b60405180910390a190565b6001600160a01b038216612a5e57604051633250574960e11b815260006004820152602401610fd7565b6000612a6c8383600061204c565b90506001600160a01b038116156113aa576040516339e3563760e11b815260006004820152602401610fd7565b6107d0600f541015612aa757565b60006107d0600f5410158015612ac05750610fa0600f54105b15612ace57506107d0612b29565b610fa0600f5410158015612ae55750611770600f54105b15612af35750610fa0612b29565b611770600f5410158015612b0b5750600f5461271014155b15612b195750611770612b29565b600f5461271003612b2957506127105b60405162baee2160e81b8152600481018290527f00000000000000000000000000000000000000000000000000000000000000006001600160a01b03169063baee2100906024016020604051808303816000875af1158015612b8f573d6000803e3d6000fd5b505050506040513d601f19601f82011682018060405250810190612bb391906135ad565b15612bbb5750565b60405163856a89fd60e01b8152600481018290527f00000000000000000000000000000000000000000000000000000000000000006001600160a01b03169063856a89fd90602401600060405180830381600087803b158015612c1d57600080fd5b505af1158015612476573d6000803e3d6000fd5b60008072184f03e93ff9f4daa797ed6e38ed64bf6a1f0160401b8310612c705772184f03e93ff9f4daa797ed6e38ed64bf6a1f0160401b830492506040015b6d04ee2d6d415b85acef81000000008310612c9c576d04ee2d6d415b85acef8100000000830492506020015b662386f26fc100008310612cba57662386f26fc10000830492506010015b6305f5e1008310612cd2576305f5e100830492506008015b6127108310612ce657612710830492506004015b60648310612cf8576064830492506002015b600a8310610dd15760010192915050565b612d14838383612d6d565b6113aa576001600160a01b038316612d4257604051637e27328960e01b815260048101829052602401610fd7565b60405163177e802f60e01b81526001600160a01b038316600482015260248101829052604401610fd7565b60006001600160a01b038316158015906121195750826001600160a01b0316846001600160a01b03161480612da75750612da78484611cea565b806121195750506000908152600460205260409020546001600160a01b03908116911614919050565b828054828255906000526020600020908101928215612e0b579160200282015b82811115612e0b578251825591602001919060010190612df0565b50612e17929150612e1b565b5090565b5b80821115612e175760008155600101612e1c565b6001600160e01b03198116811461215257600080fd5b600060208284031215612e5857600080fd5b8135611bc481612e30565b60005b83811015612e7e578181015183820152602001612e66565b50506000910152565b60008151808452612e9f816020860160208601612e63565b601f01601f19169290920160200192915050565b602081526000611bc46020830184612e87565b600060208284031215612ed857600080fd5b5035919050565b80356001600160a01b0381168114612ef657600080fd5b919050565b60008060408385031215612f0e57600080fd5b612f1783612edf565b946020939093013593505050565b634e487b7160e01b600052604160045260246000fd5b604051601f8201601f1916810167ffffffffffffffff81118282101715612f6457612f64612f25565b604052919050565b60008060408385031215612f7f57600080fd5b8235915060208084013567ffffffffffffffff80821115612f9f57600080fd5b818601915086601f830112612fb357600080fd5b813581811115612fc557612fc5612f25565b8060051b9150612fd6848301612f3b565b8181529183018401918481019089841115612ff057600080fd5b938501935b8385101561300e57843582529385019390850190612ff5565b8096505050505050509250929050565b60008060006060848603121561303357600080fd5b61303c84612edf565b925061304a60208501612edf565b9150604084013590509250925092565b60006020828403121561306c57600080fd5b611bc482612edf565b6000806040838503121561308857600080fd5b50508035926020909101359150565b600080602083850312156130aa57600080fd5b823567ffffffffffffffff808211156130c257600080fd5b818501915085601f8301126130d657600080fd5b8135818111156130e557600080fd5b8660208260051b85010111156130fa57600080fd5b60209290920196919550909350505050565b801515811461215257600080fd5b6000806040838503121561312d57600080fd5b61313683612edf565b915060208301356131468161310c565b809150509250929050565b6000806000806080858703121561316757600080fd5b61317085612edf565b9350602061317f818701612edf565b935060408601359250606086013567ffffffffffffffff808211156131a357600080fd5b818801915088601f8301126131b757600080fd5b8135818111156131c9576131c9612f25565b6131db601f8201601f19168501612f3b565b915080825289848285010111156131f157600080fd5b808484018584013760008482840101525080935050505092959194509250565b6020808252825182820181905260009190848201906040850190845b818110156132495783518352928401929184019160010161322d565b50909695505050505050565b6000806040838503121561326857600080fd5b61327183612edf565b915061327f60208401612edf565b90509250929050565b6020808252825182820181905260009190848201906040850190845b818110156132495783516001600160a01b0316835292840192918401916001016132a4565b600181811c908216806132dd57607f821691505b6020821081036132fd57634e487b7160e01b600052602260045260246000fd5b50919050565b634e487b7160e01b600052601160045260246000fd5b8082028115828204841417610dd157610dd1613303565b634e487b7160e01b600052601260045260246000fd5b60008261335557613355613330565b500490565b80820180821115610dd157610dd1613303565b634e487b7160e01b600052603260045260246000fd5b60208082528181018390526000908460408401835b868110156133c4576001600160a01b036133b184612edf565b1682529183019190830190600101613398565b509695505050505050565b805169ffffffffffffffffffff81168114612ef657600080fd5b600080600080600060a0868803121561340157600080fd5b61340a866133cf565b945060208601519350604086015192506060860151915061342d608087016133cf565b90509295509295909350565b60006020828403121561344b57600080fd5b815160ff81168114611bc457600080fd5b600181815b8085111561349757816000190482111561347d5761347d613303565b8085161561348a57918102915b93841c9390800290613461565b509250929050565b6000826134ae57506001610dd1565b816134bb57506000610dd1565b81600181146134d157600281146134db576134f7565b6001915050610dd1565b60ff8411156134ec576134ec613303565b50506001821b610dd1565b5060208310610133831016604e8410600b841016171561351a575081810a610dd1565b613524838361345c565b806000190482111561353857613538613303565b029392505050565b6000611bc460ff84168361349f565b60008261355e5761355e613330565b600160ff1b82146000198414161561357857613578613303565b500590565b80820260008212600160ff1b8414161561359957613599613303565b8181058314821517610dd157610dd1613303565b6000602082840312156135bf57600080fd5b8151611bc48161310c565b60ff8181168382160190811115610dd157610dd1613303565b600060ff821660ff81036135f9576135f9613303565b60010192915050565b600061ffff80831681810361361957613619613303565b6001019392505050565b60008151613635818560208601612e63565b9290920192915050565b60008084548160018260011c9150600183168061365d57607f831692505b6020808410820361367c57634e487b7160e01b86526022600452602486fd5b81801561369057600181146136a5576136d2565b60ff19861689528415158502890196506136d2565b60008b81526020902060005b868110156136ca5781548b8201529085019083016136b1565b505084890196505b5050505050506136e28185613623565b64173539b7b760d91b815260050195945050505050565b60008261370857613708613330565b500690565b60008161371c5761371c613303565b506000190190565b60006001820161373657613736613303565b5060010190565b6001600160a01b038581168252841660208201526040810183905260806060820181905260009061138590830184612e87565b60006020828403121561378257600080fd5b8151611bc481612e30565b81810381811115610dd157610dd1613303565b634e487b7160e01b600052603160045260246000fd5b6000602082840312156137c857600080fd5b505191905056fea2646970667358221220358dd6386c63121365644f530f9203ce448cae7a48036e2c728d5a11a4c0c36464736f6c63430008170033","linkReferences":{}},"methodIdentifiers":{"GOVERNOR()":"6dc0ae22","MAX_COMP_MINTS()":"7263c07e","MAX_MINTS_PER_TX()":"c6a91b42","MAX_OWNER_MINTS()":"c5f8776c","MAX_PRESALE_MINTS()":"9208383a","MAX_SUPPLY()":"32cb6b0c","MAX_WHITELISTEES()":"dbdbbc91","OWNER()":"117803e3","PAYMENT_SPLITTER()":"a5f0292b","PRESALE()":"b4cf5648","PRICEFEED()":"d8f4d5d0","PRICE_IN_USD()":"914db51a","RAFFLE()":"6c70e851","ROYALTY_BASIS_POINTS()":"3c404a9c","SALE_OPEN()":"8e26d2aa","VRF_COORDINATOR()":"05f6a924","addRaffle2000Winners(address[])":"4404ee84","addToWhitelist(address[])":"7f649783","approve(address,uint256)":"095ea7b3","assignCompMint(address)":"5ab9120c","balanceOf(address)":"70a08231","calculatePrice(uint256)":"ae104265","callbackGasLimit()":"24f74697","compMintCounter()":"4654e6d6","getApproved(uint256)":"081812fc","getBaseUri()":"0cac36b2","getBatchTokens(uint256)":"e8c93ec9","getBuyerByIndex(uint256)":"d5a9dea4","getBuyers()":"f64bfaba","getCompMintCount()":"5a59d966","getCurrentTokenId()":"56189236","getPriceInMATIC()":"54a063ae","getRoyaltyReceiver()":"a5bd5235","getWhitelistCount()":"3edff20f","hasClaimedCompMint(address)":"289016ed","isApprovedForAll(address,address)":"e985e9c5","isBuyer(address)":"2a55feec","isCompMintRecipient(address)":"a69e689c","isMintingOpen()":"1a206910","isWhitelisted(address)":"3af32abf","keyHash()":"61728f39","mint(address,uint256)":"40c10f19","mintComp()":"ee1daa43","name()":"06fdde03","numWords()":"7ccfd7fc","ownerMint(uint256)":"f19e75d4","ownerMintCounter()":"77071052","ownerOf(uint256)":"6352211e","rawFulfillRandomWords(uint256,uint256[])":"1fe543e3","reducePrice(uint256)":"121925a2","remainingUris()":"e5750395","requestConfirmations()":"b0fb162f","royaltyInfo(uint256,uint256)":"2a55205a","safeTransferFrom(address,address,uint256)":"42842e0e","safeTransferFrom(address,address,uint256,bytes)":"b88d4fde","setApprovalForAll(address,bool)":"a22cb465","setRoyaltyReceiver(address)":"8dc251e3","subscriptionId()":"09c1ba2e","supportsInterface(bytes4)":"01ffc9a7","symbol()":"95d89b41","tokenByIndex(uint256)":"4f6ccce7","tokenIdToUriExtension(uint256)":"33fdcf52","tokenOfOwnerByIndex(address,uint256)":"2f745c59","tokenURI(uint256)":"c87b56dd","totalNumberOfBuyers()":"73416c24","totalSupply()":"18160ddd","transferFrom(address,address,uint256)":"23b872dd","whitelistCounter()":"26f27e6d"},"id":45}