{"abi":[{"type":"constructor","inputs":[{"name":"_vrfCoordinatorV2","type":"address","internalType":"address"},{"name":"_priceFeed","type":"address","internalType":"address"},{"name":"_governor","type":"address","internalType":"address"},{"name":"_paymentSplitter","type":"address","internalType":"address"},{"name":"_computedRaffleAddress","type":"address","internalType":"address"},{"name":"_owner","type":"address","internalType":"address"},{"name":"_presale","type":"uint256","internalType":"uint256"},{"name":"_saleOpen","type":"uint256","internalType":"uint256"},{"name":"_subscriptionId","type":"uint64","internalType":"uint64"},{"name":"_baseUri","type":"string","internalType":"string"}],"stateMutability":"nonpayable"},{"type":"function","name":"GOVERNOR","inputs":[],"outputs":[{"name":"","type":"address","internalType":"address"}],"stateMutability":"view"},{"type":"function","name":"MAX_COMP_MINTS","inputs":[],"outputs":[{"name":"","type":"uint16","internalType":"uint16"}],"stateMutability":"view"},{"type":"function","name":"MAX_MINTS_PER_TX","inputs":[],"outputs":[{"name":"","type":"uint16","internalType":"uint16"}],"stateMutability":"view"},{"type":"function","name":"MAX_OWNER_MINTS","inputs":[],"outputs":[{"name":"","type":"uint16","internalType":"uint16"}],"stateMutability":"view"},{"type":"function","name":"MAX_PRESALE_MINTS","inputs":[],"outputs":[{"name":"","type":"uint16","internalType":"uint16"}],"stateMutability":"view"},{"type":"function","name":"MAX_SUPPLY","inputs":[],"outputs":[{"name":"","type":"uint16","internalType":"uint16"}],"stateMutability":"view"},{"type":"function","name":"MAX_WHITELISTEES","inputs":[],"outputs":[{"name":"","type":"uint16","internalType":"uint16"}],"stateMutability":"view"},{"type":"function","name":"OWNER","inputs":[],"outputs":[{"name":"","type":"address","internalType":"address"}],"stateMutability":"view"},{"type":"function","name":"PAYMENT_SPLITTER","inputs":[],"outputs":[{"name":"","type":"address","internalType":"address"}],"stateMutability":"view"},{"type":"function","name":"PRESALE","inputs":[],"outputs":[{"name":"","type":"uint256","internalType":"uint256"}],"stateMutability":"view"},{"type":"function","name":"PRICEFEED","inputs":[],"outputs":[{"name":"","type":"address","internalType":"contract IPricefeed"}],"stateMutability":"view"},{"type":"function","name":"PRICE_IN_USD","inputs":[],"outputs":[{"name":"","type":"uint256","internalType":"uint256"}],"stateMutability":"view"},{"type":"function","name":"RAFFLE","inputs":[],"outputs":[{"name":"","type":"address","internalType":"contract IRaffle"}],"stateMutability":"view"},{"type":"function","name":"ROYALTY_BASIS_POINTS","inputs":[],"outputs":[{"name":"","type":"uint96","internalType":"uint96"}],"stateMutability":"view"},{"type":"function","name":"SALE_OPEN","inputs":[],"outputs":[{"name":"","type":"uint256","internalType":"uint256"}],"stateMutability":"view"},{"type":"function","name":"VRF_COORDINATOR","inputs":[],"outputs":[{"name":"","type":"address","internalType":"contract VRFCoordinatorV2Interface"}],"stateMutability":"view"},{"type":"function","name":"addRaffle2000Winners","inputs":[{"name":"_winners","type":"address[]","internalType":"address[]"}],"outputs":[],"stateMutability":"nonpayable"},{"type":"function","name":"addToWhitelist","inputs":[{"name":"_whitelistees","type":"address[]","internalType":"address[]"}],"outputs":[],"stateMutability":"nonpayable"},{"type":"function","name":"approve","inputs":[{"name":"to","type":"address","internalType":"address"},{"name":"tokenId","type":"uint256","internalType":"uint256"}],"outputs":[],"stateMutability":"nonpayable"},{"type":"function","name":"assignCompMint","inputs":[{"name":"_recipient","type":"address","internalType":"address"}],"outputs":[],"stateMutability":"nonpayable"},{"type":"function","name":"balanceOf","inputs":[{"name":"owner","type":"address","internalType":"address"}],"outputs":[{"name":"","type":"uint256","internalType":"uint256"}],"stateMutability":"view"},{"type":"function","name":"calculatePrice","inputs":[{"name":"_numberOfTokens","type":"uint256","internalType":"uint256"}],"outputs":[{"name":"","type":"uint256","internalType":"uint256"}],"stateMutability":"view"},{"type":"function","name":"callbackGasLimit","inputs":[],"outputs":[{"name":"","type":"uint32","internalType":"uint32"}],"stateMutability":"view"},{"type":"function","name":"compMintCounter","inputs":[],"outputs":[{"name":"","type":"uint8","internalType":"uint8"}],"stateMutability":"view"},{"type":"function","name":"getApproved","inputs":[{"name":"tokenId","type":"uint256","internalType":"uint256"}],"outputs":[{"name":"","type":"address","internalType":"address"}],"stateMutability":"view"},{"type":"function","name":"getBaseUri","inputs":[],"outputs":[{"name":"","type":"string","internalType":"string"}],"stateMutability":"view"},{"type":"function","name":"getBatchTokens","inputs":[{"name":"_requestId","type":"uint256","internalType":"uint256"}],"outputs":[{"name":"","type":"uint256[]","internalType":"uint256[]"}],"stateMutability":"view"},{"type":"function","name":"getBuyerByIndex","inputs":[{"name":"index","type":"uint256","internalType":"uint256"}],"outputs":[{"name":"","type":"address","internalType":"address"}],"stateMutability":"view"},{"type":"function","name":"getBuyers","inputs":[],"outputs":[{"name":"","type":"address[]","internalType":"address[]"}],"stateMutability":"view"},{"type":"function","name":"getCompMintCount","inputs":[],"outputs":[{"name":"","type":"uint256","internalType":"uint256"}],"stateMutability":"view"},{"type":"function","name":"getCurrentTokenId","inputs":[],"outputs":[{"name":"","type":"uint256","internalType":"uint256"}],"stateMutability":"view"},{"type":"function","name":"getPriceInMATIC","inputs":[],"outputs":[{"name":"","type":"uint256","internalType":"uint256"}],"stateMutability":"view"},{"type":"function","name":"getRoyaltyReceiver","inputs":[],"outputs":[{"name":"","type":"address","internalType":"address"}],"stateMutability":"view"},{"type":"function","name":"getWhitelistCount","inputs":[],"outputs":[{"name":"","type":"uint256","internalType":"uint256"}],"stateMutability":"view"},{"type":"function","name":"hasClaimedCompMint","inputs":[{"name":"user","type":"address","internalType":"address"}],"outputs":[{"name":"","type":"bool","internalType":"bool"}],"stateMutability":"view"},{"type":"function","name":"isApprovedForAll","inputs":[{"name":"owner","type":"address","internalType":"address"},{"name":"operator","type":"address","internalType":"address"}],"outputs":[{"name":"","type":"bool","internalType":"bool"}],"stateMutability":"view"},{"type":"function","name":"isBuyer","inputs":[{"name":"","type":"address","internalType":"address"}],"outputs":[{"name":"","type":"bool","internalType":"bool"}],"stateMutability":"view"},{"type":"function","name":"isCompMintRecipient","inputs":[{"name":"user","type":"address","internalType":"address"}],"outputs":[{"name":"","type":"bool","internalType":"bool"}],"stateMutability":"view"},{"type":"function","name":"isMintingOpen","inputs":[],"outputs":[{"name":"","type":"bool","internalType":"bool"}],"stateMutability":"view"},{"type":"function","name":"isWhitelisted","inputs":[{"name":"user","type":"address","internalType":"address"}],"outputs":[{"name":"","type":"bool","internalType":"bool"}],"stateMutability":"view"},{"type":"function","name":"keyHash","inputs":[],"outputs":[{"name":"","type":"bytes32","internalType":"bytes32"}],"stateMutability":"view"},{"type":"function","name":"mint","inputs":[{"name":"_to","type":"address","internalType":"address"},{"name":"_numberOfTokens","type":"uint256","internalType":"uint256"}],"outputs":[{"name":"","type":"uint256","internalType":"uint256"}],"stateMutability":"payable"},{"type":"function","name":"mintComp","inputs":[],"outputs":[{"name":"","type":"uint256","internalType":"uint256"}],"stateMutability":"nonpayable"},{"type":"function","name":"name","inputs":[],"outputs":[{"name":"","type":"string","internalType":"string"}],"stateMutability":"view"},{"type":"function","name":"numWords","inputs":[],"outputs":[{"name":"","type":"uint32","internalType":"uint32"}],"stateMutability":"view"},{"type":"function","name":"ownerMint","inputs":[{"name":"_numberOfTokens","type":"uint16","internalType":"uint16"}],"outputs":[{"name":"requestId","type":"uint256","internalType":"uint256"}],"stateMutability":"nonpayable"},{"type":"function","name":"ownerMintCounter","inputs":[],"outputs":[{"name":"","type":"uint16","internalType":"uint16"}],"stateMutability":"view"},{"type":"function","name":"ownerOf","inputs":[{"name":"tokenId","type":"uint256","internalType":"uint256"}],"outputs":[{"name":"","type":"address","internalType":"address"}],"stateMutability":"view"},{"type":"function","name":"rawFulfillRandomWords","inputs":[{"name":"requestId","type":"uint256","internalType":"uint256"},{"name":"randomWords","type":"uint256[]","internalType":"uint256[]"}],"outputs":[],"stateMutability":"nonpayable"},{"type":"function","name":"reducePrice","inputs":[{"name":"_newPriceInUSD","type":"uint256","internalType":"uint256"}],"outputs":[],"stateMutability":"nonpayable"},{"type":"function","name":"remainingUris","inputs":[],"outputs":[{"name":"","type":"uint256","internalType":"uint256"}],"stateMutability":"view"},{"type":"function","name":"requestConfirmations","inputs":[],"outputs":[{"name":"","type":"uint16","internalType":"uint16"}],"stateMutability":"view"},{"type":"function","name":"royaltyInfo","inputs":[{"name":"_tokenId","type":"uint256","internalType":"uint256"},{"name":"_salePrice","type":"uint256","internalType":"uint256"}],"outputs":[{"name":"receiver","type":"address","internalType":"address"},{"name":"royaltyAmount","type":"uint256","internalType":"uint256"}],"stateMutability":"view"},{"type":"function","name":"safeTransferFrom","inputs":[{"name":"from","type":"address","internalType":"address"},{"name":"to","type":"address","internalType":"address"},{"name":"tokenId","type":"uint256","internalType":"uint256"}],"outputs":[],"stateMutability":"nonpayable"},{"type":"function","name":"safeTransferFrom","inputs":[{"name":"from","type":"address","internalType":"address"},{"name":"to","type":"address","internalType":"address"},{"name":"tokenId","type":"uint256","internalType":"uint256"},{"name":"data","type":"bytes","internalType":"bytes"}],"outputs":[],"stateMutability":"nonpayable"},{"type":"function","name":"setApprovalForAll","inputs":[{"name":"operator","type":"address","internalType":"address"},{"name":"approved","type":"bool","internalType":"bool"}],"outputs":[],"stateMutability":"nonpayable"},{"type":"function","name":"setRoyaltyReceiver","inputs":[{"name":"_newReceiver","type":"address","internalType":"address"}],"outputs":[],"stateMutability":"nonpayable"},{"type":"function","name":"subscriptionId","inputs":[],"outputs":[{"name":"","type":"uint64","internalType":"uint64"}],"stateMutability":"view"},{"type":"function","name":"supportsInterface","inputs":[{"name":"interfaceId","type":"bytes4","internalType":"bytes4"}],"outputs":[{"name":"","type":"bool","internalType":"bool"}],"stateMutability":"view"},{"type":"function","name":"symbol","inputs":[],"outputs":[{"name":"","type":"string","internalType":"string"}],"stateMutability":"view"},{"type":"function","name":"tokenByIndex","inputs":[{"name":"index","type":"uint256","internalType":"uint256"}],"outputs":[{"name":"","type":"uint256","internalType":"uint256"}],"stateMutability":"view"},{"type":"function","name":"tokenIdToUriExtension","inputs":[{"name":"","type":"uint256","internalType":"uint256"}],"outputs":[{"name":"","type":"uint256","internalType":"uint256"}],"stateMutability":"view"},{"type":"function","name":"tokenOfOwnerByIndex","inputs":[{"name":"owner","type":"address","internalType":"address"},{"name":"index","type":"uint256","internalType":"uint256"}],"outputs":[{"name":"","type":"uint256","internalType":"uint256"}],"stateMutability":"view"},{"type":"function","name":"tokenURI","inputs":[{"name":"_tokenId","type":"uint256","internalType":"uint256"}],"outputs":[{"name":"","type":"string","internalType":"string"}],"stateMutability":"view"},{"type":"function","name":"totalNumberOfBuyers","inputs":[],"outputs":[{"name":"","type":"uint256","internalType":"uint256"}],"stateMutability":"view"},{"type":"function","name":"totalSupply","inputs":[],"outputs":[{"name":"","type":"uint256","internalType":"uint256"}],"stateMutability":"view"},{"type":"function","name":"transferFrom","inputs":[{"name":"from","type":"address","internalType":"address"},{"name":"to","type":"address","internalType":"address"},{"name":"tokenId","type":"uint256","internalType":"uint256"}],"outputs":[],"stateMutability":"nonpayable"},{"type":"function","name":"whitelistCounter","inputs":[],"outputs":[{"name":"","type":"uint16","internalType":"uint16"}],"stateMutability":"view"},{"type":"event","name":"Approval","inputs":[{"name":"owner","type":"address","indexed":true,"internalType":"address"},{"name":"approved","type":"address","indexed":true,"internalType":"address"},{"name":"tokenId","type":"uint256","indexed":true,"internalType":"uint256"}],"anonymous":false},{"type":"event","name":"ApprovalForAll","inputs":[{"name":"owner","type":"address","indexed":true,"internalType":"address"},{"name":"operator","type":"address","indexed":true,"internalType":"address"},{"name":"approved","type":"bool","indexed":false,"internalType":"bool"}],"anonymous":false},{"type":"event","name":"RaffleWinnersAdded","inputs":[{"name":"winners","type":"address[]","indexed":false,"internalType":"address[]"}],"anonymous":false},{"type":"event","name":"RoyaltyReceiverChanged","inputs":[{"name":"newReceiver","type":"address","indexed":false,"internalType":"address"}],"anonymous":false},{"type":"event","name":"TokenPriceChanged","inputs":[{"name":"newPrice","type":"uint256","indexed":false,"internalType":"uint256"}],"anonymous":false},{"type":"event","name":"Transfer","inputs":[{"name":"from","type":"address","indexed":true,"internalType":"address"},{"name":"to","type":"address","indexed":true,"internalType":"address"},{"name":"tokenId","type":"uint256","indexed":true,"internalType":"uint256"}],"anonymous":false},{"type":"event","name":"VRFRequestCreated","inputs":[{"name":"requestId","type":"uint256","indexed":false,"internalType":"uint256"}],"anonymous":false},{"type":"error","name":"ERC721EnumerableForbiddenBatchMint","inputs":[]},{"type":"error","name":"ERC721IncorrectOwner","inputs":[{"name":"sender","type":"address","internalType":"address"},{"name":"tokenId","type":"uint256","internalType":"uint256"},{"name":"owner","type":"address","internalType":"address"}]},{"type":"error","name":"ERC721InsufficientApproval","inputs":[{"name":"operator","type":"address","internalType":"address"},{"name":"tokenId","type":"uint256","internalType":"uint256"}]},{"type":"error","name":"ERC721InvalidApprover","inputs":[{"name":"approver","type":"address","internalType":"address"}]},{"type":"error","name":"ERC721InvalidOperator","inputs":[{"name":"operator","type":"address","internalType":"address"}]},{"type":"error","name":"ERC721InvalidOwner","inputs":[{"name":"owner","type":"address","internalType":"address"}]},{"type":"error","name":"ERC721InvalidReceiver","inputs":[{"name":"receiver","type":"address","internalType":"address"}]},{"type":"error","name":"ERC721InvalidSender","inputs":[{"name":"sender","type":"address","internalType":"address"}]},{"type":"error","name":"ERC721NonexistentToken","inputs":[{"name":"tokenId","type":"uint256","internalType":"uint256"}]},{"type":"error","name":"ERC721OutOfBoundsIndex","inputs":[{"name":"owner","type":"address","internalType":"address"},{"name":"index","type":"uint256","internalType":"uint256"}]},{"type":"error","name":"OnlyCoordinatorCanFulfill","inputs":[{"name":"have","type":"address","internalType":"address"},{"name":"want","type":"address","internalType":"address"}]},{"type":"error","name":"OrcNation__CompMintAlreadyAssignedToAddress","inputs":[]},{"type":"error","name":"OrcNation__CompMintAlreadyClaimed","inputs":[]},{"type":"error","name":"OrcNation__InsufficientPayment","inputs":[{"name":"paymentDue","type":"uint256","internalType":"uint256"}]},{"type":"error","name":"OrcNation__InvalidNewPrice","inputs":[]},{"type":"error","name":"OrcNation__InvalidSaleTime","inputs":[]},{"type":"error","name":"OrcNation__MaxCompMintsExceeded","inputs":[]},{"type":"error","name":"OrcNation__MaxMintsPerTransactionExceeded","inputs":[]},{"type":"error","name":"OrcNation__MaxThreePresaleMintsPerWhitelistedAddress","inputs":[]},{"type":"error","name":"OrcNation__MintingNotOpen","inputs":[]},{"type":"error","name":"OrcNation__MustMintAtLeastOneToken","inputs":[]},{"type":"error","name":"OrcNation__NotEligibleForCompMint","inputs":[]},{"type":"error","name":"OrcNation__NotWhitelisted","inputs":[]},{"type":"error","name":"OrcNation__OnlyAdmin","inputs":[]},{"type":"error","name":"OrcNation__OnlyGovernor","inputs":[]},{"type":"error","name":"OrcNation__OnlyOwner","inputs":[]},{"type":"error","name":"OrcNation__OnlyRaffle","inputs":[]},{"type":"error","name":"OrcNation__PriceFeedAnswerNegative","inputs":[]},{"type":"error","name":"OrcNation__RaffleNotComplete","inputs":[]},{"type":"error","name":"OrcNation__TokenDoesNotExist","inputs":[]},{"type":"error","name":"OrcNation__WillExceedMaxOwnerMints","inputs":[]},{"type":"error","name":"OrcNation__WillExceedMaxSupply","inputs":[]},{"type":"error","name":"OrcNation__WillExceedMaxWhitelistees","inputs":[]}],"bytecode":{"object":"0x6101a06040526041600a55612710600e557f4b09e658ed251bcafeebbc69400383d49f344ace09b9576fe248bb02c003fe9f60175560188054600160401b600160901b0319166e01000f4240000300000000000000001790553480156200006557600080fd5b5060405162003e9d38038062003e9d83398101604081905262000088916200029f565b896040518060400160405280600981526020016827b931a730ba34b7b760b91b815250604051806040016040528060048152602001634f52435360e01b8152508160009081620000d9919062000413565b506001620000e8828262000413565b5050506001600160a01b0316608052428410806200010557508383105b1562000124576040516336e24cf360e01b815260040160405180910390fd5b6001600160a01b038a811660a05289811660c05288811661012052871661010052600b8054600160281b600160c81b031916336501000000000002179055600c62000170828262000413565b50506101609290925261018052601880546001600160401b0319166001600160401b039092169190911790556001600160a01b0391821660e052166101405250620004df92505050565b80516001600160a01b0381168114620001d257600080fd5b919050565b634e487b7160e01b600052604160045260246000fd5b600082601f830112620001ff57600080fd5b81516001600160401b03808211156200021c576200021c620001d7565b604051601f8301601f19908116603f01168101908282118183101715620002475762000247620001d7565b81604052838152602092508660208588010111156200026557600080fd5b600091505b838210156200028957858201830151818301840152908201906200026a565b6000602085830101528094505050505092915050565b6000806000806000806000806000806101408b8d031215620002c057600080fd5b620002cb8b620001ba565b9950620002db60208c01620001ba565b9850620002eb60408c01620001ba565b9750620002fb60608c01620001ba565b96506200030b60808c01620001ba565b95506200031b60a08c01620001ba565b60c08c015160e08d01516101008e015192975090955093506001600160401b0380821682146200034a57600080fd5b6101208d0151919350808211156200036157600080fd5b50620003708d828e01620001ed565b9150509295989b9194979a5092959850565b600181811c908216806200039757607f821691505b602082108103620003b857634e487b7160e01b600052602260045260246000fd5b50919050565b601f8211156200040e576000816000526020600020601f850160051c81016020861015620003e95750805b601f850160051c820191505b818110156200040a57828155600101620003f5565b5050505b505050565b81516001600160401b038111156200042f576200042f620001d7565b620004478162000440845462000382565b84620003be565b602080601f8311600181146200047f5760008415620004665750858301515b600019600386901b1c1916600185901b1785556200040a565b600085815260208120601f198616915b82811015620004b0578886015182559484019460019091019084016200048f565b5085821015620004cf5787850151600019600388901b60f8161c191681555b5050505050600190811b01905550565b60805160a05160c05160e05161010051610120516101405161016051610180516138c1620005dc60003960008181610abe015281816112b80152611cc40152600081816105aa01528181610c280152818161124c0152818161128d01528181611c990152611e5a01526000818161053a015261115e0152600081816109c101528181610ed90152818161184401528181611a450152611bb7015260008181610b7901526113d801526000818161098d015281816114d801528181612bb40152612c47015260008181610ce7015281816116bf015261176b01526000818161043b01526129ff015260008181610f8a0152610fcc01526138c16000f3fe6080604052600436106103ef5760003560e01c806361728f3911610208578063a5f0292b11610118578063c87b56dd116100ab578063e57503951161007a578063e575039514610d09578063e8c93ec914610d1f578063e985e9c514610d4c578063ee1daa4314610d6c578063f64bfaba14610d8157600080fd5b8063c87b56dd14610c95578063d5a9dea414610cb5578063d8f4d5d014610cd5578063dbdbbc9114610c6a57600080fd5b8063b4cf5648116100e7578063b4cf564814610c16578063b88d4fde14610c4a578063c5f8776c14610c6a578063c6a91b4214610c8057600080fd5b8063a5f0292b14610b67578063a69e689c14610b9b578063ae10426514610bd4578063b0fb162f14610bf457600080fd5b80637ccfd7fc1161019b578063914db51a1161016a578063914db51a14610ae05780639208383a14610af657806395d89b4114610b0b578063a22cb46514610b20578063a5bd523514610b4057600080fd5b80637ccfd7fc14610a485780637f64978314610a6c5780638dc251e314610a8c5780638e26d2aa14610aac57600080fd5b806370a08231116101d757806370a08231146109e35780637263c07e14610a0357806373416c2414610a185780637707105214610a2d57600080fd5b806361728f39146109455780636352211e1461095b5780636c70e8511461097b5780636dc0ae22146109af57600080fd5b80632a55feec1161030357806340c10f19116102965780634f6ccce7116102655780634f6ccce7146108bb57806354a063ae146108db57806356189236146108f05780635a59d966146109055780635ab9120c1461092557600080fd5b806340c10f191461083457806342842e0e146108475780634404ee84146108675780634654e6d61461088757600080fd5b806336e8942f116102d257806336e8942f146107895780633af32abf146107a95780633c404a9c146107e25780633edff20f1461081557600080fd5b80632a55feec146106f65780632f745c591461072657806332cb6b0c1461074657806333fdcf521461075c57600080fd5b8063121925a21161038657806323b872dd1161035557806323b872dd146105f157806324f746971461061157806326f27e6d1461064a578063289016ed1461067e5780632a55205a146106b757600080fd5b8063121925a21461055c57806318160ddd1461057c5780631a2069101461059b5780631fe543e3146105d157600080fd5b8063095ea7b3116103c2578063095ea7b3146104b757806309c1ba2e146104d95780630cac36b214610513578063117803e31461052857600080fd5b806301ffc9a7146103f457806305f6a9241461042957806306fdde0314610475578063081812fc14610497575b600080fd5b34801561040057600080fd5b5061041461040f366004612ebc565b610da3565b60405190151581526020015b60405180910390f35b34801561043557600080fd5b5061045d7f000000000000000000000000000000000000000000000000000000000000000081565b6040516001600160a01b039091168152602001610420565b34801561048157600080fd5b5061048a610df5565b6040516104209190612f29565b3480156104a357600080fd5b5061045d6104b2366004612f3c565b610e87565b3480156104c357600080fd5b506104d76104d2366004612f71565b610eb0565b005b3480156104e557600080fd5b506018546104fa9067ffffffffffffffff1681565b60405167ffffffffffffffff9091168152602001610420565b34801561051f57600080fd5b5061048a610ebf565b34801561053457600080fd5b5061045d7f000000000000000000000000000000000000000000000000000000000000000081565b34801561056857600080fd5b506104d7610577366004612f3c565b610ece565b34801561058857600080fd5b506008545b604051908152602001610420565b3480156105a757600080fd5b507f0000000000000000000000000000000000000000000000000000000000000000421015610414565b3480156105dd57600080fd5b506104d76105ec366004612fe2565b610f7f565b3480156105fd57600080fd5b506104d761060c366004613094565b611008565b34801561061d57600080fd5b5060185461063590600160501b900463ffffffff1681565b60405163ffffffff9091168152602001610420565b34801561065657600080fd5b50600b5461066b9062010000900461ffff1681565b60405161ffff9091168152602001610420565b34801561068a57600080fd5b506104146106993660046130d0565b6001600160a01b031660009081526014602052604090205460ff1690565b3480156106c357600080fd5b506106d76106d23660046130eb565b611093565b604080516001600160a01b039093168352602083019190915201610420565b34801561070257600080fd5b506104146107113660046130d0565b60166020526000908152604090205460ff1681565b34801561073257600080fd5b5061058d610741366004612f71565b6110ec565b34801561075257600080fd5b5061066b61271081565b34801561076857600080fd5b5061058d610777366004612f3c565b60116020526000908152604090205481565b34801561079557600080fd5b5061058d6107a436600461310d565b611151565b3480156107b557600080fd5b506104146107c43660046130d0565b6001600160a01b031660009081526012602052604090205460ff1690565b3480156107ee57600080fd5b506107f86101f481565b6040516bffffffffffffffffffffffff9091168152602001610420565b34801561082157600080fd5b50600b5462010000900461ffff1661058d565b61058d610842366004612f71565b611248565b34801561085357600080fd5b506104d7610862366004613094565b6114ad565b34801561087357600080fd5b506104d7610882366004613131565b6114cd565b34801561089357600080fd5b50600b546108a990640100000000900460ff1681565b60405160ff9091168152602001610420565b3480156108c757600080fd5b5061058d6108d6366004612f3c565b611661565b3480156108e757600080fd5b5061058d6116ba565b3480156108fc57600080fd5b50600d5461058d565b34801561091157600080fd5b50600b54640100000000900460ff1661058d565b34801561093157600080fd5b506104d76109403660046130d0565b61182f565b34801561095157600080fd5b5061058d60175481565b34801561096757600080fd5b5061045d610976366004612f3c565b6119dd565b34801561098757600080fd5b5061045d7f000000000000000000000000000000000000000000000000000000000000000081565b3480156109bb57600080fd5b5061045d7f000000000000000000000000000000000000000000000000000000000000000081565b3480156109ef57600080fd5b5061058d6109fe3660046130d0565b6119e8565b348015610a0f57600080fd5b5061066b603281565b348015610a2457600080fd5b5060155461058d565b348015610a3957600080fd5b50600b5461066b9061ffff1681565b348015610a5457600080fd5b5060185461063590600160701b900463ffffffff1681565b348015610a7857600080fd5b506104d7610a87366004613131565b611a30565b348015610a9857600080fd5b506104d7610aa73660046130d0565b611bac565b348015610ab857600080fd5b5061058d7f000000000000000000000000000000000000000000000000000000000000000081565b348015610aec57600080fd5b5061058d600a5481565b348015610b0257600080fd5b5061066b600381565b348015610b1757600080fd5b5061048a611c65565b348015610b2c57600080fd5b506104d7610b3b3660046131b4565b611c74565b348015610b4c57600080fd5b50600b546501000000000090046001600160a01b031661045d565b348015610b7357600080fd5b5061045d7f000000000000000000000000000000000000000000000000000000000000000081565b348015610ba757600080fd5b50610414610bb63660046130d0565b6001600160a01b031660009081526013602052604090205460ff1690565b348015610be057600080fd5b5061058d610bef366004612f3c565b611c7f565b348015610c0057600080fd5b5060185461066b90600160401b900461ffff1681565b348015610c2257600080fd5b5061058d7f000000000000000000000000000000000000000000000000000000000000000081565b348015610c5657600080fd5b506104d7610c653660046131eb565b611d09565b348015610c7657600080fd5b5061066b6101f481565b348015610c8c57600080fd5b5061066b600a81565b348015610ca157600080fd5b5061048a610cb0366004612f3c565b611d20565b348015610cc157600080fd5b5061045d610cd0366004612f3c565b611d96565b348015610ce157600080fd5b5061045d7f000000000000000000000000000000000000000000000000000000000000000081565b348015610d1557600080fd5b5061058d600e5481565b348015610d2b57600080fd5b50610d3f610d3a366004612f3c565b611dc6565b60405161042091906132ab565b348015610d5857600080fd5b50610414610d673660046132ef565b611e28565b348015610d7857600080fd5b5061058d611e56565b348015610d8d57600080fd5b50610d96611f2c565b6040516104209190613322565b60006301ffc9a760e01b6001600160e01b031983161480610dd457506380ac58cd60e01b6001600160e01b03198316145b80610def575063152a902d60e11b6001600160e01b03198316145b92915050565b606060008054610e0490613363565b80601f0160208091040260200160405190810160405280929190818152602001828054610e3090613363565b8015610e7d5780601f10610e5257610100808354040283529160200191610e7d565b820191906000526020600020905b815481529060010190602001808311610e6057829003601f168201915b5050505050905090565b6000610e9282611f8d565b506000828152600460205260409020546001600160a01b0316610def565b610ebb828233611fc6565b5050565b6060600c8054610e0490613363565b336001600160a01b037f00000000000000000000000000000000000000000000000000000000000000001614610f165760405162ac0b2f60e41b815260040160405180910390fd5b6020811080610f255750606181115b15610f4357604051631d0bf16360e31b815260040160405180910390fd5b600a8190556040518181527fac21bacd333b316c6640fca5086322638b0a7aa4367179afd5dfcbe0a5427bc7906020015b60405180910390a150565b336001600160a01b037f00000000000000000000000000000000000000000000000000000000000000001614610ffe5760405163073e64fd60e21b81523360048201526001600160a01b037f00000000000000000000000000000000000000000000000000000000000000001660248201526044015b60405180910390fd5b610ebb8282611fd3565b6001600160a01b03821661103257604051633250574960e11b815260006004820152602401610ff5565b600061103f8383336120c2565b9050836001600160a01b0316816001600160a01b03161461108d576040516364283d7b60e01b81526001600160a01b0380861660048301526024820184905282166044820152606401610ff5565b50505050565b600080806110a0856119dd565b6001600160a01b0316036110b357600080fd5b600b546501000000000090046001600160a01b03166127106110d76101f4866133b3565b6110e191906133e0565b915091509250929050565b60006110f7836119e8565b82106111285760405163295f44f760e21b81526001600160a01b038416600482015260248101839052604401610ff5565b506001600160a01b03919091166000908152600660209081526040808320938352929052205490565b6000336001600160a01b037f0000000000000000000000000000000000000000000000000000000000000000161461119c57604051632973c9b760e11b815260040160405180910390fd5b600b546101f4906111b19061ffff16846133f4565b61ffff1611156111d45760405163c64fc4cb60e01b815260040160405180910390fd5b600a61ffff831611156111fa5760405163416296fd60e01b815260040160405180910390fd5b6112078261ffff16612197565b600b805483919060009061122090849061ffff166133f4565b92506101000a81548161ffff021916908361ffff160217905550610def338361ffff166121cb565b60007f000000000000000000000000000000000000000000000000000000000000000042101561128b5760405163f0b9693f60e01b815260040160405180910390fd5b7f000000000000000000000000000000000000000000000000000000000000000042101580156112da57507f000000000000000000000000000000000000000000000000000000000000000042105b1561134d576001600160a01b03831660009081526012602052604090205460ff166113185760405163cb060eb160e01b815260040160405180910390fd5b600382611324856119e8565b61132e9190613416565b111561134d576040516380b2c43f60e01b815260040160405180910390fd5b600182101561136f5760405163ea1112df60e01b815260040160405180910390fd5b600a8211156113915760405163416296fd60e01b815260040160405180910390fd5b61139a82612197565b60006113a583611c7f565b9050803410156113cb576040516334272af160e01b815260048101829052602401610ff5565b6113d4846122a4565b60007f00000000000000000000000000000000000000000000000000000000000000006001600160a01b03163460405160006040518083038185875af1925050503d8060008114611441576040519150601f19603f3d011682016040523d82523d6000602084013e611446565b606091505b50509050806114975760405162461bcd60e51b815260206004820152601760248201527f5061796d656e74207472616e73666572206661696c65640000000000000000006044820152606401610ff5565b60006114a386866121cb565b9695505050505050565b6114c883838360405180602001604052806000815250611d09565b505050565b336001600160a01b037f000000000000000000000000000000000000000000000000000000000000000016146115165760405163726c530160e01b815260040160405180910390fd5b60005b818110156116235760016013600085858581811061153957611539613429565b905060200201602081019061154e91906130d0565b6001600160a01b0316815260208101919091526040016000908120805460ff19169215159290921790915560149084848481811061158e5761158e613429565b90506020020160208101906115a391906130d0565b6001600160a01b0316815260208101919091526040016000205460ff161561161b576000601460008585858181106115dd576115dd613429565b90506020020160208101906115f291906130d0565b6001600160a01b031681526020810191909152604001600020805460ff19169115159190911790555b600101611519565b507f743d27e70dad1517ab7a2613a62cb57ea1ac4d6c0ca6d489bfbb5b468400f5d9828260405161165592919061343f565b60405180910390a15050565b600061166c60085490565b82106116955760405163295f44f760e21b81526000600482015260248101839052604401610ff5565b600882815481106116a8576116a8613429565b90600052602060002001549050919050565b6000807f00000000000000000000000000000000000000000000000000000000000000006001600160a01b031663feaf968c6040518163ffffffff1660e01b815260040160a060405180830381865afa15801561171b573d6000803e3d6000fd5b505050506040513d601f19601f8201168201806040525081019061173f91906134a5565b505050915050600081121561176757604051632bea283f60e11b815260040160405180910390fd5b60007f00000000000000000000000000000000000000000000000000000000000000006001600160a01b031663313ce5676040518163ffffffff1660e01b8152600401602060405180830381865afa1580156117c7573d6000803e3d6000fd5b505050506040513d601f19601f820116820180604052508101906117eb91906134f5565b6117f690600a6135fc565b90506000600a54670de0b6b3a764000061181091906133b3565b90508161181d848361360b565b6118279190613639565b935050505090565b604051630935e01b60e21b81523360048201527f00000000000000000000000000000000000000000000000000000000000000006001600160a01b0316906324d7806c90602401602060405180830381865afa158015611893573d6000803e3d6000fd5b505050506040513d601f19601f820116820180604052508101906118b79190613669565b6118d4576040516354fe416f60e01b815260040160405180910390fd5b600b546032906118f090640100000000900460ff166001613686565b60ff16111561191257604051630138ee3960e31b815260040160405180910390fd5b600b805460049061192d90640100000000900460ff1661369f565b82546101009290920a60ff8181021990931691831602179091556001600160a01b038216600090815260146020526040902054161561197f57604051632d11162b60e21b815260040160405180910390fd5b6001600160a01b03811660009081526013602052604090205460ff16156119b9576040516348c3a61560e11b815260040160405180910390fd5b6001600160a01b03166000908152601360205260409020805460ff19166001179055565b6000610def82611f8d565b60006001600160a01b038216611a14576040516322718ad960e21b815260006004820152602401610ff5565b506001600160a01b031660009081526003602052604090205490565b604051630935e01b60e21b81523360048201527f00000000000000000000000000000000000000000000000000000000000000006001600160a01b0316906324d7806c90602401602060405180830381865afa158015611a94573d6000803e3d6000fd5b505050506040513d601f19601f82011682018060405250810190611ab89190613669565b611ad5576040516354fe416f60e01b815260040160405180910390fd5b600b546101f490611af190839062010000900461ffff16613416565b1115611b10576040516354f4fdbf60e11b815260040160405180910390fd5b60005b818110156114c857600b8054600290611b359062010000900461ffff166136be565b91906101000a81548161ffff021916908361ffff160217905550600160126000858585818110611b6757611b67613429565b9050602002016020810190611b7c91906130d0565b6001600160a01b031681526020810191909152604001600020805460ff1916911515919091179055600101611b13565b336001600160a01b037f00000000000000000000000000000000000000000000000000000000000000001614611bf45760405162ac0b2f60e41b815260040160405180910390fd5b6001600160a01b038116611c0757600080fd5b600b805465010000000000600160c81b031916650100000000006001600160a01b038416908102919091179091556040519081527ff18ed8da4fbddf768618d066780de11fb9a756a8b30128c77e6a128500b65a3190602001610f74565b606060018054610e0490613363565b610ebb33838361232b565b60008082611c8b6116ba565b611c9591906133b3565b90507f00000000000000000000000000000000000000000000000000000000000000004210158015611ce657507f000000000000000000000000000000000000000000000000000000000000000042105b15610def576064611cf88260556133b3565b611d0291906133e0565b9392505050565b611d14848484611008565b61108d848484846123ca565b60606000611d2d836119dd565b6001600160a01b031603611d545760405163039530c360e61b815260040160405180910390fd5b600082815260116020526040902054600c90611d6f906124f3565b604051602001611d809291906136fb565b6040516020818303038152906040529050919050565b600060158281548110611dab57611dab613429565b6000918252602090912001546001600160a01b031692915050565b6000818152600f6020908152604091829020805483518184028101840190945280845260609392830182828015611e1c57602002820191906000526020600020905b815481526020019060010190808311611e08575b50505050509050919050565b6001600160a01b03918216600090815260056020908152604080832093909416825291909152205460ff1690565b60007f0000000000000000000000000000000000000000000000000000000000000000421015611e995760405163f0b9693f60e01b815260040160405180910390fd5b3360009081526013602052604090205460ff16611ec957604051631624b2cf60e11b815260040160405180910390fd5b3360009081526014602052604090205460ff1615611efa57604051632d11162b60e21b815260040160405180910390fd5b611f046001612197565b336000818152601460205260408120805460ff191660019081179091559091610def916121cb565b60606015805480602002602001604051908101604052809291908181526020018280548015610e7d57602002820191906000526020600020905b81546001600160a01b03168152600190910190602001808311611f66575050505050905090565b6000818152600260205260408120546001600160a01b031680610def57604051637e27328960e01b815260048101849052602401610ff5565b6114c88383836001612586565b600e5460005b6000848152600f60205260409020548110156120ba576000828460008151811061200557612005613429565b602002602001015183604051602001612028929190918252602082015260400190565b6040516020818303038152906040528051906020012060001c61204b91906137b5565b90506000612059828561268c565b90508060116000600f60008a8152602001908152602001600020868154811061208457612084613429565b9060005260206000200154815260200190815260200160002081905550836120ab906137c9565b93508260010192505050611fd9565b50600e555050565b6000806120d085858561270d565b90506001600160a01b03811661212d5761212884600880546000838152600960205260408120829055600182018355919091527ff3f7a9fe364faab93b216da50a3214154f22a0a2b415b23a84c8169e8b636ee30155565b612150565b846001600160a01b0316816001600160a01b031614612150576121508185612806565b6001600160a01b03851661216c5761216784612897565b61218f565b846001600160a01b0316816001600160a01b03161461218f5761218f8585612946565b949350505050565b600d54612710906121a9908390613416565b11156121c85760405163229ed32160e01b815260040160405180910390fd5b50565b6000806121d6612996565b905060008367ffffffffffffffff8111156121f3576121f3612f9b565b60405190808252806020026020018201604052801561221c578160200160208202803683370190505b50905060005b8481101561227357600d60008154612239906137e0565b90915550600d5461224b908790612aaa565b600d5482828151811061226057612260613429565b6020908102919091010152600101612222565b506000828152600f60209081526040909120825161229392840190612e46565b5061229c612b0f565b509392505050565b6001600160a01b03811660009081526016602052604090205460ff166121c8576015805460018181019092557f55f448fdea98c4d29eb340757ef0a66cd03dbb9538908a6a81d96026b71ec4750180546001600160a01b0384166001600160a01b031990911681179091556000908152601660205260409020805460ff1916909117905550565b6001600160a01b03821661235d57604051630b61174360e31b81526001600160a01b0383166004820152602401610ff5565b6001600160a01b03838116600081815260056020908152604080832094871680845294825291829020805460ff191686151590811790915591519182527f17307eab39ab6107e8899845ad3d59bd9653f200f220920489ca2b5937696c31910160405180910390a3505050565b6001600160a01b0383163b1561108d57604051630a85bd0160e11b81526001600160a01b0384169063150b7a029061240c9033908890879087906004016137f9565b6020604051808303816000875af1925050508015612447575060408051601f3d908101601f191682019092526124449181019061382c565b60015b6124b0573d808015612475576040519150601f19603f3d011682016040523d82523d6000602084013e61247a565b606091505b5080516000036124a857604051633250574960e11b81526001600160a01b0385166004820152602401610ff5565b805181602001fd5b6001600160e01b03198116630a85bd0160e11b146124ec57604051633250574960e11b81526001600160a01b0385166004820152602401610ff5565b5050505050565b6060600061250083612ca7565b600101905060008167ffffffffffffffff81111561252057612520612f9b565b6040519080825280601f01601f19166020018201604052801561254a576020820181803683370190505b5090508181016020015b600019016f181899199a1a9b1b9c1cb0b131b232b360811b600a86061a8153600a850494508461255457509392505050565b808061259a57506001600160a01b03821615155b1561265c5760006125aa84611f8d565b90506001600160a01b038316158015906125d65750826001600160a01b0316816001600160a01b031614155b80156125e957506125e78184611e28565b155b156126125760405163a9fbf51f60e01b81526001600160a01b0384166004820152602401610ff5565b811561265a5783856001600160a01b0316826001600160a01b03167f8c5be1e5ebec7d5bd14f71427d1e84f3dd0314c0f7b2291e5b200ac8c7c3b92560405160405180910390a45b505b5050600090815260046020526040902080546001600160a01b0319166001600160a01b0392909216919091179055565b600082815260106020526040812054816126a7600185613849565b60008181526010602052604081205491925083156126c557836126c7565b865b90508287146126ee5781156126dc57816126de565b825b6000888152601060205260409020555b81156114a3576000838152601060205260408120559695505050505050565b6000828152600260205260408120546001600160a01b039081169083161561273a5761273a818486612d7f565b6001600160a01b0381161561277857612757600085600080612586565b6001600160a01b038116600090815260036020526040902080546000190190555b6001600160a01b038516156127a7576001600160a01b0385166000908152600360205260409020805460010190555b60008481526002602052604080822080546001600160a01b0319166001600160a01b0389811691821790925591518793918516917fddf252ad1be2c89b69c2b068fc378daa952ba7f163c4a11628f55a4df523b3ef91a4949350505050565b6000612811836119e8565b600083815260076020526040902054909150808214612864576001600160a01b03841660009081526006602090815260408083208584528252808320548484528184208190558352600790915290208190555b5060009182526007602090815260408084208490556001600160a01b039094168352600681528383209183525290812055565b6008546000906128a990600190613849565b600083815260096020526040812054600880549394509092849081106128d1576128d1613429565b9060005260206000200154905080600883815481106128f2576128f2613429565b600091825260208083209091019290925582815260099091526040808220849055858252812055600880548061292a5761292a61385c565b6001900381819060005260206000200160009055905550505050565b60006001612953846119e8565b61295d9190613849565b6001600160a01b039093166000908152600660209081526040808320868452825280832085905593825260079052919091209190915550565b6017546018546040516305d3b1d360e41b8152600481019290925267ffffffffffffffff8116602483015261ffff600160401b820416604483015263ffffffff600160501b820481166064840152600160701b9091041660848201526000906001600160a01b037f00000000000000000000000000000000000000000000000000000000000000001690635d3b1d309060a4016020604051808303816000875af1158015612a48573d6000803e3d6000fd5b505050506040513d601f19601f82011682018060405250810190612a6c9190613872565b90507ff2dc9a29f1b257c57ef50cb6c0230cacc6af60a01e5e51bde6ee1657f214a34781604051612a9f91815260200190565b60405180910390a190565b6001600160a01b038216612ad457604051633250574960e11b815260006004820152602401610ff5565b6000612ae2838360006120c2565b90506001600160a01b038116156114c8576040516339e3563760e11b815260006004820152602401610ff5565b6107d0600d541015612b1d57565b60006107d0600d5410158015612b365750610fa0600d54105b15612b4457506107d0612b9f565b610fa0600d5410158015612b5b5750611770600d54105b15612b695750610fa0612b9f565b611770600d5410158015612b815750600d5461271014155b15612b8f5750611770612b9f565b600d5461271003612b9f57506127105b60405162baee2160e81b8152600481018290527f00000000000000000000000000000000000000000000000000000000000000006001600160a01b03169063baee2100906024016020604051808303816000875af1158015612c05573d6000803e3d6000fd5b505050506040513d601f19601f82011682018060405250810190612c299190613669565b15612c315750565b60405163856a89fd60e01b8152600481018290527f00000000000000000000000000000000000000000000000000000000000000006001600160a01b03169063856a89fd90602401600060405180830381600087803b158015612c9357600080fd5b505af11580156124ec573d6000803e3d6000fd5b60008072184f03e93ff9f4daa797ed6e38ed64bf6a1f0160401b8310612ce65772184f03e93ff9f4daa797ed6e38ed64bf6a1f0160401b830492506040015b6d04ee2d6d415b85acef81000000008310612d12576d04ee2d6d415b85acef8100000000830492506020015b662386f26fc100008310612d3057662386f26fc10000830492506010015b6305f5e1008310612d48576305f5e100830492506008015b6127108310612d5c57612710830492506004015b60648310612d6e576064830492506002015b600a8310610def5760010192915050565b612d8a838383612de3565b6114c8576001600160a01b038316612db857604051637e27328960e01b815260048101829052602401610ff5565b60405163177e802f60e01b81526001600160a01b038316600482015260248101829052604401610ff5565b60006001600160a01b0383161580159061218f5750826001600160a01b0316846001600160a01b03161480612e1d5750612e1d8484611e28565b8061218f5750506000908152600460205260409020546001600160a01b03908116911614919050565b828054828255906000526020600020908101928215612e81579160200282015b82811115612e81578251825591602001919060010190612e66565b50612e8d929150612e91565b5090565b5b80821115612e8d5760008155600101612e92565b6001600160e01b0319811681146121c857600080fd5b600060208284031215612ece57600080fd5b8135611d0281612ea6565b60005b83811015612ef4578181015183820152602001612edc565b50506000910152565b60008151808452612f15816020860160208601612ed9565b601f01601f19169290920160200192915050565b602081526000611d026020830184612efd565b600060208284031215612f4e57600080fd5b5035919050565b80356001600160a01b0381168114612f6c57600080fd5b919050565b60008060408385031215612f8457600080fd5b612f8d83612f55565b946020939093013593505050565b634e487b7160e01b600052604160045260246000fd5b604051601f8201601f1916810167ffffffffffffffff81118282101715612fda57612fda612f9b565b604052919050565b60008060408385031215612ff557600080fd5b8235915060208084013567ffffffffffffffff8082111561301557600080fd5b818601915086601f83011261302957600080fd5b81358181111561303b5761303b612f9b565b8060051b915061304c848301612fb1565b818152918301840191848101908984111561306657600080fd5b938501935b838510156130845784358252938501939085019061306b565b8096505050505050509250929050565b6000806000606084860312156130a957600080fd5b6130b284612f55565b92506130c060208501612f55565b9150604084013590509250925092565b6000602082840312156130e257600080fd5b611d0282612f55565b600080604083850312156130fe57600080fd5b50508035926020909101359150565b60006020828403121561311f57600080fd5b813561ffff81168114611d0257600080fd5b6000806020838503121561314457600080fd5b823567ffffffffffffffff8082111561315c57600080fd5b818501915085601f83011261317057600080fd5b81358181111561317f57600080fd5b8660208260051b850101111561319457600080fd5b60209290920196919550909350505050565b80151581146121c857600080fd5b600080604083850312156131c757600080fd5b6131d083612f55565b915060208301356131e0816131a6565b809150509250929050565b6000806000806080858703121561320157600080fd5b61320a85612f55565b93506020613219818701612f55565b935060408601359250606086013567ffffffffffffffff8082111561323d57600080fd5b818801915088601f83011261325157600080fd5b81358181111561326357613263612f9b565b613275601f8201601f19168501612fb1565b9150808252898482850101111561328b57600080fd5b808484018584013760008482840101525080935050505092959194509250565b6020808252825182820181905260009190848201906040850190845b818110156132e3578351835292840192918401916001016132c7565b50909695505050505050565b6000806040838503121561330257600080fd5b61330b83612f55565b915061331960208401612f55565b90509250929050565b6020808252825182820181905260009190848201906040850190845b818110156132e35783516001600160a01b03168352928401929184019160010161333e565b600181811c9082168061337757607f821691505b60208210810361339757634e487b7160e01b600052602260045260246000fd5b50919050565b634e487b7160e01b600052601160045260246000fd5b8082028115828204841417610def57610def61339d565b634e487b7160e01b600052601260045260246000fd5b6000826133ef576133ef6133ca565b500490565b61ffff81811683821601908082111561340f5761340f61339d565b5092915050565b80820180821115610def57610def61339d565b634e487b7160e01b600052603260045260246000fd5b60208082528181018390526000908460408401835b86811015613480576001600160a01b0361346d84612f55565b1682529183019190830190600101613454565b509695505050505050565b805169ffffffffffffffffffff81168114612f6c57600080fd5b600080600080600060a086880312156134bd57600080fd5b6134c68661348b565b94506020860151935060408601519250606086015191506134e96080870161348b565b90509295509295909350565b60006020828403121561350757600080fd5b815160ff81168114611d0257600080fd5b600181815b808511156135535781600019048211156135395761353961339d565b8085161561354657918102915b93841c939080029061351d565b509250929050565b60008261356a57506001610def565b8161357757506000610def565b816001811461358d5760028114613597576135b3565b6001915050610def565b60ff8411156135a8576135a861339d565b50506001821b610def565b5060208310610133831016604e8410600b84101617156135d6575081810a610def565b6135e08383613518565b80600019048211156135f4576135f461339d565b029392505050565b6000611d0260ff84168361355b565b60008261361a5761361a6133ca565b600160ff1b8214600019841416156136345761363461339d565b500590565b80820260008212600160ff1b841416156136555761365561339d565b8181058314821517610def57610def61339d565b60006020828403121561367b57600080fd5b8151611d02816131a6565b60ff8181168382160190811115610def57610def61339d565b600060ff821660ff81036136b5576136b561339d565b60010192915050565b600061ffff8083168181036136d5576136d561339d565b6001019392505050565b600081516136f1818560208601612ed9565b9290920192915050565b60008084548160018260011c9150600183168061371957607f831692505b6020808410820361373857634e487b7160e01b86526022600452602486fd5b81801561374c57600181146137615761378e565b60ff198616895284151585028901965061378e565b60008b81526020902060005b868110156137865781548b82015290850190830161376d565b505084890196505b50505050505061379e81856136df565b64173539b7b760d91b815260050195945050505050565b6000826137c4576137c46133ca565b500690565b6000816137d8576137d861339d565b506000190190565b6000600182016137f2576137f261339d565b5060010190565b6001600160a01b03858116825284166020820152604081018390526080606082018190526000906114a390830184612efd565b60006020828403121561383e57600080fd5b8151611d0281612ea6565b81810381811115610def57610def61339d565b634e487b7160e01b600052603160045260246000fd5b60006020828403121561388457600080fd5b505191905056fea2646970667358221220a036505e23d72dec836921108db86c79cbc745e48daac76e4e7c27b143983e7864736f6c63430008170033","linkReferences":{}},"methodIdentifiers":{"GOVERNOR()":"6dc0ae22","MAX_COMP_MINTS()":"7263c07e","MAX_MINTS_PER_TX()":"c6a91b42","MAX_OWNER_MINTS()":"c5f8776c","MAX_PRESALE_MINTS()":"9208383a","MAX_SUPPLY()":"32cb6b0c","MAX_WHITELISTEES()":"dbdbbc91","OWNER()":"117803e3","PAYMENT_SPLITTER()":"a5f0292b","PRESALE()":"b4cf5648","PRICEFEED()":"d8f4d5d0","PRICE_IN_USD()":"914db51a","RAFFLE()":"6c70e851","ROYALTY_BASIS_POINTS()":"3c404a9c","SALE_OPEN()":"8e26d2aa","VRF_COORDINATOR()":"05f6a924","addRaffle2000Winners(address[])":"4404ee84","addToWhitelist(address[])":"7f649783","approve(address,uint256)":"095ea7b3","assignCompMint(address)":"5ab9120c","balanceOf(address)":"70a08231","calculatePrice(uint256)":"ae104265","callbackGasLimit()":"24f74697","compMintCounter()":"4654e6d6","getApproved(uint256)":"081812fc","getBaseUri()":"0cac36b2","getBatchTokens(uint256)":"e8c93ec9","getBuyerByIndex(uint256)":"d5a9dea4","getBuyers()":"f64bfaba","getCompMintCount()":"5a59d966","getCurrentTokenId()":"56189236","getPriceInMATIC()":"54a063ae","getRoyaltyReceiver()":"a5bd5235","getWhitelistCount()":"3edff20f","hasClaimedCompMint(address)":"289016ed","isApprovedForAll(address,address)":"e985e9c5","isBuyer(address)":"2a55feec","isCompMintRecipient(address)":"a69e689c","isMintingOpen()":"1a206910","isWhitelisted(address)":"3af32abf","keyHash()":"61728f39","mint(address,uint256)":"40c10f19","mintComp()":"ee1daa43","name()":"06fdde03","numWords()":"7ccfd7fc","ownerMint(uint16)":"36e8942f","ownerMintCounter()":"77071052","ownerOf(uint256)":"6352211e","rawFulfillRandomWords(uint256,uint256[])":"1fe543e3","reducePrice(uint256)":"121925a2","remainingUris()":"e5750395","requestConfirmations()":"b0fb162f","royaltyInfo(uint256,uint256)":"2a55205a","safeTransferFrom(address,address,uint256)":"42842e0e","safeTransferFrom(address,address,uint256,bytes)":"b88d4fde","setApprovalForAll(address,bool)":"a22cb465","setRoyaltyReceiver(address)":"8dc251e3","subscriptionId()":"09c1ba2e","supportsInterface(bytes4)":"01ffc9a7","symbol()":"95d89b41","tokenByIndex(uint256)":"4f6ccce7","tokenIdToUriExtension(uint256)":"33fdcf52","tokenOfOwnerByIndex(address,uint256)":"2f745c59","tokenURI(uint256)":"c87b56dd","totalNumberOfBuyers()":"73416c24","totalSupply()":"18160ddd","transferFrom(address,address,uint256)":"23b872dd","whitelistCounter()":"26f27e6d"},"id":44}