{"abi":[{"type":"constructor","inputs":[{"name":"_vrfCoordinatorV2","type":"address","internalType":"address"},{"name":"_priceFeed","type":"address","internalType":"address"},{"name":"_governor","type":"address","internalType":"address"},{"name":"_paymentSplitter","type":"address","internalType":"address"},{"name":"_computedRaffleAddress","type":"address","internalType":"address"},{"name":"_initialMintRecipient","type":"address","internalType":"address"},{"name":"_presale","type":"uint256","internalType":"uint256"},{"name":"_saleOpen","type":"uint256","internalType":"uint256"},{"name":"_subscriptionId","type":"uint64","internalType":"uint64"},{"name":"_baseUri","type":"string","internalType":"string"}],"stateMutability":"nonpayable"},{"type":"function","name":"GOVERNOR","inputs":[],"outputs":[{"name":"","type":"address","internalType":"address"}],"stateMutability":"view"},{"type":"function","name":"MAX_COMP_MINTS","inputs":[],"outputs":[{"name":"","type":"uint256","internalType":"uint256"}],"stateMutability":"view"},{"type":"function","name":"MAX_MINTS_PER_TX","inputs":[],"outputs":[{"name":"","type":"uint256","internalType":"uint256"}],"stateMutability":"view"},{"type":"function","name":"MAX_PRESALE_MINTS","inputs":[],"outputs":[{"name":"","type":"uint256","internalType":"uint256"}],"stateMutability":"view"},{"type":"function","name":"MAX_SUPPLY","inputs":[],"outputs":[{"name":"","type":"uint256","internalType":"uint256"}],"stateMutability":"view"},{"type":"function","name":"MAX_WHITELISTEES","inputs":[],"outputs":[{"name":"","type":"uint256","internalType":"uint256"}],"stateMutability":"view"},{"type":"function","name":"PAYMENT_SPLITTER","inputs":[],"outputs":[{"name":"","type":"address","internalType":"address"}],"stateMutability":"view"},{"type":"function","name":"PRESALE","inputs":[],"outputs":[{"name":"","type":"uint256","internalType":"uint256"}],"stateMutability":"view"},{"type":"function","name":"PRICEFEED","inputs":[],"outputs":[{"name":"","type":"address","internalType":"contract IPricefeed"}],"stateMutability":"view"},{"type":"function","name":"PRICE_IN_USD","inputs":[],"outputs":[{"name":"","type":"uint256","internalType":"uint256"}],"stateMutability":"view"},{"type":"function","name":"RAFFLE","inputs":[],"outputs":[{"name":"","type":"address","internalType":"contract IRaffle"}],"stateMutability":"view"},{"type":"function","name":"ROYALTY_BASIS_POINTS","inputs":[],"outputs":[{"name":"","type":"uint96","internalType":"uint96"}],"stateMutability":"view"},{"type":"function","name":"SALE_OPEN","inputs":[],"outputs":[{"name":"","type":"uint256","internalType":"uint256"}],"stateMutability":"view"},{"type":"function","name":"VRF_COORDINATOR","inputs":[],"outputs":[{"name":"","type":"address","internalType":"contract VRFCoordinatorV2Interface"}],"stateMutability":"view"},{"type":"function","name":"addRaffle2000Winners","inputs":[{"name":"_winners","type":"address[]","internalType":"address[]"}],"outputs":[],"stateMutability":"nonpayable"},{"type":"function","name":"addToWhitelist","inputs":[{"name":"_whitelistees","type":"address[]","internalType":"address[]"}],"outputs":[],"stateMutability":"nonpayable"},{"type":"function","name":"approve","inputs":[{"name":"to","type":"address","internalType":"address"},{"name":"tokenId","type":"uint256","internalType":"uint256"}],"outputs":[],"stateMutability":"nonpayable"},{"type":"function","name":"assignCompMint","inputs":[{"name":"_recipient","type":"address","internalType":"address"}],"outputs":[],"stateMutability":"nonpayable"},{"type":"function","name":"balanceOf","inputs":[{"name":"owner","type":"address","internalType":"address"}],"outputs":[{"name":"","type":"uint256","internalType":"uint256"}],"stateMutability":"view"},{"type":"function","name":"calculatePrice","inputs":[{"name":"_numberOfTokens","type":"uint256","internalType":"uint256"}],"outputs":[{"name":"","type":"uint256","internalType":"uint256"}],"stateMutability":"view"},{"type":"function","name":"callbackGasLimit","inputs":[],"outputs":[{"name":"","type":"uint32","internalType":"uint32"}],"stateMutability":"view"},{"type":"function","name":"getApproved","inputs":[{"name":"tokenId","type":"uint256","internalType":"uint256"}],"outputs":[{"name":"","type":"address","internalType":"address"}],"stateMutability":"view"},{"type":"function","name":"getBaseUri","inputs":[],"outputs":[{"name":"","type":"string","internalType":"string"}],"stateMutability":"view"},{"type":"function","name":"getBatchTokens","inputs":[{"name":"_requestId","type":"uint256","internalType":"uint256"}],"outputs":[{"name":"","type":"uint256[]","internalType":"uint256[]"}],"stateMutability":"view"},{"type":"function","name":"getBuyerByIndex","inputs":[{"name":"index","type":"uint256","internalType":"uint256"}],"outputs":[{"name":"","type":"address","internalType":"address"}],"stateMutability":"view"},{"type":"function","name":"getBuyers","inputs":[],"outputs":[{"name":"","type":"address[]","internalType":"address[]"}],"stateMutability":"view"},{"type":"function","name":"getCompMintCount","inputs":[],"outputs":[{"name":"","type":"uint256","internalType":"uint256"}],"stateMutability":"view"},{"type":"function","name":"getCurrentTokenId","inputs":[],"outputs":[{"name":"","type":"uint256","internalType":"uint256"}],"stateMutability":"view"},{"type":"function","name":"getPriceInMATIC","inputs":[],"outputs":[{"name":"","type":"uint256","internalType":"uint256"}],"stateMutability":"view"},{"type":"function","name":"getRoyaltyReceiver","inputs":[],"outputs":[{"name":"","type":"address","internalType":"address"}],"stateMutability":"view"},{"type":"function","name":"getWhitelistCount","inputs":[],"outputs":[{"name":"","type":"uint256","internalType":"uint256"}],"stateMutability":"view"},{"type":"function","name":"hasClaimedCompMint","inputs":[{"name":"user","type":"address","internalType":"address"}],"outputs":[{"name":"","type":"bool","internalType":"bool"}],"stateMutability":"view"},{"type":"function","name":"initialMint","inputs":[],"outputs":[],"stateMutability":"nonpayable"},{"type":"function","name":"initialMintClaimed","inputs":[],"outputs":[{"name":"","type":"bool","internalType":"bool"}],"stateMutability":"view"},{"type":"function","name":"isApprovedForAll","inputs":[{"name":"owner","type":"address","internalType":"address"},{"name":"operator","type":"address","internalType":"address"}],"outputs":[{"name":"","type":"bool","internalType":"bool"}],"stateMutability":"view"},{"type":"function","name":"isBuyer","inputs":[{"name":"","type":"address","internalType":"address"}],"outputs":[{"name":"","type":"bool","internalType":"bool"}],"stateMutability":"view"},{"type":"function","name":"isCompMintRecipient","inputs":[{"name":"user","type":"address","internalType":"address"}],"outputs":[{"name":"","type":"bool","internalType":"bool"}],"stateMutability":"view"},{"type":"function","name":"isMintingOpen","inputs":[],"outputs":[{"name":"","type":"bool","internalType":"bool"}],"stateMutability":"view"},{"type":"function","name":"isWhitelisted","inputs":[{"name":"user","type":"address","internalType":"address"}],"outputs":[{"name":"","type":"bool","internalType":"bool"}],"stateMutability":"view"},{"type":"function","name":"keyHash","inputs":[],"outputs":[{"name":"","type":"bytes32","internalType":"bytes32"}],"stateMutability":"view"},{"type":"function","name":"mint","inputs":[{"name":"_to","type":"address","internalType":"address"},{"name":"_numberOfTokens","type":"uint256","internalType":"uint256"}],"outputs":[{"name":"","type":"uint256","internalType":"uint256"}],"stateMutability":"payable"},{"type":"function","name":"mintComp","inputs":[],"outputs":[{"name":"","type":"uint256","internalType":"uint256"}],"stateMutability":"nonpayable"},{"type":"function","name":"name","inputs":[],"outputs":[{"name":"","type":"string","internalType":"string"}],"stateMutability":"view"},{"type":"function","name":"numWords","inputs":[],"outputs":[{"name":"","type":"uint32","internalType":"uint32"}],"stateMutability":"view"},{"type":"function","name":"ownerOf","inputs":[{"name":"tokenId","type":"uint256","internalType":"uint256"}],"outputs":[{"name":"","type":"address","internalType":"address"}],"stateMutability":"view"},{"type":"function","name":"rawFulfillRandomWords","inputs":[{"name":"requestId","type":"uint256","internalType":"uint256"},{"name":"randomWords","type":"uint256[]","internalType":"uint256[]"}],"outputs":[],"stateMutability":"nonpayable"},{"type":"function","name":"reducePrice","inputs":[{"name":"_newPriceInUSD","type":"uint256","internalType":"uint256"}],"outputs":[],"stateMutability":"nonpayable"},{"type":"function","name":"remainingUris","inputs":[],"outputs":[{"name":"","type":"uint256","internalType":"uint256"}],"stateMutability":"view"},{"type":"function","name":"requestConfirmations","inputs":[],"outputs":[{"name":"","type":"uint16","internalType":"uint16"}],"stateMutability":"view"},{"type":"function","name":"royaltyInfo","inputs":[{"name":"_tokenId","type":"uint256","internalType":"uint256"},{"name":"_salePrice","type":"uint256","internalType":"uint256"}],"outputs":[{"name":"receiver","type":"address","internalType":"address"},{"name":"royaltyAmount","type":"uint256","internalType":"uint256"}],"stateMutability":"view"},{"type":"function","name":"safeTransferFrom","inputs":[{"name":"from","type":"address","internalType":"address"},{"name":"to","type":"address","internalType":"address"},{"name":"tokenId","type":"uint256","internalType":"uint256"}],"outputs":[],"stateMutability":"nonpayable"},{"type":"function","name":"safeTransferFrom","inputs":[{"name":"from","type":"address","internalType":"address"},{"name":"to","type":"address","internalType":"address"},{"name":"tokenId","type":"uint256","internalType":"uint256"},{"name":"data","type":"bytes","internalType":"bytes"}],"outputs":[],"stateMutability":"nonpayable"},{"type":"function","name":"setApprovalForAll","inputs":[{"name":"operator","type":"address","internalType":"address"},{"name":"approved","type":"bool","internalType":"bool"}],"outputs":[],"stateMutability":"nonpayable"},{"type":"function","name":"setRoyaltyReceiver","inputs":[{"name":"_newReceiver","type":"address","internalType":"address"}],"outputs":[],"stateMutability":"nonpayable"},{"type":"function","name":"subscriptionId","inputs":[],"outputs":[{"name":"","type":"uint64","internalType":"uint64"}],"stateMutability":"view"},{"type":"function","name":"supportsInterface","inputs":[{"name":"interfaceId","type":"bytes4","internalType":"bytes4"}],"outputs":[{"name":"","type":"bool","internalType":"bool"}],"stateMutability":"view"},{"type":"function","name":"symbol","inputs":[],"outputs":[{"name":"","type":"string","internalType":"string"}],"stateMutability":"view"},{"type":"function","name":"tokenByIndex","inputs":[{"name":"index","type":"uint256","internalType":"uint256"}],"outputs":[{"name":"","type":"uint256","internalType":"uint256"}],"stateMutability":"view"},{"type":"function","name":"tokenIdToUriExtension","inputs":[{"name":"","type":"uint256","internalType":"uint256"}],"outputs":[{"name":"","type":"uint256","internalType":"uint256"}],"stateMutability":"view"},{"type":"function","name":"tokenOfOwnerByIndex","inputs":[{"name":"owner","type":"address","internalType":"address"},{"name":"index","type":"uint256","internalType":"uint256"}],"outputs":[{"name":"","type":"uint256","internalType":"uint256"}],"stateMutability":"view"},{"type":"function","name":"tokenURI","inputs":[{"name":"_tokenId","type":"uint256","internalType":"uint256"}],"outputs":[{"name":"","type":"string","internalType":"string"}],"stateMutability":"view"},{"type":"function","name":"totalNumberOfBuyers","inputs":[],"outputs":[{"name":"","type":"uint256","internalType":"uint256"}],"stateMutability":"view"},{"type":"function","name":"totalSupply","inputs":[],"outputs":[{"name":"","type":"uint256","internalType":"uint256"}],"stateMutability":"view"},{"type":"function","name":"transferFrom","inputs":[{"name":"from","type":"address","internalType":"address"},{"name":"to","type":"address","internalType":"address"},{"name":"tokenId","type":"uint256","internalType":"uint256"}],"outputs":[],"stateMutability":"nonpayable"},{"type":"event","name":"Approval","inputs":[{"name":"owner","type":"address","indexed":true,"internalType":"address"},{"name":"approved","type":"address","indexed":true,"internalType":"address"},{"name":"tokenId","type":"uint256","indexed":true,"internalType":"uint256"}],"anonymous":false},{"type":"event","name":"ApprovalForAll","inputs":[{"name":"owner","type":"address","indexed":true,"internalType":"address"},{"name":"operator","type":"address","indexed":true,"internalType":"address"},{"name":"approved","type":"bool","indexed":false,"internalType":"bool"}],"anonymous":false},{"type":"event","name":"RaffleWinnersAdded","inputs":[{"name":"winners","type":"address[]","indexed":false,"internalType":"address[]"}],"anonymous":false},{"type":"event","name":"RoyaltyReceiverChanged","inputs":[{"name":"newReceiver","type":"address","indexed":false,"internalType":"address"}],"anonymous":false},{"type":"event","name":"TokenPriceChanged","inputs":[{"name":"newPrice","type":"uint256","indexed":false,"internalType":"uint256"}],"anonymous":false},{"type":"event","name":"Transfer","inputs":[{"name":"from","type":"address","indexed":true,"internalType":"address"},{"name":"to","type":"address","indexed":true,"internalType":"address"},{"name":"tokenId","type":"uint256","indexed":true,"internalType":"uint256"}],"anonymous":false},{"type":"event","name":"VRFRequestCreated","inputs":[{"name":"requestId","type":"uint256","indexed":false,"internalType":"uint256"}],"anonymous":false},{"type":"error","name":"ERC721EnumerableForbiddenBatchMint","inputs":[]},{"type":"error","name":"ERC721IncorrectOwner","inputs":[{"name":"sender","type":"address","internalType":"address"},{"name":"tokenId","type":"uint256","internalType":"uint256"},{"name":"owner","type":"address","internalType":"address"}]},{"type":"error","name":"ERC721InsufficientApproval","inputs":[{"name":"operator","type":"address","internalType":"address"},{"name":"tokenId","type":"uint256","internalType":"uint256"}]},{"type":"error","name":"ERC721InvalidApprover","inputs":[{"name":"approver","type":"address","internalType":"address"}]},{"type":"error","name":"ERC721InvalidOperator","inputs":[{"name":"operator","type":"address","internalType":"address"}]},{"type":"error","name":"ERC721InvalidOwner","inputs":[{"name":"owner","type":"address","internalType":"address"}]},{"type":"error","name":"ERC721InvalidReceiver","inputs":[{"name":"receiver","type":"address","internalType":"address"}]},{"type":"error","name":"ERC721InvalidSender","inputs":[{"name":"sender","type":"address","internalType":"address"}]},{"type":"error","name":"ERC721NonexistentToken","inputs":[{"name":"tokenId","type":"uint256","internalType":"uint256"}]},{"type":"error","name":"ERC721OutOfBoundsIndex","inputs":[{"name":"owner","type":"address","internalType":"address"},{"name":"index","type":"uint256","internalType":"uint256"}]},{"type":"error","name":"OnlyCoordinatorCanFulfill","inputs":[{"name":"have","type":"address","internalType":"address"},{"name":"want","type":"address","internalType":"address"}]},{"type":"error","name":"OrcNation__CompMintAlreadyAssignedToAddress","inputs":[]},{"type":"error","name":"OrcNation__CompMintAlreadyClaimed","inputs":[]},{"type":"error","name":"OrcNation__InitialMintAlreadyClaimed","inputs":[]},{"type":"error","name":"OrcNation__InsufficientPayment","inputs":[{"name":"paymentDue","type":"uint256","internalType":"uint256"}]},{"type":"error","name":"OrcNation__InvalidNewPrice","inputs":[]},{"type":"error","name":"OrcNation__InvalidSaleTime","inputs":[]},{"type":"error","name":"OrcNation__MaxCompMintsExceeded","inputs":[]},{"type":"error","name":"OrcNation__MaxMintsPerTransactionExceeded","inputs":[]},{"type":"error","name":"OrcNation__MaxThreePresaleMintsPerWhitelistedAddress","inputs":[]},{"type":"error","name":"OrcNation__MintingNotOpen","inputs":[]},{"type":"error","name":"OrcNation__MustMintAtLeastOneToken","inputs":[]},{"type":"error","name":"OrcNation__NotEligibleForCompMint","inputs":[]},{"type":"error","name":"OrcNation__NotWhitelisted","inputs":[]},{"type":"error","name":"OrcNation__OnlyAdmin","inputs":[]},{"type":"error","name":"OrcNation__OnlyGovernor","inputs":[]},{"type":"error","name":"OrcNation__OnlyInitialMintRecipient","inputs":[]},{"type":"error","name":"OrcNation__OnlyRaffle","inputs":[]},{"type":"error","name":"OrcNation__PriceFeedAnswerNegative","inputs":[]},{"type":"error","name":"OrcNation__RaffleNotComplete","inputs":[]},{"type":"error","name":"OrcNation__TokenDoesNotExist","inputs":[]},{"type":"error","name":"OrcNation__WillExceedMaxSupply","inputs":[]},{"type":"error","name":"OrcNation__WillExceedMaxWhitelistees","inputs":[]}],"bytecode":{"object":"0x6101a06040526041600a55612710600e557f4b09e658ed251bcafeebbc69400383d49f344ace09b9576fe248bb02c003fe9f60185560198054600160401b600160901b0319166e01000f4240000300000000000000001790553480156200006557600080fd5b5060405162003db138038062003db1833981016040819052620000889162000294565b896040518060400160405280600981526020016827b931a730ba34b7b760b91b815250604051806040016040528060048152602001634f52435360e01b8152508160009081620000d9919062000408565b506001620000e8828262000408565b5050506001600160a01b0316608052428410806200010557508383105b1562000124576040516336e24cf360e01b815260040160405180910390fd5b6001600160a01b03808b1660a05289811660c05288811661012052871661010052600b80546001600160a01b03191633179055600c62000165828262000408565b50506101409290925261016052601980546001600160401b0319166001600160401b039092169190911790556001600160a01b0391821660e052166101805250620004d492505050565b80516001600160a01b0381168114620001c757600080fd5b919050565b634e487b7160e01b600052604160045260246000fd5b600082601f830112620001f457600080fd5b81516001600160401b0380821115620002115762000211620001cc565b604051601f8301601f19908116603f011681019082821181831017156200023c576200023c620001cc565b81604052838152602092508660208588010111156200025a57600080fd5b600091505b838210156200027e57858201830151818301840152908201906200025f565b6000602085830101528094505050505092915050565b6000806000806000806000806000806101408b8d031215620002b557600080fd5b620002c08b620001af565b9950620002d060208c01620001af565b9850620002e060408c01620001af565b9750620002f060608c01620001af565b96506200030060808c01620001af565b95506200031060a08c01620001af565b60c08c015160e08d01516101008e015192975090955093506001600160401b0380821682146200033f57600080fd5b6101208d0151919350808211156200035657600080fd5b50620003658d828e01620001e2565b9150509295989b9194979a5092959850565b600181811c908216806200038c57607f821691505b602082108103620003ad57634e487b7160e01b600052602260045260246000fd5b50919050565b601f82111562000403576000816000526020600020601f850160051c81016020861015620003de5750805b601f850160051c820191505b81811015620003ff57828155600101620003ea565b5050505b505050565b81516001600160401b03811115620004245762000424620001cc565b6200043c8162000435845462000377565b84620003b3565b602080601f8311600181146200047457600084156200045b5750858301515b600019600386901b1c1916600185901b178555620003ff565b600085815260208120601f198616915b82811015620004a55788860151825594840194600190910190840162000484565b5085821015620004c45787850151600019600388901b60f8161c191681555b5050505050600190811b01905550565b60805160a05160c05160e05161010051610120516101405161016051610180516137e0620005d160003960008181611a940152611b3b0152600081816109d4015281816110ed0152611c2a01526000818161054a01528181610b5d01528181611081015281816110c201528181611bff0152611dc00152600081816108f201528181610e0e015281816116790152818161187601526119dc015260008181610a9b015261120d0152600081816108be0152818161130d01528181612b190152612bac015260008181610c06015281816114f401526115a001526000818161040f01526129c9015260008181610ebf0152610f0101526137e06000f3fe6080604052600436106103c35760003560e01c80636352211e116101f2578063a5f0292b1161010d578063d5a9dea4116100a0578063e8c93ec91161006f578063e8c93ec914610c54578063e985e9c514610c81578063ee1daa4314610ca1578063f64bfaba14610cb657600080fd5b8063d5a9dea414610bd4578063d8f4d5d014610bf4578063dbdbbc9114610c28578063e575039514610c3e57600080fd5b8063b4cf5648116100dc578063b4cf564814610b4b578063b88d4fde14610b7f578063c6a91b4214610b9f578063c87b56dd14610bb457600080fd5b8063a5f0292b14610a89578063a69e689c14610abd578063ae10426514610af6578063b0fb162f14610b1657600080fd5b80638dc251e31161018557806395d89b411161015457806395d89b4114610a215780639fc5ce2a14610a36578063a22cb46514610a4b578063a5bd523514610a6b57600080fd5b80638dc251e3146109a25780638e26d2aa146109c2578063914db51a146109f65780639208383a14610a0c57600080fd5b80637263c07e116101c15780637263c07e1461093457806373416c24146109495780637ccfd7fc1461095e5780637f6497831461098257600080fd5b80636352211e1461088c5780636c70e851146108ac5780636dc0ae22146108e057806370a082311461091457600080fd5b80632f745c59116102e25780634404ee8411610275578063561892361161024457806356189236146108235780635a59d966146108385780635ab9120c1461085657806361728f391461087657600080fd5b80634404ee84146107ad5780634f6ccce7146107cd57806350e58564146107ed57806354a063ae1461080e57600080fd5b80633c404a9c116102b15780633c404a9c1461072e5780633edff20f1461076157806340c10f191461077a57806342842e0e1461078d57600080fd5b80632f745c591461069257806332cb6b0c146106b257806333fdcf52146106c85780633af32abf146106f557600080fd5b806318160ddd1161035a57806324f746971161032957806324f74697146105b1578063289016ed146105ea5780632a55205a146106235780632a55feec1461066257600080fd5b806318160ddd1461051c5780631a2069101461053b5780631fe543e31461057157806323b872dd1461059157600080fd5b8063095ea7b311610396578063095ea7b31461048b57806309c1ba2e146104ad5780630cac36b2146104e7578063121925a2146104fc57600080fd5b806301ffc9a7146103c857806305f6a924146103fd57806306fdde0314610449578063081812fc1461046b575b600080fd5b3480156103d457600080fd5b506103e86103e3366004612e21565b610cd8565b60405190151581526020015b60405180910390f35b34801561040957600080fd5b506104317f000000000000000000000000000000000000000000000000000000000000000081565b6040516001600160a01b0390911681526020016103f4565b34801561045557600080fd5b5061045e610d2a565b6040516103f49190612e8e565b34801561047757600080fd5b50610431610486366004612ea1565b610dbc565b34801561049757600080fd5b506104ab6104a6366004612ed6565b610de5565b005b3480156104b957600080fd5b506019546104ce9067ffffffffffffffff1681565b60405167ffffffffffffffff90911681526020016103f4565b3480156104f357600080fd5b5061045e610df4565b34801561050857600080fd5b506104ab610517366004612ea1565b610e03565b34801561052857600080fd5b506008545b6040519081526020016103f4565b34801561054757600080fd5b507f00000000000000000000000000000000000000000000000000000000000000004210156103e8565b34801561057d57600080fd5b506104ab61058c366004612f47565b610eb4565b34801561059d57600080fd5b506104ab6105ac366004612ff9565b610f3d565b3480156105bd57600080fd5b506019546105d590600160501b900463ffffffff1681565b60405163ffffffff90911681526020016103f4565b3480156105f657600080fd5b506103e8610605366004613035565b6001600160a01b031660009081526015602052604090205460ff1690565b34801561062f57600080fd5b5061064361063e366004613050565b610fc8565b604080516001600160a01b0390931683526020830191909152016103f4565b34801561066e57600080fd5b506103e861067d366004613035565b60176020526000908152604090205460ff1681565b34801561069e57600080fd5b5061052d6106ad366004612ed6565b611018565b3480156106be57600080fd5b5061052d61271081565b3480156106d457600080fd5b5061052d6106e3366004612ea1565b60116020526000908152604090205481565b34801561070157600080fd5b506103e8610710366004613035565b6001600160a01b031660009081526013602052604090205460ff1690565b34801561073a57600080fd5b506107446101f481565b6040516bffffffffffffffffffffffff90911681526020016103f4565b34801561076d57600080fd5b5060125461ffff1661052d565b61052d610788366004612ed6565b61107d565b34801561079957600080fd5b506104ab6107a8366004612ff9565b6112e2565b3480156107b957600080fd5b506104ab6107c8366004613072565b611302565b3480156107d957600080fd5b5061052d6107e8366004612ea1565b611496565b3480156107f957600080fd5b50600b546103e890600160a01b900460ff1681565b34801561081a57600080fd5b5061052d6114ef565b34801561082f57600080fd5b50600d5461052d565b34801561084457600080fd5b5060125462010000900460ff1661052d565b34801561086257600080fd5b506104ab610871366004613035565b611664565b34801561088257600080fd5b5061052d60185481565b34801561089857600080fd5b506104316108a7366004612ea1565b61180e565b3480156108b857600080fd5b506104317f000000000000000000000000000000000000000000000000000000000000000081565b3480156108ec57600080fd5b506104317f000000000000000000000000000000000000000000000000000000000000000081565b34801561092057600080fd5b5061052d61092f366004613035565b611819565b34801561094057600080fd5b5061052d603281565b34801561095557600080fd5b5060165461052d565b34801561096a57600080fd5b506019546105d590600160701b900463ffffffff1681565b34801561098e57600080fd5b506104ab61099d366004613072565b611861565b3480156109ae57600080fd5b506104ab6109bd366004613035565b6119d1565b3480156109ce57600080fd5b5061052d7f000000000000000000000000000000000000000000000000000000000000000081565b348015610a0257600080fd5b5061052d600a5481565b348015610a1857600080fd5b5061052d600381565b348015610a2d57600080fd5b5061045e611a7a565b348015610a4257600080fd5b506104ab611a89565b348015610a5757600080fd5b506104ab610a663660046130f5565b611bda565b348015610a7757600080fd5b50600b546001600160a01b0316610431565b348015610a9557600080fd5b506104317f000000000000000000000000000000000000000000000000000000000000000081565b348015610ac957600080fd5b506103e8610ad8366004613035565b6001600160a01b031660009081526014602052604090205460ff1690565b348015610b0257600080fd5b5061052d610b11366004612ea1565b611be5565b348015610b2257600080fd5b50601954610b3890600160401b900461ffff1681565b60405161ffff90911681526020016103f4565b348015610b5757600080fd5b5061052d7f000000000000000000000000000000000000000000000000000000000000000081565b348015610b8b57600080fd5b506104ab610b9a36600461312c565b611c6f565b348015610bab57600080fd5b5061052d600a81565b348015610bc057600080fd5b5061045e610bcf366004612ea1565b611c86565b348015610be057600080fd5b50610431610bef366004612ea1565b611cfc565b348015610c0057600080fd5b506104317f000000000000000000000000000000000000000000000000000000000000000081565b348015610c3457600080fd5b5061052d6101f481565b348015610c4a57600080fd5b5061052d600e5481565b348015610c6057600080fd5b50610c74610c6f366004612ea1565b611d2c565b6040516103f491906131ec565b348015610c8d57600080fd5b506103e8610c9c366004613230565b611d8e565b348015610cad57600080fd5b5061052d611dbc565b348015610cc257600080fd5b50610ccb611e92565b6040516103f49190613263565b60006301ffc9a760e01b6001600160e01b031983161480610d0957506380ac58cd60e01b6001600160e01b03198316145b80610d24575063152a902d60e11b6001600160e01b03198316145b92915050565b606060008054610d39906132a4565b80601f0160208091040260200160405190810160405280929190818152602001828054610d65906132a4565b8015610db25780601f10610d8757610100808354040283529160200191610db2565b820191906000526020600020905b815481529060010190602001808311610d9557829003601f168201915b5050505050905090565b6000610dc782611ef3565b506000828152600460205260409020546001600160a01b0316610d24565b610df0828233611f2c565b5050565b6060600c8054610d39906132a4565b336001600160a01b037f00000000000000000000000000000000000000000000000000000000000000001614610e4b5760405162ac0b2f60e41b815260040160405180910390fd5b6020811080610e5a5750606181115b15610e7857604051631d0bf16360e31b815260040160405180910390fd5b600a8190556040518181527fac21bacd333b316c6640fca5086322638b0a7aa4367179afd5dfcbe0a5427bc7906020015b60405180910390a150565b336001600160a01b037f00000000000000000000000000000000000000000000000000000000000000001614610f335760405163073e64fd60e21b81523360048201526001600160a01b037f00000000000000000000000000000000000000000000000000000000000000001660248201526044015b60405180910390fd5b610df08282611f39565b6001600160a01b038216610f6757604051633250574960e11b815260006004820152602401610f2a565b6000610f74838333612028565b9050836001600160a01b0316816001600160a01b031614610fc2576040516364283d7b60e01b81526001600160a01b0380861660048301526024820184905282166044820152606401610f2a565b50505050565b60008080610fd58561180e565b6001600160a01b031603610fe857600080fd5b600b546001600160a01b03166127106110036101f4866132f4565b61100d9190613321565b915091509250929050565b600061102383611819565b82106110545760405163295f44f760e21b81526001600160a01b038416600482015260248101839052604401610f2a565b506001600160a01b03919091166000908152600660209081526040808320938352929052205490565b60007f00000000000000000000000000000000000000000000000000000000000000004210156110c05760405163f0b9693f60e01b815260040160405180910390fd5b7f0000000000000000000000000000000000000000000000000000000000000000421015801561110f57507f000000000000000000000000000000000000000000000000000000000000000042105b15611182576001600160a01b03831660009081526013602052604090205460ff1661114d5760405163cb060eb160e01b815260040160405180910390fd5b60038261115985611819565b6111639190613335565b1115611182576040516380b2c43f60e01b815260040160405180910390fd5b60018210156111a45760405163ea1112df60e01b815260040160405180910390fd5b600a8211156111c65760405163416296fd60e01b815260040160405180910390fd5b6111cf826120fd565b60006111da83611be5565b905080341015611200576040516334272af160e01b815260048101829052602401610f2a565b61120984612130565b60007f00000000000000000000000000000000000000000000000000000000000000006001600160a01b03163460405160006040518083038185875af1925050503d8060008114611276576040519150601f19603f3d011682016040523d82523d6000602084013e61127b565b606091505b50509050806112cc5760405162461bcd60e51b815260206004820152601760248201527f5061796d656e74207472616e73666572206661696c65640000000000000000006044820152606401610f2a565b60006112d886866121b7565b9695505050505050565b6112fd83838360405180602001604052806000815250611c6f565b505050565b336001600160a01b037f0000000000000000000000000000000000000000000000000000000000000000161461134b5760405163726c530160e01b815260040160405180910390fd5b60005b818110156114585760016014600085858581811061136e5761136e613348565b90506020020160208101906113839190613035565b6001600160a01b0316815260208101919091526040016000908120805460ff1916921515929092179091556015908484848181106113c3576113c3613348565b90506020020160208101906113d89190613035565b6001600160a01b0316815260208101919091526040016000205460ff16156114505760006015600085858581811061141257611412613348565b90506020020160208101906114279190613035565b6001600160a01b031681526020810191909152604001600020805460ff19169115159190911790555b60010161134e565b507f743d27e70dad1517ab7a2613a62cb57ea1ac4d6c0ca6d489bfbb5b468400f5d9828260405161148a92919061335e565b60405180910390a15050565b60006114a160085490565b82106114ca5760405163295f44f760e21b81526000600482015260248101839052604401610f2a565b600882815481106114dd576114dd613348565b90600052602060002001549050919050565b6000807f00000000000000000000000000000000000000000000000000000000000000006001600160a01b031663feaf968c6040518163ffffffff1660e01b815260040160a060405180830381865afa158015611550573d6000803e3d6000fd5b505050506040513d601f19601f8201168201806040525081019061157491906133c4565b505050915050600081121561159c57604051632bea283f60e11b815260040160405180910390fd5b60007f00000000000000000000000000000000000000000000000000000000000000006001600160a01b031663313ce5676040518163ffffffff1660e01b8152600401602060405180830381865afa1580156115fc573d6000803e3d6000fd5b505050506040513d601f19601f820116820180604052508101906116209190613414565b61162b90600a61351b565b90506000600a54670de0b6b3a764000061164591906132f4565b905081611652848361352a565b61165c9190613558565b935050505090565b604051630935e01b60e21b81523360048201527f00000000000000000000000000000000000000000000000000000000000000006001600160a01b0316906324d7806c90602401602060405180830381865afa1580156116c8573d6000803e3d6000fd5b505050506040513d601f19601f820116820180604052508101906116ec9190613588565b611709576040516354fe416f60e01b815260040160405180910390fd5b6012546032906117239062010000900460ff1660016135a5565b60ff16111561174557604051630138ee3960e31b815260040160405180910390fd5b6012805460029061175e9062010000900460ff166135be565b82546101009290920a60ff8181021990931691831602179091556001600160a01b03821660009081526015602052604090205416156117b057604051632d11162b60e21b815260040160405180910390fd5b6001600160a01b03811660009081526014602052604090205460ff16156117ea576040516348c3a61560e11b815260040160405180910390fd5b6001600160a01b03166000908152601460205260409020805460ff19166001179055565b6000610d2482611ef3565b60006001600160a01b038216611845576040516322718ad960e21b815260006004820152602401610f2a565b506001600160a01b031660009081526003602052604090205490565b604051630935e01b60e21b81523360048201527f00000000000000000000000000000000000000000000000000000000000000006001600160a01b0316906324d7806c90602401602060405180830381865afa1580156118c5573d6000803e3d6000fd5b505050506040513d601f19601f820116820180604052508101906118e99190613588565b611906576040516354fe416f60e01b815260040160405180910390fd5b6012546101f49061191c90839061ffff16613335565b111561193b576040516354f4fdbf60e11b815260040160405180910390fd5b60005b818110156112fd576012805460009061195a9061ffff166135dd565b91906101000a81548161ffff021916908361ffff16021790555060016013600085858581811061198c5761198c613348565b90506020020160208101906119a19190613035565b6001600160a01b031681526020810191909152604001600020805460ff191691151591909117905560010161193e565b336001600160a01b037f00000000000000000000000000000000000000000000000000000000000000001614611a195760405162ac0b2f60e41b815260040160405180910390fd5b6001600160a01b038116611a2c57600080fd5b600b80546001600160a01b0319166001600160a01b0383169081179091556040519081527ff18ed8da4fbddf768618d066780de11fb9a756a8b30128c77e6a128500b65a3190602001610ea9565b606060018054610d39906132a4565b336001600160a01b037f00000000000000000000000000000000000000000000000000000000000000001614611ad257604051630bf0587160e01b815260040160405180910390fd5b600b54600160a01b900460ff1615611afd576040516332d5083d60e01b815260040160405180910390fd5b600b805460ff60a01b1916600160a01b179055600e5460015b6101f48111611bd457600d60008154611b2e906135fe565b90915550600d54611b60907f000000000000000000000000000000000000000000000000000000000000000090612290565b6040805142602082015290810182905260009083906060016040516020818303038152906040528051906020012060001c611b9b9190613617565b90506000611ba982856122f5565b60008481526011602052604090208190559050611bc58461362b565b93508260010192505050611b16565b50600e55565b610df0338383612376565b60008082611bf16114ef565b611bfb91906132f4565b90507f00000000000000000000000000000000000000000000000000000000000000004210158015611c4c57507f000000000000000000000000000000000000000000000000000000000000000042105b15610d24576064611c5e8260556132f4565b611c689190613321565b9392505050565b611c7a848484610f3d565b610fc284848484612415565b60606000611c938361180e565b6001600160a01b031603611cba5760405163039530c360e61b815260040160405180910390fd5b600082815260116020526040902054600c90611cd59061253e565b604051602001611ce692919061365e565b6040516020818303038152906040529050919050565b600060168281548110611d1157611d11613348565b6000918252602090912001546001600160a01b031692915050565b6000818152600f6020908152604091829020805483518184028101840190945280845260609392830182828015611d8257602002820191906000526020600020905b815481526020019060010190808311611d6e575b50505050509050919050565b6001600160a01b03918216600090815260056020908152604080832093909416825291909152205460ff1690565b60007f0000000000000000000000000000000000000000000000000000000000000000421015611dff5760405163f0b9693f60e01b815260040160405180910390fd5b3360009081526014602052604090205460ff16611e2f57604051631624b2cf60e11b815260040160405180910390fd5b3360009081526015602052604090205460ff1615611e6057604051632d11162b60e21b815260040160405180910390fd5b611e6a60016120fd565b336000818152601560205260408120805460ff191660019081179091559091610d24916121b7565b60606016805480602002602001604051908101604052809291908181526020018280548015610db257602002820191906000526020600020905b81546001600160a01b03168152600190910190602001808311611ecc575050505050905090565b6000818152600260205260408120546001600160a01b031680610d2457604051637e27328960e01b815260048101849052602401610f2a565b6112fd83838360016125d1565b600e5460005b6000848152600f60205260409020548110156120205760008284600081518110611f6b57611f6b613348565b602002602001015183604051602001611f8e929190918252602082015260400190565b6040516020818303038152906040528051906020012060001c611fb19190613617565b90506000611fbf82856122f5565b90508060116000600f60008a81526020019081526020016000208681548110611fea57611fea613348565b9060005260206000200154815260200190815260200160002081905550836120119061362b565b93508260010192505050611f3f565b50600e555050565b6000806120368585856126d7565b90506001600160a01b0381166120935761208e84600880546000838152600960205260408120829055600182018355919091527ff3f7a9fe364faab93b216da50a3214154f22a0a2b415b23a84c8169e8b636ee30155565b6120b6565b846001600160a01b0316816001600160a01b0316146120b6576120b681856127d0565b6001600160a01b0385166120d2576120cd84612861565b6120f5565b846001600160a01b0316816001600160a01b0316146120f5576120f58585612910565b949350505050565b61271081600d5461210e9190613335565b111561212d5760405163229ed32160e01b815260040160405180910390fd5b50565b6001600160a01b03811660009081526017602052604090205460ff1661212d576016805460018181019092557fd833147d7dc355ba459fc788f669e58cfaf9dc25ddcd0702e87d69c7b51242890180546001600160a01b0384166001600160a01b031990911681179091556000908152601760205260409020805460ff1916909117905550565b6000806121c2612960565b905060008367ffffffffffffffff8111156121df576121df612f00565b604051908082528060200260200182016040528015612208578160200160208202803683370190505b50905060005b8481101561225f57600d60008154612225906135fe565b90915550600d54612237908790612290565b600d5482828151811061224c5761224c613348565b602090810291909101015260010161220e565b506000828152600f60209081526040909120825161227f92840190612dab565b50612288612a74565b509392505050565b6001600160a01b0382166122ba57604051633250574960e11b815260006004820152602401610f2a565b60006122c883836000612028565b90506001600160a01b038116156112fd576040516339e3563760e11b815260006004820152602401610f2a565b60008281526010602052604081205481612310600185613718565b600081815260106020526040812054919250831561232e5783612330565b865b90508287146123575781156123455781612347565b825b6000888152601060205260409020555b81156112d8576000838152601060205260408120559695505050505050565b6001600160a01b0382166123a857604051630b61174360e31b81526001600160a01b0383166004820152602401610f2a565b6001600160a01b03838116600081815260056020908152604080832094871680845294825291829020805460ff191686151590811790915591519182527f17307eab39ab6107e8899845ad3d59bd9653f200f220920489ca2b5937696c31910160405180910390a3505050565b6001600160a01b0383163b15610fc257604051630a85bd0160e11b81526001600160a01b0384169063150b7a029061245790339088908790879060040161372b565b6020604051808303816000875af1925050508015612492575060408051601f3d908101601f1916820190925261248f9181019061375e565b60015b6124fb573d8080156124c0576040519150601f19603f3d011682016040523d82523d6000602084013e6124c5565b606091505b5080516000036124f357604051633250574960e11b81526001600160a01b0385166004820152602401610f2a565b805181602001fd5b6001600160e01b03198116630a85bd0160e11b1461253757604051633250574960e11b81526001600160a01b0385166004820152602401610f2a565b5050505050565b6060600061254b83612c0c565b600101905060008167ffffffffffffffff81111561256b5761256b612f00565b6040519080825280601f01601f191660200182016040528015612595576020820181803683370190505b5090508181016020015b600019016f181899199a1a9b1b9c1cb0b131b232b360811b600a86061a8153600a850494508461259f57509392505050565b80806125e557506001600160a01b03821615155b156126a75760006125f584611ef3565b90506001600160a01b038316158015906126215750826001600160a01b0316816001600160a01b031614155b801561263457506126328184611d8e565b155b1561265d5760405163a9fbf51f60e01b81526001600160a01b0384166004820152602401610f2a565b81156126a55783856001600160a01b0316826001600160a01b03167f8c5be1e5ebec7d5bd14f71427d1e84f3dd0314c0f7b2291e5b200ac8c7c3b92560405160405180910390a45b505b5050600090815260046020526040902080546001600160a01b0319166001600160a01b0392909216919091179055565b6000828152600260205260408120546001600160a01b039081169083161561270457612704818486612ce4565b6001600160a01b03811615612742576127216000856000806125d1565b6001600160a01b038116600090815260036020526040902080546000190190555b6001600160a01b03851615612771576001600160a01b0385166000908152600360205260409020805460010190555b60008481526002602052604080822080546001600160a01b0319166001600160a01b0389811691821790925591518793918516917fddf252ad1be2c89b69c2b068fc378daa952ba7f163c4a11628f55a4df523b3ef91a4949350505050565b60006127db83611819565b60008381526007602052604090205490915080821461282e576001600160a01b03841660009081526006602090815260408083208584528252808320548484528184208190558352600790915290208190555b5060009182526007602090815260408084208490556001600160a01b039094168352600681528383209183525290812055565b60085460009061287390600190613718565b6000838152600960205260408120546008805493945090928490811061289b5761289b613348565b9060005260206000200154905080600883815481106128bc576128bc613348565b60009182526020808320909101929092558281526009909152604080822084905585825281205560088054806128f4576128f461377b565b6001900381819060005260206000200160009055905550505050565b6000600161291d84611819565b6129279190613718565b6001600160a01b039093166000908152600660209081526040808320868452825280832085905593825260079052919091209190915550565b6018546019546040516305d3b1d360e41b8152600481019290925267ffffffffffffffff8116602483015261ffff600160401b820416604483015263ffffffff600160501b820481166064840152600160701b9091041660848201526000906001600160a01b037f00000000000000000000000000000000000000000000000000000000000000001690635d3b1d309060a4016020604051808303816000875af1158015612a12573d6000803e3d6000fd5b505050506040513d601f19601f82011682018060405250810190612a369190613791565b90507ff2dc9a29f1b257c57ef50cb6c0230cacc6af60a01e5e51bde6ee1657f214a34781604051612a6991815260200190565b60405180910390a190565b6107d0600d541015612a8257565b60006107d0600d5410158015612a9b5750610fa0600d54105b15612aa957506107d0612b04565b610fa0600d5410158015612ac05750611770600d54105b15612ace5750610fa0612b04565b611770600d5410158015612ae65750600d5461271014155b15612af45750611770612b04565b600d5461271003612b0457506127105b60405162baee2160e81b8152600481018290527f00000000000000000000000000000000000000000000000000000000000000006001600160a01b03169063baee2100906024016020604051808303816000875af1158015612b6a573d6000803e3d6000fd5b505050506040513d601f19601f82011682018060405250810190612b8e9190613588565b15612b965750565b60405163856a89fd60e01b8152600481018290527f00000000000000000000000000000000000000000000000000000000000000006001600160a01b03169063856a89fd90602401600060405180830381600087803b158015612bf857600080fd5b505af1158015612537573d6000803e3d6000fd5b60008072184f03e93ff9f4daa797ed6e38ed64bf6a1f0160401b8310612c4b5772184f03e93ff9f4daa797ed6e38ed64bf6a1f0160401b830492506040015b6d04ee2d6d415b85acef81000000008310612c77576d04ee2d6d415b85acef8100000000830492506020015b662386f26fc100008310612c9557662386f26fc10000830492506010015b6305f5e1008310612cad576305f5e100830492506008015b6127108310612cc157612710830492506004015b60648310612cd3576064830492506002015b600a8310610d245760010192915050565b612cef838383612d48565b6112fd576001600160a01b038316612d1d57604051637e27328960e01b815260048101829052602401610f2a565b60405163177e802f60e01b81526001600160a01b038316600482015260248101829052604401610f2a565b60006001600160a01b038316158015906120f55750826001600160a01b0316846001600160a01b03161480612d825750612d828484611d8e565b806120f55750506000908152600460205260409020546001600160a01b03908116911614919050565b828054828255906000526020600020908101928215612de6579160200282015b82811115612de6578251825591602001919060010190612dcb565b50612df2929150612df6565b5090565b5b80821115612df25760008155600101612df7565b6001600160e01b03198116811461212d57600080fd5b600060208284031215612e3357600080fd5b8135611c6881612e0b565b60005b83811015612e59578181015183820152602001612e41565b50506000910152565b60008151808452612e7a816020860160208601612e3e565b601f01601f19169290920160200192915050565b602081526000611c686020830184612e62565b600060208284031215612eb357600080fd5b5035919050565b80356001600160a01b0381168114612ed157600080fd5b919050565b60008060408385031215612ee957600080fd5b612ef283612eba565b946020939093013593505050565b634e487b7160e01b600052604160045260246000fd5b604051601f8201601f1916810167ffffffffffffffff81118282101715612f3f57612f3f612f00565b604052919050565b60008060408385031215612f5a57600080fd5b8235915060208084013567ffffffffffffffff80821115612f7a57600080fd5b818601915086601f830112612f8e57600080fd5b813581811115612fa057612fa0612f00565b8060051b9150612fb1848301612f16565b8181529183018401918481019089841115612fcb57600080fd5b938501935b83851015612fe957843582529385019390850190612fd0565b8096505050505050509250929050565b60008060006060848603121561300e57600080fd5b61301784612eba565b925061302560208501612eba565b9150604084013590509250925092565b60006020828403121561304757600080fd5b611c6882612eba565b6000806040838503121561306357600080fd5b50508035926020909101359150565b6000806020838503121561308557600080fd5b823567ffffffffffffffff8082111561309d57600080fd5b818501915085601f8301126130b157600080fd5b8135818111156130c057600080fd5b8660208260051b85010111156130d557600080fd5b60209290920196919550909350505050565b801515811461212d57600080fd5b6000806040838503121561310857600080fd5b61311183612eba565b91506020830135613121816130e7565b809150509250929050565b6000806000806080858703121561314257600080fd5b61314b85612eba565b9350602061315a818701612eba565b935060408601359250606086013567ffffffffffffffff8082111561317e57600080fd5b818801915088601f83011261319257600080fd5b8135818111156131a4576131a4612f00565b6131b6601f8201601f19168501612f16565b915080825289848285010111156131cc57600080fd5b808484018584013760008482840101525080935050505092959194509250565b6020808252825182820181905260009190848201906040850190845b8181101561322457835183529284019291840191600101613208565b50909695505050505050565b6000806040838503121561324357600080fd5b61324c83612eba565b915061325a60208401612eba565b90509250929050565b6020808252825182820181905260009190848201906040850190845b818110156132245783516001600160a01b03168352928401929184019160010161327f565b600181811c908216806132b857607f821691505b6020821081036132d857634e487b7160e01b600052602260045260246000fd5b50919050565b634e487b7160e01b600052601160045260246000fd5b8082028115828204841417610d2457610d246132de565b634e487b7160e01b600052601260045260246000fd5b6000826133305761333061330b565b500490565b80820180821115610d2457610d246132de565b634e487b7160e01b600052603260045260246000fd5b60208082528181018390526000908460408401835b8681101561339f576001600160a01b0361338c84612eba565b1682529183019190830190600101613373565b509695505050505050565b805169ffffffffffffffffffff81168114612ed157600080fd5b600080600080600060a086880312156133dc57600080fd5b6133e5866133aa565b9450602086015193506040860151925060608601519150613408608087016133aa565b90509295509295909350565b60006020828403121561342657600080fd5b815160ff81168114611c6857600080fd5b600181815b80851115613472578160001904821115613458576134586132de565b8085161561346557918102915b93841c939080029061343c565b509250929050565b60008261348957506001610d24565b8161349657506000610d24565b81600181146134ac57600281146134b6576134d2565b6001915050610d24565b60ff8411156134c7576134c76132de565b50506001821b610d24565b5060208310610133831016604e8410600b84101617156134f5575081810a610d24565b6134ff8383613437565b8060001904821115613513576135136132de565b029392505050565b6000611c6860ff84168361347a565b6000826135395761353961330b565b600160ff1b821460001984141615613553576135536132de565b500590565b80820260008212600160ff1b84141615613574576135746132de565b8181058314821517610d2457610d246132de565b60006020828403121561359a57600080fd5b8151611c68816130e7565b60ff8181168382160190811115610d2457610d246132de565b600060ff821660ff81036135d4576135d46132de565b60010192915050565b600061ffff8083168181036135f4576135f46132de565b6001019392505050565b600060018201613610576136106132de565b5060010190565b6000826136265761362661330b565b500690565b60008161363a5761363a6132de565b506000190190565b60008151613654818560208601612e3e565b9290920192915050565b60008084548160018260011c9150600183168061367c57607f831692505b6020808410820361369b57634e487b7160e01b86526022600452602486fd5b8180156136af57600181146136c4576136f1565b60ff19861689528415158502890196506136f1565b60008b81526020902060005b868110156136e95781548b8201529085019083016136d0565b505084890196505b5050505050506137018185613642565b64173539b7b760d91b815260050195945050505050565b81810381811115610d2457610d246132de565b6001600160a01b03858116825284166020820152604081018390526080606082018190526000906112d890830184612e62565b60006020828403121561377057600080fd5b8151611c6881612e0b565b634e487b7160e01b600052603160045260246000fd5b6000602082840312156137a357600080fd5b505191905056fea2646970667358221220a6113b8b826c33be02556427fd7ad76c5e58c8f5d5f05249b105b8d01e95249564736f6c63430008170033","linkReferences":{}},"methodIdentifiers":{"GOVERNOR()":"6dc0ae22","MAX_COMP_MINTS()":"7263c07e","MAX_MINTS_PER_TX()":"c6a91b42","MAX_PRESALE_MINTS()":"9208383a","MAX_SUPPLY()":"32cb6b0c","MAX_WHITELISTEES()":"dbdbbc91","PAYMENT_SPLITTER()":"a5f0292b","PRESALE()":"b4cf5648","PRICEFEED()":"d8f4d5d0","PRICE_IN_USD()":"914db51a","RAFFLE()":"6c70e851","ROYALTY_BASIS_POINTS()":"3c404a9c","SALE_OPEN()":"8e26d2aa","VRF_COORDINATOR()":"05f6a924","addRaffle2000Winners(address[])":"4404ee84","addToWhitelist(address[])":"7f649783","approve(address,uint256)":"095ea7b3","assignCompMint(address)":"5ab9120c","balanceOf(address)":"70a08231","calculatePrice(uint256)":"ae104265","callbackGasLimit()":"24f74697","getApproved(uint256)":"081812fc","getBaseUri()":"0cac36b2","getBatchTokens(uint256)":"e8c93ec9","getBuyerByIndex(uint256)":"d5a9dea4","getBuyers()":"f64bfaba","getCompMintCount()":"5a59d966","getCurrentTokenId()":"56189236","getPriceInMATIC()":"54a063ae","getRoyaltyReceiver()":"a5bd5235","getWhitelistCount()":"3edff20f","hasClaimedCompMint(address)":"289016ed","initialMint()":"9fc5ce2a","initialMintClaimed()":"50e58564","isApprovedForAll(address,address)":"e985e9c5","isBuyer(address)":"2a55feec","isCompMintRecipient(address)":"a69e689c","isMintingOpen()":"1a206910","isWhitelisted(address)":"3af32abf","keyHash()":"61728f39","mint(address,uint256)":"40c10f19","mintComp()":"ee1daa43","name()":"06fdde03","numWords()":"7ccfd7fc","ownerOf(uint256)":"6352211e","rawFulfillRandomWords(uint256,uint256[])":"1fe543e3","reducePrice(uint256)":"121925a2","remainingUris()":"e5750395","requestConfirmations()":"b0fb162f","royaltyInfo(uint256,uint256)":"2a55205a","safeTransferFrom(address,address,uint256)":"42842e0e","safeTransferFrom(address,address,uint256,bytes)":"b88d4fde","setApprovalForAll(address,bool)":"a22cb465","setRoyaltyReceiver(address)":"8dc251e3","subscriptionId()":"09c1ba2e","supportsInterface(bytes4)":"01ffc9a7","symbol()":"95d89b41","tokenByIndex(uint256)":"4f6ccce7","tokenIdToUriExtension(uint256)":"33fdcf52","tokenOfOwnerByIndex(address,uint256)":"2f745c59","tokenURI(uint256)":"c87b56dd","totalNumberOfBuyers()":"73416c24","totalSupply()":"18160ddd","transferFrom(address,address,uint256)":"23b872dd"},"id":44}