{"abi":[{"type":"constructor","inputs":[{"name":"_vrfCoordinatorV2","type":"address","internalType":"address"},{"name":"_priceFeed","type":"address","internalType":"address"},{"name":"_governor","type":"address","internalType":"address"},{"name":"_paymentSplitter","type":"address","internalType":"address"},{"name":"_computedRaffleAddress","type":"address","internalType":"address"},{"name":"_owner","type":"address","internalType":"address"},{"name":"_presale","type":"uint256","internalType":"uint256"},{"name":"_saleOpen","type":"uint256","internalType":"uint256"},{"name":"_subscriptionId","type":"uint64","internalType":"uint64"},{"name":"_baseUri","type":"string","internalType":"string"}],"stateMutability":"nonpayable"},{"type":"function","name":"GOVERNOR","inputs":[],"outputs":[{"name":"","type":"address","internalType":"address"}],"stateMutability":"view"},{"type":"function","name":"MAX_COMP_MINTS","inputs":[],"outputs":[{"name":"","type":"uint16","internalType":"uint16"}],"stateMutability":"view"},{"type":"function","name":"MAX_MINTS_PER_TX","inputs":[],"outputs":[{"name":"","type":"uint16","internalType":"uint16"}],"stateMutability":"view"},{"type":"function","name":"MAX_OWNER_MINTS","inputs":[],"outputs":[{"name":"","type":"uint16","internalType":"uint16"}],"stateMutability":"view"},{"type":"function","name":"MAX_PRESALE_MINTS","inputs":[],"outputs":[{"name":"","type":"uint16","internalType":"uint16"}],"stateMutability":"view"},{"type":"function","name":"MAX_SUPPLY","inputs":[],"outputs":[{"name":"","type":"uint16","internalType":"uint16"}],"stateMutability":"view"},{"type":"function","name":"MAX_WHITELISTEES","inputs":[],"outputs":[{"name":"","type":"uint16","internalType":"uint16"}],"stateMutability":"view"},{"type":"function","name":"OWNER","inputs":[],"outputs":[{"name":"","type":"address","internalType":"address"}],"stateMutability":"view"},{"type":"function","name":"PAYMENT_SPLITTER","inputs":[],"outputs":[{"name":"","type":"address","internalType":"address"}],"stateMutability":"view"},{"type":"function","name":"PRESALE","inputs":[],"outputs":[{"name":"","type":"uint256","internalType":"uint256"}],"stateMutability":"view"},{"type":"function","name":"PRICEFEED","inputs":[],"outputs":[{"name":"","type":"address","internalType":"contract IPricefeed"}],"stateMutability":"view"},{"type":"function","name":"PRICE_IN_USD","inputs":[],"outputs":[{"name":"","type":"uint256","internalType":"uint256"}],"stateMutability":"view"},{"type":"function","name":"RAFFLE","inputs":[],"outputs":[{"name":"","type":"address","internalType":"contract IRaffle"}],"stateMutability":"view"},{"type":"function","name":"ROYALTY_BASIS_POINTS","inputs":[],"outputs":[{"name":"","type":"uint96","internalType":"uint96"}],"stateMutability":"view"},{"type":"function","name":"SALE_OPEN","inputs":[],"outputs":[{"name":"","type":"uint256","internalType":"uint256"}],"stateMutability":"view"},{"type":"function","name":"VRF_COORDINATOR","inputs":[],"outputs":[{"name":"","type":"address","internalType":"contract VRFCoordinatorV2Interface"}],"stateMutability":"view"},{"type":"function","name":"addRaffle2000Winners","inputs":[{"name":"_winners","type":"address[]","internalType":"address[]"}],"outputs":[],"stateMutability":"nonpayable"},{"type":"function","name":"addToWhitelist","inputs":[{"name":"_whitelistees","type":"address[]","internalType":"address[]"}],"outputs":[],"stateMutability":"nonpayable"},{"type":"function","name":"approve","inputs":[{"name":"to","type":"address","internalType":"address"},{"name":"tokenId","type":"uint256","internalType":"uint256"}],"outputs":[],"stateMutability":"nonpayable"},{"type":"function","name":"assignCompMint","inputs":[{"name":"_recipient","type":"address","internalType":"address"}],"outputs":[],"stateMutability":"nonpayable"},{"type":"function","name":"balanceOf","inputs":[{"name":"owner","type":"address","internalType":"address"}],"outputs":[{"name":"","type":"uint256","internalType":"uint256"}],"stateMutability":"view"},{"type":"function","name":"calculatePrice","inputs":[{"name":"_numberOfTokens","type":"uint256","internalType":"uint256"}],"outputs":[{"name":"","type":"uint256","internalType":"uint256"}],"stateMutability":"view"},{"type":"function","name":"callbackGasLimit","inputs":[],"outputs":[{"name":"","type":"uint32","internalType":"uint32"}],"stateMutability":"view"},{"type":"function","name":"compMintCounter","inputs":[],"outputs":[{"name":"","type":"uint8","internalType":"uint8"}],"stateMutability":"view"},{"type":"function","name":"getApproved","inputs":[{"name":"tokenId","type":"uint256","internalType":"uint256"}],"outputs":[{"name":"","type":"address","internalType":"address"}],"stateMutability":"view"},{"type":"function","name":"getBaseUri","inputs":[],"outputs":[{"name":"","type":"string","internalType":"string"}],"stateMutability":"view"},{"type":"function","name":"getBatchTokens","inputs":[{"name":"_requestId","type":"uint256","internalType":"uint256"}],"outputs":[{"name":"","type":"uint256[]","internalType":"uint256[]"}],"stateMutability":"view"},{"type":"function","name":"getBuyerByIndex","inputs":[{"name":"index","type":"uint256","internalType":"uint256"}],"outputs":[{"name":"","type":"address","internalType":"address"}],"stateMutability":"view"},{"type":"function","name":"getBuyers","inputs":[],"outputs":[{"name":"","type":"address[]","internalType":"address[]"}],"stateMutability":"view"},{"type":"function","name":"getCompMintCount","inputs":[],"outputs":[{"name":"","type":"uint256","internalType":"uint256"}],"stateMutability":"view"},{"type":"function","name":"getCurrentTokenId","inputs":[],"outputs":[{"name":"","type":"uint256","internalType":"uint256"}],"stateMutability":"view"},{"type":"function","name":"getPriceInMATIC","inputs":[],"outputs":[{"name":"","type":"uint256","internalType":"uint256"}],"stateMutability":"view"},{"type":"function","name":"getRoyaltyReceiver","inputs":[],"outputs":[{"name":"","type":"address","internalType":"address"}],"stateMutability":"view"},{"type":"function","name":"getWhitelistCount","inputs":[],"outputs":[{"name":"","type":"uint256","internalType":"uint256"}],"stateMutability":"view"},{"type":"function","name":"hasClaimedCompMint","inputs":[{"name":"user","type":"address","internalType":"address"}],"outputs":[{"name":"","type":"bool","internalType":"bool"}],"stateMutability":"view"},{"type":"function","name":"isApprovedForAll","inputs":[{"name":"owner","type":"address","internalType":"address"},{"name":"operator","type":"address","internalType":"address"}],"outputs":[{"name":"","type":"bool","internalType":"bool"}],"stateMutability":"view"},{"type":"function","name":"isBuyer","inputs":[{"name":"","type":"address","internalType":"address"}],"outputs":[{"name":"","type":"bool","internalType":"bool"}],"stateMutability":"view"},{"type":"function","name":"isCompMintRecipient","inputs":[{"name":"user","type":"address","internalType":"address"}],"outputs":[{"name":"","type":"bool","internalType":"bool"}],"stateMutability":"view"},{"type":"function","name":"isMintingOpen","inputs":[],"outputs":[{"name":"","type":"bool","internalType":"bool"}],"stateMutability":"view"},{"type":"function","name":"isWhitelisted","inputs":[{"name":"user","type":"address","internalType":"address"}],"outputs":[{"name":"","type":"bool","internalType":"bool"}],"stateMutability":"view"},{"type":"function","name":"keyHash","inputs":[],"outputs":[{"name":"","type":"bytes32","internalType":"bytes32"}],"stateMutability":"view"},{"type":"function","name":"mint","inputs":[{"name":"_to","type":"address","internalType":"address"},{"name":"_numberOfTokens","type":"uint256","internalType":"uint256"}],"outputs":[{"name":"","type":"uint256","internalType":"uint256"}],"stateMutability":"payable"},{"type":"function","name":"mintComp","inputs":[],"outputs":[{"name":"","type":"uint256","internalType":"uint256"}],"stateMutability":"nonpayable"},{"type":"function","name":"name","inputs":[],"outputs":[{"name":"","type":"string","internalType":"string"}],"stateMutability":"view"},{"type":"function","name":"numWords","inputs":[],"outputs":[{"name":"","type":"uint32","internalType":"uint32"}],"stateMutability":"view"},{"type":"function","name":"ownerMint","inputs":[{"name":"_numberOfTokens","type":"uint256","internalType":"uint256"}],"outputs":[{"name":"requestId","type":"uint256","internalType":"uint256"}],"stateMutability":"nonpayable"},{"type":"function","name":"ownerMintCounter","inputs":[],"outputs":[{"name":"","type":"uint256","internalType":"uint256"}],"stateMutability":"view"},{"type":"function","name":"ownerOf","inputs":[{"name":"tokenId","type":"uint256","internalType":"uint256"}],"outputs":[{"name":"","type":"address","internalType":"address"}],"stateMutability":"view"},{"type":"function","name":"rawFulfillRandomWords","inputs":[{"name":"requestId","type":"uint256","internalType":"uint256"},{"name":"randomWords","type":"uint256[]","internalType":"uint256[]"}],"outputs":[],"stateMutability":"nonpayable"},{"type":"function","name":"reducePrice","inputs":[{"name":"_newPriceInUSD","type":"uint256","internalType":"uint256"}],"outputs":[],"stateMutability":"nonpayable"},{"type":"function","name":"remainingUris","inputs":[],"outputs":[{"name":"","type":"uint256","internalType":"uint256"}],"stateMutability":"view"},{"type":"function","name":"requestConfirmations","inputs":[],"outputs":[{"name":"","type":"uint16","internalType":"uint16"}],"stateMutability":"view"},{"type":"function","name":"royaltyInfo","inputs":[{"name":"_tokenId","type":"uint256","internalType":"uint256"},{"name":"_salePrice","type":"uint256","internalType":"uint256"}],"outputs":[{"name":"receiver","type":"address","internalType":"address"},{"name":"royaltyAmount","type":"uint256","internalType":"uint256"}],"stateMutability":"view"},{"type":"function","name":"safeTransferFrom","inputs":[{"name":"from","type":"address","internalType":"address"},{"name":"to","type":"address","internalType":"address"},{"name":"tokenId","type":"uint256","internalType":"uint256"}],"outputs":[],"stateMutability":"nonpayable"},{"type":"function","name":"safeTransferFrom","inputs":[{"name":"from","type":"address","internalType":"address"},{"name":"to","type":"address","internalType":"address"},{"name":"tokenId","type":"uint256","internalType":"uint256"},{"name":"data","type":"bytes","internalType":"bytes"}],"outputs":[],"stateMutability":"nonpayable"},{"type":"function","name":"setApprovalForAll","inputs":[{"name":"operator","type":"address","internalType":"address"},{"name":"approved","type":"bool","internalType":"bool"}],"outputs":[],"stateMutability":"nonpayable"},{"type":"function","name":"setRoyaltyReceiver","inputs":[{"name":"_newReceiver","type":"address","internalType":"address"}],"outputs":[],"stateMutability":"nonpayable"},{"type":"function","name":"subscriptionId","inputs":[],"outputs":[{"name":"","type":"uint64","internalType":"uint64"}],"stateMutability":"view"},{"type":"function","name":"supportsInterface","inputs":[{"name":"interfaceId","type":"bytes4","internalType":"bytes4"}],"outputs":[{"name":"","type":"bool","internalType":"bool"}],"stateMutability":"view"},{"type":"function","name":"symbol","inputs":[],"outputs":[{"name":"","type":"string","internalType":"string"}],"stateMutability":"view"},{"type":"function","name":"tokenByIndex","inputs":[{"name":"index","type":"uint256","internalType":"uint256"}],"outputs":[{"name":"","type":"uint256","internalType":"uint256"}],"stateMutability":"view"},{"type":"function","name":"tokenIdToUriExtension","inputs":[{"name":"","type":"uint256","internalType":"uint256"}],"outputs":[{"name":"","type":"uint256","internalType":"uint256"}],"stateMutability":"view"},{"type":"function","name":"tokenOfOwnerByIndex","inputs":[{"name":"owner","type":"address","internalType":"address"},{"name":"index","type":"uint256","internalType":"uint256"}],"outputs":[{"name":"","type":"uint256","internalType":"uint256"}],"stateMutability":"view"},{"type":"function","name":"tokenURI","inputs":[{"name":"_tokenId","type":"uint256","internalType":"uint256"}],"outputs":[{"name":"","type":"string","internalType":"string"}],"stateMutability":"view"},{"type":"function","name":"totalNumberOfBuyers","inputs":[],"outputs":[{"name":"","type":"uint256","internalType":"uint256"}],"stateMutability":"view"},{"type":"function","name":"totalSupply","inputs":[],"outputs":[{"name":"","type":"uint256","internalType":"uint256"}],"stateMutability":"view"},{"type":"function","name":"transferFrom","inputs":[{"name":"from","type":"address","internalType":"address"},{"name":"to","type":"address","internalType":"address"},{"name":"tokenId","type":"uint256","internalType":"uint256"}],"outputs":[],"stateMutability":"nonpayable"},{"type":"function","name":"whitelistCounter","inputs":[],"outputs":[{"name":"","type":"uint16","internalType":"uint16"}],"stateMutability":"view"},{"type":"event","name":"Approval","inputs":[{"name":"owner","type":"address","indexed":true,"internalType":"address"},{"name":"approved","type":"address","indexed":true,"internalType":"address"},{"name":"tokenId","type":"uint256","indexed":true,"internalType":"uint256"}],"anonymous":false},{"type":"event","name":"ApprovalForAll","inputs":[{"name":"owner","type":"address","indexed":true,"internalType":"address"},{"name":"operator","type":"address","indexed":true,"internalType":"address"},{"name":"approved","type":"bool","indexed":false,"internalType":"bool"}],"anonymous":false},{"type":"event","name":"RaffleWinnersAdded","inputs":[{"name":"winners","type":"address[]","indexed":false,"internalType":"address[]"}],"anonymous":false},{"type":"event","name":"RoyaltyReceiverChanged","inputs":[{"name":"newReceiver","type":"address","indexed":false,"internalType":"address"}],"anonymous":false},{"type":"event","name":"TokenPriceChanged","inputs":[{"name":"newPrice","type":"uint256","indexed":false,"internalType":"uint256"}],"anonymous":false},{"type":"event","name":"Transfer","inputs":[{"name":"from","type":"address","indexed":true,"internalType":"address"},{"name":"to","type":"address","indexed":true,"internalType":"address"},{"name":"tokenId","type":"uint256","indexed":true,"internalType":"uint256"}],"anonymous":false},{"type":"event","name":"VRFRequestCreated","inputs":[{"name":"requestId","type":"uint256","indexed":false,"internalType":"uint256"}],"anonymous":false},{"type":"error","name":"ERC721EnumerableForbiddenBatchMint","inputs":[]},{"type":"error","name":"ERC721IncorrectOwner","inputs":[{"name":"sender","type":"address","internalType":"address"},{"name":"tokenId","type":"uint256","internalType":"uint256"},{"name":"owner","type":"address","internalType":"address"}]},{"type":"error","name":"ERC721InsufficientApproval","inputs":[{"name":"operator","type":"address","internalType":"address"},{"name":"tokenId","type":"uint256","internalType":"uint256"}]},{"type":"error","name":"ERC721InvalidApprover","inputs":[{"name":"approver","type":"address","internalType":"address"}]},{"type":"error","name":"ERC721InvalidOperator","inputs":[{"name":"operator","type":"address","internalType":"address"}]},{"type":"error","name":"ERC721InvalidOwner","inputs":[{"name":"owner","type":"address","internalType":"address"}]},{"type":"error","name":"ERC721InvalidReceiver","inputs":[{"name":"receiver","type":"address","internalType":"address"}]},{"type":"error","name":"ERC721InvalidSender","inputs":[{"name":"sender","type":"address","internalType":"address"}]},{"type":"error","name":"ERC721NonexistentToken","inputs":[{"name":"tokenId","type":"uint256","internalType":"uint256"}]},{"type":"error","name":"ERC721OutOfBoundsIndex","inputs":[{"name":"owner","type":"address","internalType":"address"},{"name":"index","type":"uint256","internalType":"uint256"}]},{"type":"error","name":"OnlyCoordinatorCanFulfill","inputs":[{"name":"have","type":"address","internalType":"address"},{"name":"want","type":"address","internalType":"address"}]},{"type":"error","name":"OrcNation__CompMintAlreadyAssignedToAddress","inputs":[]},{"type":"error","name":"OrcNation__CompMintAlreadyClaimed","inputs":[]},{"type":"error","name":"OrcNation__InsufficientPayment","inputs":[{"name":"paymentDue","type":"uint256","internalType":"uint256"}]},{"type":"error","name":"OrcNation__InvalidNewPrice","inputs":[]},{"type":"error","name":"OrcNation__InvalidSaleTime","inputs":[]},{"type":"error","name":"OrcNation__MaxCompMintsExceeded","inputs":[]},{"type":"error","name":"OrcNation__MaxMintsPerTransactionExceeded","inputs":[]},{"type":"error","name":"OrcNation__MaxThreePresaleMintsPerWhitelistedAddress","inputs":[]},{"type":"error","name":"OrcNation__MintingNotOpen","inputs":[]},{"type":"error","name":"OrcNation__MustMintAtLeastOneToken","inputs":[]},{"type":"error","name":"OrcNation__NotEligibleForCompMint","inputs":[]},{"type":"error","name":"OrcNation__NotWhitelisted","inputs":[]},{"type":"error","name":"OrcNation__OnlyAdmin","inputs":[]},{"type":"error","name":"OrcNation__OnlyGovernor","inputs":[]},{"type":"error","name":"OrcNation__OnlyRaffle","inputs":[]},{"type":"error","name":"OrcNation__PriceFeedAnswerNegative","inputs":[]},{"type":"error","name":"OrcNation__RaffleNotComplete","inputs":[]},{"type":"error","name":"OrcNation__TokenDoesNotExist","inputs":[]},{"type":"error","name":"OrcNation__WillExceedMaxOwnerMints","inputs":[]},{"type":"error","name":"OrcNation__WillExceedMaxSupply","inputs":[]},{"type":"error","name":"OrcNation__WillExceedMaxWhitelistees","inputs":[]}],"bytecode":{"object":"0x6101a06040526041600a556127106010557f4b09e658ed251bcafeebbc69400383d49f344ace09b9576fe248bb02c003fe9f601955601a8054600160401b600160901b0319166e01000f4240000300000000000000001790553480156200006557600080fd5b5060405162003e4338038062003e43833981016040819052620000889162000294565b896040518060400160405280600981526020016827b931a730ba34b7b760b91b815250604051806040016040528060048152602001634f52435360e01b8152508160009081620000d9919062000408565b506001620000e8828262000408565b5050506001600160a01b0316608052428410806200010557508383105b1562000124576040516336e24cf360e01b815260040160405180910390fd5b6001600160a01b03808b1660a05289811660c05288811661012052871661010052600d80546001600160a01b03191633179055600e62000165828262000408565b50506101609290925261018052601a80546001600160401b0319166001600160401b039092169190911790556001600160a01b0391821660e052166101405250620004d492505050565b80516001600160a01b0381168114620001c757600080fd5b919050565b634e487b7160e01b600052604160045260246000fd5b600082601f830112620001f457600080fd5b81516001600160401b0380821115620002115762000211620001cc565b604051601f8301601f19908116603f011681019082821181831017156200023c576200023c620001cc565b81604052838152602092508660208588010111156200025a57600080fd5b600091505b838210156200027e57858201830151818301840152908201906200025f565b6000602085830101528094505050505092915050565b6000806000806000806000806000806101408b8d031215620002b557600080fd5b620002c08b620001af565b9950620002d060208c01620001af565b9850620002e060408c01620001af565b9750620002f060608c01620001af565b96506200030060808c01620001af565b95506200031060a08c01620001af565b60c08c015160e08d01516101008e015192975090955093506001600160401b0380821682146200033f57600080fd5b6101208d0151919350808211156200035657600080fd5b50620003658d828e01620001e2565b9150509295989b9194979a5092959850565b600181811c908216806200038c57607f821691505b602082108103620003ad57634e487b7160e01b600052602260045260246000fd5b50919050565b601f82111562000403576000816000526020600020601f850160051c81016020861015620003de5750805b601f850160051c820191505b81811015620003ff57828155600101620003ea565b5050505b505050565b81516001600160401b03811115620004245762000424620001cc565b6200043c8162000435845462000377565b84620003b3565b602080601f8311600181146200047457600084156200045b5750858301515b600019600386901b1c1916600185901b178555620003ff565b600085815260208120601f198616915b82811015620004a55788860151825594840194600190910190840162000484565b5085821015620004c45787850151600019600388901b60f8161c191681555b5050505050600190811b01905550565b60805160a05160c05160e0516101005161012051610140516101605161018051613872620005d160003960008181610a890152818161119a0152611b860152600081816105aa01528181610bea0152818161112e0152818161116f01528181611b5b0152611d2c0152600061053a01526000818161099101528181610ebb015281816117260152818161192301528181611a890152611e16015260008181610b3b01526112ba01526000818161095d015281816113ba01528181612bab0152612c3e015260008181610ca9015281816115a1015261164d01526000818161043b01526129f6015260008181610f6c0152610fae01526138726000f3fe6080604052600436106103ef5760003560e01c80636352211e11610208578063a69e689c11610118578063d5a9dea4116100ab578063e8c93ec91161007a578063e8c93ec914610ce1578063e985e9c514610d0e578063ee1daa4314610d2e578063f19e75d414610d43578063f64bfaba14610d6357600080fd5b8063d5a9dea414610c77578063d8f4d5d014610c97578063dbdbbc9114610c2c578063e575039514610ccb57600080fd5b8063b88d4fde116100e7578063b88d4fde14610c0c578063c5f8776c14610c2c578063c6a91b4214610c42578063c87b56dd14610c5757600080fd5b8063a69e689c14610b5d578063ae10426514610b96578063b0fb162f14610bb6578063b4cf564814610bd857600080fd5b80637f6497831161019b5780639208383a1161016a5780639208383a14610ac157806395d89b4114610ad6578063a22cb46514610aeb578063a5bd523514610b0b578063a5f0292b14610b2957600080fd5b80637f64978314610a375780638dc251e314610a575780638e26d2aa14610a77578063914db51a14610aab57600080fd5b80637263c07e116101d75780637263c07e146109d357806373416c24146109e857806377071052146109fd5780637ccfd7fc14610a1357600080fd5b80636352211e1461092b5780636c70e8511461094b5780636dc0ae221461097f57806370a08231146109b357600080fd5b80632a55feec1161030357806342842e0e1161029657806354a063ae1161026557806354a063ae146108ad57806356189236146108c25780635a59d966146108d75780635ab9120c146108f557806361728f391461091557600080fd5b806342842e0e1461081b5780634404ee841461083b5780634654e6d61461085b5780634f6ccce71461088d57600080fd5b80633af32abf116102d25780633af32abf146107835780633c404a9c146107bc5780633edff20f146107ef57806340c10f191461080857600080fd5b80632a55feec146106f05780632f745c591461072057806332cb6b0c1461074057806333fdcf521461075657600080fd5b8063121925a21161038657806323b872dd1161035557806323b872dd146105f157806324f746971461061157806326f27e6d1461064a578063289016ed146106785780632a55205a146106b157600080fd5b8063121925a21461055c57806318160ddd1461057c5780631a2069101461059b5780631fe543e3146105d157600080fd5b8063095ea7b3116103c2578063095ea7b3146104b757806309c1ba2e146104d95780630cac36b214610513578063117803e31461052857600080fd5b806301ffc9a7146103f457806305f6a9241461042957806306fdde0314610475578063081812fc14610497575b600080fd5b34801561040057600080fd5b5061041461040f366004612eb3565b610d85565b60405190151581526020015b60405180910390f35b34801561043557600080fd5b5061045d7f000000000000000000000000000000000000000000000000000000000000000081565b6040516001600160a01b039091168152602001610420565b34801561048157600080fd5b5061048a610dd7565b6040516104209190612f20565b3480156104a357600080fd5b5061045d6104b2366004612f33565b610e69565b3480156104c357600080fd5b506104d76104d2366004612f68565b610e92565b005b3480156104e557600080fd5b50601a546104fa9067ffffffffffffffff1681565b60405167ffffffffffffffff9091168152602001610420565b34801561051f57600080fd5b5061048a610ea1565b34801561053457600080fd5b5061045d7f000000000000000000000000000000000000000000000000000000000000000081565b34801561056857600080fd5b506104d7610577366004612f33565b610eb0565b34801561058857600080fd5b506008545b604051908152602001610420565b3480156105a757600080fd5b507f0000000000000000000000000000000000000000000000000000000000000000421015610414565b3480156105dd57600080fd5b506104d76105ec366004612fd9565b610f61565b3480156105fd57600080fd5b506104d761060c36600461308b565b610fea565b34801561061d57600080fd5b50601a5461063590600160501b900463ffffffff1681565b60405163ffffffff9091168152602001610420565b34801561065657600080fd5b50600b546106659061ffff1681565b60405161ffff9091168152602001610420565b34801561068457600080fd5b506104146106933660046130c7565b6001600160a01b031660009081526016602052604090205460ff1690565b3480156106bd57600080fd5b506106d16106cc3660046130e2565b611075565b604080516001600160a01b039093168352602083019190915201610420565b3480156106fc57600080fd5b5061041461070b3660046130c7565b60186020526000908152604090205460ff1681565b34801561072c57600080fd5b5061058d61073b366004612f68565b6110c5565b34801561074c57600080fd5b5061066561271081565b34801561076257600080fd5b5061058d610771366004612f33565b60136020526000908152604090205481565b34801561078f57600080fd5b5061041461079e3660046130c7565b6001600160a01b031660009081526014602052604090205460ff1690565b3480156107c857600080fd5b506107d26101f481565b6040516bffffffffffffffffffffffff9091168152602001610420565b3480156107fb57600080fd5b50600b5461ffff1661058d565b61058d610816366004612f68565b61112a565b34801561082757600080fd5b506104d761083636600461308b565b61138f565b34801561084757600080fd5b506104d7610856366004613104565b6113af565b34801561086757600080fd5b50600b5461087b9062010000900460ff1681565b60405160ff9091168152602001610420565b34801561089957600080fd5b5061058d6108a8366004612f33565b611543565b3480156108b957600080fd5b5061058d61159c565b3480156108ce57600080fd5b50600f5461058d565b3480156108e357600080fd5b50600b5462010000900460ff1661058d565b34801561090157600080fd5b506104d76109103660046130c7565b611711565b34801561092157600080fd5b5061058d60195481565b34801561093757600080fd5b5061045d610946366004612f33565b6118bb565b34801561095757600080fd5b5061045d7f000000000000000000000000000000000000000000000000000000000000000081565b34801561098b57600080fd5b5061045d7f000000000000000000000000000000000000000000000000000000000000000081565b3480156109bf57600080fd5b5061058d6109ce3660046130c7565b6118c6565b3480156109df57600080fd5b50610665603281565b3480156109f457600080fd5b5060175461058d565b348015610a0957600080fd5b5061058d600c5481565b348015610a1f57600080fd5b50601a5461063590600160701b900463ffffffff1681565b348015610a4357600080fd5b506104d7610a52366004613104565b61190e565b348015610a6357600080fd5b506104d7610a723660046130c7565b611a7e565b348015610a8357600080fd5b5061058d7f000000000000000000000000000000000000000000000000000000000000000081565b348015610ab757600080fd5b5061058d600a5481565b348015610acd57600080fd5b50610665600381565b348015610ae257600080fd5b5061048a611b27565b348015610af757600080fd5b506104d7610b06366004613187565b611b36565b348015610b1757600080fd5b50600d546001600160a01b031661045d565b348015610b3557600080fd5b5061045d7f000000000000000000000000000000000000000000000000000000000000000081565b348015610b6957600080fd5b50610414610b783660046130c7565b6001600160a01b031660009081526015602052604090205460ff1690565b348015610ba257600080fd5b5061058d610bb1366004612f33565b611b41565b348015610bc257600080fd5b50601a5461066590600160401b900461ffff1681565b348015610be457600080fd5b5061058d7f000000000000000000000000000000000000000000000000000000000000000081565b348015610c1857600080fd5b506104d7610c273660046131be565b611bdb565b348015610c3857600080fd5b506106656101f481565b348015610c4e57600080fd5b50610665600a81565b348015610c6357600080fd5b5061048a610c72366004612f33565b611bf2565b348015610c8357600080fd5b5061045d610c92366004612f33565b611c68565b348015610ca357600080fd5b5061045d7f000000000000000000000000000000000000000000000000000000000000000081565b348015610cd757600080fd5b5061058d60105481565b348015610ced57600080fd5b50610d01610cfc366004612f33565b611c98565b604051610420919061327e565b348015610d1a57600080fd5b50610414610d293660046132c2565b611cfa565b348015610d3a57600080fd5b5061058d611d28565b348015610d4f57600080fd5b5061058d610d5e366004612f33565b611dfe565b348015610d6f57600080fd5b50610d78611f23565b60405161042091906132f5565b60006301ffc9a760e01b6001600160e01b031983161480610db657506380ac58cd60e01b6001600160e01b03198316145b80610dd1575063152a902d60e11b6001600160e01b03198316145b92915050565b606060008054610de690613336565b80601f0160208091040260200160405190810160405280929190818152602001828054610e1290613336565b8015610e5f5780601f10610e3457610100808354040283529160200191610e5f565b820191906000526020600020905b815481529060010190602001808311610e4257829003601f168201915b5050505050905090565b6000610e7482611f84565b506000828152600460205260409020546001600160a01b0316610dd1565b610e9d828233611fbd565b5050565b6060600e8054610de690613336565b336001600160a01b037f00000000000000000000000000000000000000000000000000000000000000001614610ef85760405162ac0b2f60e41b815260040160405180910390fd5b6020811080610f075750606181115b15610f2557604051631d0bf16360e31b815260040160405180910390fd5b600a8190556040518181527fac21bacd333b316c6640fca5086322638b0a7aa4367179afd5dfcbe0a5427bc7906020015b60405180910390a150565b336001600160a01b037f00000000000000000000000000000000000000000000000000000000000000001614610fe05760405163073e64fd60e21b81523360048201526001600160a01b037f00000000000000000000000000000000000000000000000000000000000000001660248201526044015b60405180910390fd5b610e9d8282611fca565b6001600160a01b03821661101457604051633250574960e11b815260006004820152602401610fd7565b60006110218383336120b9565b9050836001600160a01b0316816001600160a01b03161461106f576040516364283d7b60e01b81526001600160a01b0380861660048301526024820184905282166044820152606401610fd7565b50505050565b60008080611082856118bb565b6001600160a01b03160361109557600080fd5b600d546001600160a01b03166127106110b06101f486613386565b6110ba91906133b3565b915091509250929050565b60006110d0836118c6565b82106111015760405163295f44f760e21b81526001600160a01b038416600482015260248101839052604401610fd7565b506001600160a01b03919091166000908152600660209081526040808320938352929052205490565b60007f000000000000000000000000000000000000000000000000000000000000000042101561116d5760405163f0b9693f60e01b815260040160405180910390fd5b7f000000000000000000000000000000000000000000000000000000000000000042101580156111bc57507f000000000000000000000000000000000000000000000000000000000000000042105b1561122f576001600160a01b03831660009081526014602052604090205460ff166111fa5760405163cb060eb160e01b815260040160405180910390fd5b600382611206856118c6565b61121091906133c7565b111561122f576040516380b2c43f60e01b815260040160405180910390fd5b60018210156112515760405163ea1112df60e01b815260040160405180910390fd5b600a8211156112735760405163416296fd60e01b815260040160405180910390fd5b61127c8261218e565b600061128783611b41565b9050803410156112ad576040516334272af160e01b815260048101829052602401610fd7565b6112b6846121c2565b60007f00000000000000000000000000000000000000000000000000000000000000006001600160a01b03163460405160006040518083038185875af1925050503d8060008114611323576040519150601f19603f3d011682016040523d82523d6000602084013e611328565b606091505b50509050806113795760405162461bcd60e51b815260206004820152601760248201527f5061796d656e74207472616e73666572206661696c65640000000000000000006044820152606401610fd7565b60006113858686612249565b9695505050505050565b6113aa83838360405180602001604052806000815250611bdb565b505050565b336001600160a01b037f000000000000000000000000000000000000000000000000000000000000000016146113f85760405163726c530160e01b815260040160405180910390fd5b60005b818110156115055760016015600085858581811061141b5761141b6133da565b905060200201602081019061143091906130c7565b6001600160a01b0316815260208101919091526040016000908120805460ff191692151592909217909155601690848484818110611470576114706133da565b905060200201602081019061148591906130c7565b6001600160a01b0316815260208101919091526040016000205460ff16156114fd576000601660008585858181106114bf576114bf6133da565b90506020020160208101906114d491906130c7565b6001600160a01b031681526020810191909152604001600020805460ff19169115159190911790555b6001016113fb565b507f743d27e70dad1517ab7a2613a62cb57ea1ac4d6c0ca6d489bfbb5b468400f5d982826040516115379291906133f0565b60405180910390a15050565b600061154e60085490565b82106115775760405163295f44f760e21b81526000600482015260248101839052604401610fd7565b6008828154811061158a5761158a6133da565b90600052602060002001549050919050565b6000807f00000000000000000000000000000000000000000000000000000000000000006001600160a01b031663feaf968c6040518163ffffffff1660e01b815260040160a060405180830381865afa1580156115fd573d6000803e3d6000fd5b505050506040513d601f19601f820116820180604052508101906116219190613456565b505050915050600081121561164957604051632bea283f60e11b815260040160405180910390fd5b60007f00000000000000000000000000000000000000000000000000000000000000006001600160a01b031663313ce5676040518163ffffffff1660e01b8152600401602060405180830381865afa1580156116a9573d6000803e3d6000fd5b505050506040513d601f19601f820116820180604052508101906116cd91906134a6565b6116d890600a6135ad565b90506000600a54670de0b6b3a76400006116f29190613386565b9050816116ff84836135bc565b61170991906135ea565b935050505090565b604051630935e01b60e21b81523360048201527f00000000000000000000000000000000000000000000000000000000000000006001600160a01b0316906324d7806c90602401602060405180830381865afa158015611775573d6000803e3d6000fd5b505050506040513d601f19601f82011682018060405250810190611799919061361a565b6117b6576040516354fe416f60e01b815260040160405180910390fd5b600b546032906117d09062010000900460ff166001613637565b60ff1611156117f257604051630138ee3960e31b815260040160405180910390fd5b600b805460029061180b9062010000900460ff16613650565b82546101009290920a60ff8181021990931691831602179091556001600160a01b038216600090815260166020526040902054161561185d57604051632d11162b60e21b815260040160405180910390fd5b6001600160a01b03811660009081526015602052604090205460ff1615611897576040516348c3a61560e11b815260040160405180910390fd5b6001600160a01b03166000908152601560205260409020805460ff19166001179055565b6000610dd182611f84565b60006001600160a01b0382166118f2576040516322718ad960e21b815260006004820152602401610fd7565b506001600160a01b031660009081526003602052604090205490565b604051630935e01b60e21b81523360048201527f00000000000000000000000000000000000000000000000000000000000000006001600160a01b0316906324d7806c90602401602060405180830381865afa158015611972573d6000803e3d6000fd5b505050506040513d601f19601f82011682018060405250810190611996919061361a565b6119b3576040516354fe416f60e01b815260040160405180910390fd5b600b546101f4906119c990839061ffff166133c7565b11156119e8576040516354f4fdbf60e11b815260040160405180910390fd5b60005b818110156113aa57600b8054600090611a079061ffff1661366f565b91906101000a81548161ffff021916908361ffff160217905550600160146000858585818110611a3957611a396133da565b9050602002016020810190611a4e91906130c7565b6001600160a01b031681526020810191909152604001600020805460ff19169115159190911790556001016119eb565b336001600160a01b037f00000000000000000000000000000000000000000000000000000000000000001614611ac65760405162ac0b2f60e41b815260040160405180910390fd5b6001600160a01b038116611ad957600080fd5b600d80546001600160a01b0319166001600160a01b0383169081179091556040519081527ff18ed8da4fbddf768618d066780de11fb9a756a8b30128c77e6a128500b65a3190602001610f56565b606060018054610de690613336565b610e9d338383612322565b60008082611b4d61159c565b611b579190613386565b90507f00000000000000000000000000000000000000000000000000000000000000004210158015611ba857507f000000000000000000000000000000000000000000000000000000000000000042105b15611bc7576064611bba826055613386565b611bc491906133b3565b90505b611bd4620186a0826133b3565b9392505050565b611be6848484610fea565b61106f848484846123c1565b60606000611bff836118bb565b6001600160a01b031603611c265760405163039530c360e61b815260040160405180910390fd5b600082815260136020526040902054600e90611c41906124ea565b604051602001611c529291906136ac565b6040516020818303038152906040529050919050565b600060178281548110611c7d57611c7d6133da565b6000918252602090912001546001600160a01b031692915050565b600081815260116020908152604091829020805483518184028101840190945280845260609392830182828015611cee57602002820191906000526020600020905b815481526020019060010190808311611cda575b50505050509050919050565b6001600160a01b03918216600090815260056020908152604080832093909416825291909152205460ff1690565b60007f0000000000000000000000000000000000000000000000000000000000000000421015611d6b5760405163f0b9693f60e01b815260040160405180910390fd5b3360009081526015602052604090205460ff16611d9b57604051631624b2cf60e11b815260040160405180910390fd5b3360009081526016602052604090205460ff1615611dcc57604051632d11162b60e21b815260040160405180910390fd5b611dd6600161218e565b336000818152601660205260408120805460ff191660019081179091559091610dd191612249565b604051630935e01b60e21b81523360048201526000907f00000000000000000000000000000000000000000000000000000000000000006001600160a01b0316906324d7806c90602401602060405180830381865afa158015611e65573d6000803e3d6000fd5b505050506040513d601f19601f82011682018060405250810190611e89919061361a565b611ea6576040516354fe416f60e01b815260040160405180910390fd5b600c546101f490611eb790846133c7565b1115611ed65760405163c64fc4cb60e01b815260040160405180910390fd5b600a821115611ef85760405163416296fd60e01b815260040160405180910390fd5b611f018261218e565b81600c6000828254611f1391906133c7565b90915550610dd190503383612249565b60606017805480602002602001604051908101604052809291908181526020018280548015610e5f57602002820191906000526020600020905b81546001600160a01b03168152600190910190602001808311611f5d575050505050905090565b6000818152600260205260408120546001600160a01b031680610dd157604051637e27328960e01b815260048101849052602401610fd7565b6113aa838383600161257d565b60105460005b6000848152601160205260409020548110156120b15760008284600081518110611ffc57611ffc6133da565b60200260200101518360405160200161201f929190918252602082015260400190565b6040516020818303038152906040528051906020012060001c6120429190613766565b905060006120508285612683565b90508060136000601160008a8152602001908152602001600020868154811061207b5761207b6133da565b9060005260206000200154815260200190815260200160002081905550836120a29061377a565b93508260010192505050611fd0565b506010555050565b6000806120c7858585612704565b90506001600160a01b0381166121245761211f84600880546000838152600960205260408120829055600182018355919091527ff3f7a9fe364faab93b216da50a3214154f22a0a2b415b23a84c8169e8b636ee30155565b612147565b846001600160a01b0316816001600160a01b0316146121475761214781856127fd565b6001600160a01b0385166121635761215e8461288e565b612186565b846001600160a01b0316816001600160a01b03161461218657612186858561293d565b949350505050565b600f54612710906121a09083906133c7565b11156121bf5760405163229ed32160e01b815260040160405180910390fd5b50565b6001600160a01b03811660009081526018602052604090205460ff166121bf576017805460018181019092557fc624b66cc0138b8fabc209247f72d758e1cf3343756d543badbf24212bed8c150180546001600160a01b0384166001600160a01b031990911681179091556000908152601860205260409020805460ff1916909117905550565b60008061225461298d565b905060008367ffffffffffffffff81111561227157612271612f92565b60405190808252806020026020018201604052801561229a578160200160208202803683370190505b50905060005b848110156122f157600f600081546122b790613791565b90915550600f546122c9908790612aa1565b600f548282815181106122de576122de6133da565b60209081029190910101526001016122a0565b506000828152601160209081526040909120825161231192840190612e3d565b5061231a612b06565b509392505050565b6001600160a01b03821661235457604051630b61174360e31b81526001600160a01b0383166004820152602401610fd7565b6001600160a01b03838116600081815260056020908152604080832094871680845294825291829020805460ff191686151590811790915591519182527f17307eab39ab6107e8899845ad3d59bd9653f200f220920489ca2b5937696c31910160405180910390a3505050565b6001600160a01b0383163b1561106f57604051630a85bd0160e11b81526001600160a01b0384169063150b7a02906124039033908890879087906004016137aa565b6020604051808303816000875af192505050801561243e575060408051601f3d908101601f1916820190925261243b918101906137dd565b60015b6124a7573d80801561246c576040519150601f19603f3d011682016040523d82523d6000602084013e612471565b606091505b50805160000361249f57604051633250574960e11b81526001600160a01b0385166004820152602401610fd7565b805181602001fd5b6001600160e01b03198116630a85bd0160e11b146124e357604051633250574960e11b81526001600160a01b0385166004820152602401610fd7565b5050505050565b606060006124f783612c9e565b600101905060008167ffffffffffffffff81111561251757612517612f92565b6040519080825280601f01601f191660200182016040528015612541576020820181803683370190505b5090508181016020015b600019016f181899199a1a9b1b9c1cb0b131b232b360811b600a86061a8153600a850494508461254b57509392505050565b808061259157506001600160a01b03821615155b156126535760006125a184611f84565b90506001600160a01b038316158015906125cd5750826001600160a01b0316816001600160a01b031614155b80156125e057506125de8184611cfa565b155b156126095760405163a9fbf51f60e01b81526001600160a01b0384166004820152602401610fd7565b81156126515783856001600160a01b0316826001600160a01b03167f8c5be1e5ebec7d5bd14f71427d1e84f3dd0314c0f7b2291e5b200ac8c7c3b92560405160405180910390a45b505b5050600090815260046020526040902080546001600160a01b0319166001600160a01b0392909216919091179055565b6000828152601260205260408120548161269e6001856137fa565b60008181526012602052604081205491925083156126bc57836126be565b865b90508287146126e55781156126d357816126d5565b825b6000888152601260205260409020555b8115611385576000838152601260205260408120559695505050505050565b6000828152600260205260408120546001600160a01b039081169083161561273157612731818486612d76565b6001600160a01b0381161561276f5761274e60008560008061257d565b6001600160a01b038116600090815260036020526040902080546000190190555b6001600160a01b0385161561279e576001600160a01b0385166000908152600360205260409020805460010190555b60008481526002602052604080822080546001600160a01b0319166001600160a01b0389811691821790925591518793918516917fddf252ad1be2c89b69c2b068fc378daa952ba7f163c4a11628f55a4df523b3ef91a4949350505050565b6000612808836118c6565b60008381526007602052604090205490915080821461285b576001600160a01b03841660009081526006602090815260408083208584528252808320548484528184208190558352600790915290208190555b5060009182526007602090815260408084208490556001600160a01b039094168352600681528383209183525290812055565b6008546000906128a0906001906137fa565b600083815260096020526040812054600880549394509092849081106128c8576128c86133da565b9060005260206000200154905080600883815481106128e9576128e96133da565b60009182526020808320909101929092558281526009909152604080822084905585825281205560088054806129215761292161380d565b6001900381819060005260206000200160009055905550505050565b6000600161294a846118c6565b61295491906137fa565b6001600160a01b039093166000908152600660209081526040808320868452825280832085905593825260079052919091209190915550565b601954601a546040516305d3b1d360e41b8152600481019290925267ffffffffffffffff8116602483015261ffff600160401b820416604483015263ffffffff600160501b820481166064840152600160701b9091041660848201526000906001600160a01b037f00000000000000000000000000000000000000000000000000000000000000001690635d3b1d309060a4016020604051808303816000875af1158015612a3f573d6000803e3d6000fd5b505050506040513d601f19601f82011682018060405250810190612a639190613823565b90507ff2dc9a29f1b257c57ef50cb6c0230cacc6af60a01e5e51bde6ee1657f214a34781604051612a9691815260200190565b60405180910390a190565b6001600160a01b038216612acb57604051633250574960e11b815260006004820152602401610fd7565b6000612ad9838360006120b9565b90506001600160a01b038116156113aa576040516339e3563760e11b815260006004820152602401610fd7565b6107d0600f541015612b1457565b60006107d0600f5410158015612b2d5750610fa0600f54105b15612b3b57506107d0612b96565b610fa0600f5410158015612b525750611770600f54105b15612b605750610fa0612b96565b611770600f5410158015612b785750600f5461271014155b15612b865750611770612b96565b600f5461271003612b9657506127105b60405162baee2160e81b8152600481018290527f00000000000000000000000000000000000000000000000000000000000000006001600160a01b03169063baee2100906024016020604051808303816000875af1158015612bfc573d6000803e3d6000fd5b505050506040513d601f19601f82011682018060405250810190612c20919061361a565b15612c285750565b60405163856a89fd60e01b8152600481018290527f00000000000000000000000000000000000000000000000000000000000000006001600160a01b03169063856a89fd90602401600060405180830381600087803b158015612c8a57600080fd5b505af11580156124e3573d6000803e3d6000fd5b60008072184f03e93ff9f4daa797ed6e38ed64bf6a1f0160401b8310612cdd5772184f03e93ff9f4daa797ed6e38ed64bf6a1f0160401b830492506040015b6d04ee2d6d415b85acef81000000008310612d09576d04ee2d6d415b85acef8100000000830492506020015b662386f26fc100008310612d2757662386f26fc10000830492506010015b6305f5e1008310612d3f576305f5e100830492506008015b6127108310612d5357612710830492506004015b60648310612d65576064830492506002015b600a8310610dd15760010192915050565b612d81838383612dda565b6113aa576001600160a01b038316612daf57604051637e27328960e01b815260048101829052602401610fd7565b60405163177e802f60e01b81526001600160a01b038316600482015260248101829052604401610fd7565b60006001600160a01b038316158015906121865750826001600160a01b0316846001600160a01b03161480612e145750612e148484611cfa565b806121865750506000908152600460205260409020546001600160a01b03908116911614919050565b828054828255906000526020600020908101928215612e78579160200282015b82811115612e78578251825591602001919060010190612e5d565b50612e84929150612e88565b5090565b5b80821115612e845760008155600101612e89565b6001600160e01b0319811681146121bf57600080fd5b600060208284031215612ec557600080fd5b8135611bd481612e9d565b60005b83811015612eeb578181015183820152602001612ed3565b50506000910152565b60008151808452612f0c816020860160208601612ed0565b601f01601f19169290920160200192915050565b602081526000611bd46020830184612ef4565b600060208284031215612f4557600080fd5b5035919050565b80356001600160a01b0381168114612f6357600080fd5b919050565b60008060408385031215612f7b57600080fd5b612f8483612f4c565b946020939093013593505050565b634e487b7160e01b600052604160045260246000fd5b604051601f8201601f1916810167ffffffffffffffff81118282101715612fd157612fd1612f92565b604052919050565b60008060408385031215612fec57600080fd5b8235915060208084013567ffffffffffffffff8082111561300c57600080fd5b818601915086601f83011261302057600080fd5b81358181111561303257613032612f92565b8060051b9150613043848301612fa8565b818152918301840191848101908984111561305d57600080fd5b938501935b8385101561307b57843582529385019390850190613062565b8096505050505050509250929050565b6000806000606084860312156130a057600080fd5b6130a984612f4c565b92506130b760208501612f4c565b9150604084013590509250925092565b6000602082840312156130d957600080fd5b611bd482612f4c565b600080604083850312156130f557600080fd5b50508035926020909101359150565b6000806020838503121561311757600080fd5b823567ffffffffffffffff8082111561312f57600080fd5b818501915085601f83011261314357600080fd5b81358181111561315257600080fd5b8660208260051b850101111561316757600080fd5b60209290920196919550909350505050565b80151581146121bf57600080fd5b6000806040838503121561319a57600080fd5b6131a383612f4c565b915060208301356131b381613179565b809150509250929050565b600080600080608085870312156131d457600080fd5b6131dd85612f4c565b935060206131ec818701612f4c565b935060408601359250606086013567ffffffffffffffff8082111561321057600080fd5b818801915088601f83011261322457600080fd5b81358181111561323657613236612f92565b613248601f8201601f19168501612fa8565b9150808252898482850101111561325e57600080fd5b808484018584013760008482840101525080935050505092959194509250565b6020808252825182820181905260009190848201906040850190845b818110156132b65783518352928401929184019160010161329a565b50909695505050505050565b600080604083850312156132d557600080fd5b6132de83612f4c565b91506132ec60208401612f4c565b90509250929050565b6020808252825182820181905260009190848201906040850190845b818110156132b65783516001600160a01b031683529284019291840191600101613311565b600181811c9082168061334a57607f821691505b60208210810361336a57634e487b7160e01b600052602260045260246000fd5b50919050565b634e487b7160e01b600052601160045260246000fd5b8082028115828204841417610dd157610dd1613370565b634e487b7160e01b600052601260045260246000fd5b6000826133c2576133c261339d565b500490565b80820180821115610dd157610dd1613370565b634e487b7160e01b600052603260045260246000fd5b60208082528181018390526000908460408401835b86811015613431576001600160a01b0361341e84612f4c565b1682529183019190830190600101613405565b509695505050505050565b805169ffffffffffffffffffff81168114612f6357600080fd5b600080600080600060a0868803121561346e57600080fd5b6134778661343c565b945060208601519350604086015192506060860151915061349a6080870161343c565b90509295509295909350565b6000602082840312156134b857600080fd5b815160ff81168114611bd457600080fd5b600181815b808511156135045781600019048211156134ea576134ea613370565b808516156134f757918102915b93841c93908002906134ce565b509250929050565b60008261351b57506001610dd1565b8161352857506000610dd1565b816001811461353e576002811461354857613564565b6001915050610dd1565b60ff84111561355957613559613370565b50506001821b610dd1565b5060208310610133831016604e8410600b8410161715613587575081810a610dd1565b61359183836134c9565b80600019048211156135a5576135a5613370565b029392505050565b6000611bd460ff84168361350c565b6000826135cb576135cb61339d565b600160ff1b8214600019841416156135e5576135e5613370565b500590565b80820260008212600160ff1b8414161561360657613606613370565b8181058314821517610dd157610dd1613370565b60006020828403121561362c57600080fd5b8151611bd481613179565b60ff8181168382160190811115610dd157610dd1613370565b600060ff821660ff810361366657613666613370565b60010192915050565b600061ffff80831681810361368657613686613370565b6001019392505050565b600081516136a2818560208601612ed0565b9290920192915050565b60008084548160018260011c915060018316806136ca57607f831692505b602080841082036136e957634e487b7160e01b86526022600452602486fd5b8180156136fd57600181146137125761373f565b60ff198616895284151585028901965061373f565b60008b81526020902060005b868110156137375781548b82015290850190830161371e565b505084890196505b50505050505061374f8185613690565b64173539b7b760d91b815260050195945050505050565b6000826137755761377561339d565b500690565b60008161378957613789613370565b506000190190565b6000600182016137a3576137a3613370565b5060010190565b6001600160a01b038581168252841660208201526040810183905260806060820181905260009061138590830184612ef4565b6000602082840312156137ef57600080fd5b8151611bd481612e9d565b81810381811115610dd157610dd1613370565b634e487b7160e01b600052603160045260246000fd5b60006020828403121561383557600080fd5b505191905056fea2646970667358221220db164ba0d7adb8b80607646b107d16f15463e51982a76f3e83dc46d874d760e864736f6c63430008170033","linkReferences":{}},"methodIdentifiers":{"GOVERNOR()":"6dc0ae22","MAX_COMP_MINTS()":"7263c07e","MAX_MINTS_PER_TX()":"c6a91b42","MAX_OWNER_MINTS()":"c5f8776c","MAX_PRESALE_MINTS()":"9208383a","MAX_SUPPLY()":"32cb6b0c","MAX_WHITELISTEES()":"dbdbbc91","OWNER()":"117803e3","PAYMENT_SPLITTER()":"a5f0292b","PRESALE()":"b4cf5648","PRICEFEED()":"d8f4d5d0","PRICE_IN_USD()":"914db51a","RAFFLE()":"6c70e851","ROYALTY_BASIS_POINTS()":"3c404a9c","SALE_OPEN()":"8e26d2aa","VRF_COORDINATOR()":"05f6a924","addRaffle2000Winners(address[])":"4404ee84","addToWhitelist(address[])":"7f649783","approve(address,uint256)":"095ea7b3","assignCompMint(address)":"5ab9120c","balanceOf(address)":"70a08231","calculatePrice(uint256)":"ae104265","callbackGasLimit()":"24f74697","compMintCounter()":"4654e6d6","getApproved(uint256)":"081812fc","getBaseUri()":"0cac36b2","getBatchTokens(uint256)":"e8c93ec9","getBuyerByIndex(uint256)":"d5a9dea4","getBuyers()":"f64bfaba","getCompMintCount()":"5a59d966","getCurrentTokenId()":"56189236","getPriceInMATIC()":"54a063ae","getRoyaltyReceiver()":"a5bd5235","getWhitelistCount()":"3edff20f","hasClaimedCompMint(address)":"289016ed","isApprovedForAll(address,address)":"e985e9c5","isBuyer(address)":"2a55feec","isCompMintRecipient(address)":"a69e689c","isMintingOpen()":"1a206910","isWhitelisted(address)":"3af32abf","keyHash()":"61728f39","mint(address,uint256)":"40c10f19","mintComp()":"ee1daa43","name()":"06fdde03","numWords()":"7ccfd7fc","ownerMint(uint256)":"f19e75d4","ownerMintCounter()":"77071052","ownerOf(uint256)":"6352211e","rawFulfillRandomWords(uint256,uint256[])":"1fe543e3","reducePrice(uint256)":"121925a2","remainingUris()":"e5750395","requestConfirmations()":"b0fb162f","royaltyInfo(uint256,uint256)":"2a55205a","safeTransferFrom(address,address,uint256)":"42842e0e","safeTransferFrom(address,address,uint256,bytes)":"b88d4fde","setApprovalForAll(address,bool)":"a22cb465","setRoyaltyReceiver(address)":"8dc251e3","subscriptionId()":"09c1ba2e","supportsInterface(bytes4)":"01ffc9a7","symbol()":"95d89b41","tokenByIndex(uint256)":"4f6ccce7","tokenIdToUriExtension(uint256)":"33fdcf52","tokenOfOwnerByIndex(address,uint256)":"2f745c59","tokenURI(uint256)":"c87b56dd","totalNumberOfBuyers()":"73416c24","totalSupply()":"18160ddd","transferFrom(address,address,uint256)":"23b872dd","whitelistCounter()":"26f27e6d"},"id":45}