{"abi":[{"type":"constructor","inputs":[{"name":"_governor","type":"address","internalType":"address"}],"stateMutability":"nonpayable"},{"type":"fallback","stateMutability":"payable"},{"type":"receive","stateMutability":"payable"},{"type":"function","name":"GOVERNOR","inputs":[],"outputs":[{"name":"","type":"address","internalType":"address"}],"stateMutability":"view"},{"type":"function","name":"allowance","inputs":[{"name":"owner","type":"address","internalType":"address"},{"name":"spender","type":"address","internalType":"address"}],"outputs":[{"name":"","type":"uint256","internalType":"uint256"}],"stateMutability":"view"},{"type":"function","name":"approve","inputs":[{"name":"spender","type":"address","internalType":"address"},{"name":"value","type":"uint256","internalType":"uint256"}],"outputs":[{"name":"","type":"bool","internalType":"bool"}],"stateMutability":"nonpayable"},{"type":"function","name":"balanceOf","inputs":[{"name":"account","type":"address","internalType":"address"}],"outputs":[{"name":"","type":"uint256","internalType":"uint256"}],"stateMutability":"view"},{"type":"function","name":"batchTransfer","inputs":[{"name":"_recipients","type":"address[]","internalType":"address[]"},{"name":"_amounts","type":"uint256[]","internalType":"uint256[]"}],"outputs":[],"stateMutability":"nonpayable"},{"type":"function","name":"decimals","inputs":[],"outputs":[{"name":"","type":"uint8","internalType":"uint8"}],"stateMutability":"view"},{"type":"function","name":"name","inputs":[],"outputs":[{"name":"","type":"string","internalType":"string"}],"stateMutability":"view"},{"type":"function","name":"purchaseTokens","inputs":[],"outputs":[],"stateMutability":"payable"},{"type":"function","name":"symbol","inputs":[],"outputs":[{"name":"","type":"string","internalType":"string"}],"stateMutability":"view"},{"type":"function","name":"totalSupply","inputs":[],"outputs":[{"name":"","type":"uint256","internalType":"uint256"}],"stateMutability":"view"},{"type":"function","name":"transfer","inputs":[{"name":"to","type":"address","internalType":"address"},{"name":"value","type":"uint256","internalType":"uint256"}],"outputs":[{"name":"","type":"bool","internalType":"bool"}],"stateMutability":"nonpayable"},{"type":"function","name":"transferFrom","inputs":[{"name":"from","type":"address","internalType":"address"},{"name":"to","type":"address","internalType":"address"},{"name":"value","type":"uint256","internalType":"uint256"}],"outputs":[{"name":"","type":"bool","internalType":"bool"}],"stateMutability":"nonpayable"},{"type":"function","name":"withdrawETH","inputs":[{"name":"_recipient","type":"address","internalType":"address"},{"name":"_amount","type":"uint256","internalType":"uint256"}],"outputs":[],"stateMutability":"nonpayable"},{"type":"event","name":"Approval","inputs":[{"name":"owner","type":"address","indexed":true,"internalType":"address"},{"name":"spender","type":"address","indexed":true,"internalType":"address"},{"name":"value","type":"uint256","indexed":false,"internalType":"uint256"}],"anonymous":false},{"type":"event","name":"BatchTransfer","inputs":[{"name":"recipients","type":"address[]","indexed":false,"internalType":"address[]"},{"name":"amounts","type":"uint256[]","indexed":false,"internalType":"uint256[]"}],"anonymous":false},{"type":"event","name":"ERC20Withdrawn","inputs":[{"name":"recipient","type":"address","indexed":false,"internalType":"address"},{"name":"token","type":"address","indexed":false,"internalType":"address"},{"name":"amount","type":"uint256","indexed":false,"internalType":"uint256"}],"anonymous":false},{"type":"event","name":"ETHWithdrawn","inputs":[{"name":"recipient","type":"address","indexed":false,"internalType":"address"},{"name":"amount","type":"uint256","indexed":false,"internalType":"uint256"}],"anonymous":false},{"type":"event","name":"TokensPurchased","inputs":[{"name":"buyer","type":"address","indexed":true,"internalType":"address"},{"name":"amount","type":"uint256","indexed":false,"internalType":"uint256"}],"anonymous":false},{"type":"event","name":"Transfer","inputs":[{"name":"from","type":"address","indexed":true,"internalType":"address"},{"name":"to","type":"address","indexed":true,"internalType":"address"},{"name":"value","type":"uint256","indexed":false,"internalType":"uint256"}],"anonymous":false},{"type":"error","name":"ERC20InsufficientAllowance","inputs":[{"name":"spender","type":"address","internalType":"address"},{"name":"allowance","type":"uint256","internalType":"uint256"},{"name":"needed","type":"uint256","internalType":"uint256"}]},{"type":"error","name":"ERC20InsufficientBalance","inputs":[{"name":"sender","type":"address","internalType":"address"},{"name":"balance","type":"uint256","internalType":"uint256"},{"name":"needed","type":"uint256","internalType":"uint256"}]},{"type":"error","name":"ERC20InvalidApprover","inputs":[{"name":"approver","type":"address","internalType":"address"}]},{"type":"error","name":"ERC20InvalidReceiver","inputs":[{"name":"receiver","type":"address","internalType":"address"}]},{"type":"error","name":"ERC20InvalidSender","inputs":[{"name":"sender","type":"address","internalType":"address"}]},{"type":"error","name":"ERC20InvalidSpender","inputs":[{"name":"spender","type":"address","internalType":"address"}]},{"type":"error","name":"OrcsToken__BatchTransferArrayMismatch","inputs":[]},{"type":"error","name":"OrcsToken__NotEnoughTokensToRedeem","inputs":[]},{"type":"error","name":"OrcsToken__OnlyGovernor","inputs":[]},{"type":"error","name":"OrcsToken__RedeemValueAlreadySet","inputs":[]},{"type":"error","name":"OrcsToken__TransferFailed","inputs":[]}],"bytecode":{"object":"0x60a06040523480156200001157600080fd5b5060405162000eaa38038062000eaa8339810160408190526200003491620000a5565b60405180604001604052806005815260200164244f72637360d81b81525060405180604001604052806005815260200164244f52435360d81b81525081600390816200008191906200017e565b5060046200009082826200017e565b5050506001600160a01b03166080526200024a565b600060208284031215620000b857600080fd5b81516001600160a01b0381168114620000d057600080fd5b9392505050565b634e487b7160e01b600052604160045260246000fd5b600181811c908216806200010257607f821691505b6020821081036200012357634e487b7160e01b600052602260045260246000fd5b50919050565b601f82111562000179576000816000526020600020601f850160051c81016020861015620001545750805b601f850160051c820191505b81811015620001755782815560010162000160565b5050505b505050565b81516001600160401b038111156200019a576200019a620000d7565b620001b281620001ab8454620000ed565b8462000129565b602080601f831160018114620001ea5760008415620001d15750858301515b600019600386901b1c1916600185901b17855562000175565b600085815260208120601f198616915b828110156200021b57888601518255948401946001909101908401620001fa565b50858210156200023a5787850151600019600388901b60f8161c191681555b5050505050600190811b01905550565b608051610c3662000274600039600081816101b6015281816103ea01526104ee0152610c366000f3fe6080604052600436106100bd5760003560e01c80634782f7791161007957806388d695b21161005657806388d695b21461022657806395d89b4114610246578063a9059cbb1461025b578063dd62ed3e1461027b57005b80634782f779146101845780636dc0ae22146101a457806370a08231146101f057005b806306fdde03146100c6578063095ea7b3146100f157806318160ddd1461012157806323b872dd14610140578063313ce567146101605780633290ce291461017c57005b366100c457005b005b3480156100d257600080fd5b506100db6102c1565b6040516100e89190610935565b60405180910390f35b3480156100fd57600080fd5b5061011161010c3660046109a0565b610353565b60405190151581526020016100e8565b34801561012d57600080fd5b506002545b6040519081526020016100e8565b34801561014c57600080fd5b5061011161015b3660046109ca565b61036d565b34801561016c57600080fd5b50604051601281526020016100e8565b6100c4610391565b34801561019057600080fd5b506100c461019f3660046109a0565b6103df565b3480156101b057600080fd5b506101d87f000000000000000000000000000000000000000000000000000000000000000081565b6040516001600160a01b0390911681526020016100e8565b3480156101fc57600080fd5b5061013261020b366004610a06565b6001600160a01b031660009081526020819052604090205490565b34801561023257600080fd5b506100c4610241366004610a74565b6104e3565b34801561025257600080fd5b506100db6105eb565b34801561026757600080fd5b506101116102763660046109a0565b6105fa565b34801561028757600080fd5b50610132610296366004610ae0565b6001600160a01b03918216600090815260016020908152604080832093909416825291909152205490565b6060600380546102d090610b13565b80601f01602080910402602001604051908101604052809291908181526020018280546102fc90610b13565b80156103495780601f1061031e57610100808354040283529160200191610349565b820191906000526020600020905b81548152906001019060200180831161032c57829003601f168201915b5050505050905090565b600033610361818585610608565b60019150505b92915050565b60003361037b85828561061a565b61038685858561069d565b506001949350505050565b6000341161039e57600080fd5b6103a833346106fc565b60405134815233907f8f28852646c20cc973d3a8218f7eefed58c25c909f78f0265af4818c3d4dc2719060200160405180910390a2565b336001600160a01b037f00000000000000000000000000000000000000000000000000000000000000001614610428576040516349ca910f60e11b815260040160405180910390fd5b6000826001600160a01b03168260405160006040518083038185875af1925050503d8060008114610475576040519150601f19603f3d011682016040523d82523d6000602084013e61047a565b606091505b505090508061049c57604051637616b41f60e11b815260040160405180910390fd5b604080516001600160a01b0385168152602081018490527f94b2de810873337ed265c5f8cf98c9cffefa06b8607f9a2f1fbaebdfbcfbef1c910160405180910390a1505050565b336001600160a01b037f0000000000000000000000000000000000000000000000000000000000000000161461052c576040516349ca910f60e11b815260040160405180910390fd5b82811461054c576040516304a24c7760e51b815260040160405180910390fd5b60005b838110156105a75761059f85858381811061056c5761056c610b4d565b90506020020160208101906105819190610a06565b84848481811061059357610593610b4d565b905060200201356106fc565b60010161054f565b507f2a8b481c4fd6b79532b02dcb3d102185cbfaf1fe525ae1283184c2fb15cbca1d848484846040516105dd9493929190610b63565b60405180910390a150505050565b6060600480546102d090610b13565b60003361036181858561069d565b6106158383836001610736565b505050565b6001600160a01b038381166000908152600160209081526040808320938616835292905220546000198114610697578181101561068857604051637dc7a0d960e11b81526001600160a01b038416600482015260248101829052604481018390526064015b60405180910390fd5b61069784848484036000610736565b50505050565b6001600160a01b0383166106c757604051634b637e8f60e11b81526000600482015260240161067f565b6001600160a01b0382166106f15760405163ec442f0560e01b81526000600482015260240161067f565b61061583838361080b565b6001600160a01b0382166107265760405163ec442f0560e01b81526000600482015260240161067f565b6107326000838361080b565b5050565b6001600160a01b0384166107605760405163e602df0560e01b81526000600482015260240161067f565b6001600160a01b03831661078a57604051634a1406b160e11b81526000600482015260240161067f565b6001600160a01b038085166000908152600160209081526040808320938716835292905220829055801561069757826001600160a01b0316846001600160a01b03167f8c5be1e5ebec7d5bd14f71427d1e84f3dd0314c0f7b2291e5b200ac8c7c3b925846040516107fd91815260200190565b60405180910390a350505050565b6001600160a01b03831661083657806002600082825461082b9190610bdf565b909155506108a89050565b6001600160a01b038316600090815260208190526040902054818110156108895760405163391434e360e21b81526001600160a01b0385166004820152602481018290526044810183905260640161067f565b6001600160a01b03841660009081526020819052604090209082900390555b6001600160a01b0382166108c4576002805482900390556108e3565b6001600160a01b03821660009081526020819052604090208054820190555b816001600160a01b0316836001600160a01b03167fddf252ad1be2c89b69c2b068fc378daa952ba7f163c4a11628f55a4df523b3ef8360405161092891815260200190565b60405180910390a3505050565b60006020808352835180602085015260005b8181101561096357858101830151858201604001528201610947565b506000604082860101526040601f19601f8301168501019250505092915050565b80356001600160a01b038116811461099b57600080fd5b919050565b600080604083850312156109b357600080fd5b6109bc83610984565b946020939093013593505050565b6000806000606084860312156109df57600080fd5b6109e884610984565b92506109f660208501610984565b9150604084013590509250925092565b600060208284031215610a1857600080fd5b610a2182610984565b9392505050565b60008083601f840112610a3a57600080fd5b50813567ffffffffffffffff811115610a5257600080fd5b6020830191508360208260051b8501011115610a6d57600080fd5b9250929050565b60008060008060408587031215610a8a57600080fd5b843567ffffffffffffffff80821115610aa257600080fd5b610aae88838901610a28565b90965094506020870135915080821115610ac757600080fd5b50610ad487828801610a28565b95989497509550505050565b60008060408385031215610af357600080fd5b610afc83610984565b9150610b0a60208401610984565b90509250929050565b600181811c90821680610b2757607f821691505b602082108103610b4757634e487b7160e01b600052602260045260246000fd5b50919050565b634e487b7160e01b600052603260045260246000fd5b6040808252810184905260008560608301825b87811015610ba4576001600160a01b03610b8f84610984565b16825260209283019290910190600101610b76565b5083810360208501528481526001600160fb1b03851115610bc457600080fd5b8460051b915081866020830137016020019695505050505050565b8082018082111561036757634e487b7160e01b600052601160045260246000fdfea26469706673582212205554e8ef9e93f1206b86159485d22028258a363c7ec2d4c156e6f17a9a140aea64736f6c63430008170033","linkReferences":{}},"methodIdentifiers":{"GOVERNOR()":"6dc0ae22","allowance(address,address)":"dd62ed3e","approve(address,uint256)":"095ea7b3","balanceOf(address)":"70a08231","batchTransfer(address[],uint256[])":"88d695b2","decimals()":"313ce567","name()":"06fdde03","purchaseTokens()":"3290ce29","symbol()":"95d89b41","totalSupply()":"18160ddd","transfer(address,uint256)":"a9059cbb","transferFrom(address,address,uint256)":"23b872dd","withdrawETH(address,uint256)":"4782f779"},"id":49}