{"abi":[{"type":"constructor","inputs":[{"name":"_payees","type":"address[]","internalType":"address[]"},{"name":"_shares","type":"uint256[]","internalType":"uint256[]"},{"name":"_governor","type":"address","internalType":"address"}],"stateMutability":"payable"},{"type":"receive","stateMutability":"payable"},{"type":"function","name":"GOVERNOR","inputs":[],"outputs":[{"name":"","type":"address","internalType":"address"}],"stateMutability":"view"},{"type":"function","name":"claimCompanyShare","inputs":[{"name":"_recipient","type":"address","internalType":"address"}],"outputs":[],"stateMutability":"nonpayable"},{"type":"function","name":"claimShare","inputs":[],"outputs":[],"stateMutability":"nonpayable"},{"type":"function","name":"getAmountReleased","inputs":[{"name":"payee","type":"address","internalType":"address"}],"outputs":[{"name":"","type":"uint256","internalType":"uint256"}],"stateMutability":"view"},{"type":"function","name":"getPayees","inputs":[],"outputs":[{"name":"","type":"address[]","internalType":"address[]"}],"stateMutability":"view"},{"type":"function","name":"getShare","inputs":[{"name":"payee","type":"address","internalType":"address"}],"outputs":[{"name":"","type":"uint256","internalType":"uint256"}],"stateMutability":"view"},{"type":"function","name":"getTotalReceived","inputs":[],"outputs":[{"name":"","type":"uint256","internalType":"uint256"}],"stateMutability":"view"},{"type":"function","name":"getTotalReleased","inputs":[],"outputs":[{"name":"","type":"uint256","internalType":"uint256"}],"stateMutability":"view"},{"type":"function","name":"getTotalShares","inputs":[],"outputs":[{"name":"","type":"uint256","internalType":"uint256"}],"stateMutability":"view"},{"type":"function","name":"isPayee","inputs":[{"name":"","type":"address","internalType":"address"}],"outputs":[{"name":"","type":"bool","internalType":"bool"}],"stateMutability":"view"},{"type":"function","name":"paymentDue","inputs":[{"name":"payee","type":"address","internalType":"address"}],"outputs":[{"name":"","type":"uint256","internalType":"uint256"}],"stateMutability":"view"},{"type":"event","name":"FundsReceived","inputs":[{"name":"from","type":"address","indexed":false,"internalType":"address"},{"name":"amount","type":"uint256","indexed":false,"internalType":"uint256"}],"anonymous":false},{"type":"event","name":"PayeeAdded","inputs":[{"name":"payee","type":"address","indexed":false,"internalType":"address"},{"name":"share","type":"uint256","indexed":false,"internalType":"uint256"}],"anonymous":false},{"type":"event","name":"PaymentTransferred","inputs":[{"name":"payee","type":"address","indexed":false,"internalType":"address"},{"name":"recipient","type":"address","indexed":false,"internalType":"address"},{"name":"amount","type":"uint256","indexed":false,"internalType":"uint256"}],"anonymous":false},{"type":"error","name":"PaymentSplitter__CompanyMustUseClaimCompanyShare","inputs":[]},{"type":"error","name":"PaymentSplitter__DuplicatePayeeAddress","inputs":[]},{"type":"error","name":"PaymentSplitter__GovernorMustBeFirstPayeeAccount","inputs":[]},{"type":"error","name":"PaymentSplitter__InsufficientContractBalance","inputs":[]},{"type":"error","name":"PaymentSplitter__NoPayees","inputs":[]},{"type":"error","name":"PaymentSplitter__NoPaymentDue","inputs":[]},{"type":"error","name":"PaymentSplitter__OnlyGovernor","inputs":[]},{"type":"error","name":"PaymentSplitter__PayeeIsZeroAddress","inputs":[]},{"type":"error","name":"PaymentSplitter__PayeesAndSharesMismatched","inputs":[]},{"type":"error","name":"PaymentSplitter__PaymentTransferFailed","inputs":[]},{"type":"error","name":"PaymentSplitter__PriceFeedAnswerNegative","inputs":[]},{"type":"error","name":"PaymentSplitter__ShareIsZero","inputs":[]},{"type":"error","name":"PaymentSplitter__SharesMustTotalOneHundredPercent","inputs":[]}],"bytecode":{"object":"0x60a060405260405162000c4738038062000c478339810160408190526200002691620003ed565b82516000036200004957604051630ed2d88560e31b815260040160405180910390fd5b81518351146200006c57604051630c87645560e01b815260040160405180910390fd5b82600081518110620000825762000082620004cf565b60200260200101516001600160a01b0316816001600160a01b031614620000bc57604051636cc23eb160e11b815260040160405180910390fd5b6000805b8351811015620000ff57838181518110620000df57620000df620004cf565b602002602001015182620000f49190620004e5565b9150600101620000c0565b50806127101462000123576040516386ba834f60e01b815260040160405180910390fd5b6001600160a01b03821660805260005b8451811015620001905762000187858281518110620001565762000156620004cf565b6020026020010151858381518110620001735762000173620004cf565b60200260200101516200019b60201b60201c565b60010162000133565b50505050506200050d565b6001600160a01b038216620001c357604051631028bea960e31b815260040160405180910390fd5b80600003620001e5576040516333f40a6160e01b815260040160405180910390fd5b6001600160a01b038216600090815260026020526040902054156200021d57604051630cdb816960e21b815260040160405180910390fd5b6004805460018082019092557f8a35acfbc15ff81a39ae7d344fd709f28e8600b4aa8c65c6b64bfe7fe36bd19b0180546001600160a01b0319166001600160a01b0385169081179091556000908152600560209081526040808320805460ff191685179055600290915281208390558154839291906200029f908490620004e5565b9091555050604080516001600160a01b0384168152602081018390527f40c340f65e17194d14ddddb073d3c9f888e3cb52b5aae0c6c7706b4fbc905fac910160405180910390a15050565b634e487b7160e01b600052604160045260246000fd5b604051601f8201601f191681016001600160401b03811182821017156200032b576200032b620002ea565b604052919050565b60006001600160401b038211156200034f576200034f620002ea565b5060051b60200190565b80516001600160a01b03811681146200037157600080fd5b919050565b600082601f8301126200038857600080fd5b81516020620003a16200039b8362000333565b62000300565b8083825260208201915060208460051b870101935086841115620003c457600080fd5b602086015b84811015620003e25780518352918301918301620003c9565b509695505050505050565b6000806000606084860312156200040357600080fd5b83516001600160401b03808211156200041b57600080fd5b818601915086601f8301126200043057600080fd5b81516020620004436200039b8362000333565b82815260059290921b8401810191818101908a8411156200046357600080fd5b948201945b838610156200048c576200047c8662000359565b8252948201949082019062000468565b91890151919750909350505080821115620004a657600080fd5b50620004b58682870162000376565b925050620004c66040850162000359565b90509250925092565b634e487b7160e01b600052603260045260246000fd5b808201808211156200050757634e487b7160e01b600052601160045260246000fd5b92915050565b608051610710620005376000396000818161020201528181610384015261042001526107106000f3fe6080604052600436106100a05760003560e01c80634b3ab9c5116100645780634b3ab9c5146101a3578063666da64f146101d95780636dc0ae22146101f0578063b6ff1d321461023c578063cec6b6b814610272578063d5002f2e1461029257600080fd5b80630592a612146100e457806327f381131461010c578063366653a91461012e578063366f2d861461016e5780634b14c0ef1461018e57600080fd5b366100df57604080513381523460208201527f8e47b87b0ef542cdfa1659c551d88bad38aa7f452d2bbb349ab7530dfec8be8f910160405180910390a1005b600080fd5b3480156100f057600080fd5b506100f96102a7565b6040519081526020015b60405180910390f35b34801561011857600080fd5b506101216102ba565b60405161010391906105e8565b34801561013a57600080fd5b5061015e610149366004610635565b60056020526000908152604090205460ff1681565b6040519015158152602001610103565b34801561017a57600080fd5b506100f9610189366004610635565b61031c565b34801561019a57600080fd5b506000546100f9565b3480156101af57600080fd5b506100f96101be366004610635565b6001600160a01b031660009081526002602052604090205490565b3480156101e557600080fd5b506101ee61037a565b005b3480156101fc57600080fd5b506102247f000000000000000000000000000000000000000000000000000000000000000081565b6040516001600160a01b039091168152602001610103565b34801561024857600080fd5b506100f9610257366004610635565b6001600160a01b031660009081526003602052604090205490565b34801561027e57600080fd5b506101ee61028d366004610635565b610415565b34801561029e57600080fd5b506001546100f9565b600080546102b5904761067b565b905090565b6060600480548060200260200160405190810160405280929190818152602001828054801561031257602002820191906000526020600020905b81546001600160a01b031681526001909101906020018083116102f4575b5050505050905090565b6000806103276102a7565b6001600160a01b038416600090815260036020908152604080832054600154600290935290832054939450919261035e908561068e565b61036891906106a5565b61037291906106c7565b949350505050565b6001600160a01b037f00000000000000000000000000000000000000000000000000000000000000001633036103c35760405163f85b037560e01b815260040160405180910390fd5b60006103cf33336104ba565b604080513380825260208201529081018290529091507f23bd7432b4f17355dcb1afda91f72cb82967c0a16f8166aae618c0aba20b3a7a9060600160405180910390a150565b336001600160a01b037f0000000000000000000000000000000000000000000000000000000000000000161461045e576040516301cfc03b60e51b815260040160405180910390fd5b600061046a33836104ba565b604080513381526001600160a01b03851660208201529081018290529091507f23bd7432b4f17355dcb1afda91f72cb82967c0a16f8166aae618c0aba20b3a7a9060600160405180910390a15050565b6001600160a01b03821660009081526002602052604081205481036104f2576040516333f40a6160e01b815260040160405180910390fd5b60006104fd8461031c565b90508060000361052057604051631692737960e31b815260040160405180910390fd5b804710156105415760405163028988c360e01b815260040160405180910390fd5b80600080828254610552919061067b565b90915550506001600160a01b0384811660009081526003602052604080822080548501905551909185169083908381818185875af1925050503d80600081146105b7576040519150601f19603f3d011682016040523d82523d6000602084013e6105bc565b606091505b50509050806105de57604051636fa4824160e11b815260040160405180910390fd5b5090505b92915050565b6020808252825182820181905260009190848201906040850190845b818110156106295783516001600160a01b031683529284019291840191600101610604565b50909695505050505050565b60006020828403121561064757600080fd5b81356001600160a01b038116811461065e57600080fd5b9392505050565b634e487b7160e01b600052601160045260246000fd5b808201808211156105e2576105e2610665565b80820281158282048414176105e2576105e2610665565b6000826106c257634e487b7160e01b600052601260045260246000fd5b500490565b818103818111156105e2576105e261066556fea26469706673582212207ada038d1a2b9ac23b02619e40102aa9c112ab68f4a155f0a4b357064165a35164736f6c63430008170033","linkReferences":{}},"methodIdentifiers":{"GOVERNOR()":"6dc0ae22","claimCompanyShare(address)":"cec6b6b8","claimShare()":"666da64f","getAmountReleased(address)":"b6ff1d32","getPayees()":"27f38113","getShare(address)":"4b3ab9c5","getTotalReceived()":"0592a612","getTotalReleased()":"4b14c0ef","getTotalShares()":"d5002f2e","isPayee(address)":"366653a9","paymentDue(address)":"366f2d86"},"id":43}