{"abi":[{"type":"constructor","inputs":[{"name":"_payees","type":"address[]","internalType":"address[]"},{"name":"_shares","type":"uint256[]","internalType":"uint256[]"},{"name":"_pricefeed","type":"address","internalType":"address"},{"name":"_governor","type":"address","internalType":"address"},{"name":"_raffle","type":"address","internalType":"address"}],"stateMutability":"payable"},{"type":"receive","stateMutability":"payable"},{"type":"function","name":"GOVERNOR","inputs":[],"outputs":[{"name":"","type":"address","internalType":"address"}],"stateMutability":"view"},{"type":"function","name":"PRICEFEED","inputs":[],"outputs":[{"name":"","type":"address","internalType":"contract IPricefeed"}],"stateMutability":"view"},{"type":"function","name":"RAFFLE","inputs":[],"outputs":[{"name":"","type":"address","internalType":"contract IRaffle"}],"stateMutability":"view"},{"type":"function","name":"RAFFLE_4000_FIRST_PRIZE_USD","inputs":[],"outputs":[{"name":"","type":"uint256","internalType":"uint256"}],"stateMutability":"view"},{"type":"function","name":"RAFFLE_4000_SECOND_PRIZE_USD","inputs":[],"outputs":[{"name":"","type":"uint256","internalType":"uint256"}],"stateMutability":"view"},{"type":"function","name":"RAFFLE_4000_THIRD_PRIZE_USD","inputs":[],"outputs":[{"name":"","type":"uint256","internalType":"uint256"}],"stateMutability":"view"},{"type":"function","name":"RAFFLE_6000_PRIZE_USD","inputs":[],"outputs":[{"name":"","type":"uint256","internalType":"uint256"}],"stateMutability":"view"},{"type":"function","name":"RAFFLE_FINAL_GRAND_PRIZE_USD","inputs":[],"outputs":[{"name":"","type":"uint256","internalType":"uint256"}],"stateMutability":"view"},{"type":"function","name":"claimCompanyShare","inputs":[{"name":"_recipient","type":"address","internalType":"address"}],"outputs":[],"stateMutability":"nonpayable"},{"type":"function","name":"claimShare","inputs":[],"outputs":[],"stateMutability":"nonpayable"},{"type":"function","name":"convertToMATIC","inputs":[{"name":"_amountInUSD","type":"uint256","internalType":"uint256"}],"outputs":[{"name":"","type":"uint256","internalType":"uint256"}],"stateMutability":"view"},{"type":"function","name":"getAmountReleased","inputs":[{"name":"payee","type":"address","internalType":"address"}],"outputs":[{"name":"","type":"uint256","internalType":"uint256"}],"stateMutability":"view"},{"type":"function","name":"getPayees","inputs":[],"outputs":[{"name":"","type":"address[]","internalType":"address[]"}],"stateMutability":"view"},{"type":"function","name":"getRafflePrizeAmount","inputs":[{"name":"_tokenThreshold","type":"uint256","internalType":"uint256"}],"outputs":[{"name":"","type":"uint256[]","internalType":"uint256[]"},{"name":"","type":"uint256","internalType":"uint256"}],"stateMutability":"view"},{"type":"function","name":"getShare","inputs":[{"name":"payee","type":"address","internalType":"address"}],"outputs":[{"name":"","type":"uint256","internalType":"uint256"}],"stateMutability":"view"},{"type":"function","name":"getTotalReceived","inputs":[],"outputs":[{"name":"","type":"uint256","internalType":"uint256"}],"stateMutability":"view"},{"type":"function","name":"getTotalReleased","inputs":[],"outputs":[{"name":"","type":"uint256","internalType":"uint256"}],"stateMutability":"view"},{"type":"function","name":"getTotalShares","inputs":[],"outputs":[{"name":"","type":"uint256","internalType":"uint256"}],"stateMutability":"view"},{"type":"function","name":"isPayee","inputs":[{"name":"","type":"address","internalType":"address"}],"outputs":[{"name":"","type":"bool","internalType":"bool"}],"stateMutability":"view"},{"type":"function","name":"paymentDue","inputs":[{"name":"payee","type":"address","internalType":"address"}],"outputs":[{"name":"","type":"uint256","internalType":"uint256"}],"stateMutability":"view"},{"type":"function","name":"transferRaffleWinnings","inputs":[{"name":"_tokenThreshold","type":"uint256","internalType":"uint256"}],"outputs":[],"stateMutability":"nonpayable"},{"type":"event","name":"FundsReceived","inputs":[{"name":"from","type":"address","indexed":false,"internalType":"address"},{"name":"amount","type":"uint256","indexed":false,"internalType":"uint256"}],"anonymous":false},{"type":"event","name":"PayeeAdded","inputs":[{"name":"payee","type":"address","indexed":false,"internalType":"address"},{"name":"share","type":"uint256","indexed":false,"internalType":"uint256"}],"anonymous":false},{"type":"event","name":"PaymentTransferred","inputs":[{"name":"payee","type":"address","indexed":false,"internalType":"address"},{"name":"recipient","type":"address","indexed":false,"internalType":"address"},{"name":"amount","type":"uint256","indexed":false,"internalType":"uint256"}],"anonymous":false},{"type":"event","name":"RaffleWinningsTransferred","inputs":[{"name":"tokenThreshold","type":"uint256","indexed":false,"internalType":"uint256"},{"name":"amount","type":"uint256","indexed":false,"internalType":"uint256"}],"anonymous":false},{"type":"error","name":"PaymentSplitter__CompanyMustUseClaimCompanyShare","inputs":[]},{"type":"error","name":"PaymentSplitter__DuplicatePayeeAddress","inputs":[]},{"type":"error","name":"PaymentSplitter__GovernorMustBeFirstPayeeAccount","inputs":[]},{"type":"error","name":"PaymentSplitter__InsufficientContractBalance","inputs":[]},{"type":"error","name":"PaymentSplitter__InvalidRaffle","inputs":[]},{"type":"error","name":"PaymentSplitter__NoPayees","inputs":[]},{"type":"error","name":"PaymentSplitter__NoPaymentDue","inputs":[]},{"type":"error","name":"PaymentSplitter__OnlyGovernor","inputs":[]},{"type":"error","name":"PaymentSplitter__PayeeIsZeroAddress","inputs":[]},{"type":"error","name":"PaymentSplitter__PayeesAndSharesMismatched","inputs":[]},{"type":"error","name":"PaymentSplitter__PaymentTransferFailed","inputs":[]},{"type":"error","name":"PaymentSplitter__PriceFeedAnswerNegative","inputs":[]},{"type":"error","name":"PaymentSplitter__RaffleNotComplete","inputs":[]},{"type":"error","name":"PaymentSplitter__RaffleTransferFailed","inputs":[]},{"type":"error","name":"PaymentSplitter__ShareIsZero","inputs":[]},{"type":"error","name":"PaymentSplitter__SharesMustTotalOneHundredPercent","inputs":[]}],"bytecode":{"object":"0x60e0604052604051620016c8380380620016c88339810160408190526200002691620003fb565b84516000036200004957604051630ed2d88560e31b815260040160405180910390fd5b83518551146200006c57604051630c87645560e01b815260040160405180910390fd5b8460008151811062000082576200008262000503565b60200260200101516001600160a01b0316826001600160a01b031614620000bc57604051636cc23eb160e11b815260040160405180910390fd5b6000805b8551811015620000ff57858181518110620000df57620000df62000503565b602002602001015182620000f4919062000519565b9150600101620000c0565b50806127101462000123576040516386ba834f60e01b815260040160405180910390fd5b6001600160a01b0380841660a052848116608052821660c05260005b86518110156200019c576200019387828151811062000162576200016262000503565b60200260200101518783815181106200017f576200017f62000503565b6020026020010151620001a960201b60201c565b6001016200013f565b5050505050505062000541565b6001600160a01b038216620001d157604051631028bea960e31b815260040160405180910390fd5b80600003620001f3576040516333f40a6160e01b815260040160405180910390fd5b6001600160a01b038216600090815260026020526040902054156200022b57604051630cdb816960e21b815260040160405180910390fd5b6004805460018082019092557f8a35acfbc15ff81a39ae7d344fd709f28e8600b4aa8c65c6b64bfe7fe36bd19b0180546001600160a01b0319166001600160a01b0385169081179091556000908152600560209081526040808320805460ff19168517905560029091528120839055815483929190620002ad90849062000519565b9091555050604080516001600160a01b0384168152602081018390527f40c340f65e17194d14ddddb073d3c9f888e3cb52b5aae0c6c7706b4fbc905fac910160405180910390a15050565b634e487b7160e01b600052604160045260246000fd5b604051601f8201601f191681016001600160401b0381118282101715620003395762000339620002f8565b604052919050565b60006001600160401b038211156200035d576200035d620002f8565b5060051b60200190565b80516001600160a01b03811681146200037f57600080fd5b919050565b600082601f8301126200039657600080fd5b81516020620003af620003a98362000341565b6200030e565b8083825260208201915060208460051b870101935086841115620003d257600080fd5b602086015b84811015620003f05780518352918301918301620003d7565b509695505050505050565b600080600080600060a086880312156200041457600080fd5b85516001600160401b03808211156200042c57600080fd5b818801915088601f8301126200044157600080fd5b8151602062000454620003a98362000341565b82815260059290921b8401810191818101908c8411156200047457600080fd5b948201945b838610156200049d576200048d8662000367565b8252948201949082019062000479565b918b0151919950909350505080821115620004b757600080fd5b50620004c68882890162000384565b945050620004d76040870162000367565b9250620004e76060870162000367565b9150620004f76080870162000367565b90509295509295909350565b634e487b7160e01b600052603260045260246000fd5b808201808211156200053b57634e487b7160e01b600052601160045260246000fd5b92915050565b60805160a05160c05161111f620005a9600039600081816102de015281816109f70152610b5501526000818161032a01528181610862015281816108fe015281816109a30152610afb01526000818161043601528181610490015261053c015261111f6000f3fe60806040526004361061012e5760003560e01c80636dc0ae22116100ab578063c043c6261161006f578063c043c626146103c3578063c96517c6146103d9578063cec6b6b8146103ef578063d5002f2e1461040f578063d8f4d5d014610424578063f3e01dce1461045857600080fd5b80636dc0ae22146103185780636ed639f51461034c5780639b69c3c314610362578063b6ff1d3214610378578063bb039f97146103ae57600080fd5b8063366f2d86116100f2578063366f2d861461024a5780634b14c0ef1461026a5780634b3ab9c51461027f578063666da64f146102b55780636c70e851146102cc57600080fd5b80630592a61214610172578063085ef0401461019a578063105de484146101ba57806327f38113146101e8578063366653a91461020a57600080fd5b3661016d57604080513381523460208201527f8e47b87b0ef542cdfa1659c551d88bad38aa7f452d2bbb349ab7530dfec8be8f910160405180910390a1005b600080fd5b34801561017e57600080fd5b50610187610478565b6040519081526020015b60405180910390f35b3480156101a657600080fd5b506101876101b5366004610d44565b61048b565b3480156101c657600080fd5b506101da6101d5366004610d44565b6105fd565b604051610191929190610d99565b3480156101f457600080fd5b506101fd61078e565b6040516101919190610dbb565b34801561021657600080fd5b5061023a610225366004610e08565b60056020526000908152604090205460ff1681565b6040519015158152602001610191565b34801561025657600080fd5b50610187610265366004610e08565b6107f0565b34801561027657600080fd5b50600054610187565b34801561028b57600080fd5b5061018761029a366004610e08565b6001600160a01b031660009081526002602052604090205490565b3480156102c157600080fd5b506102ca610858565b005b3480156102d857600080fd5b506103007f000000000000000000000000000000000000000000000000000000000000000081565b6040516001600160a01b039091168152602001610191565b34801561032457600080fd5b506103007f000000000000000000000000000000000000000000000000000000000000000081565b34801561035857600080fd5b5061018761271081565b34801561036e57600080fd5b506101876101f481565b34801561038457600080fd5b50610187610393366004610e08565b6001600160a01b031660009081526003602052604090205490565b3480156103ba57600080fd5b50610187606481565b3480156103cf57600080fd5b506101876109c481565b3480156103e557600080fd5b5061018761138881565b3480156103fb57600080fd5b506102ca61040a366004610e08565b6108f3565b34801561041b57600080fd5b50600154610187565b34801561043057600080fd5b506103007f000000000000000000000000000000000000000000000000000000000000000081565b34801561046457600080fd5b506102ca610473366004610d44565b610998565b600080546104869047610e4e565b905090565b6000807f00000000000000000000000000000000000000000000000000000000000000006001600160a01b031663feaf968c6040518163ffffffff1660e01b815260040160a060405180830381865afa1580156104ec573d6000803e3d6000fd5b505050506040513d601f19601f820116820180604052508101906105109190610e80565b505050915050600081121561053857604051630495fceb60e11b815260040160405180910390fd5b60007f00000000000000000000000000000000000000000000000000000000000000006001600160a01b031663313ce5676040518163ffffffff1660e01b8152600401602060405180830381865afa158015610598573d6000803e3d6000fd5b505050506040513d601f19601f820116820180604052508101906105bc9190610ed0565b6105c790600a610fd7565b905060006105dd85670de0b6b3a7640000610fe6565b9050816105ea8483611013565b6105f49190611041565b95945050505050565b6060600082610fa01415801561061557508261177014155b801561062357508261271014155b1561064157604051631b432c4560e31b815260040160405180910390fd5b82610fa00361071d5760006106576109c461048b565b905060006106666101f461048b565b90506000610674606461048b565b60408051600380825260808201909252919250600091906020820160608036833701905050905083816000815181106106af576106af611071565b60200260200101818152505082816001815181106106cf576106cf611071565b60200260200101818152505081816002815181106106ef576106ef611071565b602090810291909101015280826107068587610e4e565b6107109190610e4e565b9550955050505050915091565b826117700361078157600061073361138861048b565b6040805160018082528183019092529192506000919060208083019080368337019050509050818160008151811061076d5761076d611071565b602090810291909101015294909350915050565b600061073361271061048b565b606060048054806020026020016040519081016040528092919081815260200182805480156107e657602002820191906000526020600020905b81546001600160a01b031681526001909101906020018083116107c8575b5050505050905090565b6000806107fb610478565b6001600160a01b038416600090815260036020908152604080832054600154600290935290832054939450919261084691906108379086610fe6565b6108419190611087565b610c05565b610850919061109b565b949350505050565b6001600160a01b037f00000000000000000000000000000000000000000000000000000000000000001633036108a15760405163f85b037560e01b815260040160405180910390fd5b60006108ad3333610c18565b604080513380825260208201529081018290529091507f23bd7432b4f17355dcb1afda91f72cb82967c0a16f8166aae618c0aba20b3a7a9060600160405180910390a150565b336001600160a01b037f0000000000000000000000000000000000000000000000000000000000000000161461093c576040516301cfc03b60e51b815260040160405180910390fd5b60006109483383610c18565b604080513381526001600160a01b03851660208201529081018290529091507f23bd7432b4f17355dcb1afda91f72cb82967c0a16f8166aae618c0aba20b3a7a9060600160405180910390a15050565b336001600160a01b037f000000000000000000000000000000000000000000000000000000000000000016146109e1576040516301cfc03b60e51b815260040160405180910390fd5b6040516335d68a8d60e01b8152600481018290527f00000000000000000000000000000000000000000000000000000000000000006001600160a01b0316906335d68a8d906024016020604051808303816000875af1158015610a48573d6000803e3d6000fd5b505050506040513d601f19601f82011682018060405250810190610a6c91906110ae565b610a895760405163fa5de81b60e01b815260040160405180910390fd5b600080610a95836105fd565b9150915080600003610aba57604051631b432c4560e31b815260040160405180910390fd5b80471015610adb5760405163028988c360e01b815260040160405180910390fd5b80600080828254610aec9190610e4e565b90915550506001600160a01b037f00000000000000000000000000000000000000000000000000000000000000001660009081526003602052604081208054839290610b39908490610e4e565b909155505060405163012b84dd60e31b81526001600160a01b037f0000000000000000000000000000000000000000000000000000000000000000169063095c26e8908390610b8e90879087906004016110d0565b6000604051808303818588803b158015610ba757600080fd5b505af1158015610bbb573d6000803e3d6000fd5b505060408051878152602081018690527fedd9808665b515087eaef5f0c82e57c940956f6e8de211c880eec64a47784fef9450019150610bf89050565b60405180910390a1505050565b6000610c12606483611087565b92915050565b6001600160a01b0382166000908152600260205260408120548103610c50576040516333f40a6160e01b815260040160405180910390fd5b6000610c5b846107f0565b905080600003610c7e57604051631692737960e31b815260040160405180910390fd5b80471015610c9f5760405163028988c360e01b815260040160405180910390fd5b80600080828254610cb09190610e4e565b90915550506001600160a01b0384811660009081526003602052604080822080548501905551909185169083908381818185875af1925050503d8060008114610d15576040519150601f19603f3d011682016040523d82523d6000602084013e610d1a565b606091505b5050905080610d3c57604051636fa4824160e11b815260040160405180910390fd5b509392505050565b600060208284031215610d5657600080fd5b5035919050565b60008151808452602080850194506020840160005b83811015610d8e57815187529582019590820190600101610d72565b509495945050505050565b604081526000610dac6040830185610d5d565b90508260208301529392505050565b6020808252825182820181905260009190848201906040850190845b81811015610dfc5783516001600160a01b031683529284019291840191600101610dd7565b50909695505050505050565b600060208284031215610e1a57600080fd5b81356001600160a01b0381168114610e3157600080fd5b9392505050565b634e487b7160e01b600052601160045260246000fd5b80820180821115610c1257610c12610e38565b805169ffffffffffffffffffff81168114610e7b57600080fd5b919050565b600080600080600060a08688031215610e9857600080fd5b610ea186610e61565b9450602086015193506040860151925060608601519150610ec460808701610e61565b90509295509295909350565b600060208284031215610ee257600080fd5b815160ff81168114610e3157600080fd5b600181815b80851115610f2e578160001904821115610f1457610f14610e38565b80851615610f2157918102915b93841c9390800290610ef8565b509250929050565b600082610f4557506001610c12565b81610f5257506000610c12565b8160018114610f685760028114610f7257610f8e565b6001915050610c12565b60ff841115610f8357610f83610e38565b50506001821b610c12565b5060208310610133831016604e8410600b8410161715610fb1575081810a610c12565b610fbb8383610ef3565b8060001904821115610fcf57610fcf610e38565b029392505050565b6000610e3160ff841683610f36565b8082028115828204841417610c1257610c12610e38565b634e487b7160e01b600052601260045260246000fd5b60008261102257611022610ffd565b600160ff1b82146000198414161561103c5761103c610e38565b500590565b80820260008212600160ff1b8414161561105d5761105d610e38565b8181058314821517610c1257610c12610e38565b634e487b7160e01b600052603260045260246000fd5b60008261109657611096610ffd565b500490565b81810381811115610c1257610c12610e38565b6000602082840312156110c057600080fd5b81518015158114610e3157600080fd5b8281526040602082015260006108506040830184610d5d56fea2646970667358221220a83eff7719b5c7004686f73dda218ff756d92078fde19ceb5ba54b0f414f009364736f6c63430008170033","linkReferences":{}},"methodIdentifiers":{"GOVERNOR()":"6dc0ae22","PRICEFEED()":"d8f4d5d0","RAFFLE()":"6c70e851","RAFFLE_4000_FIRST_PRIZE_USD()":"c043c626","RAFFLE_4000_SECOND_PRIZE_USD()":"9b69c3c3","RAFFLE_4000_THIRD_PRIZE_USD()":"bb039f97","RAFFLE_6000_PRIZE_USD()":"c96517c6","RAFFLE_FINAL_GRAND_PRIZE_USD()":"6ed639f5","claimCompanyShare(address)":"cec6b6b8","claimShare()":"666da64f","convertToMATIC(uint256)":"085ef040","getAmountReleased(address)":"b6ff1d32","getPayees()":"27f38113","getRafflePrizeAmount(uint256)":"105de484","getShare(address)":"4b3ab9c5","getTotalReceived()":"0592a612","getTotalReleased()":"4b14c0ef","getTotalShares()":"d5002f2e","isPayee(address)":"366653a9","paymentDue(address)":"366f2d86","transferRaffleWinnings(uint256)":"f3e01dce"},"id":43}