{"abi":[{"type":"constructor","inputs":[{"name":"_vrfCoordinatorV2","type":"address","internalType":"address"},{"name":"_subscriptionId","type":"uint64","internalType":"uint64"},{"name":"_orcNation","type":"address","internalType":"address"},{"name":"_paymentSplitter","type":"address","internalType":"address"},{"name":"_governor","type":"address","internalType":"address"}],"stateMutability":"nonpayable"},{"type":"function","name":"GOVERNOR","inputs":[],"outputs":[{"name":"","type":"address","internalType":"contract IGovernor"}],"stateMutability":"view"},{"type":"function","name":"ORC_NATION","inputs":[],"outputs":[{"name":"","type":"address","internalType":"contract IOrcNation"}],"stateMutability":"view"},{"type":"function","name":"PAYMENT_SPLITTER","inputs":[],"outputs":[{"name":"","type":"address","internalType":"contract IPaymentSplitter"}],"stateMutability":"view"},{"type":"function","name":"VRF_COORDINATOR","inputs":[],"outputs":[{"name":"","type":"address","internalType":"contract VRFCoordinatorV2Interface"}],"stateMutability":"view"},{"type":"function","name":"claimRaffleWinnings","inputs":[],"outputs":[],"stateMutability":"nonpayable"},{"type":"function","name":"drawRaffle","inputs":[{"name":"_tokenThreshold","type":"uint256","internalType":"uint256"}],"outputs":[],"stateMutability":"nonpayable"},{"type":"function","name":"getRaffleWinners","inputs":[{"name":"_tokenThreshold","type":"uint256","internalType":"uint256"}],"outputs":[{"name":"","type":"address[]","internalType":"address[]"}],"stateMutability":"view"},{"type":"function","name":"getRaffleWinnings","inputs":[{"name":"_winner","type":"address","internalType":"address"}],"outputs":[{"name":"","type":"uint256","internalType":"uint256"}],"stateMutability":"view"},{"type":"function","name":"hasClaimedWinnings","inputs":[{"name":"winner","type":"address","internalType":"address"}],"outputs":[{"name":"","type":"bool","internalType":"bool"}],"stateMutability":"view"},{"type":"function","name":"isRaffleWinner","inputs":[{"name":"","type":"address","internalType":"address"}],"outputs":[{"name":"","type":"bool","internalType":"bool"}],"stateMutability":"view"},{"type":"function","name":"isTeamMember","inputs":[{"name":"addr","type":"address","internalType":"address"}],"outputs":[{"name":"","type":"bool","internalType":"bool"}],"stateMutability":"view"},{"type":"function","name":"raffleComplete","inputs":[{"name":"","type":"uint256","internalType":"uint256"}],"outputs":[{"name":"","type":"bool","internalType":"bool"}],"stateMutability":"view"},{"type":"function","name":"raffleDrawn","inputs":[{"name":"","type":"uint256","internalType":"uint256"}],"outputs":[{"name":"","type":"bool","internalType":"bool"}],"stateMutability":"view"},{"type":"function","name":"rawFulfillRandomWords","inputs":[{"name":"requestId","type":"uint256","internalType":"uint256"},{"name":"randomWords","type":"uint256[]","internalType":"uint256[]"}],"outputs":[],"stateMutability":"nonpayable"},{"type":"function","name":"receiveRafflePrize","inputs":[{"name":"_tokenThreshold","type":"uint256","internalType":"uint256"},{"name":"_prizes","type":"uint256[]","internalType":"uint256[]"}],"outputs":[],"stateMutability":"payable"},{"type":"function","name":"requestIds","inputs":[{"name":"","type":"uint256","internalType":"uint256"}],"outputs":[{"name":"","type":"uint256","internalType":"uint256"}],"stateMutability":"view"},{"type":"event","name":"RaffleDrawn","inputs":[{"name":"tokenThreshold","type":"uint256","indexed":false,"internalType":"uint256"},{"name":"requestId","type":"uint256","indexed":false,"internalType":"uint256"}],"anonymous":false},{"type":"event","name":"RafflePrizeAmountReceived","inputs":[{"name":"tokenThreshold","type":"uint256","indexed":false,"internalType":"uint256"},{"name":"prizeAmount","type":"uint256","indexed":false,"internalType":"uint256"}],"anonymous":false},{"type":"event","name":"RaffleWinnersSelected","inputs":[{"name":"tokenThreshold","type":"uint256","indexed":false,"internalType":"uint256"},{"name":"winners","type":"address[]","indexed":false,"internalType":"address[]"}],"anonymous":false},{"type":"event","name":"WinningsClaimed","inputs":[{"name":"winner","type":"address","indexed":false,"internalType":"address"},{"name":"amount","type":"uint256","indexed":false,"internalType":"uint256"}],"anonymous":false},{"type":"error","name":"OnlyCoordinatorCanFulfill","inputs":[{"name":"have","type":"address","internalType":"address"},{"name":"want","type":"address","internalType":"address"}]},{"type":"error","name":"Raffle__InsufficientPrizeTransfer","inputs":[]},{"type":"error","name":"Raffle__NotEnoughTokensSold","inputs":[]},{"type":"error","name":"Raffle__NotPaymentSplitter","inputs":[]},{"type":"error","name":"Raffle__NotRaffleWinner","inputs":[]},{"type":"error","name":"Raffle__OnlyOrcNation","inputs":[]},{"type":"error","name":"Raffle__PrizeMismatch","inputs":[]},{"type":"error","name":"Raffle__RaffleAlreadyDrawn","inputs":[]},{"type":"error","name":"Raffle__WinningsAlreadyClaimed","inputs":[]}],"bytecode":{"object":"0x6101206040527f4b09e658ed251bcafeebbc69400383d49f344ace09b9576fe248bb02c003fe9f60005560018054600160401b600160901b0319166e01000927c0000300000000000000001790553480156200005a57600080fd5b5060405162001533380380620015338339810160408190526200007d91620000e4565b6001600160a01b03948516608081905260a052600180546001600160401b0319166001600160401b03959095169490941790935590831660e052821660c052166101005262000162565b80516001600160a01b0381168114620000df57600080fd5b919050565b600080600080600060a08688031215620000fd57600080fd5b6200010886620000c7565b60208701519095506001600160401b03811681146200012657600080fd5b93506200013660408701620000c7565b92506200014660608701620000c7565b91506200015660808701620000c7565b90509295509295909350565b60805160a05160c05160e05161010051611346620001ed600039600081816102af0152610aff015260008181610236015281816108050152818161087601528181610cdf01528181610e090152610fa401526000818161033e015281816103f10152610a6d01526000818161010a01526109810152600081816105cb015261060d01526113466000f3fe6080604052600436106100f35760003560e01c80636599e8311161008a578063a5f0292b11610059578063a5f0292b1461032c578063baee210014610360578063bbe9f99d14610390578063e5ed1324146103b057600080fd5b80636599e831146102885780636dc0ae221461029d578063856a89fd146102d15780638796ba8c146102f157600080fd5b8063393047ea116100c6578063393047ea146101be5780634823b026146101f75780635294f13714610224578063582219e71461025857600080fd5b806305f6a924146100f8578063095c26e8146101495780631fe543e31461015e57806335d68a8d1461017e575b600080fd5b34801561010457600080fd5b5061012c7f000000000000000000000000000000000000000000000000000000000000000081565b6040516001600160a01b0390911681526020015b60405180910390f35b61015c6101573660046110a6565b6103e6565b005b34801561016a57600080fd5b5061015c6101793660046110a6565b6105c0565b34801561018a57600080fd5b506101ae610199366004611170565b60036020526000908152604090205460ff1681565b6040519015158152602001610140565b3480156101ca57600080fd5b506101ae6101d93660046111a1565b6001600160a01b031660009081526008602052604090205460ff1690565b34801561020357600080fd5b50610217610212366004611170565b61064d565b604051610140919061120a565b34801561023057600080fd5b5061012c7f000000000000000000000000000000000000000000000000000000000000000081565b34801561026457600080fd5b506101ae6102733660046111a1565b60066020526000908152604090205460ff1681565b34801561029457600080fd5b5061015c6106b9565b3480156102a957600080fd5b5061012c7f000000000000000000000000000000000000000000000000000000000000000081565b3480156102dd57600080fd5b5061015c6102ec366004611170565b6107fa565b3480156102fd57600080fd5b5061031e61030c366004611170565b60046020526000908152604090205481565b604051908152602001610140565b34801561033857600080fd5b5061012c7f000000000000000000000000000000000000000000000000000000000000000081565b34801561036c57600080fd5b506101ae61037b366004611170565b60026020526000908152604090205460ff1681565b34801561039c57600080fd5b506101ae6103ab3660046111a1565b610a4b565b3480156103bc57600080fd5b5061031e6103cb3660046111a1565b6001600160a01b031660009081526007602052604090205490565b336001600160a01b037f0000000000000000000000000000000000000000000000000000000000000000161461042f5760405163048c52dd60e11b815260040160405180910390fd5b60008281526005602052604090205481511461045e5760405163f02ac80d60e01b815260040160405180910390fd5b6000805b600084815260056020526040902054811015610561576000848152600560205260408120805460079291908490811061049d5761049d61121d565b60009182526020808320909101546001600160a01b031683528201929092526040018120549003610559578281815181106104da576104da61121d565b60200260200101516007600060056000888152602001908152602001600020848154811061050a5761050a61121d565b60009182526020808320909101546001600160a01b0316835282019290925260400190205582518390829081106105435761054361121d565b6020026020010151826105569190611249565b91505b600101610462565b50803414610582576040516391bd95df60e01b815260040160405180910390fd5b60408051848152602081018390527fa1f1a32fe7e317fa8e00fd9e56a18a55cfc25b88c8688bf67c03b6d0bf123784910160405180910390a1505050565b336001600160a01b037f0000000000000000000000000000000000000000000000000000000000000000161461063f5760405163073e64fd60e21b81523360048201526001600160a01b037f00000000000000000000000000000000000000000000000000000000000000001660248201526044015b60405180910390fd5b6106498282610b70565b5050565b6000818152600560209081526040918290208054835181840281018401909452808452606093928301828280156106ad57602002820191906000526020600020905b81546001600160a01b0316815260019091019060200180831161068f575b50505050509050919050565b33600090815260076020526040812054908190036106ea5760405163235c538760e11b815260040160405180910390fd5b3360009081526008602052604090205460ff161561071b57604051636651e12d60e11b815260040160405180910390fd5b33600081815260086020526040808220805460ff191660011790555190919083908381818185875af1925050503d8060008114610774576040519150601f19603f3d011682016040523d82523d6000602084013e610779565b606091505b50509050806107bc5760405162461bcd60e51b815260206004820152600f60248201526e1d1c985b9cd9995c8819985a5b1959608a1b6044820152606401610636565b60408051338152602081018490527f1a31e733a172afcf46074b3106c17f0c298e226442682a03c1e99ce256139ec291015b60405180910390a15050565b336001600160a01b037f0000000000000000000000000000000000000000000000000000000000000000161461084357604051631d7d5b1d60e31b815260040160405180910390fd5b60008181526002602052604090205460ff1615610873576040516322373a0760e11b815260040160405180910390fd5b807f00000000000000000000000000000000000000000000000000000000000000006001600160a01b031663561892366040518163ffffffff1660e01b8152600401602060405180830381865afa1580156108d2573d6000803e3d6000fd5b505050506040513d601f19601f820116820180604052508101906108f6919061125c565b101561091557604051634b8dc62f60e01b815260040160405180910390fd5b600080546001546040516305d3b1d360e41b8152600481019290925267ffffffffffffffff8116602483015261ffff68010000000000000000820416604483015263ffffffff600160501b820481166064840152600160701b9091041660848201526001600160a01b037f00000000000000000000000000000000000000000000000000000000000000001690635d3b1d309060a4016020604051808303816000875af11580156109ca573d6000803e3d6000fd5b505050506040513d601f19601f820116820180604052508101906109ee919061125c565b60008381526004602090815260408083208490556002825291829020805460ff1916600117905581518581529081018390529192507f7e98b3ec6c1048aecc121bab5e4f60246e245fa753dd90ed06dd85856cb027bd91016107ee565b60405163366653a960e01b81526001600160a01b0382811660048301526000917f00000000000000000000000000000000000000000000000000000000000000009091169063366653a990602401602060405180830381865afa158015610ab6573d6000803e3d6000fd5b505050506040513d601f19601f82011682018060405250810190610ada9190611275565b80610b6a5750604051630935e01b60e21b81526001600160a01b0383811660048301527f000000000000000000000000000000000000000000000000000000000000000016906324d7806c90602401602060405180830381865afa158015610b46573d6000803e3d6000fd5b505050506040513d601f19601f82011682018060405250810190610b6a9190611275565b92915050565b6107d060005260046020527fc5c871e6e1766cc2faf782feadc6438b2b94f0c35a5e05583da357a1abfecbde548203610bcb5761064981600081518110610bb957610bb961121d565b60200260200101516107d06005610cd8565b610fa060005260046020527fad127806d5aa4b2a86aa7da7e2de2e1b0382e3cbfb7d2cbe67e1b2b10efa06f4548203610c265761064981600081518110610c1457610c1461121d565b6020026020010151610fa06003610cd8565b61177060005260046020527fa6a408fc658bec0db0873ad998740790309551fceb3c4bbccd791adba15b3787548203610c815761064981600081518110610c6f57610c6f61121d565b60200260200101516117706001610cd8565b61271060005260046020527f8cc740d51daa94ff54f33bd779c2d20149f524c340519b49181be5a08615f8295482036106495761064981600081518110610cca57610cca61121d565b602002602001015161271060015b60008060007f00000000000000000000000000000000000000000000000000000000000000006001600160a01b03166373416c246040518163ffffffff1660e01b8152600401602060405180830381865afa158015610d3b573d6000803e3d6000fd5b505050506040513d601f19601f82011682018060405250810190610d5f919061125c565b90506000808567ffffffffffffffff811115610d7d57610d7d611090565b604051908082528060200260200182016040528015610da6578160200160208202803683370190505b5090505b85841015610f11576040805160208082018b905281830188905282518083038401815260609092019092528051910120610de5908490611297565b60405163356a77a960e21b8152600481018290529092506000906001600160a01b037f0000000000000000000000000000000000000000000000000000000000000000169063d5a9dea490602401602060405180830381865afa158015610e50573d6000803e3d6000fd5b505050506040513d601f19601f82011682018060405250810190610e7491906112b9565b6001600160a01b03811660009081526006602052604090205490915060ff16158015610ea65750610ea481610a4b565b155b15610f005780828681518110610ebe57610ebe61121d565b6001600160a01b039283166020918202929092018101919091529082166000908152600690915260409020805460ff19166001179055610efd856112d6565b94505b610f09866112d6565b955050610daa565b60008781526005602090815260409091208251610f3092840190611016565b5060008781526003602052604090819020805460ff19166001179055517fe4a1fde1ced4c727384dac7171de595b7aa9a8c79aba47f3e87913390543b20b90610f7c90899084906112ef565b60405180910390a1866107d00361100c576040516311013ba160e21b81526001600160a01b037f00000000000000000000000000000000000000000000000000000000000000001690634404ee8490610fd990849060040161120a565b600060405180830381600087803b158015610ff357600080fd5b505af1158015611007573d6000803e3d6000fd5b505050505b5050505050505050565b82805482825590600052602060002090810192821561106b579160200282015b8281111561106b57825182546001600160a01b0319166001600160a01b03909116178255602090920191600190910190611036565b5061107792915061107b565b5090565b5b80821115611077576000815560010161107c565b634e487b7160e01b600052604160045260246000fd5b600080604083850312156110b957600080fd5b8235915060208084013567ffffffffffffffff808211156110d957600080fd5b818601915086601f8301126110ed57600080fd5b8135818111156110ff576110ff611090565b8060051b604051601f19603f8301168101818110858211171561112457611124611090565b60405291825284820192508381018501918983111561114257600080fd5b938501935b8285101561116057843584529385019392850192611147565b8096505050505050509250929050565b60006020828403121561118257600080fd5b5035919050565b6001600160a01b038116811461119e57600080fd5b50565b6000602082840312156111b357600080fd5b81356111be81611189565b9392505050565b60008151808452602080850194506020840160005b838110156111ff5781516001600160a01b0316875295820195908201906001016111da565b509495945050505050565b6020815260006111be60208301846111c5565b634e487b7160e01b600052603260045260246000fd5b634e487b7160e01b600052601160045260246000fd5b80820180821115610b6a57610b6a611233565b60006020828403121561126e57600080fd5b5051919050565b60006020828403121561128757600080fd5b815180151581146111be57600080fd5b6000826112b457634e487b7160e01b600052601260045260246000fd5b500690565b6000602082840312156112cb57600080fd5b81516111be81611189565b6000600182016112e8576112e8611233565b5060010190565b82815260406020820152600061130860408301846111c5565b94935050505056fea26469706673582212200fa96f80f9fd4cf97edd5890c5f92958ae4a15b048fa6d84a446f333aa622dea64736f6c63430008170033","linkReferences":{}},"methodIdentifiers":{"GOVERNOR()":"6dc0ae22","ORC_NATION()":"5294f137","PAYMENT_SPLITTER()":"a5f0292b","VRF_COORDINATOR()":"05f6a924","claimRaffleWinnings()":"6599e831","drawRaffle(uint256)":"856a89fd","getRaffleWinners(uint256)":"4823b026","getRaffleWinnings(address)":"e5ed1324","hasClaimedWinnings(address)":"393047ea","isRaffleWinner(address)":"582219e7","isTeamMember(address)":"bbe9f99d","raffleComplete(uint256)":"35d68a8d","raffleDrawn(uint256)":"baee2100","rawFulfillRandomWords(uint256,uint256[])":"1fe543e3","receiveRafflePrize(uint256,uint256[])":"095c26e8","requestIds(uint256)":"8796ba8c"},"id":47}